{
  "address": "0xe840dd0Ac929826F10f3D171c72C500A50250F17",
  "abi": [
    {
      "inputs": [
        {
          "internalType": "address",
          "name": "_treasury",
          "type": "address"
        },
        {
          "internalType": "address",
          "name": "_resiToken",
          "type": "address"
        }
      ],
      "stateMutability": "nonpayable",
      "type": "constructor"
    },
    {
      "inputs": [],
      "name": "ERC1167FailedCreateClone",
      "type": "error"
    },
    {
      "inputs": [
        {
          "internalType": "address",
          "name": "adr",
          "type": "address"
        }
      ],
      "name": "InvalidAddress",
      "type": "error"
    },
    {
      "inputs": [
        {
          "internalType": "uint256",
          "name": "serieId",
          "type": "uint256"
        }
      ],
      "name": "InvalidSerie",
      "type": "error"
    },
    {
      "inputs": [
        {
          "internalType": "address",
          "name": "owner",
          "type": "address"
        }
      ],
      "name": "OwnableInvalidOwner",
      "type": "error"
    },
    {
      "inputs": [
        {
          "internalType": "address",
          "name": "account",
          "type": "address"
        }
      ],
      "name": "OwnableUnauthorizedAccount",
      "type": "error"
    },
    {
      "anonymous": false,
      "inputs": [
        {
          "indexed": true,
          "internalType": "address",
          "name": "previousOwner",
          "type": "address"
        },
        {
          "indexed": true,
          "internalType": "address",
          "name": "newOwner",
          "type": "address"
        }
      ],
      "name": "OwnershipTransferred",
      "type": "event"
    },
    {
      "anonymous": false,
      "inputs": [
        {
          "indexed": true,
          "internalType": "address",
          "name": "resiVault",
          "type": "address"
        }
      ],
      "name": "ResiVaultCreated",
      "type": "event"
    },
    {
      "anonymous": false,
      "inputs": [
        {
          "indexed": false,
          "internalType": "address",
          "name": "treasury",
          "type": "address"
        },
        {
          "indexed": false,
          "internalType": "address",
          "name": "resiToken",
          "type": "address"
        }
      ],
      "name": "ResiVaultFactoryInitialized",
      "type": "event"
    },
    {
      "inputs": [],
      "name": "RESI_TOKEN",
      "outputs": [
        {
          "internalType": "address",
          "name": "",
          "type": "address"
        }
      ],
      "stateMutability": "view",
      "type": "function"
    },
    {
      "inputs": [
        {
          "internalType": "address",
          "name": "_stableToken",
          "type": "address"
        },
        {
          "internalType": "uint256",
          "name": "_serieId",
          "type": "uint256"
        }
      ],
      "name": "createVault",
      "outputs": [
        {
          "internalType": "address",
          "name": "",
          "type": "address"
        }
      ],
      "stateMutability": "nonpayable",
      "type": "function"
    },
    {
      "inputs": [],
      "name": "getVaults",
      "outputs": [
        {
          "internalType": "contract ResiVault[]",
          "name": "",
          "type": "address[]"
        }
      ],
      "stateMutability": "view",
      "type": "function"
    },
    {
      "inputs": [],
      "name": "owner",
      "outputs": [
        {
          "internalType": "address",
          "name": "",
          "type": "address"
        }
      ],
      "stateMutability": "view",
      "type": "function"
    },
    {
      "inputs": [],
      "name": "renounceOwnership",
      "outputs": [],
      "stateMutability": "nonpayable",
      "type": "function"
    },
    {
      "inputs": [],
      "name": "resiVaultImplementation",
      "outputs": [
        {
          "internalType": "address",
          "name": "",
          "type": "address"
        }
      ],
      "stateMutability": "view",
      "type": "function"
    },
    {
      "inputs": [
        {
          "internalType": "uint256",
          "name": "",
          "type": "uint256"
        }
      ],
      "name": "resiVaults",
      "outputs": [
        {
          "internalType": "contract ResiVault",
          "name": "",
          "type": "address"
        }
      ],
      "stateMutability": "view",
      "type": "function"
    },
    {
      "inputs": [
        {
          "internalType": "address",
          "name": "newOwner",
          "type": "address"
        }
      ],
      "name": "transferOwnership",
      "outputs": [],
      "stateMutability": "nonpayable",
      "type": "function"
    }
  ],
  "transactionHash": "0x1d04773ddb851d10fde66344c0fcfdb37463a394f3186e2e8f1ea1b4ebcaa708",
  "args": [
    "0x93e17289445c6eC3b304225D6fE45Ed5716889Ae",
    "0x7Cf4d432F59e3Aa6D4d90a266Ce33EF06aFE96c1"
  ],
  "numDeployments": 1,
  "solcInputHash": "2a9e39ee82fb7d81ce97ad97a14324e5",
  "bytecode": "0x60c06040523480156200001157600080fd5b5060405162002da138038062002da18339818101604052810190620000379190620003b9565b81600073ffffffffffffffffffffffffffffffffffffffff168173ffffffffffffffffffffffffffffffffffffffff1603620000ad5760006040517f1e4fbdf7000000000000000000000000000000000000000000000000000000008152600401620000a4919062000411565b60405180910390fd5b620000be816200027d60201b60201c565b50600073ffffffffffffffffffffffffffffffffffffffff168273ffffffffffffffffffffffffffffffffffffffff16036200013357816040517f8e4c8aa60000000000000000000000000000000000000000000000000000000081526004016200012a919062000411565b60405180910390fd5b600073ffffffffffffffffffffffffffffffffffffffff168173ffffffffffffffffffffffffffffffffffffffff1603620001a757806040517f8e4c8aa60000000000000000000000000000000000000000000000000000000081526004016200019e919062000411565b60405180910390fd5b604051620001b59062000341565b604051809103906000f080158015620001d2573d6000803e3d6000fd5b5073ffffffffffffffffffffffffffffffffffffffff1660808173ffffffffffffffffffffffffffffffffffffffff16815250508073ffffffffffffffffffffffffffffffffffffffff1660a08173ffffffffffffffffffffffffffffffffffffffff16815250507f9641f12a5fe97f5a1c0a2413678e8df460193625ca267f16c4f6a19ed0fa1c7682826040516200026d9291906200042e565b60405180910390a150506200045b565b60008060009054906101000a900473ffffffffffffffffffffffffffffffffffffffff169050816000806101000a81548173ffffffffffffffffffffffffffffffffffffffff021916908373ffffffffffffffffffffffffffffffffffffffff1602179055508173ffffffffffffffffffffffffffffffffffffffff168173ffffffffffffffffffffffffffffffffffffffff167f8be0079c531659141344cd1fd0a4f28419497f9722a3daafe3b4186f6b6457e060405160405180910390a35050565b611e1a8062000f8783390190565b600080fd5b600073ffffffffffffffffffffffffffffffffffffffff82169050919050565b6000620003818262000354565b9050919050565b620003938162000374565b81146200039f57600080fd5b50565b600081519050620003b38162000388565b92915050565b60008060408385031215620003d357620003d26200034f565b5b6000620003e385828601620003a2565b9250506020620003f685828601620003a2565b9150509250929050565b6200040b8162000374565b82525050565b600060208201905062000428600083018462000400565b92915050565b600060408201905062000445600083018562000400565b62000454602083018462000400565b9392505050565b60805160a051610af86200048f6000396000818161036b01526104a301526000818161031f01526104f00152610af86000f3fe608060405234801561001057600080fd5b50600436106100885760003560e01c80637e8625fd1161005b5780637e8625fd146101155780638da5cb5b146101335780638ea5959814610151578063f2fde38b1461016f57610088565b8063387025e11461008d57806344d00f82146100bd5780635f76dfc0146100db578063715018a61461010b575b600080fd5b6100a760048036038101906100a291906107d7565b61018b565b6040516100b49190610883565b60405180910390f35b6100c56101ca565b6040516100d2919061095c565b60405180910390f35b6100f560048036038101906100f091906109bc565b610258565b6040516101029190610a0b565b60405180910390f35b61011361048d565b005b61011d6104a1565b60405161012a9190610a0b565b60405180910390f35b61013b6104c5565b6040516101489190610a0b565b60405180910390f35b6101596104ee565b6040516101669190610a0b565b60405180910390f35b61018960048036038101906101849190610a26565b610512565b005b6001818154811061019b57600080fd5b906000526020600020016000915054906101000a900473ffffffffffffffffffffffffffffffffffffffff1681565b6060600180548060200260200160405190810160405280929190818152602001828054801561024e57602002820191906000526020600020905b8160009054906101000a900473ffffffffffffffffffffffffffffffffffffffff1673ffffffffffffffffffffffffffffffffffffffff1681526020019060010190808311610204575b5050505050905090565b6000610262610598565b600073ffffffffffffffffffffffffffffffffffffffff168373ffffffffffffffffffffffffffffffffffffffff16036102d357826040517f8e4c8aa60000000000000000000000000000000000000000000000000000000081526004016102ca9190610a0b565b60405180910390fd5b6000820361031857816040517f8374bf3500000000000000000000000000000000000000000000000000000000815260040161030f9190610a62565b60405180910390fd5b60006103437f000000000000000000000000000000000000000000000000000000000000000061061f565b90508073ffffffffffffffffffffffffffffffffffffffff1663cf756fdf6103696106d0565b7f000000000000000000000000000000000000000000000000000000000000000087876040518563ffffffff1660e01b81526004016103ab9493929190610a7d565b600060405180830381600087803b1580156103c557600080fd5b505af11580156103d9573d6000803e3d6000fd5b505050506001819080600181540180825580915050600190039060005260206000200160009091909190916101000a81548173ffffffffffffffffffffffffffffffffffffffff021916908373ffffffffffffffffffffffffffffffffffffffff1602179055508073ffffffffffffffffffffffffffffffffffffffff167f12e11036c135cac01451b3f86f076eec9a25a55cf91b3046df31c9a44151dcd460405160405180910390a28091505092915050565b610495610598565b61049f60006106d8565b565b7f000000000000000000000000000000000000000000000000000000000000000081565b60008060009054906101000a900473ffffffffffffffffffffffffffffffffffffffff16905090565b7f000000000000000000000000000000000000000000000000000000000000000081565b61051a610598565b600073ffffffffffffffffffffffffffffffffffffffff168173ffffffffffffffffffffffffffffffffffffffff160361058c5760006040517f1e4fbdf70000000000000000000000000000000000000000000000000000000081526004016105839190610a0b565b60405180910390fd5b610595816106d8565b50565b6105a06106d0565b73ffffffffffffffffffffffffffffffffffffffff166105be6104c5565b73ffffffffffffffffffffffffffffffffffffffff161461061d576105e16106d0565b6040517f118cdaa70000000000000000000000000000000000000000000000000000000081526004016106149190610a0b565b60405180910390fd5b565b6000763d602d80600a3d3981f3363d3d373d3d3d363d730000008260601b60e81c176000526e5af43d82803e903d91602b57fd5bf38260781b17602052603760096000f09050600073ffffffffffffffffffffffffffffffffffffffff168173ffffffffffffffffffffffffffffffffffffffff16036106cb576040517fc2f868f400000000000000000000000000000000000000000000000000000000815260040160405180910390fd5b919050565b600033905090565b60008060009054906101000a900473ffffffffffffffffffffffffffffffffffffffff169050816000806101000a81548173ffffffffffffffffffffffffffffffffffffffff021916908373ffffffffffffffffffffffffffffffffffffffff1602179055508173ffffffffffffffffffffffffffffffffffffffff168173ffffffffffffffffffffffffffffffffffffffff167f8be0079c531659141344cd1fd0a4f28419497f9722a3daafe3b4186f6b6457e060405160405180910390a35050565b600080fd5b6000819050919050565b6107b4816107a1565b81146107bf57600080fd5b50565b6000813590506107d1816107ab565b92915050565b6000602082840312156107ed576107ec61079c565b5b60006107fb848285016107c2565b91505092915050565b600073ffffffffffffffffffffffffffffffffffffffff82169050919050565b6000819050919050565b600061084961084461083f84610804565b610824565b610804565b9050919050565b600061085b8261082e565b9050919050565b600061086d82610850565b9050919050565b61087d81610862565b82525050565b60006020820190506108986000830184610874565b92915050565b600081519050919050565b600082825260208201905092915050565b6000819050602082019050919050565b6108d381610862565b82525050565b60006108e583836108ca565b60208301905092915050565b6000602082019050919050565b60006109098261089e565b61091381856108a9565b935061091e836108ba565b8060005b8381101561094f57815161093688826108d9565b9750610941836108f1565b925050600181019050610922565b5085935050505092915050565b6000602082019050818103600083015261097681846108fe565b905092915050565b600061098982610804565b9050919050565b6109998161097e565b81146109a457600080fd5b50565b6000813590506109b681610990565b92915050565b600080604083850312156109d3576109d261079c565b5b60006109e1858286016109a7565b92505060206109f2858286016107c2565b9150509250929050565b610a058161097e565b82525050565b6000602082019050610a2060008301846109fc565b92915050565b600060208284031215610a3c57610a3b61079c565b5b6000610a4a848285016109a7565b91505092915050565b610a5c816107a1565b82525050565b6000602082019050610a776000830184610a53565b92915050565b6000608082019050610a9260008301876109fc565b610a9f60208301866109fc565b610aac60408301856109fc565b610ab96060830184610a53565b9594505050505056fea2646970667358221220beb819b03c1e72468a103bd381b274129c66aacd0a14149f7575b197eb38c39964736f6c6343000814003360806040523480156200001157600080fd5b50620000226200002860201b60201c565b6200019c565b60006200003a6200013260201b60201c565b90508060000160089054906101000a900460ff161562000086576040517ff92ee8a900000000000000000000000000000000000000000000000000000000815260040160405180910390fd5b67ffffffffffffffff80168160000160009054906101000a900467ffffffffffffffff1667ffffffffffffffff16146200012f5767ffffffffffffffff8160000160006101000a81548167ffffffffffffffff021916908367ffffffffffffffff1602179055507fc7f505b2f371ae2175ee4913f4499e1f2633a7b5936321eed1cdaeb6115181d267ffffffffffffffff6040516200012691906200017f565b60405180910390a15b50565b60007ff0c57e16840df040f15088dc2f81fe391c3923bec73e23a9662efc9c229c6a00905090565b600067ffffffffffffffff82169050919050565b62000179816200015a565b82525050565b60006020820190506200019660008301846200016e565b92915050565b611c6e80620001ac6000396000f3fe608060405234801561001057600080fd5b50600436106100cf5760003560e01c80638da5cb5b1161008c578063bf4dc22f11610066578063bf4dc22f146101f2578063cf756fdf1461020e578063f297be661461022a578063f2fde38b14610246576100cf565b80638da5cb5b14610174578063902b57e814610192578063af024b10146101c2576100cf565b806354fd4d50146100d457806362757451146100f2578063687a2b1e14610110578063715018a61461012e5780637754f887146101385780637e8625fd14610156575b600080fd5b6100dc610262565b6040516100e991906116c3565b60405180910390f35b6100fa61029f565b60405161010791906116fe565b60405180910390f35b610118610342565b60405161012591906116fe565b60405180910390f35b610136610348565b005b61014061035c565b60405161014d919061175a565b60405180910390f35b61015e610382565b60405161016b919061175a565b60405180910390f35b61017c6103a8565b604051610189919061175a565b60405180910390f35b6101ac60048036038101906101a791906117a6565b6103e0565b6040516101b991906116fe565b60405180910390f35b6101dc60048036038101906101d791906117ff565b610668565b6040516101e991906116fe565b60405180910390f35b61020c600480360381019061020791906117a6565b610735565b005b6102286004803603810190610223919061183f565b610853565b005b610244600480360381019061023f91906118a6565b610c51565b005b610260600480360381019061025b91906117a6565b610f81565b005b60606040518060400160405280600581526020017f312e302e30000000000000000000000000000000000000000000000000000000815250905090565b6000600160009054906101000a900473ffffffffffffffffffffffffffffffffffffffff1673ffffffffffffffffffffffffffffffffffffffff166370a08231306040518263ffffffff1660e01b81526004016102fc919061175a565b602060405180830381865afa158015610319573d6000803e3d6000fd5b505050506040513d601f19601f8201168201806040525081019061033d919061190e565b905090565b60005481565b610350611007565b61035a600061108e565b565b600160009054906101000a900473ffffffffffffffffffffffffffffffffffffffff1681565b600260009054906101000a900473ffffffffffffffffffffffffffffffffffffffff1681565b6000806103b3611165565b90508060000160009054906101000a900473ffffffffffffffffffffffffffffffffffffffff1691505090565b6000600260009054906101000a900473ffffffffffffffffffffffffffffffffffffffff1673ffffffffffffffffffffffffffffffffffffffff1661042361118d565b73ffffffffffffffffffffffffffffffffffffffff1614610479576040517f08c379a000000000000000000000000000000000000000000000000000000000815260040161047090611987565b60405180910390fd5b6104816103a8565b73ffffffffffffffffffffffffffffffffffffffff168273ffffffffffffffffffffffffffffffffffffffff16146104f057816040517f8e4c8aa60000000000000000000000000000000000000000000000000000000081526004016104e7919061175a565b60405180910390fd5b6000600160009054906101000a900473ffffffffffffffffffffffffffffffffffffffff1673ffffffffffffffffffffffffffffffffffffffff166370a08231306040518263ffffffff1660e01b815260040161054d919061175a565b602060405180830381865afa15801561056a573d6000803e3d6000fd5b505050506040513d601f19601f8201168201806040525081019061058e919061190e565b90506000811115610626576105e68382600160009054906101000a900473ffffffffffffffffffffffffffffffffffffffff1673ffffffffffffffffffffffffffffffffffffffff166111959092919063ffffffff16565b7fdf080955627758b6e128ee905c36b12847590dde692192d9ec76a818687be3bc8160405161061591906116fe565b60405180910390a180915050610663565b806040517ff4b3e4dd00000000000000000000000000000000000000000000000000000000815260040161065a91906116fe565b60405180910390fd5b919050565b600080820361067a576000905061072f565b81600160009054906101000a900473ffffffffffffffffffffffffffffffffffffffff1673ffffffffffffffffffffffffffffffffffffffff166370a08231306040518263ffffffff1660e01b81526004016106d6919061175a565b602060405180830381865afa1580156106f3573d6000803e3d6000fd5b505050506040513d601f19601f82011682018060405250810190610717919061190e565b8461072291906119d6565b61072c9190611a47565b90505b92915050565b61073d611007565b600073ffffffffffffffffffffffffffffffffffffffff168173ffffffffffffffffffffffffffffffffffffffff16036107ae57806040517f8e4c8aa60000000000000000000000000000000000000000000000000000000081526004016107a5919061175a565b60405180910390fd5b6000600160009054906101000a900473ffffffffffffffffffffffffffffffffffffffff16905081600160006101000a81548173ffffffffffffffffffffffffffffffffffffffff021916908373ffffffffffffffffffffffffffffffffffffffff1602179055507f7ed57bc332a9e79d8bfbd7a5d377269199e8c9dc9635ee1a5183558de3370e628183604051610847929190611a78565b60405180910390a15050565b600061085d611214565b905060008160000160089054906101000a900460ff1615905060008260000160009054906101000a900467ffffffffffffffff1690506000808267ffffffffffffffff161480156108ab5750825b9050600060018367ffffffffffffffff161480156108e0575060003073ffffffffffffffffffffffffffffffffffffffff163b145b9050811580156108ee575080155b15610925576040517ff92ee8a900000000000000000000000000000000000000000000000000000000815260040160405180910390fd5b60018560000160006101000a81548167ffffffffffffffff021916908367ffffffffffffffff16021790555083156109755760018560000160086101000a81548160ff0219169083151502179055505b600073ffffffffffffffffffffffffffffffffffffffff168973ffffffffffffffffffffffffffffffffffffffff16036109e657886040517f8e4c8aa60000000000000000000000000000000000000000000000000000000081526004016109dd919061175a565b60405180910390fd5b600073ffffffffffffffffffffffffffffffffffffffff168873ffffffffffffffffffffffffffffffffffffffff1603610a5757876040517f8e4c8aa6000000000000000000000000000000000000000000000000000000008152600401610a4e919061175a565b60405180910390fd5b600073ffffffffffffffffffffffffffffffffffffffff168773ffffffffffffffffffffffffffffffffffffffff1603610ac857866040517f8e4c8aa6000000000000000000000000000000000000000000000000000000008152600401610abf919061175a565b60405180910390fd5b60008603610b0d57856040517f8374bf35000000000000000000000000000000000000000000000000000000008152600401610b0491906116fe565b60405180910390fd5b610b1561123c565b610b1e89611246565b610b266112cc565b87600260006101000a81548173ffffffffffffffffffffffffffffffffffffffff021916908373ffffffffffffffffffffffffffffffffffffffff16021790555086600160006101000a81548173ffffffffffffffffffffffffffffffffffffffff021916908373ffffffffffffffffffffffffffffffffffffffff160217905550856000819055507fd6c06db7a61ec787be9ecea9513826022b77a34d3183d3edf53e760e5538711d888888604051610be293929190611aa1565b60405180910390a18315610c465760008560000160086101000a81548160ff0219169083151502179055507fc7f505b2f371ae2175ee4913f4499e1f2633a7b5936321eed1cdaeb6115181d26001604051610c3d9190611b31565b60405180910390a15b505050505050505050565b600260009054906101000a900473ffffffffffffffffffffffffffffffffffffffff1673ffffffffffffffffffffffffffffffffffffffff16610c9261118d565b73ffffffffffffffffffffffffffffffffffffffff1614610ce8576040517f08c379a0000000000000000000000000000000000000000000000000000000008152600401610cdf90611987565b60405180910390fd5b610cf06112ed565b600073ffffffffffffffffffffffffffffffffffffffff168373ffffffffffffffffffffffffffffffffffffffff1603610d6157826040517f8e4c8aa6000000000000000000000000000000000000000000000000000000008152600401610d58919061175a565b60405180910390fd5b60008203610da657816040517f5a0e42a6000000000000000000000000000000000000000000000000000000008152600401610d9d91906116fe565b60405180910390fd5b60008103610deb57806040517fc25d2416000000000000000000000000000000000000000000000000000000008152600401610de291906116fe565b60405180910390fd5b6000610df78383610668565b905080600160009054906101000a900473ffffffffffffffffffffffffffffffffffffffff1673ffffffffffffffffffffffffffffffffffffffff166370a08231306040518263ffffffff1660e01b8152600401610e55919061175a565b602060405180830381865afa158015610e72573d6000803e3d6000fd5b505050506040513d601f19601f82011682018060405250810190610e96919061190e565b11610ed857806040517f64001b55000000000000000000000000000000000000000000000000000000008152600401610ecf91906116fe565b60405180910390fd5b610f258482600160009054906101000a900473ffffffffffffffffffffffffffffffffffffffff1673ffffffffffffffffffffffffffffffffffffffff166111959092919063ffffffff16565b8373ffffffffffffffffffffffffffffffffffffffff167f9cf9e3ab58b33f06d81842ea0ad850b6640c6430d6396973312e1715792e7a9182604051610f6b91906116fe565b60405180910390a250610f7c611344565b505050565b610f89611007565b600073ffffffffffffffffffffffffffffffffffffffff168173ffffffffffffffffffffffffffffffffffffffff1603610ffb5760006040517f1e4fbdf7000000000000000000000000000000000000000000000000000000008152600401610ff2919061175a565b60405180910390fd5b6110048161108e565b50565b61100f61118d565b73ffffffffffffffffffffffffffffffffffffffff1661102d6103a8565b73ffffffffffffffffffffffffffffffffffffffff161461108c5761105061118d565b6040517f118cdaa7000000000000000000000000000000000000000000000000000000008152600401611083919061175a565b60405180910390fd5b565b6000611098611165565b905060008160000160009054906101000a900473ffffffffffffffffffffffffffffffffffffffff169050828260000160006101000a81548173ffffffffffffffffffffffffffffffffffffffff021916908373ffffffffffffffffffffffffffffffffffffffff1602179055508273ffffffffffffffffffffffffffffffffffffffff168173ffffffffffffffffffffffffffffffffffffffff167f8be0079c531659141344cd1fd0a4f28419497f9722a3daafe3b4186f6b6457e060405160405180910390a3505050565b60007f9016d09d72d40fdae2fd8ceac6b6234c7706214fd39c1cd1e609a0528c199300905090565b600033905090565b61120f838473ffffffffffffffffffffffffffffffffffffffff1663a9059cbb85856040516024016111c8929190611b4c565b604051602081830303815290604052915060e01b6020820180517bffffffffffffffffffffffffffffffffffffffffffffffffffffffff838183161783525050505061135d565b505050565b60007ff0c57e16840df040f15088dc2f81fe391c3923bec73e23a9662efc9c229c6a00905090565b6112446113f4565b565b61124e6113f4565b600073ffffffffffffffffffffffffffffffffffffffff168173ffffffffffffffffffffffffffffffffffffffff16036112c05760006040517f1e4fbdf70000000000000000000000000000000000000000000000000000000081526004016112b7919061175a565b60405180910390fd5b6112c98161108e565b50565b6112d46113f4565b60006112de611434565b90506001816000018190555050565b60006112f7611434565b90506002816000015403611337576040517f3ee5aeb500000000000000000000000000000000000000000000000000000000815260040160405180910390fd5b6002816000018190555050565b600061134e611434565b90506001816000018190555050565b6000611388828473ffffffffffffffffffffffffffffffffffffffff1661145c90919063ffffffff16565b905060008151141580156113ad5750808060200190518101906113ab9190611bad565b155b156113ef57826040517f5274afe70000000000000000000000000000000000000000000000000000000081526004016113e6919061175a565b60405180910390fd5b505050565b6113fc611472565b611432576040517fd7e6bcf800000000000000000000000000000000000000000000000000000000815260040160405180910390fd5b565b60007f9b779b17422d0df92223018b32b4d1fa46e071723d6817e2486d003becc55f00905090565b606061146a83836000611492565b905092915050565b600061147c611214565b60000160089054906101000a900460ff16905090565b6060814710156114d957306040517fcd7860590000000000000000000000000000000000000000000000000000000081526004016114d0919061175a565b60405180910390fd5b6000808573ffffffffffffffffffffffffffffffffffffffff1684866040516115029190611c21565b60006040518083038185875af1925050503d806000811461153f576040519150601f19603f3d011682016040523d82523d6000602084013e611544565b606091505b509150915061155486838361155f565b925050509392505050565b6060826115745761156f826115ee565b6115e6565b6000825114801561159c575060008473ffffffffffffffffffffffffffffffffffffffff163b145b156115de57836040517f9996b3150000000000000000000000000000000000000000000000000000000081526004016115d5919061175a565b60405180910390fd5b8190506115e7565b5b9392505050565b6000815111156116015780518082602001fd5b6040517f1425ea4200000000000000000000000000000000000000000000000000000000815260040160405180910390fd5b600081519050919050565b600082825260208201905092915050565b60005b8381101561166d578082015181840152602081019050611652565b60008484015250505050565b6000601f19601f8301169050919050565b600061169582611633565b61169f818561163e565b93506116af81856020860161164f565b6116b881611679565b840191505092915050565b600060208201905081810360008301526116dd818461168a565b905092915050565b6000819050919050565b6116f8816116e5565b82525050565b600060208201905061171360008301846116ef565b92915050565b600073ffffffffffffffffffffffffffffffffffffffff82169050919050565b600061174482611719565b9050919050565b61175481611739565b82525050565b600060208201905061176f600083018461174b565b92915050565b600080fd5b61178381611739565b811461178e57600080fd5b50565b6000813590506117a08161177a565b92915050565b6000602082840312156117bc576117bb611775565b5b60006117ca84828501611791565b91505092915050565b6117dc816116e5565b81146117e757600080fd5b50565b6000813590506117f9816117d3565b92915050565b6000806040838503121561181657611815611775565b5b6000611824858286016117ea565b9250506020611835858286016117ea565b9150509250929050565b6000806000806080858703121561185957611858611775565b5b600061186787828801611791565b945050602061187887828801611791565b935050604061188987828801611791565b925050606061189a878288016117ea565b91505092959194509250565b6000806000606084860312156118bf576118be611775565b5b60006118cd86828701611791565b93505060206118de868287016117ea565b92505060406118ef868287016117ea565b9150509250925092565b600081519050611908816117d3565b92915050565b60006020828403121561192457611923611775565b5b6000611932848285016118f9565b91505092915050565b7f524553495661756c743a204f4e4c59205245534920544f4b454e000000000000600082015250565b6000611971601a8361163e565b915061197c8261193b565b602082019050919050565b600060208201905081810360008301526119a081611964565b9050919050565b7f4e487b7100000000000000000000000000000000000000000000000000000000600052601160045260246000fd5b60006119e1826116e5565b91506119ec836116e5565b92508282026119fa816116e5565b91508282048414831517611a1157611a106119a7565b5b5092915050565b7f4e487b7100000000000000000000000000000000000000000000000000000000600052601260045260246000fd5b6000611a52826116e5565b9150611a5d836116e5565b925082611a6d57611a6c611a18565b5b828204905092915050565b6000604082019050611a8d600083018561174b565b611a9a602083018461174b565b9392505050565b6000606082019050611ab6600083018661174b565b611ac3602083018561174b565b611ad060408301846116ef565b949350505050565b6000819050919050565b600067ffffffffffffffff82169050919050565b6000819050919050565b6000611b1b611b16611b1184611ad8565b611af6565b611ae2565b9050919050565b611b2b81611b00565b82525050565b6000602082019050611b466000830184611b22565b92915050565b6000604082019050611b61600083018561174b565b611b6e60208301846116ef565b9392505050565b60008115159050919050565b611b8a81611b75565b8114611b9557600080fd5b50565b600081519050611ba781611b81565b92915050565b600060208284031215611bc357611bc2611775565b5b6000611bd184828501611b98565b91505092915050565b600081519050919050565b600081905092915050565b6000611bfb82611bda565b611c058185611be5565b9350611c1581856020860161164f565b80840191505092915050565b6000611c2d8284611bf0565b91508190509291505056fea2646970667358221220a526424b95214dabe05a1b372dabc5bb22d1f688d0740ccc8e634189d71250ba64736f6c63430008140033",
  "devdoc": {
    "errors": {
      "ERC1167FailedCreateClone()": [
        {
          "details": "A clone instance deployment failed."
        }
      ],
      "OwnableInvalidOwner(address)": [
        {
          "details": "The owner is not a valid owner account. (eg. `address(0)`)"
        }
      ],
      "OwnableUnauthorizedAccount(address)": [
        {
          "details": "The caller account is not authorized to perform an operation."
        }
      ]
    },
    "kind": "dev",
    "methods": {
      "constructor": {
        "details": "Initialize contract",
        "params": {
          "_resiToken": "Resi token address.",
          "_treasury": "treasury address."
        }
      },
      "createVault(address,uint256)": {
        "details": "Create Resi Vault.",
        "params": {
          "_serieId": "Serie id.",
          "_stableToken": "stable token address."
        }
      },
      "getVaults()": {
        "details": "get list of created vaults."
      },
      "owner()": {
        "details": "Returns the address of the current owner."
      },
      "renounceOwnership()": {
        "details": "Leaves the contract without owner. It will not be possible to call `onlyOwner` functions. Can only be called by the current owner. NOTE: Renouncing ownership will leave the contract without an owner, thereby disabling any functionality that is only available to the owner."
      },
      "transferOwnership(address)": {
        "details": "Transfers ownership of the contract to a new account (`newOwner`). Can only be called by the current owner."
      }
    },
    "stateVariables": {
      "RESI_TOKEN": {
        "details": "Resi token contract."
      },
      "resiVaultImplementation": {
        "details": "Wrapped Token implementation"
      },
      "resiVaults": {
        "details": "List of Resi Vaults"
      }
    },
    "version": 1
  },
  "userdoc": {
    "kind": "user",
    "methods": {},
    "version": 1
  },
  "storageLayout": {
    "storage": [
      {
        "astId": 2523,
        "contract": "contracts/ResiVaultFactory.sol:ResiVaultFactory",
        "label": "_owner",
        "offset": 0,
        "slot": "0",
        "type": "t_address"
      },
      {
        "astId": 6400,
        "contract": "contracts/ResiVaultFactory.sol:ResiVaultFactory",
        "label": "resiVaults",
        "offset": 0,
        "slot": "1",
        "type": "t_array(t_contract(ResiVault)6375)dyn_storage"
      }
    ],
    "types": {
      "t_address": {
        "encoding": "inplace",
        "label": "address",
        "numberOfBytes": "20"
      },
      "t_array(t_contract(ResiVault)6375)dyn_storage": {
        "base": "t_contract(ResiVault)6375",
        "encoding": "dynamic_array",
        "label": "contract ResiVault[]",
        "numberOfBytes": "32"
      },
      "t_contract(ResiVault)6375": {
        "encoding": "inplace",
        "label": "contract ResiVault",
        "numberOfBytes": "20"
      }
    }
  }
}