{
  "address": "0xCF2DE3A2f83aFD33a904897BcC5fa01166b2fFe9",
  "abi": [
    {
      "inputs": [],
      "stateMutability": "nonpayable",
      "type": "constructor"
    },
    {
      "inputs": [],
      "name": "AccessControlBadConfirmation",
      "type": "error"
    },
    {
      "inputs": [
        {
          "internalType": "address",
          "name": "account",
          "type": "address"
        },
        {
          "internalType": "bytes32",
          "name": "neededRole",
          "type": "bytes32"
        }
      ],
      "name": "AccessControlUnauthorizedAccount",
      "type": "error"
    },
    {
      "inputs": [
        {
          "internalType": "address",
          "name": "builder",
          "type": "address"
        }
      ],
      "name": "AlreadyBuilder",
      "type": "error"
    },
    {
      "inputs": [],
      "name": "BurnForbbidden",
      "type": "error"
    },
    {
      "inputs": [
        {
          "internalType": "address",
          "name": "spender",
          "type": "address"
        },
        {
          "internalType": "uint256",
          "name": "allowance",
          "type": "uint256"
        },
        {
          "internalType": "uint256",
          "name": "needed",
          "type": "uint256"
        }
      ],
      "name": "ERC20InsufficientAllowance",
      "type": "error"
    },
    {
      "inputs": [
        {
          "internalType": "address",
          "name": "sender",
          "type": "address"
        },
        {
          "internalType": "uint256",
          "name": "balance",
          "type": "uint256"
        },
        {
          "internalType": "uint256",
          "name": "needed",
          "type": "uint256"
        }
      ],
      "name": "ERC20InsufficientBalance",
      "type": "error"
    },
    {
      "inputs": [
        {
          "internalType": "address",
          "name": "approver",
          "type": "address"
        }
      ],
      "name": "ERC20InvalidApprover",
      "type": "error"
    },
    {
      "inputs": [
        {
          "internalType": "address",
          "name": "receiver",
          "type": "address"
        }
      ],
      "name": "ERC20InvalidReceiver",
      "type": "error"
    },
    {
      "inputs": [
        {
          "internalType": "address",
          "name": "sender",
          "type": "address"
        }
      ],
      "name": "ERC20InvalidSender",
      "type": "error"
    },
    {
      "inputs": [
        {
          "internalType": "address",
          "name": "spender",
          "type": "address"
        }
      ],
      "name": "ERC20InvalidSpender",
      "type": "error"
    },
    {
      "inputs": [],
      "name": "EnforcedPause",
      "type": "error"
    },
    {
      "inputs": [],
      "name": "ExpectedPause",
      "type": "error"
    },
    {
      "inputs": [
        {
          "internalType": "address",
          "name": "adr",
          "type": "address"
        }
      ],
      "name": "InvalidAddress",
      "type": "error"
    },
    {
      "inputs": [
        {
          "internalType": "uint256",
          "name": "amount",
          "type": "uint256"
        }
      ],
      "name": "InvalidAmount",
      "type": "error"
    },
    {
      "inputs": [
        {
          "internalType": "address",
          "name": "builder",
          "type": "address"
        }
      ],
      "name": "InvalidBuilder",
      "type": "error"
    },
    {
      "inputs": [
        {
          "internalType": "uint8",
          "name": "decimals",
          "type": "uint8"
        }
      ],
      "name": "InvalidDecimals",
      "type": "error"
    },
    {
      "inputs": [],
      "name": "InvalidInitialization",
      "type": "error"
    },
    {
      "inputs": [
        {
          "internalType": "uint256",
          "name": "userBalance",
          "type": "uint256"
        },
        {
          "internalType": "uint256",
          "name": "serieSupplies",
          "type": "uint256"
        },
        {
          "internalType": "uint256",
          "name": "quote",
          "type": "uint256"
        }
      ],
      "name": "InvalidQuote",
      "type": "error"
    },
    {
      "inputs": [
        {
          "internalType": "uint256",
          "name": "serieId",
          "type": "uint256"
        }
      ],
      "name": "InvalidSerie",
      "type": "error"
    },
    {
      "inputs": [
        {
          "internalType": "uint256",
          "name": "serieId",
          "type": "uint256"
        },
        {
          "internalType": "address",
          "name": "vault",
          "type": "address"
        }
      ],
      "name": "InvalidSerieVault",
      "type": "error"
    },
    {
      "inputs": [
        {
          "internalType": "uint256",
          "name": "amount",
          "type": "uint256"
        }
      ],
      "name": "InvalidUserSerieBalance",
      "type": "error"
    },
    {
      "inputs": [
        {
          "internalType": "address",
          "name": "vault",
          "type": "address"
        }
      ],
      "name": "InvalidVault",
      "type": "error"
    },
    {
      "inputs": [],
      "name": "NotInitializing",
      "type": "error"
    },
    {
      "inputs": [],
      "name": "ReentrancyGuardReentrantCall",
      "type": "error"
    },
    {
      "inputs": [
        {
          "internalType": "uint256",
          "name": "serieId",
          "type": "uint256"
        }
      ],
      "name": "SerieWithNoMintedSupply",
      "type": "error"
    },
    {
      "inputs": [
        {
          "internalType": "string",
          "name": "message",
          "type": "string"
        }
      ],
      "name": "TransferForbidden",
      "type": "error"
    },
    {
      "inputs": [
        {
          "internalType": "string",
          "name": "message",
          "type": "string"
        }
      ],
      "name": "TransferFromForbidden",
      "type": "error"
    },
    {
      "anonymous": false,
      "inputs": [
        {
          "indexed": true,
          "internalType": "address",
          "name": "owner",
          "type": "address"
        },
        {
          "indexed": true,
          "internalType": "address",
          "name": "spender",
          "type": "address"
        },
        {
          "indexed": false,
          "internalType": "uint256",
          "name": "value",
          "type": "uint256"
        }
      ],
      "name": "Approval",
      "type": "event"
    },
    {
      "anonymous": false,
      "inputs": [
        {
          "indexed": false,
          "internalType": "address",
          "name": "newMinter",
          "type": "address"
        }
      ],
      "name": "BuilderAdded",
      "type": "event"
    },
    {
      "anonymous": false,
      "inputs": [
        {
          "indexed": false,
          "internalType": "address",
          "name": "builder",
          "type": "address"
        }
      ],
      "name": "BuilderRemoved",
      "type": "event"
    },
    {
      "anonymous": false,
      "inputs": [
        {
          "indexed": true,
          "internalType": "address",
          "name": "user",
          "type": "address"
        },
        {
          "indexed": false,
          "internalType": "uint256",
          "name": "amount",
          "type": "uint256"
        },
        {
          "indexed": false,
          "internalType": "uint256",
          "name": "serieId",
          "type": "uint256"
        }
      ],
      "name": "Exit",
      "type": "event"
    },
    {
      "anonymous": false,
      "inputs": [
        {
          "indexed": false,
          "internalType": "bool",
          "name": "update",
          "type": "bool"
        }
      ],
      "name": "ExitStateUpdated",
      "type": "event"
    },
    {
      "anonymous": false,
      "inputs": [
        {
          "indexed": false,
          "internalType": "uint64",
          "name": "version",
          "type": "uint64"
        }
      ],
      "name": "Initialized",
      "type": "event"
    },
    {
      "anonymous": false,
      "inputs": [
        {
          "indexed": false,
          "internalType": "address",
          "name": "account",
          "type": "address"
        }
      ],
      "name": "Paused",
      "type": "event"
    },
    {
      "anonymous": false,
      "inputs": [
        {
          "indexed": false,
          "internalType": "uint256",
          "name": "value",
          "type": "uint256"
        },
        {
          "indexed": false,
          "internalType": "uint256",
          "name": "serieId",
          "type": "uint256"
        }
      ],
      "name": "ResiTokenBurnt",
      "type": "event"
    },
    {
      "anonymous": false,
      "inputs": [
        {
          "indexed": false,
          "internalType": "address",
          "name": "treasury",
          "type": "address"
        },
        {
          "indexed": false,
          "internalType": "uint8",
          "name": "decimals",
          "type": "uint8"
        }
      ],
      "name": "ResiTokenInitialized",
      "type": "event"
    },
    {
      "anonymous": false,
      "inputs": [
        {
          "indexed": true,
          "internalType": "bytes32",
          "name": "role",
          "type": "bytes32"
        },
        {
          "indexed": true,
          "internalType": "bytes32",
          "name": "previousAdminRole",
          "type": "bytes32"
        },
        {
          "indexed": true,
          "internalType": "bytes32",
          "name": "newAdminRole",
          "type": "bytes32"
        }
      ],
      "name": "RoleAdminChanged",
      "type": "event"
    },
    {
      "anonymous": false,
      "inputs": [
        {
          "indexed": true,
          "internalType": "bytes32",
          "name": "role",
          "type": "bytes32"
        },
        {
          "indexed": true,
          "internalType": "address",
          "name": "account",
          "type": "address"
        },
        {
          "indexed": true,
          "internalType": "address",
          "name": "sender",
          "type": "address"
        }
      ],
      "name": "RoleGranted",
      "type": "event"
    },
    {
      "anonymous": false,
      "inputs": [
        {
          "indexed": true,
          "internalType": "bytes32",
          "name": "role",
          "type": "bytes32"
        },
        {
          "indexed": true,
          "internalType": "address",
          "name": "account",
          "type": "address"
        },
        {
          "indexed": true,
          "internalType": "address",
          "name": "sender",
          "type": "address"
        }
      ],
      "name": "RoleRevoked",
      "type": "event"
    },
    {
      "anonymous": false,
      "inputs": [
        {
          "indexed": false,
          "internalType": "uint256",
          "name": "serieId",
          "type": "uint256"
        },
        {
          "indexed": false,
          "internalType": "bool",
          "name": "newStatus",
          "type": "bool"
        }
      ],
      "name": "SerieVaultStatusUpdated",
      "type": "event"
    },
    {
      "anonymous": false,
      "inputs": [
        {
          "indexed": false,
          "internalType": "uint256",
          "name": "serieId",
          "type": "uint256"
        },
        {
          "indexed": false,
          "internalType": "address",
          "name": "oldVault",
          "type": "address"
        },
        {
          "indexed": false,
          "internalType": "address",
          "name": "newVault",
          "type": "address"
        }
      ],
      "name": "SerieVaultUpdated",
      "type": "event"
    },
    {
      "anonymous": false,
      "inputs": [
        {
          "indexed": true,
          "internalType": "address",
          "name": "from",
          "type": "address"
        },
        {
          "indexed": true,
          "internalType": "address",
          "name": "to",
          "type": "address"
        },
        {
          "indexed": false,
          "internalType": "uint256",
          "name": "value",
          "type": "uint256"
        }
      ],
      "name": "Transfer",
      "type": "event"
    },
    {
      "anonymous": false,
      "inputs": [
        {
          "indexed": false,
          "internalType": "address",
          "name": "account",
          "type": "address"
        }
      ],
      "name": "Unpaused",
      "type": "event"
    },
    {
      "anonymous": false,
      "inputs": [
        {
          "indexed": false,
          "internalType": "address",
          "name": "user",
          "type": "address"
        },
        {
          "indexed": false,
          "internalType": "uint256",
          "name": "amount",
          "type": "uint256"
        },
        {
          "indexed": false,
          "internalType": "uint256",
          "name": "serieId",
          "type": "uint256"
        }
      ],
      "name": "UserAwarded",
      "type": "event"
    },
    {
      "anonymous": false,
      "inputs": [
        {
          "indexed": false,
          "internalType": "uint256",
          "name": "serieId",
          "type": "uint256"
        },
        {
          "indexed": false,
          "internalType": "uint256",
          "name": "amount",
          "type": "uint256"
        }
      ],
      "name": "ValueTokenWithdrawn",
      "type": "event"
    },
    {
      "inputs": [],
      "name": "BUILDER_ROLE",
      "outputs": [
        {
          "internalType": "bytes32",
          "name": "",
          "type": "bytes32"
        }
      ],
      "stateMutability": "view",
      "type": "function"
    },
    {
      "inputs": [],
      "name": "DEFAULT_ADMIN_ROLE",
      "outputs": [
        {
          "internalType": "bytes32",
          "name": "",
          "type": "bytes32"
        }
      ],
      "stateMutability": "view",
      "type": "function"
    },
    {
      "inputs": [],
      "name": "EXIT_STATE",
      "outputs": [
        {
          "internalType": "bool",
          "name": "",
          "type": "bool"
        }
      ],
      "stateMutability": "view",
      "type": "function"
    },
    {
      "inputs": [],
      "name": "TREASURY",
      "outputs": [
        {
          "internalType": "address",
          "name": "",
          "type": "address"
        }
      ],
      "stateMutability": "view",
      "type": "function"
    },
    {
      "inputs": [
        {
          "internalType": "address",
          "name": "_builder",
          "type": "address"
        }
      ],
      "name": "addBuilder",
      "outputs": [],
      "stateMutability": "nonpayable",
      "type": "function"
    },
    {
      "inputs": [
        {
          "internalType": "address[]",
          "name": "_builders",
          "type": "address[]"
        }
      ],
      "name": "addBuildersBatch",
      "outputs": [],
      "stateMutability": "nonpayable",
      "type": "function"
    },
    {
      "inputs": [
        {
          "internalType": "address",
          "name": "owner",
          "type": "address"
        },
        {
          "internalType": "address",
          "name": "spender",
          "type": "address"
        }
      ],
      "name": "allowance",
      "outputs": [
        {
          "internalType": "uint256",
          "name": "",
          "type": "uint256"
        }
      ],
      "stateMutability": "view",
      "type": "function"
    },
    {
      "inputs": [
        {
          "internalType": "address",
          "name": "spender",
          "type": "address"
        },
        {
          "internalType": "uint256",
          "name": "value",
          "type": "uint256"
        }
      ],
      "name": "approve",
      "outputs": [
        {
          "internalType": "bool",
          "name": "",
          "type": "bool"
        }
      ],
      "stateMutability": "nonpayable",
      "type": "function"
    },
    {
      "inputs": [
        {
          "internalType": "address",
          "name": "_to",
          "type": "address"
        },
        {
          "internalType": "uint256",
          "name": "_amount",
          "type": "uint256"
        },
        {
          "internalType": "uint256",
          "name": "_serieId",
          "type": "uint256"
        }
      ],
      "name": "award",
      "outputs": [],
      "stateMutability": "nonpayable",
      "type": "function"
    },
    {
      "inputs": [
        {
          "internalType": "address[]",
          "name": "_users",
          "type": "address[]"
        },
        {
          "internalType": "uint256[]",
          "name": "_amounts",
          "type": "uint256[]"
        },
        {
          "internalType": "uint256",
          "name": "_serieId",
          "type": "uint256"
        }
      ],
      "name": "awardBatch",
      "outputs": [],
      "stateMutability": "nonpayable",
      "type": "function"
    },
    {
      "inputs": [
        {
          "internalType": "address",
          "name": "account",
          "type": "address"
        }
      ],
      "name": "balanceOf",
      "outputs": [
        {
          "internalType": "uint256",
          "name": "",
          "type": "uint256"
        }
      ],
      "stateMutability": "view",
      "type": "function"
    },
    {
      "inputs": [
        {
          "internalType": "uint256",
          "name": "",
          "type": "uint256"
        }
      ],
      "name": "burn",
      "outputs": [],
      "stateMutability": "pure",
      "type": "function"
    },
    {
      "inputs": [
        {
          "internalType": "uint256",
          "name": "_value",
          "type": "uint256"
        },
        {
          "internalType": "uint256",
          "name": "_serieId",
          "type": "uint256"
        }
      ],
      "name": "burn",
      "outputs": [],
      "stateMutability": "nonpayable",
      "type": "function"
    },
    {
      "inputs": [
        {
          "internalType": "address",
          "name": "",
          "type": "address"
        },
        {
          "internalType": "uint256",
          "name": "",
          "type": "uint256"
        }
      ],
      "name": "burnFrom",
      "outputs": [],
      "stateMutability": "pure",
      "type": "function"
    },
    {
      "inputs": [],
      "name": "decimals",
      "outputs": [
        {
          "internalType": "uint8",
          "name": "",
          "type": "uint8"
        }
      ],
      "stateMutability": "view",
      "type": "function"
    },
    {
      "inputs": [],
      "name": "disableExits",
      "outputs": [],
      "stateMutability": "nonpayable",
      "type": "function"
    },
    {
      "inputs": [],
      "name": "enableExits",
      "outputs": [],
      "stateMutability": "nonpayable",
      "type": "function"
    },
    {
      "inputs": [
        {
          "internalType": "uint256",
          "name": "_serieId",
          "type": "uint256"
        }
      ],
      "name": "exit",
      "outputs": [],
      "stateMutability": "nonpayable",
      "type": "function"
    },
    {
      "inputs": [
        {
          "internalType": "bytes32",
          "name": "role",
          "type": "bytes32"
        }
      ],
      "name": "getRoleAdmin",
      "outputs": [
        {
          "internalType": "bytes32",
          "name": "",
          "type": "bytes32"
        }
      ],
      "stateMutability": "view",
      "type": "function"
    },
    {
      "inputs": [
        {
          "internalType": "bytes32",
          "name": "role",
          "type": "bytes32"
        },
        {
          "internalType": "uint256",
          "name": "index",
          "type": "uint256"
        }
      ],
      "name": "getRoleMember",
      "outputs": [
        {
          "internalType": "address",
          "name": "",
          "type": "address"
        }
      ],
      "stateMutability": "view",
      "type": "function"
    },
    {
      "inputs": [
        {
          "internalType": "bytes32",
          "name": "role",
          "type": "bytes32"
        }
      ],
      "name": "getRoleMemberCount",
      "outputs": [
        {
          "internalType": "uint256",
          "name": "",
          "type": "uint256"
        }
      ],
      "stateMutability": "view",
      "type": "function"
    },
    {
      "inputs": [
        {
          "internalType": "bytes32",
          "name": "role",
          "type": "bytes32"
        },
        {
          "internalType": "address",
          "name": "account",
          "type": "address"
        }
      ],
      "name": "grantRole",
      "outputs": [],
      "stateMutability": "nonpayable",
      "type": "function"
    },
    {
      "inputs": [
        {
          "internalType": "bytes32",
          "name": "role",
          "type": "bytes32"
        },
        {
          "internalType": "address",
          "name": "account",
          "type": "address"
        }
      ],
      "name": "hasRole",
      "outputs": [
        {
          "internalType": "bool",
          "name": "",
          "type": "bool"
        }
      ],
      "stateMutability": "view",
      "type": "function"
    },
    {
      "inputs": [
        {
          "internalType": "uint8",
          "name": "_decimals",
          "type": "uint8"
        },
        {
          "internalType": "address",
          "name": "_treasury",
          "type": "address"
        },
        {
          "internalType": "address[]",
          "name": "_builders",
          "type": "address[]"
        }
      ],
      "name": "initialize",
      "outputs": [],
      "stateMutability": "nonpayable",
      "type": "function"
    },
    {
      "inputs": [
        {
          "internalType": "address",
          "name": "_builder",
          "type": "address"
        }
      ],
      "name": "isBuilder",
      "outputs": [
        {
          "internalType": "bool",
          "name": "",
          "type": "bool"
        }
      ],
      "stateMutability": "view",
      "type": "function"
    },
    {
      "inputs": [],
      "name": "name",
      "outputs": [
        {
          "internalType": "string",
          "name": "",
          "type": "string"
        }
      ],
      "stateMutability": "view",
      "type": "function"
    },
    {
      "inputs": [],
      "name": "pause",
      "outputs": [],
      "stateMutability": "nonpayable",
      "type": "function"
    },
    {
      "inputs": [],
      "name": "paused",
      "outputs": [
        {
          "internalType": "bool",
          "name": "",
          "type": "bool"
        }
      ],
      "stateMutability": "view",
      "type": "function"
    },
    {
      "inputs": [
        {
          "internalType": "address",
          "name": "_builder",
          "type": "address"
        }
      ],
      "name": "removeBuilder",
      "outputs": [],
      "stateMutability": "nonpayable",
      "type": "function"
    },
    {
      "inputs": [
        {
          "internalType": "bytes32",
          "name": "role",
          "type": "bytes32"
        },
        {
          "internalType": "address",
          "name": "callerConfirmation",
          "type": "address"
        }
      ],
      "name": "renounceRole",
      "outputs": [],
      "stateMutability": "nonpayable",
      "type": "function"
    },
    {
      "inputs": [
        {
          "internalType": "bytes32",
          "name": "role",
          "type": "bytes32"
        },
        {
          "internalType": "address",
          "name": "account",
          "type": "address"
        }
      ],
      "name": "revokeRole",
      "outputs": [],
      "stateMutability": "nonpayable",
      "type": "function"
    },
    {
      "inputs": [
        {
          "internalType": "uint256",
          "name": "serieId",
          "type": "uint256"
        }
      ],
      "name": "serieSupplies",
      "outputs": [
        {
          "internalType": "uint256",
          "name": "supplyEmitted",
          "type": "uint256"
        }
      ],
      "stateMutability": "view",
      "type": "function"
    },
    {
      "inputs": [
        {
          "internalType": "uint256",
          "name": "serieId",
          "type": "uint256"
        }
      ],
      "name": "serieVaults",
      "outputs": [
        {
          "internalType": "address",
          "name": "vault",
          "type": "address"
        },
        {
          "internalType": "bool",
          "name": "active",
          "type": "bool"
        }
      ],
      "stateMutability": "view",
      "type": "function"
    },
    {
      "inputs": [
        {
          "internalType": "address",
          "name": "_vault",
          "type": "address"
        },
        {
          "internalType": "uint256",
          "name": "_serieId",
          "type": "uint256"
        }
      ],
      "name": "setSerieVault",
      "outputs": [],
      "stateMutability": "nonpayable",
      "type": "function"
    },
    {
      "inputs": [
        {
          "internalType": "bytes4",
          "name": "interfaceId",
          "type": "bytes4"
        }
      ],
      "name": "supportsInterface",
      "outputs": [
        {
          "internalType": "bool",
          "name": "",
          "type": "bool"
        }
      ],
      "stateMutability": "view",
      "type": "function"
    },
    {
      "inputs": [],
      "name": "symbol",
      "outputs": [
        {
          "internalType": "string",
          "name": "",
          "type": "string"
        }
      ],
      "stateMutability": "view",
      "type": "function"
    },
    {
      "inputs": [],
      "name": "totalSupply",
      "outputs": [
        {
          "internalType": "uint256",
          "name": "",
          "type": "uint256"
        }
      ],
      "stateMutability": "view",
      "type": "function"
    },
    {
      "inputs": [
        {
          "internalType": "address",
          "name": "",
          "type": "address"
        },
        {
          "internalType": "uint256",
          "name": "",
          "type": "uint256"
        }
      ],
      "name": "transfer",
      "outputs": [
        {
          "internalType": "bool",
          "name": "",
          "type": "bool"
        }
      ],
      "stateMutability": "pure",
      "type": "function"
    },
    {
      "inputs": [
        {
          "internalType": "address",
          "name": "",
          "type": "address"
        },
        {
          "internalType": "address",
          "name": "",
          "type": "address"
        },
        {
          "internalType": "uint256",
          "name": "",
          "type": "uint256"
        }
      ],
      "name": "transferFrom",
      "outputs": [
        {
          "internalType": "bool",
          "name": "",
          "type": "bool"
        }
      ],
      "stateMutability": "pure",
      "type": "function"
    },
    {
      "inputs": [],
      "name": "unpause",
      "outputs": [],
      "stateMutability": "nonpayable",
      "type": "function"
    },
    {
      "inputs": [
        {
          "internalType": "uint256",
          "name": "_serieId",
          "type": "uint256"
        },
        {
          "internalType": "bool",
          "name": "_status",
          "type": "bool"
        }
      ],
      "name": "updateSerieVaultStatus",
      "outputs": [],
      "stateMutability": "nonpayable",
      "type": "function"
    },
    {
      "inputs": [
        {
          "internalType": "uint256",
          "name": "serieId",
          "type": "uint256"
        },
        {
          "internalType": "address",
          "name": "user",
          "type": "address"
        }
      ],
      "name": "userSerieBalance",
      "outputs": [
        {
          "internalType": "uint256",
          "name": "balance",
          "type": "uint256"
        }
      ],
      "stateMutability": "view",
      "type": "function"
    },
    {
      "inputs": [],
      "name": "version",
      "outputs": [
        {
          "internalType": "string",
          "name": "",
          "type": "string"
        }
      ],
      "stateMutability": "pure",
      "type": "function"
    },
    {
      "inputs": [
        {
          "internalType": "uint256",
          "name": "_serieId",
          "type": "uint256"
        }
      ],
      "name": "withdrawSerieVaultToken",
      "outputs": [],
      "stateMutability": "nonpayable",
      "type": "function"
    }
  ],
  "transactionHash": "0x63df7b93b55ffe479c6779f09ac831075895ae644870832ff1f0828ee1951d2d",
  "args": [],
  "numDeployments": 1,
  "solcInputHash": "759733d830da63268c5b093d290c3a41",
  "bytecode": "0x60806040523480156200001157600080fd5b50620000226200002860201b60201c565b6200019c565b60006200003a6200013260201b60201c565b90508060000160089054906101000a900460ff161562000086576040517ff92ee8a900000000000000000000000000000000000000000000000000000000815260040160405180910390fd5b67ffffffffffffffff80168160000160009054906101000a900467ffffffffffffffff1667ffffffffffffffff16146200012f5767ffffffffffffffff8160000160006101000a81548167ffffffffffffffff021916908367ffffffffffffffff1602179055507fc7f505b2f371ae2175ee4913f4499e1f2633a7b5936321eed1cdaeb6115181d267ffffffffffffffff6040516200012691906200017f565b60405180910390a15b50565b60007ff0c57e16840df040f15088dc2f81fe391c3923bec73e23a9662efc9c229c6a00905090565b600067ffffffffffffffff82169050919050565b62000179816200015a565b82525050565b60006020820190506200019660008301846200016e565b92915050565b614b2580620001ac6000396000f3fe608060405234801561001057600080fd5b50600436106102745760003560e01c80638a01860d11610151578063b9a53442116100c3578063dd44137511610087578063dd44137514610749578063dd62ed3e14610765578063e8365c2114610795578063ec969386146107c6578063f629c184146107e2578063fff12f77146107fe57610274565b8063b9a53442146106a7578063ca15c873146106c3578063cd0d51c8146106f3578063ce3d78d61461070f578063d547741f1461072d57610274565b8063a217fddf11610115578063a217fddf146105e5578063a62d8f0914610603578063a9059cbb1461060d578063aafadb011461063d578063b390c0ab1461065b578063b6b6b4751461067757610274565b80638a01860d1461052d5780639010d07c1461055d57806391d148541461058d578063927814fc146105bd57806395d89b41146105c757610274565b806336432b4c116101ea57806354fd4d50116101ae57806354fd4d501461047f5780635c975abb1461049d57806370a08231146104bb57806379cc6790146104eb5780637f8661a1146105075780638456cb591461052357610274565b806336432b4c1461040557806336568abe146104215780633ca74dca1461043d5780633f4ba83a1461045957806342966c681461046357610274565b806323b872dd1161023c57806323b872dd14610331578063248a9ca31461036157806325f5ffa4146103915780632d2c5565146103ad5780632f2ff15d146103cb578063313ce567146103e757610274565b806301ffc9a71461027957806306fdde03146102a9578063095ea7b3146102c757806309f6bc23146102f757806318160ddd14610313575b600080fd5b610293600480360381019061028e919061390a565b61082e565b6040516102a09190613952565b60405180910390f35b6102b16108a8565b6040516102be91906139fd565b60405180910390f35b6102e160048036038101906102dc9190613ab3565b610949565b6040516102ee9190613952565b60405180910390f35b610311600480360381019061030c9190613ab3565b61096c565b005b61031b610b37565b6040516103289190613b02565b60405180910390f35b61034b60048036038101906103469190613b1d565b610b4f565b6040516103589190613952565b60405180910390f35b61037b60048036038101906103769190613ba6565b610b8c565b6040516103889190613be2565b60405180910390f35b6103ab60048036038101906103a69190613bfd565b610bba565b005b6103b5610bdc565b6040516103c29190613c39565b60405180910390f35b6103e560048036038101906103e09190613c54565b610c02565b005b6103ef610c24565b6040516103fc9190613cb0565b60405180910390f35b61041f600480360381019061041a9190613d5c565b610c3b565b005b61043b60048036038101906104369190613c54565b611082565b005b61045760048036038101906104529190613dfc565b6110fd565b005b6104616111c3565b005b61047d60048036038101906104789190613e3c565b6111e3565b005b610487611215565b60405161049491906139fd565b60405180910390f35b6104a5611252565b6040516104b29190613952565b60405180910390f35b6104d560048036038101906104d09190613bfd565b611277565b6040516104e29190613b02565b60405180910390f35b61050560048036038101906105009190613ab3565b6112ce565b005b610521600480360381019061051c9190613e3c565b611300565b005b61052b61168a565b005b61054760048036038101906105429190613e3c565b6116aa565b6040516105549190613b02565b60405180910390f35b61057760048036038101906105729190613e69565b6116c2565b6040516105849190613c39565b60405180910390f35b6105a760048036038101906105a29190613c54565b6116ff565b6040516105b49190613952565b60405180910390f35b6105c5611778565b005b6105cf6117e3565b6040516105dc91906139fd565b60405180910390f35b6105ed611884565b6040516105fa9190613be2565b60405180910390f35b61060b61188b565b005b61062760048036038101906106229190613ab3565b6118f6565b6040516106349190613952565b60405180910390f35b610645611933565b6040516106529190613952565b60405180910390f35b61067560048036038101906106709190613ea9565b611946565b005b610691600480360381019061068c9190613bfd565b611a12565b60405161069e9190613952565b60405180910390f35b6106c160048036038101906106bc9190613e3c565b611a45565b005b6106dd60048036038101906106d89190613ba6565b611c7c565b6040516106ea9190613b02565b60405180910390f35b61070d600480360381019061070891906140ea565b611cae565b005b610717611d6c565b6040516107249190613be2565b60405180910390f35b61074760048036038101906107429190613c54565b611d90565b005b610763600480360381019061075e9190614175565b611db2565b005b61077f600480360381019061077a91906141c8565b611dd8565b60405161078c9190613b02565b60405180910390f35b6107af60048036038101906107aa9190613e3c565b611e6d565b6040516107bd929190614208565b60405180910390f35b6107e060048036038101906107db9190613bfd565b611ebe565b005b6107fc60048036038101906107f79190614231565b612015565b005b6108186004803603810190610813919061427a565b61206f565b6040516108259190613b02565b60405180910390f35b60007f5a05180f000000000000000000000000000000000000000000000000000000007bffffffffffffffffffffffffffffffffffffffffffffffffffffffff1916827bffffffffffffffffffffffffffffffffffffffffffffffffffffffff191614806108a157506108a082612094565b5b9050919050565b606060006108b461210e565b90508060030180546108c5906142e9565b80601f01602080910402602001604051908101604052809291908181526020018280546108f1906142e9565b801561093e5780601f106109135761010080835404028352916020019161093e565b820191906000526020600020905b81548152906001019060200180831161092157829003601f168201915b505050505091505090565b600080610954612136565b905061096181858561213e565b600191505092915050565b6000801b61097981612150565b610981612164565b600073ffffffffffffffffffffffffffffffffffffffff168373ffffffffffffffffffffffffffffffffffffffff16036109f257826040517faf7301ae0000000000000000000000000000000000000000000000000000000081526004016109e99190613c39565b60405180910390fd5b60008203610a3757816040517f8374bf35000000000000000000000000000000000000000000000000000000008152600401610a2e9190613b02565b60405180910390fd5b60006005600084815260200190815260200160002060000160009054906101000a900473ffffffffffffffffffffffffffffffffffffffff169050836005600085815260200190815260200160002060000160006101000a81548173ffffffffffffffffffffffffffffffffffffffff021916908373ffffffffffffffffffffffffffffffffffffffff16021790555060016005600085815260200190815260200160002060000160146101000a81548160ff0219169083151502179055507f2a22b8081e985f611f3d994c0daf30de3f593e1b7bd89e55540fbfd014a503d5838286604051610b299392919061431a565b60405180910390a150505050565b600080610b4261210e565b9050806002015491505090565b60006040517fb77a6239000000000000000000000000000000000000000000000000000000008152600401610b83906143c3565b60405180910390fd5b600080610b976121a5565b905080600001600084815260200190815260200160002060010154915050919050565b6000801b610bc781612150565b610bcf612164565b610bd8826121cd565b5050565b600260019054906101000a900473ffffffffffffffffffffffffffffffffffffffff1681565b610c0b82610b8c565b610c1481612150565b610c1e8383612325565b50505050565b6000600260009054906101000a900460ff16905090565b6000610c4561237a565b905060008160000160089054906101000a900460ff1615905060008260000160009054906101000a900467ffffffffffffffff1690506000808267ffffffffffffffff16148015610c935750825b9050600060018367ffffffffffffffff16148015610cc8575060003073ffffffffffffffffffffffffffffffffffffffff163b145b905081158015610cd6575080155b15610d0d576040517ff92ee8a900000000000000000000000000000000000000000000000000000000815260040160405180910390fd5b60018560000160006101000a81548167ffffffffffffffff021916908367ffffffffffffffff1602179055508315610d5d5760018560000160086101000a81548160ff0219169083151502179055505b600073ffffffffffffffffffffffffffffffffffffffff168873ffffffffffffffffffffffffffffffffffffffff1603610dce57876040517f8e4c8aa6000000000000000000000000000000000000000000000000000000008152600401610dc59190613c39565b60405180910390fd5b60008960ff1603610e1657886040517fca950391000000000000000000000000000000000000000000000000000000008152600401610e0d9190613cb0565b60405180910390fd5b610e8a6040518060400160405280600a81526020017f524553492d544f4b454e000000000000000000000000000000000000000000008152506040518060400160405280600481526020017f52455349000000000000000000000000000000000000000000000000000000008152506123a2565b610e926123df565b610e9a612400565b610ea261240a565b610ed67f108e9970bf0b59c2d2c85b4c1102be0833ce2f80d7a6e37034d625e36d761eeb600061241490919063ffffffff16565b5088600260006101000a81548160ff021916908360ff16021790555087600260016101000a81548173ffffffffffffffffffffffffffffffffffffffff021916908373ffffffffffffffffffffffffffffffffffffffff160217905550610f626000801b600260019054906101000a900473ffffffffffffffffffffffffffffffffffffffff16612325565b50610f907f108e9970bf0b59c2d2c85b4c1102be0833ce2f80d7a6e37034d625e36d761eeb6000801b61242b565b60005b87879050811015610fe157610fce888883818110610fb457610fb36143e3565b5b9050602002016020810190610fc99190613bfd565b6121cd565b8080610fd990614441565b915050610f93565b507fd15abd6de84703abf7bac7ca89b7e370f1039b4d328a0f9b57306b484c1b19bb888a604051611013929190614489565b60405180910390a183156110775760008560000160086101000a81548160ff0219169083151502179055507fc7f505b2f371ae2175ee4913f4499e1f2633a7b5936321eed1cdaeb6115181d2600160405161106e919061450b565b60405180910390a15b505050505050505050565b61108a612136565b73ffffffffffffffffffffffffffffffffffffffff168173ffffffffffffffffffffffffffffffffffffffff16146110ee576040517f6697b23200000000000000000000000000000000000000000000000000000000815260040160405180910390fd5b6110f88282612496565b505050565b6000801b61110a81612150565b611112612164565b6000830361115757826040517f8374bf3500000000000000000000000000000000000000000000000000000000815260040161114e9190613b02565b60405180910390fd5b816005600085815260200190815260200160002060000160146101000a81548160ff0219169083151502179055507f3995ebfca9daa9de928a16322fcdc0be8809444e355b33b0d395338bc48d4c4783836040516111b6929190614526565b60405180910390a1505050565b6000801b6111d081612150565b6111d86124eb565b6111e061252b565b50565b6040517f28b6a5f100000000000000000000000000000000000000000000000000000000815260040160405180910390fd5b60606040518060400160405280600581526020017f312e302e30000000000000000000000000000000000000000000000000000000815250905090565b60008061125d61259d565b90508060000160009054906101000a900460ff1691505090565b60008061128261210e565b90508060000160008473ffffffffffffffffffffffffffffffffffffffff1673ffffffffffffffffffffffffffffffffffffffff16815260200190815260200160002054915050919050565b6040517f28b6a5f100000000000000000000000000000000000000000000000000000000815260040160405180910390fd5b611308611252565b1580156113215750600260159054906101000a900460ff165b611360576040517f08c379a00000000000000000000000000000000000000000000000000000000081526004016113579061459b565b60405180910390fd5b6113686125c5565b6113718161261c565b6000600460008381526020019081526020016000206000611390612136565b73ffffffffffffffffffffffffffffffffffffffff1673ffffffffffffffffffffffffffffffffffffffff16815260200190815260200160002054905060006005600084815260200190815260200160002060000160009054906101000a900473ffffffffffffffffffffffffffffffffffffffff1673ffffffffffffffffffffffffffffffffffffffff1663af024b108360036000878152602001908152602001600020546040518363ffffffff1660e01b81526004016114539291906145bb565b602060405180830381865afa158015611470573d6000803e3d6000fd5b505050506040513d601f19601f8201168201806040525081019061149491906145f9565b90506000811115611629576114b16114aa612136565b308461298f565b6005600084815260200190815260200160002060000160009054906101000a900473ffffffffffffffffffffffffffffffffffffffff1673ffffffffffffffffffffffffffffffffffffffff1663f297be6661150b612136565b8460036000888152602001908152602001600020546040518463ffffffff1660e01b815260040161153e93929190614626565b600060405180830381600087803b15801561155857600080fd5b505af115801561156c573d6000803e3d6000fd5b50505050600060046000858152602001908152602001600020600061158f612136565b73ffffffffffffffffffffffffffffffffffffffff1673ffffffffffffffffffffffffffffffffffffffff168152602001908152602001600020819055506115d5612136565b73ffffffffffffffffffffffffffffffffffffffff167fbe0b6e5b3195df91f2e6b2b20501f84b085714f9e38073f499073c8305651009828560405161161c9291906145bb565b60405180910390a261167d565b816003600085815260200190815260200160002054826040517f8fcefc700000000000000000000000000000000000000000000000000000000081526004016116749392919061465d565b60405180910390fd5b5050611687612a83565b50565b6000801b61169781612150565b61169f612164565b6116a7612a9c565b50565b60036020528060005260406000206000915090505481565b6000806116cd612b0e565b90506116f683826000016000878152602001908152602001600020612b3690919063ffffffff16565b91505092915050565b60008061170a6121a5565b905080600001600085815260200190815260200160002060000160008473ffffffffffffffffffffffffffffffffffffffff1673ffffffffffffffffffffffffffffffffffffffff16815260200190815260200160002060009054906101000a900460ff1691505092915050565b6000801b61178581612150565b61178d612164565b6000600260156101000a81548160ff0219169083151502179055507f47cde597549e567f62abfbbd7555049ff4279b031185a8849e0c393b67aeff2760006040516117d89190613952565b60405180910390a150565b606060006117ef61210e565b9050806004018054611800906142e9565b80601f016020809104026020016040519081016040528092919081815260200182805461182c906142e9565b80156118795780601f1061184e57610100808354040283529160200191611879565b820191906000526020600020905b81548152906001019060200180831161185c57829003601f168201915b505050505091505090565b6000801b81565b6000801b61189881612150565b6118a0612164565b6001600260156101000a81548160ff0219169083151502179055507f47cde597549e567f62abfbbd7555049ff4279b031185a8849e0c393b67aeff2760016040516118eb9190613952565b60405180910390a150565b60006040517fa744719900000000000000000000000000000000000000000000000000000000815260040161192a906146e0565b60405180910390fd5b600260159054906101000a900460ff1681565b6000801b61195381612150565b61195b612164565b600082036119a057816040517f8374bf350000000000000000000000000000000000000000000000000000000081526004016119979190613b02565b60405180910390fd5b6119aa3084612b50565b826003600084815260200190815260200160002060008282546119cd9190614700565b925050819055507fd695b9e92e02a1f6153a5e6ff0bc7427009e9bab903ed61aa38ccef88e17c11a8383604051611a059291906145bb565b60405180910390a1505050565b6000611a3e7f108e9970bf0b59c2d2c85b4c1102be0833ce2f80d7a6e37034d625e36d761eeb836116ff565b9050919050565b6000801b611a5281612150565b611a5a6124eb565b600073ffffffffffffffffffffffffffffffffffffffff166005600084815260200190815260200160002060000160009054906101000a900473ffffffffffffffffffffffffffffffffffffffff1673ffffffffffffffffffffffffffffffffffffffff161480611aec57506005600083815260200190815260200160002060000160149054906101000a900460ff16155b15611b6657816005600084815260200190815260200160002060000160009054906101000a900473ffffffffffffffffffffffffffffffffffffffff166040517ff2a3d6e9000000000000000000000000000000000000000000000000000000008152600401611b5d929190614734565b60405180910390fd5b60006005600084815260200190815260200160002060000160009054906101000a900473ffffffffffffffffffffffffffffffffffffffff1673ffffffffffffffffffffffffffffffffffffffff1663902b57e8600260019054906101000a900473ffffffffffffffffffffffffffffffffffffffff166040518263ffffffff1660e01b8152600401611bf99190613c39565b6020604051808303816000875af1158015611c18573d6000803e3d6000fd5b505050506040513d601f19601f82011682018060405250810190611c3c91906145f9565b90507f836ccd058015f1dbad25f9fa6311144eb705bcace1a8ccc0cdf285bde566310f8382604051611c6f9291906145bb565b60405180910390a1505050565b600080611c87612b0e565b9050611ca6816000016000858152602001908152602001600020612bd2565b915050919050565b6000801b611cbb81612150565b611cc3612164565b8251845114611d07576040517f08c379a0000000000000000000000000000000000000000000000000000000008152600401611cfe906147cf565b60405180910390fd5b60005b8451811015611d6557611d52858281518110611d2957611d286143e3565b5b6020026020010151858381518110611d4457611d436143e3565b5b602002602001015185612be7565b8080611d5d90614441565b915050611d0a565b5050505050565b7f108e9970bf0b59c2d2c85b4c1102be0833ce2f80d7a6e37034d625e36d761eeb81565b611d9982610b8c565b611da281612150565b611dac8383612496565b50505050565b6000801b611dbf81612150565b611dc7612164565b611dd2848484612be7565b50505050565b600080611de361210e565b90508060010160008573ffffffffffffffffffffffffffffffffffffffff1673ffffffffffffffffffffffffffffffffffffffff16815260200190815260200160002060008473ffffffffffffffffffffffffffffffffffffffff1673ffffffffffffffffffffffffffffffffffffffff1681526020019081526020016000205491505092915050565b60056020528060005260406000206000915090508060000160009054906101000a900473ffffffffffffffffffffffffffffffffffffffff16908060000160149054906101000a900460ff16905082565b6000801b611ecb81612150565b611ed3612164565b600073ffffffffffffffffffffffffffffffffffffffff168273ffffffffffffffffffffffffffffffffffffffff1603611f4457816040517f8e4c8aa6000000000000000000000000000000000000000000000000000000008152600401611f3b9190613c39565b60405180910390fd5b611f6e7f108e9970bf0b59c2d2c85b4c1102be0833ce2f80d7a6e37034d625e36d761eeb836116ff565b611faf57816040517f516af281000000000000000000000000000000000000000000000000000000008152600401611fa69190613c39565b60405180910390fd5b611fd97f108e9970bf0b59c2d2c85b4c1102be0833ce2f80d7a6e37034d625e36d761eeb83612496565b507fc5a4a43135540d5e0967677a1ed86bf147f7c0e7dd757a109f4cff74c945f92e826040516120099190613c39565b60405180910390a15050565b6000801b61202281612150565b61202a612164565b60005b825181101561206a5761205983828151811061204c5761204b6143e3565b5b60200260200101516121cd565b8061206390614441565b905061202d565b505050565b6004602052816000526040600020602052806000526040600020600091509150505481565b60007f7965db0b000000000000000000000000000000000000000000000000000000007bffffffffffffffffffffffffffffffffffffffffffffffffffffffff1916827bffffffffffffffffffffffffffffffffffffffffffffffffffffffff19161480612107575061210682612e3e565b5b9050919050565b60007f52c63247e1f47db19d5ce0460030c497f067ca4cebf71ba98eeadabe20bace00905090565b600033905090565b61214b8383836001612ea8565b505050565b6121618161215c612136565b61308e565b50565b61216c611252565b156121a3576040517fd93c066500000000000000000000000000000000000000000000000000000000815260040160405180910390fd5b565b60007f02dd7bc7dec4dceedda775e58dd541e08a116c6c53815c0bd028192f7b626800905090565b6000801b6121da81612150565b6121e2612164565b600073ffffffffffffffffffffffffffffffffffffffff168273ffffffffffffffffffffffffffffffffffffffff160361225357816040517f8e4c8aa600000000000000000000000000000000000000000000000000000000815260040161224a9190613c39565b60405180910390fd5b61227d7f108e9970bf0b59c2d2c85b4c1102be0833ce2f80d7a6e37034d625e36d761eeb836116ff565b156122bf57816040517f20da51c60000000000000000000000000000000000000000000000000000000081526004016122b69190613c39565b60405180910390fd5b6122e97f108e9970bf0b59c2d2c85b4c1102be0833ce2f80d7a6e37034d625e36d761eeb83612325565b507fc2dabef8a63ab48fcf728bbe8864a3fe01a9e19addc6ce314abd5b6f9a1dce66826040516123199190613c39565b60405180910390a15050565b600080612330612b0e565b9050600061233e85856130df565b9050801561236f5761236d848360000160008881526020019081526020016000206131e090919063ffffffff16565b505b809250505092915050565b60007ff0c57e16840df040f15088dc2f81fe391c3923bec73e23a9662efc9c229c6a00905090565b6123aa613210565b60006123b461210e565b9050828160030190816123c79190614991565b50818160040190816123d99190614991565b50505050565b6123e7613210565b60006123f1613250565b90506001816000018190555050565b612408613210565b565b612412613210565b565b60006124238360000183613278565b905092915050565b60006124356121a5565b9050600061244284610b8c565b905082826000016000868152602001908152602001600020600101819055508281857fbd79b86ffe0ab8e8776151514217cd7cacd52c909f66475c3af44e129f0b00ff60405160405180910390a450505050565b6000806124a1612b0e565b905060006124af85856132e8565b905080156124e0576124de848360000160008881526020019081526020016000206133ea90919063ffffffff16565b505b809250505092915050565b6124f3611252565b612529576040517f8dfc202b00000000000000000000000000000000000000000000000000000000815260040160405180910390fd5b565b6125336124eb565b600061253d61259d565b905060008160000160006101000a81548160ff0219169083151502179055507f5db9ee0a495bf2e6ff9c91a7834c1ba4fdd244a5e8aa4e537bd38aeae4b073aa612585612136565b6040516125929190613c39565b60405180910390a150565b60007fcd5ed15c6e187e77e9aee88184c21f4f2182ab5827cb3b7e07fbedcd63f03300905090565b60006125cf613250565b9050600281600001540361260f576040517f3ee5aeb500000000000000000000000000000000000000000000000000000000815260040160405180910390fd5b6002816000018190555050565b600260019054906101000a900473ffffffffffffffffffffffffffffffffffffffff1673ffffffffffffffffffffffffffffffffffffffff1661265d612136565b73ffffffffffffffffffffffffffffffffffffffff16036126bc57612680612136565b6040517f8e4c8aa60000000000000000000000000000000000000000000000000000000081526004016126b39190613c39565b60405180910390fd5b6126ed7f108e9970bf0b59c2d2c85b4c1102be0833ce2f80d7a6e37034d625e36d761eeb6126e8612136565b6116ff565b612735576126f9612136565b6040517f516af28100000000000000000000000000000000000000000000000000000000815260040161272c9190613c39565b60405180910390fd5b600073ffffffffffffffffffffffffffffffffffffffff166005600083815260200190815260200160002060000160009054906101000a900473ffffffffffffffffffffffffffffffffffffffff1673ffffffffffffffffffffffffffffffffffffffff1614806127c757506005600082815260200190815260200160002060000160149054906101000a900460ff16155b1561284157806005600083815260200190815260200160002060000160009054906101000a900473ffffffffffffffffffffffffffffffffffffffff166040517ff2a3d6e9000000000000000000000000000000000000000000000000000000008152600401612838929190614734565b60405180910390fd5b600060036000838152602001908152602001600020540361289957806040517f441c68440000000000000000000000000000000000000000000000000000000081526004016128909190613b02565b60405180910390fd5b60006004600083815260200190815260200160002060006128b8612136565b73ffffffffffffffffffffffffffffffffffffffff1673ffffffffffffffffffffffffffffffffffffffff168152602001908152602001600020540361298c57600460008281526020019081526020016000206000612915612136565b73ffffffffffffffffffffffffffffffffffffffff1673ffffffffffffffffffffffffffffffffffffffff168152602001908152602001600020546040517f929a0f990000000000000000000000000000000000000000000000000000000081526004016129839190613b02565b60405180910390fd5b50565b600073ffffffffffffffffffffffffffffffffffffffff168373ffffffffffffffffffffffffffffffffffffffff1603612a015760006040517f96c6fd1e0000000000000000000000000000000000000000000000000000000081526004016129f89190613c39565b60405180910390fd5b600073ffffffffffffffffffffffffffffffffffffffff168273ffffffffffffffffffffffffffffffffffffffff1603612a735760006040517fec442f05000000000000000000000000000000000000000000000000000000008152600401612a6a9190613c39565b60405180910390fd5b612a7e83838361341a565b505050565b6000612a8d613250565b90506001816000018190555050565b612aa4612164565b6000612aae61259d565b905060018160000160006101000a81548160ff0219169083151502179055507f62e78cea01bee320cd4e420270b5ea74000d11b0c9f74754ebdbfc544b05a258612af6612136565b604051612b039190613c39565b60405180910390a150565b60007fc1f6fe24621ce81ec5827caf0253cadb74709b061630e6b55e82371705932000905090565b6000612b458360000183613432565b60001c905092915050565b600073ffffffffffffffffffffffffffffffffffffffff168273ffffffffffffffffffffffffffffffffffffffff1603612bc25760006040517f96c6fd1e000000000000000000000000000000000000000000000000000000008152600401612bb99190613c39565b60405180910390fd5b612bce8260008361341a565b5050565b6000612be08260000161345d565b9050919050565b6000801b612bf481612150565b612bfc612164565b60008203612c4157816040517f8374bf35000000000000000000000000000000000000000000000000000000008152600401612c389190613b02565b60405180910390fd5b600073ffffffffffffffffffffffffffffffffffffffff168473ffffffffffffffffffffffffffffffffffffffff1603612cb257836040517f8e4c8aa6000000000000000000000000000000000000000000000000000000008152600401612ca99190613c39565b60405180910390fd5b60008303612cf757826040517f3728b83d000000000000000000000000000000000000000000000000000000008152600401612cee9190613b02565b60405180910390fd5b612d217f108e9970bf0b59c2d2c85b4c1102be0833ce2f80d7a6e37034d625e36d761eeb856116ff565b612d6257836040517f516af281000000000000000000000000000000000000000000000000000000008152600401612d599190613c39565b60405180910390fd5b612d6c848461346e565b82600360008481526020019081526020016000206000828254612d8f9190614a63565b92505081905550826004600084815260200190815260200160002060008673ffffffffffffffffffffffffffffffffffffffff1673ffffffffffffffffffffffffffffffffffffffff1681526020019081526020016000206000828254612df69190614a63565b925050819055507f3d8334eb8444d4c18d9b6d1024bce3ad9f408e72f419cb589dcb5e24d0e09af8848484604051612e3093929190614626565b60405180910390a150505050565b60007f01ffc9a7000000000000000000000000000000000000000000000000000000007bffffffffffffffffffffffffffffffffffffffffffffffffffffffff1916827bffffffffffffffffffffffffffffffffffffffffffffffffffffffff1916149050919050565b6000612eb261210e565b9050600073ffffffffffffffffffffffffffffffffffffffff168573ffffffffffffffffffffffffffffffffffffffff1603612f265760006040517fe602df05000000000000000000000000000000000000000000000000000000008152600401612f1d9190613c39565b60405180910390fd5b600073ffffffffffffffffffffffffffffffffffffffff168473ffffffffffffffffffffffffffffffffffffffff1603612f985760006040517f94280d62000000000000000000000000000000000000000000000000000000008152600401612f8f9190613c39565b60405180910390fd5b828160010160008773ffffffffffffffffffffffffffffffffffffffff1673ffffffffffffffffffffffffffffffffffffffff16815260200190815260200160002060008673ffffffffffffffffffffffffffffffffffffffff1673ffffffffffffffffffffffffffffffffffffffff168152602001908152602001600020819055508115613087578373ffffffffffffffffffffffffffffffffffffffff168573ffffffffffffffffffffffffffffffffffffffff167f8c5be1e5ebec7d5bd14f71427d1e84f3dd0314c0f7b2291e5b200ac8c7c3b9258560405161307e9190613b02565b60405180910390a35b5050505050565b61309882826116ff565b6130db5780826040517fe2517d3f0000000000000000000000000000000000000000000000000000000081526004016130d2929190614a97565b60405180910390fd5b5050565b6000806130ea6121a5565b90506130f684846116ff565b6131d457600181600001600086815260200190815260200160002060000160008573ffffffffffffffffffffffffffffffffffffffff1673ffffffffffffffffffffffffffffffffffffffff16815260200190815260200160002060006101000a81548160ff021916908315150217905550613170612136565b73ffffffffffffffffffffffffffffffffffffffff168373ffffffffffffffffffffffffffffffffffffffff16857f2f8788117e7eff1d82e926ec794901d17c78024a50270940304540a733656f0d60405160405180910390a460019150506131da565b60009150505b92915050565b6000613208836000018373ffffffffffffffffffffffffffffffffffffffff1660001b613278565b905092915050565b6132186134f0565b61324e576040517fd7e6bcf800000000000000000000000000000000000000000000000000000000815260040160405180910390fd5b565b60007f9b779b17422d0df92223018b32b4d1fa46e071723d6817e2486d003becc55f00905090565b60006132848383613510565b6132dd5782600001829080600181540180825580915050600190039060005260206000200160009091909190915055826000018054905083600101600084815260200190815260200160002081905550600190506132e2565b600090505b92915050565b6000806132f36121a5565b90506132ff84846116ff565b156133de57600081600001600086815260200190815260200160002060000160008573ffffffffffffffffffffffffffffffffffffffff1673ffffffffffffffffffffffffffffffffffffffff16815260200190815260200160002060006101000a81548160ff02191690831515021790555061337a612136565b73ffffffffffffffffffffffffffffffffffffffff168373ffffffffffffffffffffffffffffffffffffffff16857ff6391f5c32d9c69d2a47ea670b442974b53935d1edc7fd64eb21e047a839171b60405160405180910390a460019150506133e4565b60009150505b92915050565b6000613412836000018373ffffffffffffffffffffffffffffffffffffffff1660001b613533565b905092915050565b613422612164565b61342d838383613647565b505050565b600082600001828154811061344a576134496143e3565b5b9060005260206000200154905092915050565b600081600001805490509050919050565b600073ffffffffffffffffffffffffffffffffffffffff168273ffffffffffffffffffffffffffffffffffffffff16036134e05760006040517fec442f050000000000000000000000000000000000000000000000000000000081526004016134d79190613c39565b60405180910390fd5b6134ec6000838361341a565b5050565b60006134fa61237a565b60000160089054906101000a900460ff16905090565b600080836001016000848152602001908152602001600020541415905092915050565b6000808360010160008481526020019081526020016000205490506000811461363b5760006001826135659190614700565b905060006001866000018054905061357d9190614700565b90508082146135ec57600086600001828154811061359e5761359d6143e3565b5b90600052602060002001549050808760000184815481106135c2576135c16143e3565b5b90600052602060002001819055508387600101600083815260200190815260200160002081905550505b85600001805480613600576135ff614ac0565b5b600190038181906000526020600020016000905590558560010160008681526020019081526020016000206000905560019350505050613641565b60009150505b92915050565b61364f612164565b61365a83838361365f565b505050565b600061366961210e565b9050600073ffffffffffffffffffffffffffffffffffffffff168473ffffffffffffffffffffffffffffffffffffffff16036136bf57818160020160008282546136b39190614a63565b92505081905550613798565b60008160000160008673ffffffffffffffffffffffffffffffffffffffff1673ffffffffffffffffffffffffffffffffffffffff1681526020019081526020016000205490508281101561374e578481846040517fe450d38c00000000000000000000000000000000000000000000000000000000815260040161374593929190614626565b60405180910390fd5b8281038260000160008773ffffffffffffffffffffffffffffffffffffffff1673ffffffffffffffffffffffffffffffffffffffff16815260200190815260200160002081905550505b600073ffffffffffffffffffffffffffffffffffffffff168373ffffffffffffffffffffffffffffffffffffffff16036137e357818160020160008282540392505081905550613833565b818160000160008573ffffffffffffffffffffffffffffffffffffffff1673ffffffffffffffffffffffffffffffffffffffff168152602001908152602001600020600082825401925050819055505b8273ffffffffffffffffffffffffffffffffffffffff168473ffffffffffffffffffffffffffffffffffffffff167fddf252ad1be2c89b69c2b068fc378daa952ba7f163c4a11628f55a4df523b3ef846040516138909190613b02565b60405180910390a350505050565b6000604051905090565b600080fd5b600080fd5b60007fffffffff0000000000000000000000000000000000000000000000000000000082169050919050565b6138e7816138b2565b81146138f257600080fd5b50565b600081359050613904816138de565b92915050565b6000602082840312156139205761391f6138a8565b5b600061392e848285016138f5565b91505092915050565b60008115159050919050565b61394c81613937565b82525050565b60006020820190506139676000830184613943565b92915050565b600081519050919050565b600082825260208201905092915050565b60005b838110156139a757808201518184015260208101905061398c565b60008484015250505050565b6000601f19601f8301169050919050565b60006139cf8261396d565b6139d98185613978565b93506139e9818560208601613989565b6139f2816139b3565b840191505092915050565b60006020820190508181036000830152613a1781846139c4565b905092915050565b600073ffffffffffffffffffffffffffffffffffffffff82169050919050565b6000613a4a82613a1f565b9050919050565b613a5a81613a3f565b8114613a6557600080fd5b50565b600081359050613a7781613a51565b92915050565b6000819050919050565b613a9081613a7d565b8114613a9b57600080fd5b50565b600081359050613aad81613a87565b92915050565b60008060408385031215613aca57613ac96138a8565b5b6000613ad885828601613a68565b9250506020613ae985828601613a9e565b9150509250929050565b613afc81613a7d565b82525050565b6000602082019050613b176000830184613af3565b92915050565b600080600060608486031215613b3657613b356138a8565b5b6000613b4486828701613a68565b9350506020613b5586828701613a68565b9250506040613b6686828701613a9e565b9150509250925092565b6000819050919050565b613b8381613b70565b8114613b8e57600080fd5b50565b600081359050613ba081613b7a565b92915050565b600060208284031215613bbc57613bbb6138a8565b5b6000613bca84828501613b91565b91505092915050565b613bdc81613b70565b82525050565b6000602082019050613bf76000830184613bd3565b92915050565b600060208284031215613c1357613c126138a8565b5b6000613c2184828501613a68565b91505092915050565b613c3381613a3f565b82525050565b6000602082019050613c4e6000830184613c2a565b92915050565b60008060408385031215613c6b57613c6a6138a8565b5b6000613c7985828601613b91565b9250506020613c8a85828601613a68565b9150509250929050565b600060ff82169050919050565b613caa81613c94565b82525050565b6000602082019050613cc56000830184613ca1565b92915050565b613cd481613c94565b8114613cdf57600080fd5b50565b600081359050613cf181613ccb565b92915050565b600080fd5b600080fd5b600080fd5b60008083601f840112613d1c57613d1b613cf7565b5b8235905067ffffffffffffffff811115613d3957613d38613cfc565b5b602083019150836020820283011115613d5557613d54613d01565b5b9250929050565b60008060008060608587031215613d7657613d756138a8565b5b6000613d8487828801613ce2565b9450506020613d9587828801613a68565b935050604085013567ffffffffffffffff811115613db657613db56138ad565b5b613dc287828801613d06565b925092505092959194509250565b613dd981613937565b8114613de457600080fd5b50565b600081359050613df681613dd0565b92915050565b60008060408385031215613e1357613e126138a8565b5b6000613e2185828601613a9e565b9250506020613e3285828601613de7565b9150509250929050565b600060208284031215613e5257613e516138a8565b5b6000613e6084828501613a9e565b91505092915050565b60008060408385031215613e8057613e7f6138a8565b5b6000613e8e85828601613b91565b9250506020613e9f85828601613a9e565b9150509250929050565b60008060408385031215613ec057613ebf6138a8565b5b6000613ece85828601613a9e565b9250506020613edf85828601613a9e565b9150509250929050565b7f4e487b7100000000000000000000000000000000000000000000000000000000600052604160045260246000fd5b613f21826139b3565b810181811067ffffffffffffffff82111715613f4057613f3f613ee9565b5b80604052505050565b6000613f5361389e565b9050613f5f8282613f18565b919050565b600067ffffffffffffffff821115613f7f57613f7e613ee9565b5b602082029050602081019050919050565b6000613fa3613f9e84613f64565b613f49565b90508083825260208201905060208402830185811115613fc657613fc5613d01565b5b835b81811015613fef5780613fdb8882613a68565b845260208401935050602081019050613fc8565b5050509392505050565b600082601f83011261400e5761400d613cf7565b5b813561401e848260208601613f90565b91505092915050565b600067ffffffffffffffff82111561404257614041613ee9565b5b602082029050602081019050919050565b600061406661406184614027565b613f49565b9050808382526020820190506020840283018581111561408957614088613d01565b5b835b818110156140b2578061409e8882613a9e565b84526020840193505060208101905061408b565b5050509392505050565b600082601f8301126140d1576140d0613cf7565b5b81356140e1848260208601614053565b91505092915050565b600080600060608486031215614103576141026138a8565b5b600084013567ffffffffffffffff811115614121576141206138ad565b5b61412d86828701613ff9565b935050602084013567ffffffffffffffff81111561414e5761414d6138ad565b5b61415a868287016140bc565b925050604061416b86828701613a9e565b9150509250925092565b60008060006060848603121561418e5761418d6138a8565b5b600061419c86828701613a68565b93505060206141ad86828701613a9e565b92505060406141be86828701613a9e565b9150509250925092565b600080604083850312156141df576141de6138a8565b5b60006141ed85828601613a68565b92505060206141fe85828601613a68565b9150509250929050565b600060408201905061421d6000830185613c2a565b61422a6020830184613943565b9392505050565b600060208284031215614247576142466138a8565b5b600082013567ffffffffffffffff811115614265576142646138ad565b5b61427184828501613ff9565b91505092915050565b60008060408385031215614291576142906138a8565b5b600061429f85828601613a9e565b92505060206142b085828601613a68565b9150509250929050565b7f4e487b7100000000000000000000000000000000000000000000000000000000600052602260045260246000fd5b6000600282049050600182168061430157607f821691505b602082108103614314576143136142ba565b5b50919050565b600060608201905061432f6000830186613af3565b61433c6020830185613c2a565b6143496040830184613c2a565b949350505050565b7f52455349546f6b656e3a204e4f205452414e534645522046524f4d20414c4c4f60008201527f5745440000000000000000000000000000000000000000000000000000000000602082015250565b60006143ad602383613978565b91506143b882614351565b604082019050919050565b600060208201905081810360008301526143dc816143a0565b9050919050565b7f4e487b7100000000000000000000000000000000000000000000000000000000600052603260045260246000fd5b7f4e487b7100000000000000000000000000000000000000000000000000000000600052601160045260246000fd5b600061444c82613a7d565b91507fffffffffffffffffffffffffffffffffffffffffffffffffffffffffffffffff820361447e5761447d614412565b5b600182019050919050565b600060408201905061449e6000830185613c2a565b6144ab6020830184613ca1565b9392505050565b6000819050919050565b600067ffffffffffffffff82169050919050565b6000819050919050565b60006144f56144f06144eb846144b2565b6144d0565b6144bc565b9050919050565b614505816144da565b82525050565b600060208201905061452060008301846144fc565b92915050565b600060408201905061453b6000830185613af3565b6145486020830184613943565b9392505050565b7f52455349546f6b656e3a2045786974732064697361626c656400000000000000600082015250565b6000614585601983613978565b91506145908261454f565b602082019050919050565b600060208201905081810360008301526145b481614578565b9050919050565b60006040820190506145d06000830185613af3565b6145dd6020830184613af3565b9392505050565b6000815190506145f381613a87565b92915050565b60006020828403121561460f5761460e6138a8565b5b600061461d848285016145e4565b91505092915050565b600060608201905061463b6000830186613c2a565b6146486020830185613af3565b6146556040830184613af3565b949350505050565b60006060820190506146726000830186613af3565b61467f6020830185613af3565b61468c6040830184613af3565b949350505050565b7f52455349546f6b656e3a204e4f205452414e5346455220414c4c4f5745440000600082015250565b60006146ca601e83613978565b91506146d582614694565b602082019050919050565b600060208201905081810360008301526146f9816146bd565b9050919050565b600061470b82613a7d565b915061471683613a7d565b925082820390508181111561472e5761472d614412565b5b92915050565b60006040820190506147496000830185613af3565b6147566020830184613c2a565b9392505050565b7f52455349546f6b656e3a20757365727320616e6420616d6f756e7473206c656e60008201527f677468206d69736d617463680000000000000000000000000000000000000000602082015250565b60006147b9602c83613978565b91506147c48261475d565b604082019050919050565b600060208201905081810360008301526147e8816147ac565b9050919050565b60008190508160005260206000209050919050565b60006020601f8301049050919050565b600082821b905092915050565b6000600883026148517fffffffffffffffffffffffffffffffffffffffffffffffffffffffffffffffff82614814565b61485b8683614814565b95508019841693508086168417925050509392505050565b600061488e61488961488484613a7d565b6144d0565b613a7d565b9050919050565b6000819050919050565b6148a883614873565b6148bc6148b482614895565b848454614821565b825550505050565b600090565b6148d16148c4565b6148dc81848461489f565b505050565b5b81811015614900576148f56000826148c9565b6001810190506148e2565b5050565b601f82111561494557614916816147ef565b61491f84614804565b8101602085101561492e578190505b61494261493a85614804565b8301826148e1565b50505b505050565b600082821c905092915050565b60006149686000198460080261494a565b1980831691505092915050565b60006149818383614957565b9150826002028217905092915050565b61499a8261396d565b67ffffffffffffffff8111156149b3576149b2613ee9565b5b6149bd82546142e9565b6149c8828285614904565b600060209050601f8311600181146149fb57600084156149e9578287015190505b6149f38582614975565b865550614a5b565b601f198416614a09866147ef565b60005b82811015614a3157848901518255600182019150602085019450602081019050614a0c565b86831015614a4e5784890151614a4a601f891682614957565b8355505b6001600288020188555050505b505050505050565b6000614a6e82613a7d565b9150614a7983613a7d565b9250828201905080821115614a9157614a90614412565b5b92915050565b6000604082019050614aac6000830185613c2a565b614ab96020830184613bd3565b9392505050565b7f4e487b7100000000000000000000000000000000000000000000000000000000600052603160045260246000fdfea26469706673582212201923113467a361a2953f49355dbee8381f9144045fa4e8fc291b8197b84bf85e64736f6c63430008140033",
  "devdoc": {
    "author": "Alejo Lovallo",
    "errors": {
      "AccessControlBadConfirmation()": [
        {
          "details": "The caller of a function is not the expected one. NOTE: Don't confuse with {AccessControlUnauthorizedAccount}."
        }
      ],
      "AccessControlUnauthorizedAccount(address,bytes32)": [
        {
          "details": "The `account` is missing a role."
        }
      ],
      "ERC20InsufficientAllowance(address,uint256,uint256)": [
        {
          "details": "Indicates a failure with the `spender`s `allowance`. Used in transfers.",
          "params": {
            "allowance": "Amount of tokens a `spender` is allowed to operate with.",
            "needed": "Minimum amount required to perform a transfer.",
            "spender": "Address that may be allowed to operate on tokens without being their owner."
          }
        }
      ],
      "ERC20InsufficientBalance(address,uint256,uint256)": [
        {
          "details": "Indicates an error related to the current `balance` of a `sender`. Used in transfers.",
          "params": {
            "balance": "Current balance for the interacting account.",
            "needed": "Minimum amount required to perform a transfer.",
            "sender": "Address whose tokens are being transferred."
          }
        }
      ],
      "ERC20InvalidApprover(address)": [
        {
          "details": "Indicates a failure with the `approver` of a token to be approved. Used in approvals.",
          "params": {
            "approver": "Address initiating an approval operation."
          }
        }
      ],
      "ERC20InvalidReceiver(address)": [
        {
          "details": "Indicates a failure with the token `receiver`. Used in transfers.",
          "params": {
            "receiver": "Address to which tokens are being transferred."
          }
        }
      ],
      "ERC20InvalidSender(address)": [
        {
          "details": "Indicates a failure with the token `sender`. Used in transfers.",
          "params": {
            "sender": "Address whose tokens are being transferred."
          }
        }
      ],
      "ERC20InvalidSpender(address)": [
        {
          "details": "Indicates a failure with the `spender` to be approved. Used in approvals.",
          "params": {
            "spender": "Address that may be allowed to operate on tokens without being their owner."
          }
        }
      ],
      "EnforcedPause()": [
        {
          "details": "The operation failed because the contract is paused."
        }
      ],
      "ExpectedPause()": [
        {
          "details": "The operation failed because the contract is not paused."
        }
      ],
      "InvalidInitialization()": [
        {
          "details": "The contract is already initialized."
        }
      ],
      "NotInitializing()": [
        {
          "details": "The contract is not initializing."
        }
      ],
      "ReentrancyGuardReentrantCall()": [
        {
          "details": "Unauthorized reentrant call."
        }
      ]
    },
    "events": {
      "Approval(address,address,uint256)": {
        "details": "Emitted when the allowance of a `spender` for an `owner` is set by a call to {approve}. `value` is the new allowance."
      },
      "Initialized(uint64)": {
        "details": "Triggered when the contract has been initialized or reinitialized."
      },
      "Paused(address)": {
        "details": "Emitted when the pause is triggered by `account`."
      },
      "RoleAdminChanged(bytes32,bytes32,bytes32)": {
        "details": "Emitted when `newAdminRole` is set as ``role``'s admin role, replacing `previousAdminRole` `DEFAULT_ADMIN_ROLE` is the starting admin for all roles, despite {RoleAdminChanged} not being emitted signaling this."
      },
      "RoleGranted(bytes32,address,address)": {
        "details": "Emitted when `account` is granted `role`. `sender` is the account that originated the contract call, an admin role bearer except when using {AccessControl-_setupRole}."
      },
      "RoleRevoked(bytes32,address,address)": {
        "details": "Emitted when `account` is revoked `role`. `sender` is the account that originated the contract call:   - if using `revokeRole`, it is the admin role bearer   - if using `renounceRole`, it is the role bearer (i.e. `account`)"
      },
      "Transfer(address,address,uint256)": {
        "details": "Emitted when `value` tokens are moved from one account (`from`) to another (`to`). Note that `value` may be zero."
      },
      "Unpaused(address)": {
        "details": "Emitted when the pause is lifted by `account`."
      }
    },
    "kind": "dev",
    "methods": {
      "addBuilder(address)": {
        "details": "Add new builder.",
        "params": {
          "_builder": "address."
        }
      },
      "addBuildersBatch(address[])": {
        "details": "Add builders batch.",
        "params": {
          "_builders": "array of builder addresses."
        }
      },
      "allowance(address,address)": {
        "details": "See {IERC20-allowance}."
      },
      "approve(address,uint256)": {
        "details": "See {IERC20-approve}. NOTE: If `value` is the maximum `uint256`, the allowance is not updated on `transferFrom`. This is semantically equivalent to an infinite approval. Requirements: - `spender` cannot be the zero address."
      },
      "award(address,uint256,uint256)": {
        "details": "Mint builder Resi tokens.",
        "params": {
          "_amount": "amount to mint/award.",
          "_serieId": "serie id.",
          "_to": "builder address."
        }
      },
      "awardBatch(address[],uint256[],uint256)": {
        "details": "Mint batch users",
        "params": {
          "_amounts": "array of amounts.",
          "_serieId": "serie id.",
          "_users": "array of users address (must be builders)."
        }
      },
      "balanceOf(address)": {
        "details": "See {IERC20-balanceOf}."
      },
      "burn(uint256)": {
        "details": "See {ERC20Upgradeable}"
      },
      "burn(uint256,uint256)": {
        "details": "Burn Resi tokens.",
        "params": {
          "_serieId": "serie id.",
          "_value": "amount to burn."
        }
      },
      "burnFrom(address,uint256)": {
        "details": "See {ERC20Upgradeable}"
      },
      "decimals()": {
        "details": "See {ERC20Upgradeable}"
      },
      "disableExits()": {
        "details": "Disable exits."
      },
      "enableExits()": {
        "details": "Enable exits and thus users will be able to change their resi-tokens."
      },
      "exit(uint256)": {
        "details": "Change Resi tokens for stable value token.",
        "params": {
          "_serieId": "serie id."
        }
      },
      "getRoleAdmin(bytes32)": {
        "details": "Returns the admin role that controls `role`. See {grantRole} and {revokeRole}. To change a role's admin, use {_setRoleAdmin}."
      },
      "getRoleMember(bytes32,uint256)": {
        "details": "Returns one of the accounts that have `role`. `index` must be a value between 0 and {getRoleMemberCount}, non-inclusive. Role bearers are not sorted in any particular way, and their ordering may change at any point. WARNING: When using {getRoleMember} and {getRoleMemberCount}, make sure you perform all queries on the same block. See the following https://forum.openzeppelin.com/t/iterating-over-elements-on-enumerableset-in-openzeppelin-contracts/2296[forum post] for more information."
      },
      "getRoleMemberCount(bytes32)": {
        "details": "Returns the number of accounts that have `role`. Can be used together with {getRoleMember} to enumerate all bearers of a role."
      },
      "grantRole(bytes32,address)": {
        "details": "Grants `role` to `account`. If `account` had not been already granted `role`, emits a {RoleGranted} event. Requirements: - the caller must have ``role``'s admin role. May emit a {RoleGranted} event."
      },
      "hasRole(bytes32,address)": {
        "details": "Returns `true` if `account` has been granted `role`."
      },
      "initialize(uint8,address,address[])": {
        "details": "Initialize contract.",
        "params": {
          "_builders": "array of builder addresses.",
          "_decimals": "token decimals.",
          "_treasury": "treasury address."
        }
      },
      "isBuilder(address)": {
        "params": {
          "_builder": "address."
        }
      },
      "name()": {
        "details": "Returns the name of the token."
      },
      "pause()": {
        "details": "Pause contract."
      },
      "paused()": {
        "details": "Returns true if the contract is paused, and false otherwise."
      },
      "removeBuilder(address)": {
        "details": "Remove builder user.",
        "params": {
          "_builder": "builder address."
        }
      },
      "renounceRole(bytes32,address)": {
        "details": "Revokes `role` from the calling account. Roles are often managed via {grantRole} and {revokeRole}: this function's purpose is to provide a mechanism for accounts to lose their privileges if they are compromised (such as when a trusted device is misplaced). If the calling account had been revoked `role`, emits a {RoleRevoked} event. Requirements: - the caller must be `callerConfirmation`. May emit a {RoleRevoked} event."
      },
      "revokeRole(bytes32,address)": {
        "details": "Revokes `role` from `account`. If `account` had been granted `role`, emits a {RoleRevoked} event. Requirements: - the caller must have ``role``'s admin role. May emit a {RoleRevoked} event."
      },
      "setSerieVault(address,uint256)": {
        "details": "Set serie vault",
        "params": {
          "_serieId": "serie id.",
          "_vault": "vault address."
        }
      },
      "supportsInterface(bytes4)": {
        "details": "See {IERC165-supportsInterface}."
      },
      "symbol()": {
        "details": "Returns the symbol of the token, usually a shorter version of the name."
      },
      "totalSupply()": {
        "details": "See {IERC20-totalSupply}."
      },
      "transfer(address,uint256)": {
        "details": "It is not allowed to transfer resi token"
      },
      "transferFrom(address,address,uint256)": {
        "details": "It is not allowed to transfer resi token"
      },
      "unpause()": {
        "details": "Unpause contract."
      },
      "updateSerieVaultStatus(uint256,bool)": {
        "details": "enable or disable serie vault.",
        "params": {
          "_serieId": "serie id.",
          "_status": "new serie vault status."
        }
      },
      "version()": {
        "details": "Version for upgradeable version",
        "returns": {
          "_0": "version"
        }
      },
      "withdrawSerieVaultToken(uint256)": {
        "details": "Withdrawn stable token funds from vault dust back to the treasury."
      }
    },
    "stateVariables": {
      "BUILDER_ROLE": {
        "details": "BUILDER_ROLE"
      },
      "EXIT_STATE": {
        "details": "exit state: whether exits are enable or not"
      },
      "TREASURY": {
        "details": "treasury address"
      },
      "_DECIMALS": {
        "details": "token decimals."
      },
      "serieSupplies": {
        "details": "Serie supply minted"
      },
      "serieVaults": {
        "details": "Vault serie id"
      },
      "upgradeGap": {
        "details": "Leave a gap betweeen inherited contracts variables in orderto be able to add more variables in them later."
      },
      "userSerieBalance": {
        "details": "User balance per serie"
      }
    },
    "title": "Resi Token V1",
    "version": 1
  },
  "userdoc": {
    "kind": "user",
    "methods": {
      "isBuilder(address)": {
        "notice": "#dev Returns whether an address is a builder."
      }
    },
    "version": 1
  },
  "storageLayout": {
    "storage": [
      {
        "astId": 4794,
        "contract": "contracts/ResiToken.sol:ResiToken",
        "label": "_rolesSet",
        "offset": 0,
        "slot": "0",
        "type": "t_struct(Bytes32Set)4334_storage"
      },
      {
        "astId": 4797,
        "contract": "contracts/ResiToken.sol:ResiToken",
        "label": "_DECIMALS",
        "offset": 0,
        "slot": "2",
        "type": "t_uint8"
      },
      {
        "astId": 4800,
        "contract": "contracts/ResiToken.sol:ResiToken",
        "label": "TREASURY",
        "offset": 1,
        "slot": "2",
        "type": "t_address"
      },
      {
        "astId": 4803,
        "contract": "contracts/ResiToken.sol:ResiToken",
        "label": "EXIT_STATE",
        "offset": 21,
        "slot": "2",
        "type": "t_bool"
      },
      {
        "astId": 4808,
        "contract": "contracts/ResiToken.sol:ResiToken",
        "label": "serieSupplies",
        "offset": 0,
        "slot": "3",
        "type": "t_mapping(t_uint256,t_uint256)"
      },
      {
        "astId": 4815,
        "contract": "contracts/ResiToken.sol:ResiToken",
        "label": "userSerieBalance",
        "offset": 0,
        "slot": "4",
        "type": "t_mapping(t_uint256,t_mapping(t_address,t_uint256))"
      },
      {
        "astId": 4821,
        "contract": "contracts/ResiToken.sol:ResiToken",
        "label": "serieVaults",
        "offset": 0,
        "slot": "5",
        "type": "t_mapping(t_uint256,t_struct(SerieVault)6149_storage)"
      },
      {
        "astId": 5771,
        "contract": "contracts/ResiToken.sol:ResiToken",
        "label": "upgradeGap",
        "offset": 0,
        "slot": "6",
        "type": "t_array(t_uint256)20_storage"
      }
    ],
    "types": {
      "t_address": {
        "encoding": "inplace",
        "label": "address",
        "numberOfBytes": "20"
      },
      "t_array(t_bytes32)dyn_storage": {
        "base": "t_bytes32",
        "encoding": "dynamic_array",
        "label": "bytes32[]",
        "numberOfBytes": "32"
      },
      "t_array(t_uint256)20_storage": {
        "base": "t_uint256",
        "encoding": "inplace",
        "label": "uint256[20]",
        "numberOfBytes": "640"
      },
      "t_bool": {
        "encoding": "inplace",
        "label": "bool",
        "numberOfBytes": "1"
      },
      "t_bytes32": {
        "encoding": "inplace",
        "label": "bytes32",
        "numberOfBytes": "32"
      },
      "t_mapping(t_address,t_uint256)": {
        "encoding": "mapping",
        "key": "t_address",
        "label": "mapping(address => uint256)",
        "numberOfBytes": "32",
        "value": "t_uint256"
      },
      "t_mapping(t_bytes32,t_uint256)": {
        "encoding": "mapping",
        "key": "t_bytes32",
        "label": "mapping(bytes32 => uint256)",
        "numberOfBytes": "32",
        "value": "t_uint256"
      },
      "t_mapping(t_uint256,t_mapping(t_address,t_uint256))": {
        "encoding": "mapping",
        "key": "t_uint256",
        "label": "mapping(uint256 => mapping(address => uint256))",
        "numberOfBytes": "32",
        "value": "t_mapping(t_address,t_uint256)"
      },
      "t_mapping(t_uint256,t_struct(SerieVault)6149_storage)": {
        "encoding": "mapping",
        "key": "t_uint256",
        "label": "mapping(uint256 => struct IResiToken.SerieVault)",
        "numberOfBytes": "32",
        "value": "t_struct(SerieVault)6149_storage"
      },
      "t_mapping(t_uint256,t_uint256)": {
        "encoding": "mapping",
        "key": "t_uint256",
        "label": "mapping(uint256 => uint256)",
        "numberOfBytes": "32",
        "value": "t_uint256"
      },
      "t_struct(Bytes32Set)4334_storage": {
        "encoding": "inplace",
        "label": "struct EnumerableSet.Bytes32Set",
        "members": [
          {
            "astId": 4333,
            "contract": "contracts/ResiToken.sol:ResiToken",
            "label": "_inner",
            "offset": 0,
            "slot": "0",
            "type": "t_struct(Set)4140_storage"
          }
        ],
        "numberOfBytes": "64"
      },
      "t_struct(SerieVault)6149_storage": {
        "encoding": "inplace",
        "label": "struct IResiToken.SerieVault",
        "members": [
          {
            "astId": 6146,
            "contract": "contracts/ResiToken.sol:ResiToken",
            "label": "vault",
            "offset": 0,
            "slot": "0",
            "type": "t_address"
          },
          {
            "astId": 6148,
            "contract": "contracts/ResiToken.sol:ResiToken",
            "label": "active",
            "offset": 20,
            "slot": "0",
            "type": "t_bool"
          }
        ],
        "numberOfBytes": "32"
      },
      "t_struct(Set)4140_storage": {
        "encoding": "inplace",
        "label": "struct EnumerableSet.Set",
        "members": [
          {
            "astId": 4135,
            "contract": "contracts/ResiToken.sol:ResiToken",
            "label": "_values",
            "offset": 0,
            "slot": "0",
            "type": "t_array(t_bytes32)dyn_storage"
          },
          {
            "astId": 4139,
            "contract": "contracts/ResiToken.sol:ResiToken",
            "label": "_positions",
            "offset": 0,
            "slot": "1",
            "type": "t_mapping(t_bytes32,t_uint256)"
          }
        ],
        "numberOfBytes": "64"
      },
      "t_uint256": {
        "encoding": "inplace",
        "label": "uint256",
        "numberOfBytes": "32"
      },
      "t_uint8": {
        "encoding": "inplace",
        "label": "uint8",
        "numberOfBytes": "1"
      }
    }
  }
}