{
  "address": "0x980B374E2b81C8491D557C7c9B89113afb11Ab8B",
  "abi": [
    {
      "inputs": [],
      "stateMutability": "nonpayable",
      "type": "constructor"
    },
    {
      "inputs": [],
      "name": "AccessControlBadConfirmation",
      "type": "error"
    },
    {
      "inputs": [
        {
          "internalType": "address",
          "name": "account",
          "type": "address"
        },
        {
          "internalType": "bytes32",
          "name": "neededRole",
          "type": "bytes32"
        }
      ],
      "name": "AccessControlUnauthorizedAccount",
      "type": "error"
    },
    {
      "inputs": [
        {
          "internalType": "address",
          "name": "target",
          "type": "address"
        }
      ],
      "name": "AddressEmptyCode",
      "type": "error"
    },
    {
      "inputs": [
        {
          "internalType": "address",
          "name": "account",
          "type": "address"
        }
      ],
      "name": "AddressInsufficientBalance",
      "type": "error"
    },
    {
      "inputs": [
        {
          "internalType": "address",
          "name": "builder",
          "type": "address"
        }
      ],
      "name": "AlreadyBuilder",
      "type": "error"
    },
    {
      "inputs": [],
      "name": "BurnForbbidden",
      "type": "error"
    },
    {
      "inputs": [
        {
          "internalType": "address",
          "name": "spender",
          "type": "address"
        },
        {
          "internalType": "uint256",
          "name": "allowance",
          "type": "uint256"
        },
        {
          "internalType": "uint256",
          "name": "needed",
          "type": "uint256"
        }
      ],
      "name": "ERC20InsufficientAllowance",
      "type": "error"
    },
    {
      "inputs": [
        {
          "internalType": "address",
          "name": "sender",
          "type": "address"
        },
        {
          "internalType": "uint256",
          "name": "balance",
          "type": "uint256"
        },
        {
          "internalType": "uint256",
          "name": "needed",
          "type": "uint256"
        }
      ],
      "name": "ERC20InsufficientBalance",
      "type": "error"
    },
    {
      "inputs": [
        {
          "internalType": "address",
          "name": "approver",
          "type": "address"
        }
      ],
      "name": "ERC20InvalidApprover",
      "type": "error"
    },
    {
      "inputs": [
        {
          "internalType": "address",
          "name": "receiver",
          "type": "address"
        }
      ],
      "name": "ERC20InvalidReceiver",
      "type": "error"
    },
    {
      "inputs": [
        {
          "internalType": "address",
          "name": "sender",
          "type": "address"
        }
      ],
      "name": "ERC20InvalidSender",
      "type": "error"
    },
    {
      "inputs": [
        {
          "internalType": "address",
          "name": "spender",
          "type": "address"
        }
      ],
      "name": "ERC20InvalidSpender",
      "type": "error"
    },
    {
      "inputs": [],
      "name": "EnforcedPause",
      "type": "error"
    },
    {
      "inputs": [],
      "name": "ExpectedPause",
      "type": "error"
    },
    {
      "inputs": [],
      "name": "FailedInnerCall",
      "type": "error"
    },
    {
      "inputs": [
        {
          "internalType": "address",
          "name": "adr",
          "type": "address"
        }
      ],
      "name": "InvalidAddress",
      "type": "error"
    },
    {
      "inputs": [
        {
          "internalType": "uint256",
          "name": "amount",
          "type": "uint256"
        }
      ],
      "name": "InvalidAmount",
      "type": "error"
    },
    {
      "inputs": [
        {
          "internalType": "address",
          "name": "builder",
          "type": "address"
        }
      ],
      "name": "InvalidBuilder",
      "type": "error"
    },
    {
      "inputs": [
        {
          "internalType": "uint8",
          "name": "decimals",
          "type": "uint8"
        }
      ],
      "name": "InvalidDecimals",
      "type": "error"
    },
    {
      "inputs": [],
      "name": "InvalidInitialization",
      "type": "error"
    },
    {
      "inputs": [
        {
          "internalType": "uint256",
          "name": "currentValueTokenBalance",
          "type": "uint256"
        },
        {
          "internalType": "uint256",
          "name": "userBalance",
          "type": "uint256"
        },
        {
          "internalType": "uint256",
          "name": "serieSupplies",
          "type": "uint256"
        },
        {
          "internalType": "uint256",
          "name": "quote",
          "type": "uint256"
        }
      ],
      "name": "InvalidQuote",
      "type": "error"
    },
    {
      "inputs": [
        {
          "internalType": "uint256",
          "name": "serieId",
          "type": "uint256"
        }
      ],
      "name": "InvalidSerie",
      "type": "error"
    },
    {
      "inputs": [
        {
          "internalType": "uint256",
          "name": "amount",
          "type": "uint256"
        }
      ],
      "name": "InvalidUserSerieBalance",
      "type": "error"
    },
    {
      "inputs": [],
      "name": "NotInitializing",
      "type": "error"
    },
    {
      "inputs": [],
      "name": "ReentrancyGuardReentrantCall",
      "type": "error"
    },
    {
      "inputs": [
        {
          "internalType": "address",
          "name": "token",
          "type": "address"
        }
      ],
      "name": "SafeERC20FailedOperation",
      "type": "error"
    },
    {
      "inputs": [
        {
          "internalType": "uint256",
          "name": "serieId",
          "type": "uint256"
        }
      ],
      "name": "SerieWithNoMintedSupply",
      "type": "error"
    },
    {
      "inputs": [
        {
          "internalType": "string",
          "name": "message",
          "type": "string"
        }
      ],
      "name": "TransferForbidden",
      "type": "error"
    },
    {
      "inputs": [
        {
          "internalType": "string",
          "name": "message",
          "type": "string"
        }
      ],
      "name": "TransferFromForbidden",
      "type": "error"
    },
    {
      "anonymous": false,
      "inputs": [
        {
          "indexed": true,
          "internalType": "address",
          "name": "owner",
          "type": "address"
        },
        {
          "indexed": true,
          "internalType": "address",
          "name": "spender",
          "type": "address"
        },
        {
          "indexed": false,
          "internalType": "uint256",
          "name": "value",
          "type": "uint256"
        }
      ],
      "name": "Approval",
      "type": "event"
    },
    {
      "anonymous": false,
      "inputs": [
        {
          "indexed": false,
          "internalType": "address",
          "name": "newMinter",
          "type": "address"
        }
      ],
      "name": "BuilderAdded",
      "type": "event"
    },
    {
      "anonymous": false,
      "inputs": [
        {
          "indexed": false,
          "internalType": "address",
          "name": "builder",
          "type": "address"
        }
      ],
      "name": "BuilderRemoved",
      "type": "event"
    },
    {
      "anonymous": false,
      "inputs": [
        {
          "indexed": false,
          "internalType": "address",
          "name": "user",
          "type": "address"
        },
        {
          "indexed": false,
          "internalType": "uint256",
          "name": "amount",
          "type": "uint256"
        },
        {
          "indexed": false,
          "internalType": "uint256",
          "name": "serieId",
          "type": "uint256"
        }
      ],
      "name": "Exit",
      "type": "event"
    },
    {
      "anonymous": false,
      "inputs": [
        {
          "indexed": false,
          "internalType": "bool",
          "name": "update",
          "type": "bool"
        }
      ],
      "name": "ExitStateUpdated",
      "type": "event"
    },
    {
      "anonymous": false,
      "inputs": [
        {
          "indexed": false,
          "internalType": "uint64",
          "name": "version",
          "type": "uint64"
        }
      ],
      "name": "Initialized",
      "type": "event"
    },
    {
      "anonymous": false,
      "inputs": [
        {
          "indexed": false,
          "internalType": "address",
          "name": "account",
          "type": "address"
        }
      ],
      "name": "Paused",
      "type": "event"
    },
    {
      "anonymous": false,
      "inputs": [
        {
          "indexed": false,
          "internalType": "uint256",
          "name": "value",
          "type": "uint256"
        },
        {
          "indexed": false,
          "internalType": "uint256",
          "name": "serieId",
          "type": "uint256"
        }
      ],
      "name": "ResiTokenBurnt",
      "type": "event"
    },
    {
      "anonymous": false,
      "inputs": [
        {
          "indexed": false,
          "internalType": "address",
          "name": "treasury",
          "type": "address"
        },
        {
          "indexed": false,
          "internalType": "address",
          "name": "_token",
          "type": "address"
        },
        {
          "indexed": false,
          "internalType": "uint8",
          "name": "decimals",
          "type": "uint8"
        }
      ],
      "name": "ResiTokenInitialized",
      "type": "event"
    },
    {
      "anonymous": false,
      "inputs": [
        {
          "indexed": true,
          "internalType": "bytes32",
          "name": "role",
          "type": "bytes32"
        },
        {
          "indexed": true,
          "internalType": "bytes32",
          "name": "previousAdminRole",
          "type": "bytes32"
        },
        {
          "indexed": true,
          "internalType": "bytes32",
          "name": "newAdminRole",
          "type": "bytes32"
        }
      ],
      "name": "RoleAdminChanged",
      "type": "event"
    },
    {
      "anonymous": false,
      "inputs": [
        {
          "indexed": true,
          "internalType": "bytes32",
          "name": "role",
          "type": "bytes32"
        },
        {
          "indexed": true,
          "internalType": "address",
          "name": "account",
          "type": "address"
        },
        {
          "indexed": true,
          "internalType": "address",
          "name": "sender",
          "type": "address"
        }
      ],
      "name": "RoleGranted",
      "type": "event"
    },
    {
      "anonymous": false,
      "inputs": [
        {
          "indexed": true,
          "internalType": "bytes32",
          "name": "role",
          "type": "bytes32"
        },
        {
          "indexed": true,
          "internalType": "address",
          "name": "account",
          "type": "address"
        },
        {
          "indexed": true,
          "internalType": "address",
          "name": "sender",
          "type": "address"
        }
      ],
      "name": "RoleRevoked",
      "type": "event"
    },
    {
      "anonymous": false,
      "inputs": [
        {
          "indexed": true,
          "internalType": "address",
          "name": "from",
          "type": "address"
        },
        {
          "indexed": true,
          "internalType": "address",
          "name": "to",
          "type": "address"
        },
        {
          "indexed": false,
          "internalType": "uint256",
          "name": "value",
          "type": "uint256"
        }
      ],
      "name": "Transfer",
      "type": "event"
    },
    {
      "anonymous": false,
      "inputs": [
        {
          "indexed": false,
          "internalType": "address",
          "name": "account",
          "type": "address"
        }
      ],
      "name": "Unpaused",
      "type": "event"
    },
    {
      "anonymous": false,
      "inputs": [
        {
          "indexed": false,
          "internalType": "address",
          "name": "user",
          "type": "address"
        },
        {
          "indexed": false,
          "internalType": "uint256",
          "name": "amount",
          "type": "uint256"
        },
        {
          "indexed": false,
          "internalType": "uint256",
          "name": "serieId",
          "type": "uint256"
        }
      ],
      "name": "UserAwarded",
      "type": "event"
    },
    {
      "anonymous": false,
      "inputs": [
        {
          "indexed": false,
          "internalType": "address",
          "name": "oldToken",
          "type": "address"
        },
        {
          "indexed": false,
          "internalType": "address",
          "name": "newToken",
          "type": "address"
        }
      ],
      "name": "ValueTokenUpdated",
      "type": "event"
    },
    {
      "inputs": [],
      "name": "BUILDER_ROLE",
      "outputs": [
        {
          "internalType": "bytes32",
          "name": "",
          "type": "bytes32"
        }
      ],
      "stateMutability": "view",
      "type": "function"
    },
    {
      "inputs": [],
      "name": "DEFAULT_ADMIN_ROLE",
      "outputs": [
        {
          "internalType": "bytes32",
          "name": "",
          "type": "bytes32"
        }
      ],
      "stateMutability": "view",
      "type": "function"
    },
    {
      "inputs": [],
      "name": "EXIT_STATE",
      "outputs": [
        {
          "internalType": "bool",
          "name": "",
          "type": "bool"
        }
      ],
      "stateMutability": "view",
      "type": "function"
    },
    {
      "inputs": [],
      "name": "STABLE_TOKEN",
      "outputs": [
        {
          "internalType": "address",
          "name": "",
          "type": "address"
        }
      ],
      "stateMutability": "view",
      "type": "function"
    },
    {
      "inputs": [],
      "name": "TREASURY",
      "outputs": [
        {
          "internalType": "address",
          "name": "",
          "type": "address"
        }
      ],
      "stateMutability": "view",
      "type": "function"
    },
    {
      "inputs": [
        {
          "internalType": "address",
          "name": "_builder",
          "type": "address"
        }
      ],
      "name": "addBuilder",
      "outputs": [],
      "stateMutability": "nonpayable",
      "type": "function"
    },
    {
      "inputs": [
        {
          "internalType": "address[]",
          "name": "_builders",
          "type": "address[]"
        }
      ],
      "name": "addBuildersBatch",
      "outputs": [],
      "stateMutability": "nonpayable",
      "type": "function"
    },
    {
      "inputs": [
        {
          "internalType": "address",
          "name": "owner",
          "type": "address"
        },
        {
          "internalType": "address",
          "name": "spender",
          "type": "address"
        }
      ],
      "name": "allowance",
      "outputs": [
        {
          "internalType": "uint256",
          "name": "",
          "type": "uint256"
        }
      ],
      "stateMutability": "view",
      "type": "function"
    },
    {
      "inputs": [
        {
          "internalType": "address",
          "name": "spender",
          "type": "address"
        },
        {
          "internalType": "uint256",
          "name": "value",
          "type": "uint256"
        }
      ],
      "name": "approve",
      "outputs": [
        {
          "internalType": "bool",
          "name": "",
          "type": "bool"
        }
      ],
      "stateMutability": "nonpayable",
      "type": "function"
    },
    {
      "inputs": [
        {
          "internalType": "address",
          "name": "_to",
          "type": "address"
        },
        {
          "internalType": "uint256",
          "name": "_amount",
          "type": "uint256"
        },
        {
          "internalType": "uint256",
          "name": "_serieId",
          "type": "uint256"
        }
      ],
      "name": "award",
      "outputs": [],
      "stateMutability": "nonpayable",
      "type": "function"
    },
    {
      "inputs": [
        {
          "internalType": "address[]",
          "name": "_users",
          "type": "address[]"
        },
        {
          "internalType": "uint256[]",
          "name": "_amounts",
          "type": "uint256[]"
        },
        {
          "internalType": "uint256",
          "name": "_serieId",
          "type": "uint256"
        }
      ],
      "name": "awardBatch",
      "outputs": [],
      "stateMutability": "nonpayable",
      "type": "function"
    },
    {
      "inputs": [
        {
          "internalType": "address",
          "name": "account",
          "type": "address"
        }
      ],
      "name": "balanceOf",
      "outputs": [
        {
          "internalType": "uint256",
          "name": "",
          "type": "uint256"
        }
      ],
      "stateMutability": "view",
      "type": "function"
    },
    {
      "inputs": [
        {
          "internalType": "uint256",
          "name": "",
          "type": "uint256"
        }
      ],
      "name": "burn",
      "outputs": [],
      "stateMutability": "pure",
      "type": "function"
    },
    {
      "inputs": [
        {
          "internalType": "uint256",
          "name": "_value",
          "type": "uint256"
        },
        {
          "internalType": "uint256",
          "name": "_serieId",
          "type": "uint256"
        }
      ],
      "name": "burn",
      "outputs": [],
      "stateMutability": "nonpayable",
      "type": "function"
    },
    {
      "inputs": [
        {
          "internalType": "address",
          "name": "",
          "type": "address"
        },
        {
          "internalType": "uint256",
          "name": "",
          "type": "uint256"
        }
      ],
      "name": "burnFrom",
      "outputs": [],
      "stateMutability": "pure",
      "type": "function"
    },
    {
      "inputs": [],
      "name": "decimals",
      "outputs": [
        {
          "internalType": "uint8",
          "name": "",
          "type": "uint8"
        }
      ],
      "stateMutability": "view",
      "type": "function"
    },
    {
      "inputs": [],
      "name": "disableExits",
      "outputs": [],
      "stateMutability": "nonpayable",
      "type": "function"
    },
    {
      "inputs": [],
      "name": "enableExits",
      "outputs": [],
      "stateMutability": "nonpayable",
      "type": "function"
    },
    {
      "inputs": [
        {
          "internalType": "uint256",
          "name": "_serieId",
          "type": "uint256"
        }
      ],
      "name": "exit",
      "outputs": [],
      "stateMutability": "nonpayable",
      "type": "function"
    },
    {
      "inputs": [
        {
          "internalType": "bytes32",
          "name": "role",
          "type": "bytes32"
        }
      ],
      "name": "getRoleAdmin",
      "outputs": [
        {
          "internalType": "bytes32",
          "name": "",
          "type": "bytes32"
        }
      ],
      "stateMutability": "view",
      "type": "function"
    },
    {
      "inputs": [
        {
          "internalType": "bytes32",
          "name": "role",
          "type": "bytes32"
        },
        {
          "internalType": "uint256",
          "name": "index",
          "type": "uint256"
        }
      ],
      "name": "getRoleMember",
      "outputs": [
        {
          "internalType": "address",
          "name": "",
          "type": "address"
        }
      ],
      "stateMutability": "view",
      "type": "function"
    },
    {
      "inputs": [
        {
          "internalType": "bytes32",
          "name": "role",
          "type": "bytes32"
        }
      ],
      "name": "getRoleMemberCount",
      "outputs": [
        {
          "internalType": "uint256",
          "name": "",
          "type": "uint256"
        }
      ],
      "stateMutability": "view",
      "type": "function"
    },
    {
      "inputs": [
        {
          "internalType": "bytes32",
          "name": "role",
          "type": "bytes32"
        },
        {
          "internalType": "address",
          "name": "account",
          "type": "address"
        }
      ],
      "name": "grantRole",
      "outputs": [],
      "stateMutability": "nonpayable",
      "type": "function"
    },
    {
      "inputs": [
        {
          "internalType": "bytes32",
          "name": "role",
          "type": "bytes32"
        },
        {
          "internalType": "address",
          "name": "account",
          "type": "address"
        }
      ],
      "name": "hasRole",
      "outputs": [
        {
          "internalType": "bool",
          "name": "",
          "type": "bool"
        }
      ],
      "stateMutability": "view",
      "type": "function"
    },
    {
      "inputs": [
        {
          "internalType": "string",
          "name": "_name",
          "type": "string"
        },
        {
          "internalType": "string",
          "name": "_symbol",
          "type": "string"
        },
        {
          "internalType": "uint8",
          "name": "_decimals",
          "type": "uint8"
        },
        {
          "internalType": "address",
          "name": "_treasury",
          "type": "address"
        },
        {
          "internalType": "address",
          "name": "_token",
          "type": "address"
        },
        {
          "internalType": "address[]",
          "name": "_builders",
          "type": "address[]"
        }
      ],
      "name": "initialize",
      "outputs": [],
      "stateMutability": "nonpayable",
      "type": "function"
    },
    {
      "inputs": [
        {
          "internalType": "address",
          "name": "_builder",
          "type": "address"
        }
      ],
      "name": "isBuilder",
      "outputs": [
        {
          "internalType": "bool",
          "name": "",
          "type": "bool"
        }
      ],
      "stateMutability": "view",
      "type": "function"
    },
    {
      "inputs": [],
      "name": "name",
      "outputs": [
        {
          "internalType": "string",
          "name": "",
          "type": "string"
        }
      ],
      "stateMutability": "view",
      "type": "function"
    },
    {
      "inputs": [],
      "name": "pause",
      "outputs": [],
      "stateMutability": "nonpayable",
      "type": "function"
    },
    {
      "inputs": [],
      "name": "paused",
      "outputs": [
        {
          "internalType": "bool",
          "name": "",
          "type": "bool"
        }
      ],
      "stateMutability": "view",
      "type": "function"
    },
    {
      "inputs": [
        {
          "internalType": "address",
          "name": "_builder",
          "type": "address"
        }
      ],
      "name": "removeBuilder",
      "outputs": [],
      "stateMutability": "nonpayable",
      "type": "function"
    },
    {
      "inputs": [
        {
          "internalType": "bytes32",
          "name": "role",
          "type": "bytes32"
        },
        {
          "internalType": "address",
          "name": "callerConfirmation",
          "type": "address"
        }
      ],
      "name": "renounceRole",
      "outputs": [],
      "stateMutability": "nonpayable",
      "type": "function"
    },
    {
      "inputs": [
        {
          "internalType": "bytes32",
          "name": "role",
          "type": "bytes32"
        },
        {
          "internalType": "address",
          "name": "account",
          "type": "address"
        }
      ],
      "name": "revokeRole",
      "outputs": [],
      "stateMutability": "nonpayable",
      "type": "function"
    },
    {
      "inputs": [
        {
          "internalType": "uint256",
          "name": "serieId",
          "type": "uint256"
        }
      ],
      "name": "serieSupplies",
      "outputs": [
        {
          "internalType": "uint256",
          "name": "supplyEmitted",
          "type": "uint256"
        }
      ],
      "stateMutability": "view",
      "type": "function"
    },
    {
      "inputs": [
        {
          "internalType": "address",
          "name": "_newToken",
          "type": "address"
        }
      ],
      "name": "setValueToken",
      "outputs": [],
      "stateMutability": "nonpayable",
      "type": "function"
    },
    {
      "inputs": [
        {
          "internalType": "bytes4",
          "name": "interfaceId",
          "type": "bytes4"
        }
      ],
      "name": "supportsInterface",
      "outputs": [
        {
          "internalType": "bool",
          "name": "",
          "type": "bool"
        }
      ],
      "stateMutability": "view",
      "type": "function"
    },
    {
      "inputs": [],
      "name": "symbol",
      "outputs": [
        {
          "internalType": "string",
          "name": "",
          "type": "string"
        }
      ],
      "stateMutability": "view",
      "type": "function"
    },
    {
      "inputs": [],
      "name": "totalSupply",
      "outputs": [
        {
          "internalType": "uint256",
          "name": "",
          "type": "uint256"
        }
      ],
      "stateMutability": "view",
      "type": "function"
    },
    {
      "inputs": [
        {
          "internalType": "address",
          "name": "",
          "type": "address"
        },
        {
          "internalType": "uint256",
          "name": "",
          "type": "uint256"
        }
      ],
      "name": "transfer",
      "outputs": [
        {
          "internalType": "bool",
          "name": "",
          "type": "bool"
        }
      ],
      "stateMutability": "pure",
      "type": "function"
    },
    {
      "inputs": [
        {
          "internalType": "address",
          "name": "",
          "type": "address"
        },
        {
          "internalType": "address",
          "name": "",
          "type": "address"
        },
        {
          "internalType": "uint256",
          "name": "",
          "type": "uint256"
        }
      ],
      "name": "transferFrom",
      "outputs": [
        {
          "internalType": "bool",
          "name": "",
          "type": "bool"
        }
      ],
      "stateMutability": "pure",
      "type": "function"
    },
    {
      "inputs": [],
      "name": "unpause",
      "outputs": [],
      "stateMutability": "nonpayable",
      "type": "function"
    },
    {
      "inputs": [
        {
          "internalType": "uint256",
          "name": "serieId",
          "type": "uint256"
        },
        {
          "internalType": "address",
          "name": "user",
          "type": "address"
        }
      ],
      "name": "userSerieBalance",
      "outputs": [
        {
          "internalType": "uint256",
          "name": "balance",
          "type": "uint256"
        }
      ],
      "stateMutability": "view",
      "type": "function"
    },
    {
      "inputs": [],
      "name": "version",
      "outputs": [
        {
          "internalType": "string",
          "name": "",
          "type": "string"
        }
      ],
      "stateMutability": "pure",
      "type": "function"
    }
  ],
  "transactionHash": "0xd4b098d9bfdfbd3bca1d5ae9da3d18dffb42c6fdcfd190afbbcbe7d91cc8840c",
  "args": [],
  "numDeployments": 1,
  "solcInputHash": "7ba1557c79df2852e3033cb430d5000e",
  "bytecode": "0x60806040523480156200001157600080fd5b50620000226200002860201b60201c565b6200019c565b60006200003a6200013260201b60201c565b90508060000160089054906101000a900460ff161562000086576040517ff92ee8a900000000000000000000000000000000000000000000000000000000815260040160405180910390fd5b67ffffffffffffffff80168160000160009054906101000a900467ffffffffffffffff1667ffffffffffffffff16146200012f5767ffffffffffffffff8160000160006101000a81548167ffffffffffffffff021916908367ffffffffffffffff1602179055507fc7f505b2f371ae2175ee4913f4499e1f2633a7b5936321eed1cdaeb6115181d267ffffffffffffffff6040516200012691906200017f565b60405180910390a15b50565b60007ff0c57e16840df040f15088dc2f81fe391c3923bec73e23a9662efc9c229c6a00905090565b600067ffffffffffffffff82169050919050565b62000179816200015a565b82525050565b60006020820190506200019660008301846200016e565b92915050565b614a5080620001ac6000396000f3fe608060405234801561001057600080fd5b506004361061025e5760003560e01c80639010d07c11610146578063bf4dc22f116100c3578063d597c86811610087578063d597c868146106fd578063dd44137514610719578063dd62ed3e14610735578063ec96938614610765578063f629c18414610781578063fff12f771461079d5761025e565b8063bf4dc22f1461065b578063ca15c87314610677578063cd0d51c8146106a7578063ce3d78d6146106c3578063d547741f146106e15761025e565b8063a62d8f091161010a578063a62d8f09146105b7578063a9059cbb146105c1578063aafadb01146105f1578063b390c0ab1461060f578063b6b6b4751461062b5761025e565b80639010d07c1461051157806391d1485414610541578063927814fc1461057157806395d89b411461057b578063a217fddf146105995761025e565b806336568abe116101df57806370a08231116101a357806370a08231146104515780637754f8871461048157806379cc67901461049f5780637f8661a1146104bb5780638456cb59146104d75780638a01860d146104e15761025e565b806336568abe146103d35780633f4ba83a146103ef57806342966c68146103f957806354fd4d50146104155780635c975abb146104335761025e565b8063248a9ca311610226578063248a9ca31461032f57806325f5ffa41461035f5780632d2c55651461037b5780632f2ff15d14610399578063313ce567146103b55761025e565b806301ffc9a71461026357806306fdde0314610293578063095ea7b3146102b157806318160ddd146102e157806323b872dd146102ff575b600080fd5b61027d60048036038101906102789190613664565b6107cd565b60405161028a91906136ac565b60405180910390f35b61029b610847565b6040516102a89190613757565b60405180910390f35b6102cb60048036038101906102c6919061380d565b6108e8565b6040516102d891906136ac565b60405180910390f35b6102e961090b565b6040516102f6919061385c565b60405180910390f35b61031960048036038101906103149190613877565b610923565b60405161032691906136ac565b60405180910390f35b61034960048036038101906103449190613900565b610960565b604051610356919061393c565b60405180910390f35b61037960048036038101906103749190613957565b61098e565b005b6103836109b0565b6040516103909190613993565b60405180910390f35b6103b360048036038101906103ae91906139ae565b6109d6565b005b6103bd6109f8565b6040516103ca9190613a0a565b60405180910390f35b6103ed60048036038101906103e891906139ae565b610a0f565b005b6103f7610a8a565b005b610413600480360381019061040e9190613a25565b610aaa565b005b61041d610adc565b60405161042a9190613757565b60405180910390f35b61043b610b19565b60405161044891906136ac565b60405180910390f35b61046b60048036038101906104669190613957565b610b3e565b604051610478919061385c565b60405180910390f35b610489610b95565b6040516104969190613993565b60405180910390f35b6104b960048036038101906104b4919061380d565b610bbb565b005b6104d560048036038101906104d09190613a25565b610bed565b005b6104df610eeb565b005b6104fb60048036038101906104f69190613a25565b610f0b565b604051610508919061385c565b60405180910390f35b61052b60048036038101906105269190613a52565b610f23565b6040516105389190613993565b60405180910390f35b61055b600480360381019061055691906139ae565b610f60565b60405161056891906136ac565b60405180910390f35b610579610fd9565b005b610583611044565b6040516105909190613757565b60405180910390f35b6105a16110e5565b6040516105ae919061393c565b60405180910390f35b6105bf6110ec565b005b6105db60048036038101906105d6919061380d565b611157565b6040516105e891906136ac565b60405180910390f35b6105f9611194565b60405161060691906136ac565b60405180910390f35b61062960048036038101906106249190613a92565b6111a7565b005b61064560048036038101906106409190613957565b611273565b60405161065291906136ac565b60405180910390f35b61067560048036038101906106709190613957565b6112a6565b005b610691600480360381019061068c9190613900565b6113d2565b60405161069e919061385c565b60405180910390f35b6106c160048036038101906106bc9190613cdd565b611404565b005b6106cb6114c2565b6040516106d8919061393c565b60405180910390f35b6106fb60048036038101906106f691906139ae565b6114e6565b005b61071760048036038101906107129190613ea4565b611508565b005b610733600480360381019061072e9190613f8b565b61199c565b005b61074f600480360381019061074a9190613fde565b6119c2565b60405161075c919061385c565b60405180910390f35b61077f600480360381019061077a9190613957565b611a57565b005b61079b6004803603810190610796919061401e565b611bae565b005b6107b760048036038101906107b29190614067565b611c08565b6040516107c4919061385c565b60405180910390f35b60007f5a05180f000000000000000000000000000000000000000000000000000000007bffffffffffffffffffffffffffffffffffffffffffffffffffffffff1916827bffffffffffffffffffffffffffffffffffffffffffffffffffffffff19161480610840575061083f82611c2d565b5b9050919050565b60606000610853611ca7565b9050806003018054610864906140d6565b80601f0160208091040260200160405190810160405280929190818152602001828054610890906140d6565b80156108dd5780601f106108b2576101008083540402835291602001916108dd565b820191906000526020600020905b8154815290600101906020018083116108c057829003601f168201915b505050505091505090565b6000806108f3611ccf565b9050610900818585611cd7565b600191505092915050565b600080610916611ca7565b9050806002015491505090565b60006040517fb77a623900000000000000000000000000000000000000000000000000000000815260040161095790614179565b60405180910390fd5b60008061096b611ce9565b905080600001600084815260200190815260200160002060010154915050919050565b6000801b61099b81611d11565b6109a3611d25565b6109ac82611d66565b5050565b600260019054906101000a900473ffffffffffffffffffffffffffffffffffffffff1681565b6109df82610960565b6109e881611d11565b6109f28383611ebe565b50505050565b6000600260009054906101000a900460ff16905090565b610a17611ccf565b73ffffffffffffffffffffffffffffffffffffffff168173ffffffffffffffffffffffffffffffffffffffff1614610a7b576040517f6697b23200000000000000000000000000000000000000000000000000000000815260040160405180910390fd5b610a858282611f13565b505050565b6000801b610a9781611d11565b610a9f611f68565b610aa7611fa8565b50565b6040517f28b6a5f100000000000000000000000000000000000000000000000000000000815260040160405180910390fd5b60606040518060400160405280600581526020017f312e302e30000000000000000000000000000000000000000000000000000000815250905090565b600080610b2461201a565b90508060000160009054906101000a900460ff1691505090565b600080610b49611ca7565b90508060000160008473ffffffffffffffffffffffffffffffffffffffff1673ffffffffffffffffffffffffffffffffffffffff16815260200190815260200160002054915050919050565b600360009054906101000a900473ffffffffffffffffffffffffffffffffffffffff1681565b6040517f28b6a5f100000000000000000000000000000000000000000000000000000000815260040160405180910390fd5b610bf5610b19565b158015610c0e5750600360149054906101000a900460ff165b610c4d576040517f08c379a0000000000000000000000000000000000000000000000000000000008152600401610c44906141e5565b60405180910390fd5b610c55612042565b610c5e81612099565b6000600360009054906101000a900473ffffffffffffffffffffffffffffffffffffffff1673ffffffffffffffffffffffffffffffffffffffff166370a08231306040518263ffffffff1660e01b8152600401610cbb9190613993565b602060405180830381865afa158015610cd8573d6000803e3d6000fd5b505050506040513d601f19601f82011682018060405250810190610cfc919061421a565b90506000600560008481526020019081526020016000206000610d1d611ccf565b73ffffffffffffffffffffffffffffffffffffffff1673ffffffffffffffffffffffffffffffffffffffff168152602001908152602001600020549050600060046000858152602001908152602001600020548383610d7c9190614276565b610d8691906142e7565b9050828111158015610d985750600081115b15610e8757610daf610da8611ccf565b3084612300565b610de3600360009054906101000a900473ffffffffffffffffffffffffffffffffffffffff16610ddd611ccf565b836123f4565b6000600560008681526020019081526020016000206000610e02611ccf565b73ffffffffffffffffffffffffffffffffffffffff1673ffffffffffffffffffffffffffffffffffffffff168152602001908152602001600020819055507fbe0b6e5b3195df91f2e6b2b20501f84b085714f9e38073f499073c8305651009610e69611ccf565b8286604051610e7a93929190614318565b60405180910390a1610edd565b82826004600087815260200190815260200160002054836040517f8cb932a4000000000000000000000000000000000000000000000000000000008152600401610ed4949392919061434f565b60405180910390fd5b505050610ee8612473565b50565b6000801b610ef881611d11565b610f00611d25565b610f0861248c565b50565b60046020528060005260406000206000915090505481565b600080610f2e6124fe565b9050610f578382600001600087815260200190815260200160002061252690919063ffffffff16565b91505092915050565b600080610f6b611ce9565b905080600001600085815260200190815260200160002060000160008473ffffffffffffffffffffffffffffffffffffffff1673ffffffffffffffffffffffffffffffffffffffff16815260200190815260200160002060009054906101000a900460ff1691505092915050565b6000801b610fe681611d11565b610fee611d25565b6000600360146101000a81548160ff0219169083151502179055507f47cde597549e567f62abfbbd7555049ff4279b031185a8849e0c393b67aeff27600060405161103991906136ac565b60405180910390a150565b60606000611050611ca7565b9050806004018054611061906140d6565b80601f016020809104026020016040519081016040528092919081815260200182805461108d906140d6565b80156110da5780601f106110af576101008083540402835291602001916110da565b820191906000526020600020905b8154815290600101906020018083116110bd57829003601f168201915b505050505091505090565b6000801b81565b6000801b6110f981611d11565b611101611d25565b6001600360146101000a81548160ff0219169083151502179055507f47cde597549e567f62abfbbd7555049ff4279b031185a8849e0c393b67aeff27600160405161114c91906136ac565b60405180910390a150565b60006040517fa744719900000000000000000000000000000000000000000000000000000000815260040161118b906143e0565b60405180910390fd5b600360149054906101000a900460ff1681565b6000801b6111b481611d11565b6111bc611d25565b6000820361120157816040517f8374bf350000000000000000000000000000000000000000000000000000000081526004016111f8919061385c565b60405180910390fd5b61120b3084612540565b8260046000848152602001908152602001600020600082825461122e9190614400565b925050819055507fd695b9e92e02a1f6153a5e6ff0bc7427009e9bab903ed61aa38ccef88e17c11a8383604051611266929190614434565b60405180910390a1505050565b600061129f7f108e9970bf0b59c2d2c85b4c1102be0833ce2f80d7a6e37034d625e36d761eeb83610f60565b9050919050565b6000801b6112b381611d11565b6112bb611d25565b600073ffffffffffffffffffffffffffffffffffffffff168273ffffffffffffffffffffffffffffffffffffffff160361132c57816040517f8e4c8aa60000000000000000000000000000000000000000000000000000000081526004016113239190613993565b60405180910390fd5b6000600360009054906101000a900473ffffffffffffffffffffffffffffffffffffffff16905082600360006101000a81548173ffffffffffffffffffffffffffffffffffffffff021916908373ffffffffffffffffffffffffffffffffffffffff1602179055507f7ed57bc332a9e79d8bfbd7a5d377269199e8c9dc9635ee1a5183558de3370e6281846040516113c592919061445d565b60405180910390a1505050565b6000806113dd6124fe565b90506113fc8160000160008581526020019081526020016000206125c2565b915050919050565b6000801b61141181611d11565b611419611d25565b825184511461145d576040517f08c379a0000000000000000000000000000000000000000000000000000000008152600401611454906144f8565b60405180910390fd5b60005b84518110156114bb576114a885828151811061147f5761147e614518565b5b602002602001015185838151811061149a57611499614518565b5b6020026020010151856125d7565b80806114b390614547565b915050611460565b5050505050565b7f108e9970bf0b59c2d2c85b4c1102be0833ce2f80d7a6e37034d625e36d761eeb81565b6114ef82610960565b6114f881611d11565b6115028383611f13565b50505050565b600061151261282e565b905060008160000160089054906101000a900460ff1615905060008260000160009054906101000a900467ffffffffffffffff1690506000808267ffffffffffffffff161480156115605750825b9050600060018367ffffffffffffffff16148015611595575060003073ffffffffffffffffffffffffffffffffffffffff163b145b9050811580156115a3575080155b156115da576040517ff92ee8a900000000000000000000000000000000000000000000000000000000815260040160405180910390fd5b60018560000160006101000a81548167ffffffffffffffff021916908367ffffffffffffffff160217905550831561162a5760018560000160086101000a81548160ff0219169083151502179055505b600073ffffffffffffffffffffffffffffffffffffffff168973ffffffffffffffffffffffffffffffffffffffff160361169b57886040517f8e4c8aa60000000000000000000000000000000000000000000000000000000081526004016116929190613993565b60405180910390fd5b60008a60ff16036116e357896040517fca9503910000000000000000000000000000000000000000000000000000000081526004016116da9190613a0a565b60405180910390fd5b600073ffffffffffffffffffffffffffffffffffffffff168873ffffffffffffffffffffffffffffffffffffffff160361175457876040517f8e4c8aa600000000000000000000000000000000000000000000000000000000815260040161174b9190613993565b60405180910390fd5b61175e8c8c612856565b611766612893565b61176e6128b4565b6117766128be565b6117aa7f108e9970bf0b59c2d2c85b4c1102be0833ce2f80d7a6e37034d625e36d761eeb60006128c890919063ffffffff16565b5089600260006101000a81548160ff021916908360ff16021790555088600260016101000a81548173ffffffffffffffffffffffffffffffffffffffff021916908373ffffffffffffffffffffffffffffffffffffffff16021790555087600360006101000a81548173ffffffffffffffffffffffffffffffffffffffff021916908373ffffffffffffffffffffffffffffffffffffffff1602179055506118776000801b600260019054906101000a900473ffffffffffffffffffffffffffffffffffffffff16611ebe565b506118a57f108e9970bf0b59c2d2c85b4c1102be0833ce2f80d7a6e37034d625e36d761eeb6000801b6128df565b60005b878790508110156118f6576118e38888838181106118c9576118c8614518565b5b90506020020160208101906118de9190613957565b611d66565b80806118ee90614547565b9150506118a8565b507fef813d8972d9db7930f6f3e6a7310b23daf684dac8c3d13d6c29918f1cda624289898c60405161192a9392919061458f565b60405180910390a1831561198e5760008560000160086101000a81548160ff0219169083151502179055507fc7f505b2f371ae2175ee4913f4499e1f2633a7b5936321eed1cdaeb6115181d26001604051611985919061461f565b60405180910390a15b505050505050505050505050565b6000801b6119a981611d11565b6119b1611d25565b6119bc8484846125d7565b50505050565b6000806119cd611ca7565b90508060010160008573ffffffffffffffffffffffffffffffffffffffff1673ffffffffffffffffffffffffffffffffffffffff16815260200190815260200160002060008473ffffffffffffffffffffffffffffffffffffffff1673ffffffffffffffffffffffffffffffffffffffff1681526020019081526020016000205491505092915050565b6000801b611a6481611d11565b611a6c611d25565b600073ffffffffffffffffffffffffffffffffffffffff168273ffffffffffffffffffffffffffffffffffffffff1603611add57816040517f8e4c8aa6000000000000000000000000000000000000000000000000000000008152600401611ad49190613993565b60405180910390fd5b611b077f108e9970bf0b59c2d2c85b4c1102be0833ce2f80d7a6e37034d625e36d761eeb83610f60565b611b4857816040517f516af281000000000000000000000000000000000000000000000000000000008152600401611b3f9190613993565b60405180910390fd5b611b727f108e9970bf0b59c2d2c85b4c1102be0833ce2f80d7a6e37034d625e36d761eeb83611f13565b507fc5a4a43135540d5e0967677a1ed86bf147f7c0e7dd757a109f4cff74c945f92e82604051611ba29190613993565b60405180910390a15050565b6000801b611bbb81611d11565b611bc3611d25565b60005b8251811015611c0357611bf2838281518110611be557611be4614518565b5b6020026020010151611d66565b80611bfc90614547565b9050611bc6565b505050565b6005602052816000526040600020602052806000526040600020600091509150505481565b60007f7965db0b000000000000000000000000000000000000000000000000000000007bffffffffffffffffffffffffffffffffffffffffffffffffffffffff1916827bffffffffffffffffffffffffffffffffffffffffffffffffffffffff19161480611ca05750611c9f8261294a565b5b9050919050565b60007f52c63247e1f47db19d5ce0460030c497f067ca4cebf71ba98eeadabe20bace00905090565b600033905090565b611ce483838360016129b4565b505050565b60007f02dd7bc7dec4dceedda775e58dd541e08a116c6c53815c0bd028192f7b626800905090565b611d2281611d1d611ccf565b612b9a565b50565b611d2d610b19565b15611d64576040517fd93c066500000000000000000000000000000000000000000000000000000000815260040160405180910390fd5b565b6000801b611d7381611d11565b611d7b611d25565b600073ffffffffffffffffffffffffffffffffffffffff168273ffffffffffffffffffffffffffffffffffffffff1603611dec57816040517f8e4c8aa6000000000000000000000000000000000000000000000000000000008152600401611de39190613993565b60405180910390fd5b611e167f108e9970bf0b59c2d2c85b4c1102be0833ce2f80d7a6e37034d625e36d761eeb83610f60565b15611e5857816040517f20da51c6000000000000000000000000000000000000000000000000000000008152600401611e4f9190613993565b60405180910390fd5b611e827f108e9970bf0b59c2d2c85b4c1102be0833ce2f80d7a6e37034d625e36d761eeb83611ebe565b507fc2dabef8a63ab48fcf728bbe8864a3fe01a9e19addc6ce314abd5b6f9a1dce6682604051611eb29190613993565b60405180910390a15050565b600080611ec96124fe565b90506000611ed78585612beb565b90508015611f0857611f0684836000016000888152602001908152602001600020612cec90919063ffffffff16565b505b809250505092915050565b600080611f1e6124fe565b90506000611f2c8585612d1c565b90508015611f5d57611f5b84836000016000888152602001908152602001600020612e1e90919063ffffffff16565b505b809250505092915050565b611f70610b19565b611fa6576040517f8dfc202b00000000000000000000000000000000000000000000000000000000815260040160405180910390fd5b565b611fb0611f68565b6000611fba61201a565b905060008160000160006101000a81548160ff0219169083151502179055507f5db9ee0a495bf2e6ff9c91a7834c1ba4fdd244a5e8aa4e537bd38aeae4b073aa612002611ccf565b60405161200f9190613993565b60405180910390a150565b60007fcd5ed15c6e187e77e9aee88184c21f4f2182ab5827cb3b7e07fbedcd63f03300905090565b600061204c612e4e565b9050600281600001540361208c576040517f3ee5aeb500000000000000000000000000000000000000000000000000000000815260040160405180910390fd5b6002816000018190555050565b600260019054906101000a900473ffffffffffffffffffffffffffffffffffffffff1673ffffffffffffffffffffffffffffffffffffffff166120da611ccf565b73ffffffffffffffffffffffffffffffffffffffff1603612139576120fd611ccf565b6040517f8e4c8aa60000000000000000000000000000000000000000000000000000000081526004016121309190613993565b60405180910390fd5b61216a7f108e9970bf0b59c2d2c85b4c1102be0833ce2f80d7a6e37034d625e36d761eeb612165611ccf565b610f60565b6121b257612176611ccf565b6040517f516af2810000000000000000000000000000000000000000000000000000000081526004016121a99190613993565b60405180910390fd5b600060046000838152602001908152602001600020540361220a57806040517f441c6844000000000000000000000000000000000000000000000000000000008152600401612201919061385c565b60405180910390fd5b6000600560008381526020019081526020016000206000612229611ccf565b73ffffffffffffffffffffffffffffffffffffffff1673ffffffffffffffffffffffffffffffffffffffff16815260200190815260200160002054036122fd57600560008281526020019081526020016000206000612286611ccf565b73ffffffffffffffffffffffffffffffffffffffff1673ffffffffffffffffffffffffffffffffffffffff168152602001908152602001600020546040517f929a0f990000000000000000000000000000000000000000000000000000000081526004016122f4919061385c565b60405180910390fd5b50565b600073ffffffffffffffffffffffffffffffffffffffff168373ffffffffffffffffffffffffffffffffffffffff16036123725760006040517f96c6fd1e0000000000000000000000000000000000000000000000000000000081526004016123699190613993565b60405180910390fd5b600073ffffffffffffffffffffffffffffffffffffffff168273ffffffffffffffffffffffffffffffffffffffff16036123e45760006040517fec442f050000000000000000000000000000000000000000000000000000000081526004016123db9190613993565b60405180910390fd5b6123ef838383612e76565b505050565b61246e838473ffffffffffffffffffffffffffffffffffffffff1663a9059cbb858560405160240161242792919061463a565b604051602081830303815290604052915060e01b6020820180517bffffffffffffffffffffffffffffffffffffffffffffffffffffffff8381831617835250505050612e8e565b505050565b600061247d612e4e565b90506001816000018190555050565b612494611d25565b600061249e61201a565b905060018160000160006101000a81548160ff0219169083151502179055507f62e78cea01bee320cd4e420270b5ea74000d11b0c9f74754ebdbfc544b05a2586124e6611ccf565b6040516124f39190613993565b60405180910390a150565b60007fc1f6fe24621ce81ec5827caf0253cadb74709b061630e6b55e82371705932000905090565b60006125358360000183612f25565b60001c905092915050565b600073ffffffffffffffffffffffffffffffffffffffff168273ffffffffffffffffffffffffffffffffffffffff16036125b25760006040517f96c6fd1e0000000000000000000000000000000000000000000000000000000081526004016125a99190613993565b60405180910390fd5b6125be82600083612e76565b5050565b60006125d082600001612f50565b9050919050565b6000801b6125e481611d11565b6125ec611d25565b6000820361263157816040517f8374bf35000000000000000000000000000000000000000000000000000000008152600401612628919061385c565b60405180910390fd5b600073ffffffffffffffffffffffffffffffffffffffff168473ffffffffffffffffffffffffffffffffffffffff16036126a257836040517f8e4c8aa60000000000000000000000000000000000000000000000000000000081526004016126999190613993565b60405180910390fd5b600083036126e757826040517f3728b83d0000000000000000000000000000000000000000000000000000000081526004016126de919061385c565b60405180910390fd5b6127117f108e9970bf0b59c2d2c85b4c1102be0833ce2f80d7a6e37034d625e36d761eeb85610f60565b61275257836040517f516af2810000000000000000000000000000000000000000000000000000000081526004016127499190613993565b60405180910390fd5b61275c8484612f61565b8260046000848152602001908152602001600020600082825461277f9190614663565b92505081905550826005600084815260200190815260200160002060008673ffffffffffffffffffffffffffffffffffffffff1673ffffffffffffffffffffffffffffffffffffffff16815260200190815260200160002060008282546127e69190614663565b925050819055507f3d8334eb8444d4c18d9b6d1024bce3ad9f408e72f419cb589dcb5e24d0e09af884848460405161282093929190614318565b60405180910390a150505050565b60007ff0c57e16840df040f15088dc2f81fe391c3923bec73e23a9662efc9c229c6a00905090565b61285e612fe3565b6000612868611ca7565b90508281600301908161287b9190614839565b508181600401908161288d9190614839565b50505050565b61289b612fe3565b60006128a5612e4e565b90506001816000018190555050565b6128bc612fe3565b565b6128c6612fe3565b565b60006128d78360000183613023565b905092915050565b60006128e9611ce9565b905060006128f684610960565b905082826000016000868152602001908152602001600020600101819055508281857fbd79b86ffe0ab8e8776151514217cd7cacd52c909f66475c3af44e129f0b00ff60405160405180910390a450505050565b60007f01ffc9a7000000000000000000000000000000000000000000000000000000007bffffffffffffffffffffffffffffffffffffffffffffffffffffffff1916827bffffffffffffffffffffffffffffffffffffffffffffffffffffffff1916149050919050565b60006129be611ca7565b9050600073ffffffffffffffffffffffffffffffffffffffff168573ffffffffffffffffffffffffffffffffffffffff1603612a325760006040517fe602df05000000000000000000000000000000000000000000000000000000008152600401612a299190613993565b60405180910390fd5b600073ffffffffffffffffffffffffffffffffffffffff168473ffffffffffffffffffffffffffffffffffffffff1603612aa45760006040517f94280d62000000000000000000000000000000000000000000000000000000008152600401612a9b9190613993565b60405180910390fd5b828160010160008773ffffffffffffffffffffffffffffffffffffffff1673ffffffffffffffffffffffffffffffffffffffff16815260200190815260200160002060008673ffffffffffffffffffffffffffffffffffffffff1673ffffffffffffffffffffffffffffffffffffffff168152602001908152602001600020819055508115612b93578373ffffffffffffffffffffffffffffffffffffffff168573ffffffffffffffffffffffffffffffffffffffff167f8c5be1e5ebec7d5bd14f71427d1e84f3dd0314c0f7b2291e5b200ac8c7c3b92585604051612b8a919061385c565b60405180910390a35b5050505050565b612ba48282610f60565b612be75780826040517fe2517d3f000000000000000000000000000000000000000000000000000000008152600401612bde92919061490b565b60405180910390fd5b5050565b600080612bf6611ce9565b9050612c028484610f60565b612ce057600181600001600086815260200190815260200160002060000160008573ffffffffffffffffffffffffffffffffffffffff1673ffffffffffffffffffffffffffffffffffffffff16815260200190815260200160002060006101000a81548160ff021916908315150217905550612c7c611ccf565b73ffffffffffffffffffffffffffffffffffffffff168373ffffffffffffffffffffffffffffffffffffffff16857f2f8788117e7eff1d82e926ec794901d17c78024a50270940304540a733656f0d60405160405180910390a46001915050612ce6565b60009150505b92915050565b6000612d14836000018373ffffffffffffffffffffffffffffffffffffffff1660001b613023565b905092915050565b600080612d27611ce9565b9050612d338484610f60565b15612e1257600081600001600086815260200190815260200160002060000160008573ffffffffffffffffffffffffffffffffffffffff1673ffffffffffffffffffffffffffffffffffffffff16815260200190815260200160002060006101000a81548160ff021916908315150217905550612dae611ccf565b73ffffffffffffffffffffffffffffffffffffffff168373ffffffffffffffffffffffffffffffffffffffff16857ff6391f5c32d9c69d2a47ea670b442974b53935d1edc7fd64eb21e047a839171b60405160405180910390a46001915050612e18565b60009150505b92915050565b6000612e46836000018373ffffffffffffffffffffffffffffffffffffffff1660001b613093565b905092915050565b60007f9b779b17422d0df92223018b32b4d1fa46e071723d6817e2486d003becc55f00905090565b612e7e611d25565b612e898383836131a7565b505050565b6000612eb9828473ffffffffffffffffffffffffffffffffffffffff166131bf90919063ffffffff16565b90506000815114158015612ede575080806020019051810190612edc9190614960565b155b15612f2057826040517f5274afe7000000000000000000000000000000000000000000000000000000008152600401612f179190613993565b60405180910390fd5b505050565b6000826000018281548110612f3d57612f3c614518565b5b9060005260206000200154905092915050565b600081600001805490509050919050565b600073ffffffffffffffffffffffffffffffffffffffff168273ffffffffffffffffffffffffffffffffffffffff1603612fd35760006040517fec442f05000000000000000000000000000000000000000000000000000000008152600401612fca9190613993565b60405180910390fd5b612fdf60008383612e76565b5050565b612feb6131d5565b613021576040517fd7e6bcf800000000000000000000000000000000000000000000000000000000815260040160405180910390fd5b565b600061302f83836131f5565b61308857826000018290806001815401808255809150506001900390600052602060002001600090919091909150558260000180549050836001016000848152602001908152602001600020819055506001905061308d565b600090505b92915050565b6000808360010160008481526020019081526020016000205490506000811461319b5760006001826130c59190614400565b90506000600186600001805490506130dd9190614400565b905080821461314c5760008660000182815481106130fe576130fd614518565b5b906000526020600020015490508087600001848154811061312257613121614518565b5b90600052602060002001819055508387600101600083815260200190815260200160002081905550505b856000018054806131605761315f61498d565b5b6001900381819060005260206000200160009055905585600101600086815260200190815260200160002060009055600193505050506131a1565b60009150505b92915050565b6131af611d25565b6131ba838383613218565b505050565b60606131cd83836000613457565b905092915050565b60006131df61282e565b60000160089054906101000a900460ff16905090565b600080836001016000848152602001908152602001600020541415905092915050565b6000613222611ca7565b9050600073ffffffffffffffffffffffffffffffffffffffff168473ffffffffffffffffffffffffffffffffffffffff1603613278578181600201600082825461326c9190614663565b92505081905550613351565b60008160000160008673ffffffffffffffffffffffffffffffffffffffff1673ffffffffffffffffffffffffffffffffffffffff16815260200190815260200160002054905082811015613307578481846040517fe450d38c0000000000000000000000000000000000000000000000000000000081526004016132fe93929190614318565b60405180910390fd5b8281038260000160008773ffffffffffffffffffffffffffffffffffffffff1673ffffffffffffffffffffffffffffffffffffffff16815260200190815260200160002081905550505b600073ffffffffffffffffffffffffffffffffffffffff168373ffffffffffffffffffffffffffffffffffffffff160361339c578181600201600082825403925050819055506133ec565b818160000160008573ffffffffffffffffffffffffffffffffffffffff1673ffffffffffffffffffffffffffffffffffffffff168152602001908152602001600020600082825401925050819055505b8273ffffffffffffffffffffffffffffffffffffffff168473ffffffffffffffffffffffffffffffffffffffff167fddf252ad1be2c89b69c2b068fc378daa952ba7f163c4a11628f55a4df523b3ef84604051613449919061385c565b60405180910390a350505050565b60608147101561349e57306040517fcd7860590000000000000000000000000000000000000000000000000000000081526004016134959190613993565b60405180910390fd5b6000808573ffffffffffffffffffffffffffffffffffffffff1684866040516134c79190614a03565b60006040518083038185875af1925050503d8060008114613504576040519150601f19603f3d011682016040523d82523d6000602084013e613509565b606091505b5091509150613519868383613524565b925050509392505050565b60608261353957613534826135b3565b6135ab565b60008251148015613561575060008473ffffffffffffffffffffffffffffffffffffffff163b145b156135a357836040517f9996b31500000000000000000000000000000000000000000000000000000000815260040161359a9190613993565b60405180910390fd5b8190506135ac565b5b9392505050565b6000815111156135c65780518082602001fd5b6040517f1425ea4200000000000000000000000000000000000000000000000000000000815260040160405180910390fd5b6000604051905090565b600080fd5b600080fd5b60007fffffffff0000000000000000000000000000000000000000000000000000000082169050919050565b6136418161360c565b811461364c57600080fd5b50565b60008135905061365e81613638565b92915050565b60006020828403121561367a57613679613602565b5b60006136888482850161364f565b91505092915050565b60008115159050919050565b6136a681613691565b82525050565b60006020820190506136c1600083018461369d565b92915050565b600081519050919050565b600082825260208201905092915050565b60005b838110156137015780820151818401526020810190506136e6565b60008484015250505050565b6000601f19601f8301169050919050565b6000613729826136c7565b61373381856136d2565b93506137438185602086016136e3565b61374c8161370d565b840191505092915050565b60006020820190508181036000830152613771818461371e565b905092915050565b600073ffffffffffffffffffffffffffffffffffffffff82169050919050565b60006137a482613779565b9050919050565b6137b481613799565b81146137bf57600080fd5b50565b6000813590506137d1816137ab565b92915050565b6000819050919050565b6137ea816137d7565b81146137f557600080fd5b50565b600081359050613807816137e1565b92915050565b6000806040838503121561382457613823613602565b5b6000613832858286016137c2565b9250506020613843858286016137f8565b9150509250929050565b613856816137d7565b82525050565b6000602082019050613871600083018461384d565b92915050565b6000806000606084860312156138905761388f613602565b5b600061389e868287016137c2565b93505060206138af868287016137c2565b92505060406138c0868287016137f8565b9150509250925092565b6000819050919050565b6138dd816138ca565b81146138e857600080fd5b50565b6000813590506138fa816138d4565b92915050565b60006020828403121561391657613915613602565b5b6000613924848285016138eb565b91505092915050565b613936816138ca565b82525050565b6000602082019050613951600083018461392d565b92915050565b60006020828403121561396d5761396c613602565b5b600061397b848285016137c2565b91505092915050565b61398d81613799565b82525050565b60006020820190506139a86000830184613984565b92915050565b600080604083850312156139c5576139c4613602565b5b60006139d3858286016138eb565b92505060206139e4858286016137c2565b9150509250929050565b600060ff82169050919050565b613a04816139ee565b82525050565b6000602082019050613a1f60008301846139fb565b92915050565b600060208284031215613a3b57613a3a613602565b5b6000613a49848285016137f8565b91505092915050565b60008060408385031215613a6957613a68613602565b5b6000613a77858286016138eb565b9250506020613a88858286016137f8565b9150509250929050565b60008060408385031215613aa957613aa8613602565b5b6000613ab7858286016137f8565b9250506020613ac8858286016137f8565b9150509250929050565b600080fd5b7f4e487b7100000000000000000000000000000000000000000000000000000000600052604160045260246000fd5b613b0f8261370d565b810181811067ffffffffffffffff82111715613b2e57613b2d613ad7565b5b80604052505050565b6000613b416135f8565b9050613b4d8282613b06565b919050565b600067ffffffffffffffff821115613b6d57613b6c613ad7565b5b602082029050602081019050919050565b600080fd5b6000613b96613b9184613b52565b613b37565b90508083825260208201905060208402830185811115613bb957613bb8613b7e565b5b835b81811015613be25780613bce88826137c2565b845260208401935050602081019050613bbb565b5050509392505050565b600082601f830112613c0157613c00613ad2565b5b8135613c11848260208601613b83565b91505092915050565b600067ffffffffffffffff821115613c3557613c34613ad7565b5b602082029050602081019050919050565b6000613c59613c5484613c1a565b613b37565b90508083825260208201905060208402830185811115613c7c57613c7b613b7e565b5b835b81811015613ca55780613c9188826137f8565b845260208401935050602081019050613c7e565b5050509392505050565b600082601f830112613cc457613cc3613ad2565b5b8135613cd4848260208601613c46565b91505092915050565b600080600060608486031215613cf657613cf5613602565b5b600084013567ffffffffffffffff811115613d1457613d13613607565b5b613d2086828701613bec565b935050602084013567ffffffffffffffff811115613d4157613d40613607565b5b613d4d86828701613caf565b9250506040613d5e868287016137f8565b9150509250925092565b600080fd5b600067ffffffffffffffff821115613d8857613d87613ad7565b5b613d918261370d565b9050602081019050919050565b82818337600083830152505050565b6000613dc0613dbb84613d6d565b613b37565b905082815260208101848484011115613ddc57613ddb613d68565b5b613de7848285613d9e565b509392505050565b600082601f830112613e0457613e03613ad2565b5b8135613e14848260208601613dad565b91505092915050565b613e26816139ee565b8114613e3157600080fd5b50565b600081359050613e4381613e1d565b92915050565b600080fd5b60008083601f840112613e6457613e63613ad2565b5b8235905067ffffffffffffffff811115613e8157613e80613e49565b5b602083019150836020820283011115613e9d57613e9c613b7e565b5b9250929050565b600080600080600080600060c0888a031215613ec357613ec2613602565b5b600088013567ffffffffffffffff811115613ee157613ee0613607565b5b613eed8a828b01613def565b975050602088013567ffffffffffffffff811115613f0e57613f0d613607565b5b613f1a8a828b01613def565b9650506040613f2b8a828b01613e34565b9550506060613f3c8a828b016137c2565b9450506080613f4d8a828b016137c2565b93505060a088013567ffffffffffffffff811115613f6e57613f6d613607565b5b613f7a8a828b01613e4e565b925092505092959891949750929550565b600080600060608486031215613fa457613fa3613602565b5b6000613fb2868287016137c2565b9350506020613fc3868287016137f8565b9250506040613fd4868287016137f8565b9150509250925092565b60008060408385031215613ff557613ff4613602565b5b6000614003858286016137c2565b9250506020614014858286016137c2565b9150509250929050565b60006020828403121561403457614033613602565b5b600082013567ffffffffffffffff81111561405257614051613607565b5b61405e84828501613bec565b91505092915050565b6000806040838503121561407e5761407d613602565b5b600061408c858286016137f8565b925050602061409d858286016137c2565b9150509250929050565b7f4e487b7100000000000000000000000000000000000000000000000000000000600052602260045260246000fd5b600060028204905060018216806140ee57607f821691505b602082108103614101576141006140a7565b5b50919050565b7f52455349546f6b656e3a204e4f205452414e534645522046524f4d20414c4c4f60008201527f5745440000000000000000000000000000000000000000000000000000000000602082015250565b60006141636023836136d2565b915061416e82614107565b604082019050919050565b6000602082019050818103600083015261419281614156565b9050919050565b7f52455349546f6b656e3a2045786974732064697361626c656400000000000000600082015250565b60006141cf6019836136d2565b91506141da82614199565b602082019050919050565b600060208201905081810360008301526141fe816141c2565b9050919050565b600081519050614214816137e1565b92915050565b6000602082840312156142305761422f613602565b5b600061423e84828501614205565b91505092915050565b7f4e487b7100000000000000000000000000000000000000000000000000000000600052601160045260246000fd5b6000614281826137d7565b915061428c836137d7565b925082820261429a816137d7565b915082820484148315176142b1576142b0614247565b5b5092915050565b7f4e487b7100000000000000000000000000000000000000000000000000000000600052601260045260246000fd5b60006142f2826137d7565b91506142fd836137d7565b92508261430d5761430c6142b8565b5b828204905092915050565b600060608201905061432d6000830186613984565b61433a602083018561384d565b614347604083018461384d565b949350505050565b6000608082019050614364600083018761384d565b614371602083018661384d565b61437e604083018561384d565b61438b606083018461384d565b95945050505050565b7f52455349546f6b656e3a204e4f205452414e5346455220414c4c4f5745440000600082015250565b60006143ca601e836136d2565b91506143d582614394565b602082019050919050565b600060208201905081810360008301526143f9816143bd565b9050919050565b600061440b826137d7565b9150614416836137d7565b925082820390508181111561442e5761442d614247565b5b92915050565b6000604082019050614449600083018561384d565b614456602083018461384d565b9392505050565b60006040820190506144726000830185613984565b61447f6020830184613984565b9392505050565b7f52455349546f6b656e3a20757365727320616e6420616d6f756e7473206c656e60008201527f677468206d69736d617463680000000000000000000000000000000000000000602082015250565b60006144e2602c836136d2565b91506144ed82614486565b604082019050919050565b60006020820190508181036000830152614511816144d5565b9050919050565b7f4e487b7100000000000000000000000000000000000000000000000000000000600052603260045260246000fd5b6000614552826137d7565b91507fffffffffffffffffffffffffffffffffffffffffffffffffffffffffffffffff820361458457614583614247565b5b600182019050919050565b60006060820190506145a46000830186613984565b6145b16020830185613984565b6145be60408301846139fb565b949350505050565b6000819050919050565b600067ffffffffffffffff82169050919050565b6000819050919050565b60006146096146046145ff846145c6565b6145e4565b6145d0565b9050919050565b614619816145ee565b82525050565b60006020820190506146346000830184614610565b92915050565b600060408201905061464f6000830185613984565b61465c602083018461384d565b9392505050565b600061466e826137d7565b9150614679836137d7565b925082820190508082111561469157614690614247565b5b92915050565b60008190508160005260206000209050919050565b60006020601f8301049050919050565b600082821b905092915050565b6000600883026146f97fffffffffffffffffffffffffffffffffffffffffffffffffffffffffffffffff826146bc565b61470386836146bc565b95508019841693508086168417925050509392505050565b600061473661473161472c846137d7565b6145e4565b6137d7565b9050919050565b6000819050919050565b6147508361471b565b61476461475c8261473d565b8484546146c9565b825550505050565b600090565b61477961476c565b614784818484614747565b505050565b5b818110156147a85761479d600082614771565b60018101905061478a565b5050565b601f8211156147ed576147be81614697565b6147c7846146ac565b810160208510156147d6578190505b6147ea6147e2856146ac565b830182614789565b50505b505050565b600082821c905092915050565b6000614810600019846008026147f2565b1980831691505092915050565b600061482983836147ff565b9150826002028217905092915050565b614842826136c7565b67ffffffffffffffff81111561485b5761485a613ad7565b5b61486582546140d6565b6148708282856147ac565b600060209050601f8311600181146148a35760008415614891578287015190505b61489b858261481d565b865550614903565b601f1984166148b186614697565b60005b828110156148d9578489015182556001820191506020850194506020810190506148b4565b868310156148f657848901516148f2601f8916826147ff565b8355505b6001600288020188555050505b505050505050565b60006040820190506149206000830185613984565b61492d602083018461392d565b9392505050565b61493d81613691565b811461494857600080fd5b50565b60008151905061495a81614934565b92915050565b60006020828403121561497657614975613602565b5b60006149848482850161494b565b91505092915050565b7f4e487b7100000000000000000000000000000000000000000000000000000000600052603160045260246000fd5b600081519050919050565b600081905092915050565b60006149dd826149bc565b6149e781856149c7565b93506149f78185602086016136e3565b80840191505092915050565b6000614a0f82846149d2565b91508190509291505056fea26469706673582212207d780a6cc40da05bbec70cb7822c1f3d4205092e6b653d37a6b78736e7befac964736f6c63430008140033",
  "devdoc": {
    "errors": {
      "AccessControlBadConfirmation()": [
        {
          "details": "The caller of a function is not the expected one. NOTE: Don't confuse with {AccessControlUnauthorizedAccount}."
        }
      ],
      "AccessControlUnauthorizedAccount(address,bytes32)": [
        {
          "details": "The `account` is missing a role."
        }
      ],
      "AddressEmptyCode(address)": [
        {
          "details": "There's no code at `target` (it is not a contract)."
        }
      ],
      "AddressInsufficientBalance(address)": [
        {
          "details": "The ETH balance of the account is not enough to perform the operation."
        }
      ],
      "ERC20InsufficientAllowance(address,uint256,uint256)": [
        {
          "details": "Indicates a failure with the `spender`s `allowance`. Used in transfers.",
          "params": {
            "allowance": "Amount of tokens a `spender` is allowed to operate with.",
            "needed": "Minimum amount required to perform a transfer.",
            "spender": "Address that may be allowed to operate on tokens without being their owner."
          }
        }
      ],
      "ERC20InsufficientBalance(address,uint256,uint256)": [
        {
          "details": "Indicates an error related to the current `balance` of a `sender`. Used in transfers.",
          "params": {
            "balance": "Current balance for the interacting account.",
            "needed": "Minimum amount required to perform a transfer.",
            "sender": "Address whose tokens are being transferred."
          }
        }
      ],
      "ERC20InvalidApprover(address)": [
        {
          "details": "Indicates a failure with the `approver` of a token to be approved. Used in approvals.",
          "params": {
            "approver": "Address initiating an approval operation."
          }
        }
      ],
      "ERC20InvalidReceiver(address)": [
        {
          "details": "Indicates a failure with the token `receiver`. Used in transfers.",
          "params": {
            "receiver": "Address to which tokens are being transferred."
          }
        }
      ],
      "ERC20InvalidSender(address)": [
        {
          "details": "Indicates a failure with the token `sender`. Used in transfers.",
          "params": {
            "sender": "Address whose tokens are being transferred."
          }
        }
      ],
      "ERC20InvalidSpender(address)": [
        {
          "details": "Indicates a failure with the `spender` to be approved. Used in approvals.",
          "params": {
            "spender": "Address that may be allowed to operate on tokens without being their owner."
          }
        }
      ],
      "EnforcedPause()": [
        {
          "details": "The operation failed because the contract is paused."
        }
      ],
      "ExpectedPause()": [
        {
          "details": "The operation failed because the contract is not paused."
        }
      ],
      "FailedInnerCall()": [
        {
          "details": "A call to an address target failed. The target may have reverted."
        }
      ],
      "InvalidInitialization()": [
        {
          "details": "The contract is already initialized."
        }
      ],
      "NotInitializing()": [
        {
          "details": "The contract is not initializing."
        }
      ],
      "ReentrancyGuardReentrantCall()": [
        {
          "details": "Unauthorized reentrant call."
        }
      ],
      "SafeERC20FailedOperation(address)": [
        {
          "details": "An operation with an ERC20 token failed."
        }
      ]
    },
    "events": {
      "Approval(address,address,uint256)": {
        "details": "Emitted when the allowance of a `spender` for an `owner` is set by a call to {approve}. `value` is the new allowance."
      },
      "Initialized(uint64)": {
        "details": "Triggered when the contract has been initialized or reinitialized."
      },
      "Paused(address)": {
        "details": "Emitted when the pause is triggered by `account`."
      },
      "RoleAdminChanged(bytes32,bytes32,bytes32)": {
        "details": "Emitted when `newAdminRole` is set as ``role``'s admin role, replacing `previousAdminRole` `DEFAULT_ADMIN_ROLE` is the starting admin for all roles, despite {RoleAdminChanged} not being emitted signaling this."
      },
      "RoleGranted(bytes32,address,address)": {
        "details": "Emitted when `account` is granted `role`. `sender` is the account that originated the contract call, an admin role bearer except when using {AccessControl-_setupRole}."
      },
      "RoleRevoked(bytes32,address,address)": {
        "details": "Emitted when `account` is revoked `role`. `sender` is the account that originated the contract call:   - if using `revokeRole`, it is the admin role bearer   - if using `renounceRole`, it is the role bearer (i.e. `account`)"
      },
      "Transfer(address,address,uint256)": {
        "details": "Emitted when `value` tokens are moved from one account (`from`) to another (`to`). Note that `value` may be zero."
      },
      "Unpaused(address)": {
        "details": "Emitted when the pause is lifted by `account`."
      }
    },
    "kind": "dev",
    "methods": {
      "allowance(address,address)": {
        "details": "See {IERC20-allowance}."
      },
      "approve(address,uint256)": {
        "details": "See {IERC20-approve}. NOTE: If `value` is the maximum `uint256`, the allowance is not updated on `transferFrom`. This is semantically equivalent to an infinite approval. Requirements: - `spender` cannot be the zero address."
      },
      "balanceOf(address)": {
        "details": "See {IERC20-balanceOf}."
      },
      "getRoleAdmin(bytes32)": {
        "details": "Returns the admin role that controls `role`. See {grantRole} and {revokeRole}. To change a role's admin, use {_setRoleAdmin}."
      },
      "getRoleMember(bytes32,uint256)": {
        "details": "Returns one of the accounts that have `role`. `index` must be a value between 0 and {getRoleMemberCount}, non-inclusive. Role bearers are not sorted in any particular way, and their ordering may change at any point. WARNING: When using {getRoleMember} and {getRoleMemberCount}, make sure you perform all queries on the same block. See the following https://forum.openzeppelin.com/t/iterating-over-elements-on-enumerableset-in-openzeppelin-contracts/2296[forum post] for more information."
      },
      "getRoleMemberCount(bytes32)": {
        "details": "Returns the number of accounts that have `role`. Can be used together with {getRoleMember} to enumerate all bearers of a role."
      },
      "grantRole(bytes32,address)": {
        "details": "Grants `role` to `account`. If `account` had not been already granted `role`, emits a {RoleGranted} event. Requirements: - the caller must have ``role``'s admin role. May emit a {RoleGranted} event."
      },
      "hasRole(bytes32,address)": {
        "details": "Returns `true` if `account` has been granted `role`."
      },
      "name()": {
        "details": "Returns the name of the token."
      },
      "paused()": {
        "details": "Returns true if the contract is paused, and false otherwise."
      },
      "renounceRole(bytes32,address)": {
        "details": "Revokes `role` from the calling account. Roles are often managed via {grantRole} and {revokeRole}: this function's purpose is to provide a mechanism for accounts to lose their privileges if they are compromised (such as when a trusted device is misplaced). If the calling account had been revoked `role`, emits a {RoleRevoked} event. Requirements: - the caller must be `callerConfirmation`. May emit a {RoleRevoked} event."
      },
      "revokeRole(bytes32,address)": {
        "details": "Revokes `role` from `account`. If `account` had been granted `role`, emits a {RoleRevoked} event. Requirements: - the caller must have ``role``'s admin role. May emit a {RoleRevoked} event."
      },
      "supportsInterface(bytes4)": {
        "details": "See {IERC165-supportsInterface}."
      },
      "symbol()": {
        "details": "Returns the symbol of the token, usually a shorter version of the name."
      },
      "totalSupply()": {
        "details": "See {IERC20-totalSupply}."
      },
      "transfer(address,uint256)": {
        "details": "It is not allowed to transfer resi token"
      },
      "transferFrom(address,address,uint256)": {
        "details": "It is not allowed to transfer resi token"
      },
      "version()": {
        "details": "Version for upgradeable version",
        "returns": {
          "_0": "version"
        }
      }
    },
    "stateVariables": {
      "BUILDER_ROLE": {
        "details": "BUILDER_ROLE"
      },
      "TREASURY": {
        "details": "treasury address"
      },
      "_DECIMALS": {
        "details": "token decimals"
      },
      "upgradeGap": {
        "details": "Leave a gap betweeen inherited contracts variables in orderto be able to add more variables in them later."
      }
    },
    "version": 1
  },
  "userdoc": {
    "kind": "user",
    "methods": {},
    "version": 1
  },
  "storageLayout": {
    "storage": [
      {
        "astId": 3537,
        "contract": "contracts/ResiToken.sol:ResiToken",
        "label": "_rolesSet",
        "offset": 0,
        "slot": "0",
        "type": "t_struct(Bytes32Set)3086_storage"
      },
      {
        "astId": 3540,
        "contract": "contracts/ResiToken.sol:ResiToken",
        "label": "_DECIMALS",
        "offset": 0,
        "slot": "2",
        "type": "t_uint8"
      },
      {
        "astId": 3543,
        "contract": "contracts/ResiToken.sol:ResiToken",
        "label": "TREASURY",
        "offset": 1,
        "slot": "2",
        "type": "t_address"
      },
      {
        "astId": 3545,
        "contract": "contracts/ResiToken.sol:ResiToken",
        "label": "STABLE_TOKEN",
        "offset": 0,
        "slot": "3",
        "type": "t_address"
      },
      {
        "astId": 3547,
        "contract": "contracts/ResiToken.sol:ResiToken",
        "label": "EXIT_STATE",
        "offset": 20,
        "slot": "3",
        "type": "t_bool"
      },
      {
        "astId": 3551,
        "contract": "contracts/ResiToken.sol:ResiToken",
        "label": "serieSupplies",
        "offset": 0,
        "slot": "4",
        "type": "t_mapping(t_uint256,t_uint256)"
      },
      {
        "astId": 3557,
        "contract": "contracts/ResiToken.sol:ResiToken",
        "label": "userSerieBalance",
        "offset": 0,
        "slot": "5",
        "type": "t_mapping(t_uint256,t_mapping(t_address,t_uint256))"
      },
      {
        "astId": 4382,
        "contract": "contracts/ResiToken.sol:ResiToken",
        "label": "upgradeGap",
        "offset": 0,
        "slot": "6",
        "type": "t_array(t_uint256)20_storage"
      }
    ],
    "types": {
      "t_address": {
        "encoding": "inplace",
        "label": "address",
        "numberOfBytes": "20"
      },
      "t_array(t_bytes32)dyn_storage": {
        "base": "t_bytes32",
        "encoding": "dynamic_array",
        "label": "bytes32[]",
        "numberOfBytes": "32"
      },
      "t_array(t_uint256)20_storage": {
        "base": "t_uint256",
        "encoding": "inplace",
        "label": "uint256[20]",
        "numberOfBytes": "640"
      },
      "t_bool": {
        "encoding": "inplace",
        "label": "bool",
        "numberOfBytes": "1"
      },
      "t_bytes32": {
        "encoding": "inplace",
        "label": "bytes32",
        "numberOfBytes": "32"
      },
      "t_mapping(t_address,t_uint256)": {
        "encoding": "mapping",
        "key": "t_address",
        "label": "mapping(address => uint256)",
        "numberOfBytes": "32",
        "value": "t_uint256"
      },
      "t_mapping(t_bytes32,t_uint256)": {
        "encoding": "mapping",
        "key": "t_bytes32",
        "label": "mapping(bytes32 => uint256)",
        "numberOfBytes": "32",
        "value": "t_uint256"
      },
      "t_mapping(t_uint256,t_mapping(t_address,t_uint256))": {
        "encoding": "mapping",
        "key": "t_uint256",
        "label": "mapping(uint256 => mapping(address => uint256))",
        "numberOfBytes": "32",
        "value": "t_mapping(t_address,t_uint256)"
      },
      "t_mapping(t_uint256,t_uint256)": {
        "encoding": "mapping",
        "key": "t_uint256",
        "label": "mapping(uint256 => uint256)",
        "numberOfBytes": "32",
        "value": "t_uint256"
      },
      "t_struct(Bytes32Set)3086_storage": {
        "encoding": "inplace",
        "label": "struct EnumerableSet.Bytes32Set",
        "members": [
          {
            "astId": 3085,
            "contract": "contracts/ResiToken.sol:ResiToken",
            "label": "_inner",
            "offset": 0,
            "slot": "0",
            "type": "t_struct(Set)2892_storage"
          }
        ],
        "numberOfBytes": "64"
      },
      "t_struct(Set)2892_storage": {
        "encoding": "inplace",
        "label": "struct EnumerableSet.Set",
        "members": [
          {
            "astId": 2887,
            "contract": "contracts/ResiToken.sol:ResiToken",
            "label": "_values",
            "offset": 0,
            "slot": "0",
            "type": "t_array(t_bytes32)dyn_storage"
          },
          {
            "astId": 2891,
            "contract": "contracts/ResiToken.sol:ResiToken",
            "label": "_positions",
            "offset": 0,
            "slot": "1",
            "type": "t_mapping(t_bytes32,t_uint256)"
          }
        ],
        "numberOfBytes": "64"
      },
      "t_uint256": {
        "encoding": "inplace",
        "label": "uint256",
        "numberOfBytes": "32"
      },
      "t_uint8": {
        "encoding": "inplace",
        "label": "uint8",
        "numberOfBytes": "1"
      }
    }
  }
}