{
  "address": "0xABA78E2AF5574faD41A2DD30d952aFD225755BB2",
  "abi": [
    {
      "anonymous": false,
      "inputs": [
        {
          "indexed": true,
          "internalType": "address",
          "name": "_from",
          "type": "address"
        },
        {
          "indexed": false,
          "internalType": "uint256",
          "name": "_value",
          "type": "uint256"
        }
      ],
      "name": "EtherReceived",
      "type": "event"
    },
    {
      "anonymous": false,
      "inputs": [
        {
          "indexed": false,
          "internalType": "uint8",
          "name": "version",
          "type": "uint8"
        }
      ],
      "name": "Initialized",
      "type": "event"
    },
    {
      "anonymous": false,
      "inputs": [
        {
          "indexed": true,
          "internalType": "address",
          "name": "oldToken",
          "type": "address"
        },
        {
          "indexed": true,
          "internalType": "address",
          "name": "TOKEN",
          "type": "address"
        }
      ],
      "name": "MainTokenUpdated",
      "type": "event"
    },
    {
      "anonymous": false,
      "inputs": [
        {
          "indexed": true,
          "internalType": "address",
          "name": "previousOwner",
          "type": "address"
        },
        {
          "indexed": true,
          "internalType": "address",
          "name": "newOwner",
          "type": "address"
        }
      ],
      "name": "OwnershipTransferred",
      "type": "event"
    },
    {
      "anonymous": false,
      "inputs": [
        {
          "indexed": false,
          "internalType": "uint256",
          "name": "_serieId",
          "type": "uint256"
        },
        {
          "indexed": true,
          "internalType": "address",
          "name": "_token",
          "type": "address"
        },
        {
          "indexed": true,
          "internalType": "address",
          "name": "_resiToken",
          "type": "address"
        }
      ],
      "name": "ResiVaultInitialized",
      "type": "event"
    },
    {
      "anonymous": false,
      "inputs": [
        {
          "indexed": false,
          "internalType": "bytes32",
          "name": "_name",
          "type": "bytes32"
        },
        {
          "indexed": true,
          "internalType": "address",
          "name": "_token",
          "type": "address"
        }
      ],
      "name": "TokenAdded",
      "type": "event"
    },
    {
      "anonymous": false,
      "inputs": [
        {
          "indexed": true,
          "internalType": "address",
          "name": "TOKEN",
          "type": "address"
        },
        {
          "indexed": false,
          "internalType": "uint256",
          "name": "_amount",
          "type": "uint256"
        }
      ],
      "name": "TokenReleased",
      "type": "event"
    },
    {
      "anonymous": false,
      "inputs": [
        {
          "indexed": false,
          "internalType": "bytes32",
          "name": "_name",
          "type": "bytes32"
        },
        {
          "indexed": true,
          "internalType": "address",
          "name": "_token",
          "type": "address"
        }
      ],
      "name": "TokenRemoved",
      "type": "event"
    },
    {
      "inputs": [],
      "name": "RESI_REGISTRY",
      "outputs": [
        {
          "internalType": "address",
          "name": "",
          "type": "address"
        }
      ],
      "stateMutability": "view",
      "type": "function"
    },
    {
      "inputs": [],
      "name": "RESI_TOKEN",
      "outputs": [
        {
          "internalType": "address",
          "name": "",
          "type": "address"
        }
      ],
      "stateMutability": "view",
      "type": "function"
    },
    {
      "inputs": [],
      "name": "SERIE_ID",
      "outputs": [
        {
          "internalType": "uint256",
          "name": "",
          "type": "uint256"
        }
      ],
      "stateMutability": "view",
      "type": "function"
    },
    {
      "inputs": [],
      "name": "TOKEN",
      "outputs": [
        {
          "internalType": "address",
          "name": "",
          "type": "address"
        }
      ],
      "stateMutability": "view",
      "type": "function"
    },
    {
      "inputs": [
        {
          "internalType": "address",
          "name": "_token",
          "type": "address"
        },
        {
          "internalType": "bytes32",
          "name": "_name",
          "type": "bytes32"
        }
      ],
      "name": "addToken",
      "outputs": [],
      "stateMutability": "nonpayable",
      "type": "function"
    },
    {
      "inputs": [],
      "name": "balance",
      "outputs": [
        {
          "internalType": "uint256",
          "name": "",
          "type": "uint256"
        }
      ],
      "stateMutability": "view",
      "type": "function"
    },
    {
      "inputs": [
        {
          "internalType": "uint256",
          "name": "_amount",
          "type": "uint256"
        }
      ],
      "name": "getCurrentExitQuote",
      "outputs": [
        {
          "internalType": "uint256",
          "name": "",
          "type": "uint256"
        }
      ],
      "stateMutability": "view",
      "type": "function"
    },
    {
      "inputs": [],
      "name": "getMainToken",
      "outputs": [
        {
          "internalType": "address",
          "name": "",
          "type": "address"
        }
      ],
      "stateMutability": "view",
      "type": "function"
    },
    {
      "inputs": [
        {
          "internalType": "uint256",
          "name": "_serieId",
          "type": "uint256"
        },
        {
          "internalType": "address",
          "name": "_resiToken",
          "type": "address"
        },
        {
          "internalType": "address",
          "name": "_token",
          "type": "address"
        },
        {
          "internalType": "address",
          "name": "_resiRegistry",
          "type": "address"
        }
      ],
      "name": "initialize",
      "outputs": [],
      "stateMutability": "nonpayable",
      "type": "function"
    },
    {
      "inputs": [],
      "name": "owner",
      "outputs": [
        {
          "internalType": "address",
          "name": "",
          "type": "address"
        }
      ],
      "stateMutability": "view",
      "type": "function"
    },
    {
      "inputs": [
        {
          "internalType": "uint256",
          "name": "_amount",
          "type": "uint256"
        }
      ],
      "name": "release",
      "outputs": [],
      "stateMutability": "nonpayable",
      "type": "function"
    },
    {
      "inputs": [
        {
          "internalType": "bytes32",
          "name": "_name",
          "type": "bytes32"
        }
      ],
      "name": "removeToken",
      "outputs": [],
      "stateMutability": "nonpayable",
      "type": "function"
    },
    {
      "inputs": [],
      "name": "renounceOwnership",
      "outputs": [],
      "stateMutability": "nonpayable",
      "type": "function"
    },
    {
      "inputs": [
        {
          "internalType": "address",
          "name": "_token",
          "type": "address"
        }
      ],
      "name": "setMainToken",
      "outputs": [],
      "stateMutability": "nonpayable",
      "type": "function"
    },
    {
      "inputs": [
        {
          "internalType": "bytes32",
          "name": "_name",
          "type": "bytes32"
        }
      ],
      "name": "tokenBalance",
      "outputs": [
        {
          "internalType": "uint256",
          "name": "",
          "type": "uint256"
        }
      ],
      "stateMutability": "view",
      "type": "function"
    },
    {
      "inputs": [
        {
          "internalType": "bytes32",
          "name": "",
          "type": "bytes32"
        }
      ],
      "name": "tokens",
      "outputs": [
        {
          "internalType": "address",
          "name": "",
          "type": "address"
        }
      ],
      "stateMutability": "view",
      "type": "function"
    },
    {
      "inputs": [
        {
          "internalType": "address",
          "name": "newOwner",
          "type": "address"
        }
      ],
      "name": "transferOwnership",
      "outputs": [],
      "stateMutability": "nonpayable",
      "type": "function"
    },
    {
      "stateMutability": "payable",
      "type": "receive"
    }
  ],
  "transactionHash": "0xb526efa9668cbf36c6a8332253b26d536612cc2b46decb8b6f949fc84b3d9fbc",
  "args": [],
  "numDeployments": 1,
  "solcInputHash": "072c24d1c97d8046f61296ee3e4bc405",
  "bytecode": "0x608060405234801561001057600080fd5b50612783806100206000396000f3fe6080604052600436106101025760003560e01c80637e8625fd11610095578063afaa629311610064578063afaa62931461035d578063b69ef8a81461039a578063c0c1eebc146103c5578063d80fac41146103ee578063f2fde38b1461042b5761015e565b80637e8625fd1461029f57806382bfefc8146102ca5780638da5cb5b146102f5578063904194a3146103205761015e565b8063687a2b1e116100d1578063687a2b1e14610209578063715018a614610234578063754d1d541461024b5780637b9c8169146102745761015e565b8063224e74621461016357806327ce464e1461018c57806337bdc99b146101b55780634de046d5146101de5761015e565b3661015e5761010f610454565b73ffffffffffffffffffffffffffffffffffffffff167f1e57e3bb474320be3d2c77138f75b7c3941292d647f5f9634e33a8e94e0e069b3460405161015491906119b7565b60405180910390a2005b600080fd5b34801561016f57600080fd5b5061018a60048036038101906101859190611a0d565b61045c565b005b34801561019857600080fd5b506101b360048036038101906101ae9190611a98565b6105e3565b005b3480156101c157600080fd5b506101dc60048036038101906101d79190611af1565b610742565b005b3480156101ea57600080fd5b506101f3610a01565b6040516102009190611b2d565b60405180910390f35b34801561021557600080fd5b5061021e610a2b565b60405161022b91906119b7565b60405180910390f35b34801561024057600080fd5b50610249610a31565b005b34801561025757600080fd5b50610272600480360381019061026d9190611b48565b610a45565b005b34801561028057600080fd5b50610289610da4565b6040516102969190611b2d565b60405180910390f35b3480156102ab57600080fd5b506102b4610dca565b6040516102c19190611b2d565b60405180910390f35b3480156102d657600080fd5b506102df610df0565b6040516102ec9190611b2d565b60405180910390f35b34801561030157600080fd5b5061030a610e16565b6040516103179190611b2d565b60405180910390f35b34801561032c57600080fd5b5061034760048036038101906103429190611a0d565b610e40565b6040516103549190611b2d565b60405180910390f35b34801561036957600080fd5b50610384600480360381019061037f9190611af1565b610e73565b60405161039191906119b7565b60405180910390f35b3480156103a657600080fd5b506103af610e8f565b6040516103bc91906119b7565b60405180910390f35b3480156103d157600080fd5b506103ec60048036038101906103e79190611baf565b610e97565b005b3480156103fa57600080fd5b5061041560048036038101906104109190611a0d565b611099565b60405161042291906119b7565b60405180910390f35b34801561043757600080fd5b50610452600480360381019061044d9190611a98565b6111f0565b005b600033905090565b610464611273565b600073ffffffffffffffffffffffffffffffffffffffff16609b600083815260200190815260200160002060009054906101000a900473ffffffffffffffffffffffffffffffffffffffff1673ffffffffffffffffffffffffffffffffffffffff1603610506576040517f08c379a00000000000000000000000000000000000000000000000000000000081526004016104fd90611c4c565b60405180910390fd5b6000609b600083815260200190815260200160002060009054906101000a900473ffffffffffffffffffffffffffffffffffffffff1690506000609b600084815260200190815260200160002060006101000a81548173ffffffffffffffffffffffffffffffffffffffff021916908373ffffffffffffffffffffffffffffffffffffffff1602179055508073ffffffffffffffffffffffffffffffffffffffff167f3afbc119e23990903d2ef3fdf9210a7b06b5f6f85438b0edfcfbf630ad594fcc836040516105d79190611c7b565b60405180910390a25050565b6105eb611273565b600073ffffffffffffffffffffffffffffffffffffffff168173ffffffffffffffffffffffffffffffffffffffff160361065a576040517f08c379a000000000000000000000000000000000000000000000000000000000815260040161065190611ce2565b60405180910390fd5b6000609760009054906101000a900473ffffffffffffffffffffffffffffffffffffffff16905081609760006101000a81548173ffffffffffffffffffffffffffffffffffffffff021916908373ffffffffffffffffffffffffffffffffffffffff160217905550609760009054906101000a900473ffffffffffffffffffffffffffffffffffffffff1673ffffffffffffffffffffffffffffffffffffffff168173ffffffffffffffffffffffffffffffffffffffff167f1d77ee8e57fb5bec56c33790e5808931f795d7c1365f6d1e926ac6a4c297a64460405160405180910390a35050565b609960009054906101000a900473ffffffffffffffffffffffffffffffffffffffff1673ffffffffffffffffffffffffffffffffffffffff16610783610454565b73ffffffffffffffffffffffffffffffffffffffff16146107a357600080fd5b600081116107e6576040517f08c379a00000000000000000000000000000000000000000000000000000000081526004016107dd90611d4e565b60405180910390fd5b80609760009054906101000a900473ffffffffffffffffffffffffffffffffffffffff1673ffffffffffffffffffffffffffffffffffffffff166370a08231306040518263ffffffff1660e01b81526004016108429190611b2d565b602060405180830381865afa15801561085f573d6000803e3d6000fd5b505050506040513d601f19601f820116820180604052508101906108839190611d83565b10156108c4576040517f08c379a00000000000000000000000000000000000000000000000000000000081526004016108bb90611e22565b60405180910390fd5b60006108ce6112f1565b905060008111610913576040517f08c379a000000000000000000000000000000000000000000000000000000000815260040161090a90611e8e565b60405180910390fd5b61098d609960009054906101000a900473ffffffffffffffffffffffffffffffffffffffff1683836109459190611edd565b609760009054906101000a900473ffffffffffffffffffffffffffffffffffffffff1673ffffffffffffffffffffffffffffffffffffffff166114909092919063ffffffff16565b609760009054906101000a900473ffffffffffffffffffffffffffffffffffffffff1673ffffffffffffffffffffffffffffffffffffffff167f9cf9e3ab58b33f06d81842ea0ad850b6640c6430d6396973312e1715792e7a91836040516109f591906119b7565b60405180910390a25050565b6000609760009054906101000a900473ffffffffffffffffffffffffffffffffffffffff16905090565b609a5481565b610a39611273565b610a436000611516565b565b60008060019054906101000a900460ff16159050808015610a765750600160008054906101000a900460ff1660ff16105b80610aa35750610a85306115dc565b158015610aa25750600160008054906101000a900460ff1660ff16145b5b610ae2576040517f08c379a0000000000000000000000000000000000000000000000000000000008152600401610ad990611f91565b60405180910390fd5b60016000806101000a81548160ff021916908360ff1602179055508015610b1f576001600060016101000a81548160ff0219169083151502179055505b600073ffffffffffffffffffffffffffffffffffffffff168473ffffffffffffffffffffffffffffffffffffffff1603610b8e576040517f08c379a0000000000000000000000000000000000000000000000000000000008152600401610b8590612023565b60405180910390fd5b600073ffffffffffffffffffffffffffffffffffffffff168273ffffffffffffffffffffffffffffffffffffffff1603610bfd576040517f08c379a0000000000000000000000000000000000000000000000000000000008152600401610bf4906120b5565b60405180910390fd5b610c056115ff565b610c0d611650565b610c156116b1565b84609a8190555082609760006101000a81548173ffffffffffffffffffffffffffffffffffffffff021916908373ffffffffffffffffffffffffffffffffffffffff16021790555083609860006101000a81548173ffffffffffffffffffffffffffffffffffffffff021916908373ffffffffffffffffffffffffffffffffffffffff16021790555081609960006101000a81548173ffffffffffffffffffffffffffffffffffffffff021916908373ffffffffffffffffffffffffffffffffffffffff1602179055508173ffffffffffffffffffffffffffffffffffffffff168473ffffffffffffffffffffffffffffffffffffffff167f6d49e9ba2167749f64ed7e82d71e18234f9977d171f27b6c3ffdda4c73fffc9d87604051610d3c91906119b7565b60405180910390a38015610d9d5760008060016101000a81548160ff0219169083151502179055507f7f26b83ff96e1f2b6a682f133852f6798a09c465da95921460cefb38474024986001604051610d949190612127565b60405180910390a15b5050505050565b609960009054906101000a900473ffffffffffffffffffffffffffffffffffffffff1681565b609860009054906101000a900473ffffffffffffffffffffffffffffffffffffffff1681565b609760009054906101000a900473ffffffffffffffffffffffffffffffffffffffff1681565b6000603360009054906101000a900473ffffffffffffffffffffffffffffffffffffffff16905090565b609b6020528060005260406000206000915054906101000a900473ffffffffffffffffffffffffffffffffffffffff1681565b6000610e7d6112f1565b82610e889190611edd565b9050919050565b600047905090565b610e9f611273565b600073ffffffffffffffffffffffffffffffffffffffff168273ffffffffffffffffffffffffffffffffffffffff1603610f0e576040517f08c379a0000000000000000000000000000000000000000000000000000000008152600401610f0590611ce2565b60405180910390fd5b6000801b8103610f53576040517f08c379a0000000000000000000000000000000000000000000000000000000008152600401610f4a90611c4c565b60405180910390fd5b600073ffffffffffffffffffffffffffffffffffffffff16609b600083815260200190815260200160002060009054906101000a900473ffffffffffffffffffffffffffffffffffffffff1673ffffffffffffffffffffffffffffffffffffffff1614610ff5576040517f08c379a0000000000000000000000000000000000000000000000000000000008152600401610fec9061218e565b60405180910390fd5b81609b600083815260200190815260200160002060006101000a81548173ffffffffffffffffffffffffffffffffffffffff021916908373ffffffffffffffffffffffffffffffffffffffff1602179055508173ffffffffffffffffffffffffffffffffffffffff167f662cc3305b9b4ea3a5fd06717cdaece79b6ac0a7734fd44eabe0f37951dc587c8260405161108d9190611c7b565b60405180910390a25050565b60008073ffffffffffffffffffffffffffffffffffffffff16609b600084815260200190815260200160002060009054906101000a900473ffffffffffffffffffffffffffffffffffffffff1673ffffffffffffffffffffffffffffffffffffffff160361113c576040517f08c379a000000000000000000000000000000000000000000000000000000000815260040161113390611c4c565b60405180910390fd5b609b600083815260200190815260200160002060009054906101000a900473ffffffffffffffffffffffffffffffffffffffff1673ffffffffffffffffffffffffffffffffffffffff166370a08231306040518263ffffffff1660e01b81526004016111a89190611b2d565b602060405180830381865afa1580156111c5573d6000803e3d6000fd5b505050506040513d601f19601f820116820180604052508101906111e99190611d83565b9050919050565b6111f8611273565b600073ffffffffffffffffffffffffffffffffffffffff168173ffffffffffffffffffffffffffffffffffffffff1603611267576040517f08c379a000000000000000000000000000000000000000000000000000000000815260040161125e90612220565b60405180910390fd5b61127081611516565b50565b61127b610454565b73ffffffffffffffffffffffffffffffffffffffff16611299610e16565b73ffffffffffffffffffffffffffffffffffffffff16146112ef576040517f08c379a00000000000000000000000000000000000000000000000000000000081526004016112e69061228c565b60405180910390fd5b565b600080609960009054906101000a900473ffffffffffffffffffffffffffffffffffffffff1673ffffffffffffffffffffffffffffffffffffffff166317d87a95609a546040518263ffffffff1660e01b815260040161135191906119b7565b602060405180830381865afa15801561136e573d6000803e3d6000fd5b505050506040513d601f19601f820116820180604052508101906113929190611d83565b9050600081116113d7576040517f08c379a00000000000000000000000000000000000000000000000000000000081526004016113ce9061231e565b60405180910390fd5b6000609760009054906101000a900473ffffffffffffffffffffffffffffffffffffffff1673ffffffffffffffffffffffffffffffffffffffff166370a08231306040518263ffffffff1660e01b81526004016114349190611b2d565b602060405180830381865afa158015611451573d6000803e3d6000fd5b505050506040513d601f19601f820116820180604052508101906114759190611d83565b905060008282611485919061236d565b905080935050505090565b6115118363a9059cbb60e01b84846040516024016114af92919061239e565b604051602081830303815290604052907bffffffffffffffffffffffffffffffffffffffffffffffffffffffff19166020820180517bffffffffffffffffffffffffffffffffffffffffffffffffffffffff838183161783525050505061170a565b505050565b6000603360009054906101000a900473ffffffffffffffffffffffffffffffffffffffff16905081603360006101000a81548173ffffffffffffffffffffffffffffffffffffffff021916908373ffffffffffffffffffffffffffffffffffffffff1602179055508173ffffffffffffffffffffffffffffffffffffffff168173ffffffffffffffffffffffffffffffffffffffff167f8be0079c531659141344cd1fd0a4f28419497f9722a3daafe3b4186f6b6457e060405160405180910390a35050565b6000808273ffffffffffffffffffffffffffffffffffffffff163b119050919050565b600060019054906101000a900460ff1661164e576040517f08c379a000000000000000000000000000000000000000000000000000000000815260040161164590612439565b60405180910390fd5b565b600060019054906101000a900460ff1661169f576040517f08c379a000000000000000000000000000000000000000000000000000000000815260040161169690612439565b60405180910390fd5b6116af6116aa610454565b611516565b565b600060019054906101000a900460ff16611700576040517f08c379a00000000000000000000000000000000000000000000000000000000081526004016116f790612439565b60405180910390fd5b6001606581905550565b600061176c826040518060400160405280602081526020017f5361666545524332303a206c6f772d6c6576656c2063616c6c206661696c65648152508573ffffffffffffffffffffffffffffffffffffffff166117d19092919063ffffffff16565b90506000815111156117cc578080602001905181019061178c9190612491565b6117cb576040517f08c379a00000000000000000000000000000000000000000000000000000000081526004016117c290612530565b60405180910390fd5b5b505050565b60606117e084846000856117e9565b90509392505050565b60608247101561182e576040517f08c379a0000000000000000000000000000000000000000000000000000000008152600401611825906125c2565b60405180910390fd5b6000808673ffffffffffffffffffffffffffffffffffffffff1685876040516118579190612653565b60006040518083038185875af1925050503d8060008114611894576040519150601f19603f3d011682016040523d82523d6000602084013e611899565b606091505b50915091506118aa878383876118b6565b92505050949350505050565b60608315611918576000835103611910576118d08561192b565b61190f576040517f08c379a0000000000000000000000000000000000000000000000000000000008152600401611906906126b6565b60405180910390fd5b5b829050611923565b611922838361194e565b5b949350505050565b6000808273ffffffffffffffffffffffffffffffffffffffff163b119050919050565b6000825111156119615781518083602001fd5b806040517f08c379a0000000000000000000000000000000000000000000000000000000008152600401611995919061272b565b60405180910390fd5b6000819050919050565b6119b18161199e565b82525050565b60006020820190506119cc60008301846119a8565b92915050565b600080fd5b6000819050919050565b6119ea816119d7565b81146119f557600080fd5b50565b600081359050611a07816119e1565b92915050565b600060208284031215611a2357611a226119d2565b5b6000611a31848285016119f8565b91505092915050565b600073ffffffffffffffffffffffffffffffffffffffff82169050919050565b6000611a6582611a3a565b9050919050565b611a7581611a5a565b8114611a8057600080fd5b50565b600081359050611a9281611a6c565b92915050565b600060208284031215611aae57611aad6119d2565b5b6000611abc84828501611a83565b91505092915050565b611ace8161199e565b8114611ad957600080fd5b50565b600081359050611aeb81611ac5565b92915050565b600060208284031215611b0757611b066119d2565b5b6000611b1584828501611adc565b91505092915050565b611b2781611a5a565b82525050565b6000602082019050611b426000830184611b1e565b92915050565b60008060008060808587031215611b6257611b616119d2565b5b6000611b7087828801611adc565b9450506020611b8187828801611a83565b9350506040611b9287828801611a83565b9250506060611ba387828801611a83565b91505092959194509250565b60008060408385031215611bc657611bc56119d2565b5b6000611bd485828601611a83565b9250506020611be5858286016119f8565b9150509250929050565b600082825260208201905092915050565b7f526573695661756c743a20494e56414c494420544f4b454e204e414d45000000600082015250565b6000611c36601d83611bef565b9150611c4182611c00565b602082019050919050565b60006020820190508181036000830152611c6581611c29565b9050919050565b611c75816119d7565b82525050565b6000602082019050611c906000830184611c6c565b92915050565b7f526573695661756c743a20494e56414c494420544f4b454e2041444452455353600082015250565b6000611ccc602083611bef565b9150611cd782611c96565b602082019050919050565b60006020820190508181036000830152611cfb81611cbf565b9050919050565b7f494e56414c494420414d4f554e54000000000000000000000000000000000000600082015250565b6000611d38600e83611bef565b9150611d4382611d02565b602082019050919050565b60006020820190508181036000830152611d6781611d2b565b9050919050565b600081519050611d7d81611ac5565b92915050565b600060208284031215611d9957611d986119d2565b5b6000611da784828501611d6e565b91505092915050565b7f526573695661756c743a20494e56414c494420414d4f554e5420544f2052454c60008201527f4541534500000000000000000000000000000000000000000000000000000000602082015250565b6000611e0c602483611bef565b9150611e1782611db0565b604082019050919050565b60006020820190508181036000830152611e3b81611dff565b9050919050565b7f526573695661756c743a20496e76616c69642071756f74650000000000000000600082015250565b6000611e78601883611bef565b9150611e8382611e42565b602082019050919050565b60006020820190508181036000830152611ea781611e6b565b9050919050565b7f4e487b7100000000000000000000000000000000000000000000000000000000600052601160045260246000fd5b6000611ee88261199e565b9150611ef38361199e565b9250828202611f018161199e565b91508282048414831517611f1857611f17611eae565b5b5092915050565b7f496e697469616c697a61626c653a20636f6e747261637420697320616c72656160008201527f647920696e697469616c697a6564000000000000000000000000000000000000602082015250565b6000611f7b602e83611bef565b9150611f8682611f1f565b604082019050919050565b60006020820190508181036000830152611faa81611f6e565b9050919050565b7f526573695661756c743a20494e56414c4944205245534920544f4b454e20414460008201527f4452455353000000000000000000000000000000000000000000000000000000602082015250565b600061200d602583611bef565b915061201882611fb1565b604082019050919050565b6000602082019050818103600083015261203c81612000565b9050919050565b7f526573695661756c743a20494e56414c4944205245534920524547495354525960008201527f2041444452455353000000000000000000000000000000000000000000000000602082015250565b600061209f602883611bef565b91506120aa82612043565b604082019050919050565b600060208201905081810360008301526120ce81612092565b9050919050565b6000819050919050565b600060ff82169050919050565b6000819050919050565b600061211161210c612107846120d5565b6120ec565b6120df565b9050919050565b612121816120f6565b82525050565b600060208201905061213c6000830184612118565b92915050565b7f526573695661756c743a20544f4b454e20414c52454144592053455400000000600082015250565b6000612178601c83611bef565b915061218382612142565b602082019050919050565b600060208201905081810360008301526121a78161216b565b9050919050565b7f4f776e61626c653a206e6577206f776e657220697320746865207a65726f206160008201527f6464726573730000000000000000000000000000000000000000000000000000602082015250565b600061220a602683611bef565b9150612215826121ae565b604082019050919050565b60006020820190508181036000830152612239816121fd565b9050919050565b7f4f776e61626c653a2063616c6c6572206973206e6f7420746865206f776e6572600082015250565b6000612276602083611bef565b915061228182612240565b602082019050919050565b600060208201905081810360008301526122a581612269565b9050919050565b7f526573695661756c743a2053455249452057495448204e4f204d494e5445442060008201527f535550504c590000000000000000000000000000000000000000000000000000602082015250565b6000612308602683611bef565b9150612313826122ac565b604082019050919050565b60006020820190508181036000830152612337816122fb565b9050919050565b7f4e487b7100000000000000000000000000000000000000000000000000000000600052601260045260246000fd5b60006123788261199e565b91506123838361199e565b9250826123935761239261233e565b5b828204905092915050565b60006040820190506123b36000830185611b1e565b6123c060208301846119a8565b9392505050565b7f496e697469616c697a61626c653a20636f6e7472616374206973206e6f74206960008201527f6e697469616c697a696e67000000000000000000000000000000000000000000602082015250565b6000612423602b83611bef565b915061242e826123c7565b604082019050919050565b6000602082019050818103600083015261245281612416565b9050919050565b60008115159050919050565b61246e81612459565b811461247957600080fd5b50565b60008151905061248b81612465565b92915050565b6000602082840312156124a7576124a66119d2565b5b60006124b58482850161247c565b91505092915050565b7f5361666545524332303a204552433230206f7065726174696f6e20646964206e60008201527f6f74207375636365656400000000000000000000000000000000000000000000602082015250565b600061251a602a83611bef565b9150612525826124be565b604082019050919050565b600060208201905081810360008301526125498161250d565b9050919050565b7f416464726573733a20696e73756666696369656e742062616c616e636520666f60008201527f722063616c6c0000000000000000000000000000000000000000000000000000602082015250565b60006125ac602683611bef565b91506125b782612550565b604082019050919050565b600060208201905081810360008301526125db8161259f565b9050919050565b600081519050919050565b600081905092915050565b60005b838110156126165780820151818401526020810190506125fb565b60008484015250505050565b600061262d826125e2565b61263781856125ed565b93506126478185602086016125f8565b80840191505092915050565b600061265f8284612622565b915081905092915050565b7f416464726573733a2063616c6c20746f206e6f6e2d636f6e7472616374000000600082015250565b60006126a0601d83611bef565b91506126ab8261266a565b602082019050919050565b600060208201905081810360008301526126cf81612693565b9050919050565b600081519050919050565b6000601f19601f8301169050919050565b60006126fd826126d6565b6127078185611bef565b93506127178185602086016125f8565b612720816126e1565b840191505092915050565b6000602082019050818103600083015261274581846126f2565b90509291505056fea2646970667358221220faac2f39b680d19c8e060eaac06b7abb5cbebd110c27802f4f485f12ff0c890264736f6c63430008120033",
  "devdoc": {
    "events": {
      "Initialized(uint8)": {
        "details": "Triggered when the contract has been initialized or reinitialized."
      }
    },
    "kind": "dev",
    "methods": {
      "addToken(address,bytes32)": {
        "details": "add new token",
        "params": {
          "_name": "token name",
          "_token": "token address"
        }
      },
      "balance()": {
        "details": "Get Vault native balance",
        "returns": {
          "_0": "native contract balance"
        }
      },
      "getCurrentExitQuote(uint256)": {
        "details": "Get current exit quote given amount of tokens",
        "params": {
          "_amount": "amount of tokens held by an user"
        },
        "returns": {
          "_0": "exit quote"
        }
      },
      "getMainToken()": {
        "details": "Get main token",
        "returns": {
          "_0": "Main token address"
        }
      },
      "owner()": {
        "details": "Returns the address of the current owner."
      },
      "release(uint256)": {
        "details": "Transfer vault funds to ResiRegistry",
        "params": {
          "_amount": "amount to transfer"
        }
      },
      "removeToken(bytes32)": {
        "details": "remove token",
        "params": {
          "_name": "token name"
        }
      },
      "renounceOwnership()": {
        "details": "Leaves the contract without owner. It will not be possible to call `onlyOwner` functions anymore. Can only be called by the current owner. NOTE: Renouncing ownership will leave the contract without an owner, thereby removing any functionality that is only available to the owner."
      },
      "setMainToken(address)": {
        "details": "Set Main Token address",
        "params": {
          "_token": "token address"
        }
      },
      "tokenBalance(bytes32)": {
        "details": "Get specific token Vault balance",
        "params": {
          "_name": "token name"
        },
        "returns": {
          "_0": "Contract token balance"
        }
      },
      "transferOwnership(address)": {
        "details": "Transfers ownership of the contract to a new account (`newOwner`). Can only be called by the current owner."
      }
    },
    "stateVariables": {
      "RESI_REGISTRY": {
        "details": "RESI Registry adddress"
      },
      "RESI_TOKEN": {
        "details": "RESI TOKEN address"
      },
      "SERIE_ID": {
        "details": "SERIE ID linked to Vault"
      },
      "TOKEN": {
        "details": "Main token address"
      }
    },
    "version": 1
  },
  "userdoc": {
    "kind": "user",
    "methods": {},
    "version": 1
  },
  "storageLayout": {
    "storage": [
      {
        "astId": 717,
        "contract": "contracts/ResiVault.sol:ResiVault",
        "label": "_initialized",
        "offset": 0,
        "slot": "0",
        "type": "t_uint8"
      },
      {
        "astId": 720,
        "contract": "contracts/ResiVault.sol:ResiVault",
        "label": "_initializing",
        "offset": 1,
        "slot": "0",
        "type": "t_bool"
      },
      {
        "astId": 3501,
        "contract": "contracts/ResiVault.sol:ResiVault",
        "label": "__gap",
        "offset": 0,
        "slot": "1",
        "type": "t_array(t_uint256)50_storage"
      },
      {
        "astId": 589,
        "contract": "contracts/ResiVault.sol:ResiVault",
        "label": "_owner",
        "offset": 0,
        "slot": "51",
        "type": "t_address"
      },
      {
        "astId": 709,
        "contract": "contracts/ResiVault.sol:ResiVault",
        "label": "__gap",
        "offset": 0,
        "slot": "52",
        "type": "t_array(t_uint256)49_storage"
      },
      {
        "astId": 1020,
        "contract": "contracts/ResiVault.sol:ResiVault",
        "label": "_status",
        "offset": 0,
        "slot": "101",
        "type": "t_uint256"
      },
      {
        "astId": 1078,
        "contract": "contracts/ResiVault.sol:ResiVault",
        "label": "__gap",
        "offset": 0,
        "slot": "102",
        "type": "t_array(t_uint256)49_storage"
      },
      {
        "astId": 9125,
        "contract": "contracts/ResiVault.sol:ResiVault",
        "label": "TOKEN",
        "offset": 0,
        "slot": "151",
        "type": "t_address"
      },
      {
        "astId": 9128,
        "contract": "contracts/ResiVault.sol:ResiVault",
        "label": "RESI_TOKEN",
        "offset": 0,
        "slot": "152",
        "type": "t_address"
      },
      {
        "astId": 9131,
        "contract": "contracts/ResiVault.sol:ResiVault",
        "label": "RESI_REGISTRY",
        "offset": 0,
        "slot": "153",
        "type": "t_address"
      },
      {
        "astId": 9134,
        "contract": "contracts/ResiVault.sol:ResiVault",
        "label": "SERIE_ID",
        "offset": 0,
        "slot": "154",
        "type": "t_uint256"
      },
      {
        "astId": 9138,
        "contract": "contracts/ResiVault.sol:ResiVault",
        "label": "tokens",
        "offset": 0,
        "slot": "155",
        "type": "t_mapping(t_bytes32,t_address)"
      },
      {
        "astId": 9532,
        "contract": "contracts/ResiVault.sol:ResiVault",
        "label": "upgradeGap",
        "offset": 0,
        "slot": "156",
        "type": "t_array(t_uint256)20_storage"
      }
    ],
    "types": {
      "t_address": {
        "encoding": "inplace",
        "label": "address",
        "numberOfBytes": "20"
      },
      "t_array(t_uint256)20_storage": {
        "base": "t_uint256",
        "encoding": "inplace",
        "label": "uint256[20]",
        "numberOfBytes": "640"
      },
      "t_array(t_uint256)49_storage": {
        "base": "t_uint256",
        "encoding": "inplace",
        "label": "uint256[49]",
        "numberOfBytes": "1568"
      },
      "t_array(t_uint256)50_storage": {
        "base": "t_uint256",
        "encoding": "inplace",
        "label": "uint256[50]",
        "numberOfBytes": "1600"
      },
      "t_bool": {
        "encoding": "inplace",
        "label": "bool",
        "numberOfBytes": "1"
      },
      "t_bytes32": {
        "encoding": "inplace",
        "label": "bytes32",
        "numberOfBytes": "32"
      },
      "t_mapping(t_bytes32,t_address)": {
        "encoding": "mapping",
        "key": "t_bytes32",
        "label": "mapping(bytes32 => address)",
        "numberOfBytes": "32",
        "value": "t_address"
      },
      "t_uint256": {
        "encoding": "inplace",
        "label": "uint256",
        "numberOfBytes": "32"
      },
      "t_uint8": {
        "encoding": "inplace",
        "label": "uint8",
        "numberOfBytes": "1"
      }
    }
  }
}