{
  "address": "0x3c811E4166d11F842643F84abb2A30264EAD4589",
  "abi": [
    {
      "inputs": [
        {
          "internalType": "string",
          "name": "message",
          "type": "string"
        }
      ],
      "name": "TransferForbidden",
      "type": "error"
    },
    {
      "anonymous": false,
      "inputs": [
        {
          "indexed": true,
          "internalType": "address",
          "name": "owner",
          "type": "address"
        },
        {
          "indexed": true,
          "internalType": "address",
          "name": "approved",
          "type": "address"
        },
        {
          "indexed": true,
          "internalType": "uint256",
          "name": "tokenId",
          "type": "uint256"
        }
      ],
      "name": "Approval",
      "type": "event"
    },
    {
      "anonymous": false,
      "inputs": [
        {
          "indexed": true,
          "internalType": "address",
          "name": "owner",
          "type": "address"
        },
        {
          "indexed": true,
          "internalType": "address",
          "name": "operator",
          "type": "address"
        },
        {
          "indexed": false,
          "internalType": "bool",
          "name": "approved",
          "type": "bool"
        }
      ],
      "name": "ApprovalForAll",
      "type": "event"
    },
    {
      "anonymous": false,
      "inputs": [
        {
          "indexed": false,
          "internalType": "string",
          "name": "contractUri",
          "type": "string"
        }
      ],
      "name": "ContractURIUpdated",
      "type": "event"
    },
    {
      "anonymous": false,
      "inputs": [
        {
          "indexed": true,
          "internalType": "address",
          "name": "to",
          "type": "address"
        },
        {
          "indexed": false,
          "internalType": "uint256",
          "name": "amount",
          "type": "uint256"
        }
      ],
      "name": "DecreaseResiBalance",
      "type": "event"
    },
    {
      "anonymous": false,
      "inputs": [
        {
          "indexed": false,
          "internalType": "string",
          "name": "oldUri",
          "type": "string"
        },
        {
          "indexed": false,
          "internalType": "string",
          "name": "newUri",
          "type": "string"
        }
      ],
      "name": "DefaultRoleUriUpdated",
      "type": "event"
    },
    {
      "anonymous": false,
      "inputs": [
        {
          "indexed": true,
          "internalType": "address",
          "name": "to",
          "type": "address"
        },
        {
          "indexed": false,
          "internalType": "uint256",
          "name": "amount",
          "type": "uint256"
        }
      ],
      "name": "IncreaseResiBalance",
      "type": "event"
    },
    {
      "anonymous": false,
      "inputs": [
        {
          "indexed": false,
          "internalType": "uint8",
          "name": "version",
          "type": "uint8"
        }
      ],
      "name": "Initialized",
      "type": "event"
    },
    {
      "anonymous": false,
      "inputs": [
        {
          "indexed": false,
          "internalType": "uint256",
          "name": "tokenId",
          "type": "uint256"
        }
      ],
      "name": "Locked",
      "type": "event"
    },
    {
      "anonymous": false,
      "inputs": [
        {
          "indexed": true,
          "internalType": "address",
          "name": "_to",
          "type": "address"
        },
        {
          "indexed": false,
          "internalType": "bytes32",
          "name": "_role",
          "type": "bytes32"
        },
        {
          "indexed": false,
          "internalType": "uint256",
          "name": "_tokenId",
          "type": "uint256"
        }
      ],
      "name": "MintSBT",
      "type": "event"
    },
    {
      "anonymous": false,
      "inputs": [
        {
          "indexed": true,
          "internalType": "address",
          "name": "user",
          "type": "address"
        },
        {
          "indexed": false,
          "internalType": "bytes32",
          "name": "nickname",
          "type": "bytes32"
        }
      ],
      "name": "NicknameUpdated",
      "type": "event"
    },
    {
      "anonymous": false,
      "inputs": [
        {
          "indexed": true,
          "internalType": "address",
          "name": "previousOwner",
          "type": "address"
        },
        {
          "indexed": true,
          "internalType": "address",
          "name": "newOwner",
          "type": "address"
        }
      ],
      "name": "OwnershipTransferred",
      "type": "event"
    },
    {
      "anonymous": false,
      "inputs": [
        {
          "indexed": true,
          "internalType": "address",
          "name": "_registry",
          "type": "address"
        }
      ],
      "name": "RegistrySet",
      "type": "event"
    },
    {
      "anonymous": false,
      "inputs": [
        {
          "indexed": false,
          "internalType": "string",
          "name": "_name",
          "type": "string"
        },
        {
          "indexed": false,
          "internalType": "string",
          "name": "_symbol",
          "type": "string"
        },
        {
          "indexed": false,
          "internalType": "uint256",
          "name": "_serieId",
          "type": "uint256"
        },
        {
          "indexed": true,
          "internalType": "address",
          "name": "_registry",
          "type": "address"
        },
        {
          "indexed": true,
          "internalType": "address",
          "name": "_resiToken",
          "type": "address"
        }
      ],
      "name": "ResiSBTInitialized",
      "type": "event"
    },
    {
      "anonymous": false,
      "inputs": [
        {
          "indexed": true,
          "internalType": "address",
          "name": "_to",
          "type": "address"
        },
        {
          "indexed": false,
          "internalType": "bytes32",
          "name": "_role",
          "type": "bytes32"
        },
        {
          "indexed": false,
          "internalType": "uint256",
          "name": "_tokenId",
          "type": "uint256"
        }
      ],
      "name": "SBTMintedByResiToken",
      "type": "event"
    },
    {
      "anonymous": false,
      "inputs": [
        {
          "indexed": true,
          "internalType": "address",
          "name": "from",
          "type": "address"
        },
        {
          "indexed": true,
          "internalType": "address",
          "name": "to",
          "type": "address"
        },
        {
          "indexed": true,
          "internalType": "uint256",
          "name": "tokenId",
          "type": "uint256"
        }
      ],
      "name": "Transfer",
      "type": "event"
    },
    {
      "anonymous": false,
      "inputs": [
        {
          "indexed": false,
          "internalType": "uint256",
          "name": "tokenId",
          "type": "uint256"
        }
      ],
      "name": "Unlocked",
      "type": "event"
    },
    {
      "inputs": [],
      "name": "RESI_REGISTRY",
      "outputs": [
        {
          "internalType": "address",
          "name": "",
          "type": "address"
        }
      ],
      "stateMutability": "view",
      "type": "function"
    },
    {
      "inputs": [],
      "name": "RESI_TOKEN",
      "outputs": [
        {
          "internalType": "address",
          "name": "",
          "type": "address"
        }
      ],
      "stateMutability": "view",
      "type": "function"
    },
    {
      "inputs": [],
      "name": "SERIE_ID",
      "outputs": [
        {
          "internalType": "uint256",
          "name": "",
          "type": "uint256"
        }
      ],
      "stateMutability": "view",
      "type": "function"
    },
    {
      "inputs": [
        {
          "internalType": "address",
          "name": "to",
          "type": "address"
        },
        {
          "internalType": "uint256",
          "name": "tokenId",
          "type": "uint256"
        }
      ],
      "name": "approve",
      "outputs": [],
      "stateMutability": "nonpayable",
      "type": "function"
    },
    {
      "inputs": [
        {
          "internalType": "address",
          "name": "owner",
          "type": "address"
        }
      ],
      "name": "balanceOf",
      "outputs": [
        {
          "internalType": "uint256",
          "name": "",
          "type": "uint256"
        }
      ],
      "stateMutability": "view",
      "type": "function"
    },
    {
      "inputs": [],
      "name": "contractUri",
      "outputs": [
        {
          "internalType": "string",
          "name": "",
          "type": "string"
        }
      ],
      "stateMutability": "view",
      "type": "function"
    },
    {
      "inputs": [
        {
          "internalType": "address",
          "name": "_to",
          "type": "address"
        },
        {
          "internalType": "uint256",
          "name": "_amount",
          "type": "uint256"
        }
      ],
      "name": "decreaseResiTokenBalance",
      "outputs": [],
      "stateMutability": "nonpayable",
      "type": "function"
    },
    {
      "inputs": [
        {
          "internalType": "uint256",
          "name": "tokenId",
          "type": "uint256"
        }
      ],
      "name": "getApproved",
      "outputs": [
        {
          "internalType": "address",
          "name": "",
          "type": "address"
        }
      ],
      "stateMutability": "view",
      "type": "function"
    },
    {
      "inputs": [
        {
          "internalType": "address",
          "name": "_to",
          "type": "address"
        },
        {
          "internalType": "uint256",
          "name": "_amount",
          "type": "uint256"
        }
      ],
      "name": "increaseResiTokenBalance",
      "outputs": [],
      "stateMutability": "nonpayable",
      "type": "function"
    },
    {
      "inputs": [
        {
          "internalType": "string",
          "name": "_name",
          "type": "string"
        },
        {
          "internalType": "string",
          "name": "_symbol",
          "type": "string"
        },
        {
          "internalType": "string",
          "name": "_contractUri",
          "type": "string"
        },
        {
          "internalType": "uint256",
          "name": "_serieId",
          "type": "uint256"
        },
        {
          "internalType": "address",
          "name": "_registry",
          "type": "address"
        },
        {
          "internalType": "address",
          "name": "_token",
          "type": "address"
        }
      ],
      "name": "initialize",
      "outputs": [],
      "stateMutability": "nonpayable",
      "type": "function"
    },
    {
      "inputs": [
        {
          "internalType": "address",
          "name": "owner",
          "type": "address"
        },
        {
          "internalType": "address",
          "name": "operator",
          "type": "address"
        }
      ],
      "name": "isApprovedForAll",
      "outputs": [
        {
          "internalType": "bool",
          "name": "",
          "type": "bool"
        }
      ],
      "stateMutability": "view",
      "type": "function"
    },
    {
      "inputs": [
        {
          "internalType": "address",
          "name": "_account",
          "type": "address"
        },
        {
          "internalType": "bytes32",
          "name": "_role",
          "type": "bytes32"
        },
        {
          "internalType": "uint256",
          "name": "_serieId",
          "type": "uint256"
        }
      ],
      "name": "isSBTReceiver",
      "outputs": [
        {
          "internalType": "bool",
          "name": "",
          "type": "bool"
        }
      ],
      "stateMutability": "view",
      "type": "function"
    },
    {
      "inputs": [
        {
          "internalType": "uint256",
          "name": "tokenId",
          "type": "uint256"
        }
      ],
      "name": "locked",
      "outputs": [
        {
          "internalType": "bool",
          "name": "",
          "type": "bool"
        }
      ],
      "stateMutability": "view",
      "type": "function"
    },
    {
      "inputs": [
        {
          "internalType": "address",
          "name": "_to",
          "type": "address"
        },
        {
          "internalType": "bytes32",
          "name": "_role",
          "type": "bytes32"
        },
        {
          "internalType": "string",
          "name": "_uri",
          "type": "string"
        }
      ],
      "name": "mint",
      "outputs": [
        {
          "internalType": "uint256",
          "name": "",
          "type": "uint256"
        }
      ],
      "stateMutability": "nonpayable",
      "type": "function"
    },
    {
      "inputs": [
        {
          "internalType": "address[]",
          "name": "_to",
          "type": "address[]"
        },
        {
          "internalType": "string",
          "name": "_uri",
          "type": "string"
        },
        {
          "internalType": "bytes32",
          "name": "_role",
          "type": "bytes32"
        }
      ],
      "name": "mintBatchByRole",
      "outputs": [],
      "stateMutability": "nonpayable",
      "type": "function"
    },
    {
      "inputs": [
        {
          "internalType": "address",
          "name": "_to",
          "type": "address"
        },
        {
          "internalType": "bytes32",
          "name": "_role",
          "type": "bytes32"
        }
      ],
      "name": "mintByResiToken",
      "outputs": [],
      "stateMutability": "nonpayable",
      "type": "function"
    },
    {
      "inputs": [],
      "name": "name",
      "outputs": [
        {
          "internalType": "string",
          "name": "",
          "type": "string"
        }
      ],
      "stateMutability": "view",
      "type": "function"
    },
    {
      "inputs": [],
      "name": "owner",
      "outputs": [
        {
          "internalType": "address",
          "name": "",
          "type": "address"
        }
      ],
      "stateMutability": "view",
      "type": "function"
    },
    {
      "inputs": [
        {
          "internalType": "uint256",
          "name": "tokenId",
          "type": "uint256"
        }
      ],
      "name": "ownerOf",
      "outputs": [
        {
          "internalType": "address",
          "name": "",
          "type": "address"
        }
      ],
      "stateMutability": "view",
      "type": "function"
    },
    {
      "inputs": [],
      "name": "renounceOwnership",
      "outputs": [],
      "stateMutability": "nonpayable",
      "type": "function"
    },
    {
      "inputs": [
        {
          "internalType": "address",
          "name": "",
          "type": "address"
        }
      ],
      "name": "resiTokenBalances",
      "outputs": [
        {
          "internalType": "uint256",
          "name": "",
          "type": "uint256"
        }
      ],
      "stateMutability": "view",
      "type": "function"
    },
    {
      "inputs": [
        {
          "internalType": "address",
          "name": "",
          "type": "address"
        },
        {
          "internalType": "address",
          "name": "",
          "type": "address"
        },
        {
          "internalType": "uint256",
          "name": "",
          "type": "uint256"
        }
      ],
      "name": "safeTransferFrom",
      "outputs": [],
      "stateMutability": "pure",
      "type": "function"
    },
    {
      "inputs": [
        {
          "internalType": "address",
          "name": "",
          "type": "address"
        },
        {
          "internalType": "address",
          "name": "",
          "type": "address"
        },
        {
          "internalType": "uint256",
          "name": "",
          "type": "uint256"
        },
        {
          "internalType": "bytes",
          "name": "",
          "type": "bytes"
        }
      ],
      "name": "safeTransferFrom",
      "outputs": [],
      "stateMutability": "pure",
      "type": "function"
    },
    {
      "inputs": [
        {
          "internalType": "address",
          "name": "operator",
          "type": "address"
        },
        {
          "internalType": "bool",
          "name": "approved",
          "type": "bool"
        }
      ],
      "name": "setApprovalForAll",
      "outputs": [],
      "stateMutability": "nonpayable",
      "type": "function"
    },
    {
      "inputs": [
        {
          "internalType": "string",
          "name": "_contractUri",
          "type": "string"
        }
      ],
      "name": "setContractURI",
      "outputs": [],
      "stateMutability": "nonpayable",
      "type": "function"
    },
    {
      "inputs": [
        {
          "internalType": "bytes32",
          "name": "_role",
          "type": "bytes32"
        },
        {
          "internalType": "string",
          "name": "_uri",
          "type": "string"
        }
      ],
      "name": "setDefaultRoleUri",
      "outputs": [],
      "stateMutability": "nonpayable",
      "type": "function"
    },
    {
      "inputs": [
        {
          "internalType": "bytes32",
          "name": "_nickname",
          "type": "bytes32"
        }
      ],
      "name": "setNickName",
      "outputs": [],
      "stateMutability": "nonpayable",
      "type": "function"
    },
    {
      "inputs": [
        {
          "internalType": "address",
          "name": "_registry",
          "type": "address"
        }
      ],
      "name": "setRegistry",
      "outputs": [],
      "stateMutability": "nonpayable",
      "type": "function"
    },
    {
      "inputs": [
        {
          "internalType": "bytes4",
          "name": "interfaceId",
          "type": "bytes4"
        }
      ],
      "name": "supportsInterface",
      "outputs": [
        {
          "internalType": "bool",
          "name": "",
          "type": "bool"
        }
      ],
      "stateMutability": "view",
      "type": "function"
    },
    {
      "inputs": [],
      "name": "symbol",
      "outputs": [
        {
          "internalType": "string",
          "name": "",
          "type": "string"
        }
      ],
      "stateMutability": "view",
      "type": "function"
    },
    {
      "inputs": [
        {
          "internalType": "uint256",
          "name": "tokenId",
          "type": "uint256"
        }
      ],
      "name": "tokenURI",
      "outputs": [
        {
          "internalType": "string",
          "name": "",
          "type": "string"
        }
      ],
      "stateMutability": "view",
      "type": "function"
    },
    {
      "inputs": [
        {
          "internalType": "address",
          "name": "",
          "type": "address"
        },
        {
          "internalType": "address",
          "name": "",
          "type": "address"
        },
        {
          "internalType": "uint256",
          "name": "",
          "type": "uint256"
        }
      ],
      "name": "transferFrom",
      "outputs": [],
      "stateMutability": "pure",
      "type": "function"
    },
    {
      "inputs": [
        {
          "internalType": "address",
          "name": "newOwner",
          "type": "address"
        }
      ],
      "name": "transferOwnership",
      "outputs": [],
      "stateMutability": "nonpayable",
      "type": "function"
    },
    {
      "inputs": [
        {
          "internalType": "address",
          "name": "",
          "type": "address"
        }
      ],
      "name": "userNickNames",
      "outputs": [
        {
          "internalType": "bytes32",
          "name": "",
          "type": "bytes32"
        }
      ],
      "stateMutability": "view",
      "type": "function"
    }
  ],
  "transactionHash": "0xa3bad56cc77709266d93e758764097b737eda96517c63e0d4db9a15f4405c14e",
  "args": [],
  "numDeployments": 1,
  "solcInputHash": "1ed97a85cf6c1ab129aa00613e7abdf1",
  "bytecode": "0x608060405234801561001057600080fd5b506153e3806100206000396000f3fe608060405234801561001057600080fd5b50600436106102065760003560e01c80637b9c81691161011a578063b45a3c0e116100ad578063c3b9e8ad1161007c578063c3b9e8ad146105bf578063c87b56dd146105ef578063d1c935991461061f578063e985e9c51461064f578063f2fde38b1461067f57610206565b8063b45a3c0e14610539578063b4bc6cac14610569578063b88d4fde14610585578063c0e24d5e146105a157610206565b8063938e3d7b116100e9578063938e3d7b146104c757806395d89b41146104e3578063a22cb46514610501578063a91ee0dc1461051d57610206565b80637b9c81691461043d5780637e8625fd1461045b5780637eb8d1f1146104795780638da5cb5b146104a957610206565b806346fad2a31161019d5780636352211e1161016c5780636352211e14610399578063687a2b1e146103c957806370a08231146103e7578063715018a6146104175780637930a65b1461042157610206565b806346fad2a3146103155780634a8a4c2814610331578063517e75141461034d57806362246c411461037d57610206565b806323b872dd116101d957806323b872dd146102a55780632671c49e146102c157806332443e5f146102dd57806342842e0e146102f957610206565b806301ffc9a71461020b57806306fdde031461023b578063081812fc14610259578063095ea7b314610289575b600080fd5b610225600480360381019061022091906131c4565b61069b565b604051610232919061320c565b60405180910390f35b61024361077d565b60405161025091906132b7565b60405180910390f35b610273600480360381019061026e919061330f565b61080f565b604051610280919061337d565b60405180910390f35b6102a3600480360381019061029e91906133c4565b610855565b005b6102bf60048036038101906102ba9190613404565b61096c565b005b6102db60048036038101906102d691906134f2565b6109a7565b005b6102f760048036038101906102f29190613552565b610b40565b005b610313600480360381019061030e9190613404565b610bf6565b005b61032f600480360381019061032a9190613785565b610c31565b005b61034b600480360381019061034691906133c4565b610ca9565b005b61036760048036038101906103629190613810565b610d5f565b604051610374919061388e565b60405180910390f35b610397600480360381019061039291906138a9565b610dd3565b005b6103b360048036038101906103ae919061330f565b610f0e565b6040516103c0919061337d565b60405180910390f35b6103d1610f94565b6040516103de919061388e565b60405180910390f35b61040160048036038101906103fc91906138d6565b610f9b565b60405161040e919061388e565b60405180910390f35b61041f611052565b005b61043b60048036038101906104369190613903565b611066565b005b6104456113b0565b604051610452919061337d565b60405180910390f35b6104636113d7565b604051610470919061337d565b60405180910390f35b610493600480360381019061048e91906139e4565b6113fe565b6040516104a0919061320c565b60405180910390f35b6104b1611555565b6040516104be919061337d565b60405180910390f35b6104e160048036038101906104dc9190613a37565b61157f565b005b6104eb6115d4565b6040516104f891906132b7565b60405180910390f35b61051b60048036038101906105169190613aac565b611666565b005b610537600480360381019061053291906138d6565b61167c565b005b610553600480360381019061054e919061330f565b61177b565b604051610560919061320c565b60405180910390f35b610583600480360381019061057e91906133c4565b6117a6565b005b61059f600480360381019061059a9190613b8d565b61185c565b005b6105a9611897565b6040516105b691906132b7565b60405180910390f35b6105d960048036038101906105d491906138d6565b611926565b6040516105e69190613c1f565b60405180910390f35b6106096004803603810190610604919061330f565b61193f565b60405161061691906132b7565b60405180910390f35b610639600480360381019061063491906138d6565b611951565b604051610646919061388e565b60405180910390f35b61066960048036038101906106649190613c3a565b61196a565b604051610676919061320c565b60405180910390f35b610699600480360381019061069491906138d6565b6119fe565b005b60007f80ac58cd000000000000000000000000000000000000000000000000000000007bffffffffffffffffffffffffffffffffffffffffffffffffffffffff1916827bffffffffffffffffffffffffffffffffffffffffffffffffffffffff1916148061076657507f5b5e139f000000000000000000000000000000000000000000000000000000007bffffffffffffffffffffffffffffffffffffffffffffffffffffffff1916827bffffffffffffffffffffffffffffffffffffffffffffffffffffffff1916145b80610776575061077582611a81565b5b9050919050565b60606097805461078c90613ca9565b80601f01602080910402602001604051908101604052809291908181526020018280546107b890613ca9565b80156108055780601f106107da57610100808354040283529160200191610805565b820191906000526020600020905b8154815290600101906020018083116107e857829003601f168201915b5050505050905090565b600061081a82611aeb565b609b600083815260200190815260200160002060009054906101000a900473ffffffffffffffffffffffffffffffffffffffff169050919050565b600061086082610f0e565b90508073ffffffffffffffffffffffffffffffffffffffff168373ffffffffffffffffffffffffffffffffffffffff16036108d0576040517f08c379a00000000000000000000000000000000000000000000000000000000081526004016108c790613d4c565b60405180910390fd5b8073ffffffffffffffffffffffffffffffffffffffff166108ef611b36565b73ffffffffffffffffffffffffffffffffffffffff16148061091e575061091d81610918611b36565b61196a565b5b61095d576040517f08c379a000000000000000000000000000000000000000000000000000000000815260040161095490613dde565b60405180910390fd5b6109678383611b3e565b505050565b6040517fa744719900000000000000000000000000000000000000000000000000000000815260040161099e90613e70565b60405180910390fd5b6109af611bf7565b6000801b83036109f4576040517f08c379a00000000000000000000000000000000000000000000000000000000081526004016109eb90613edc565b60405180910390fd5b60008282905011610a3a576040517f08c379a0000000000000000000000000000000000000000000000000000000008152600401610a3190613f48565b60405180910390fd5b600061013560008581526020019081526020016000208054610a5b90613ca9565b80601f0160208091040260200160405190810160405280929190818152602001828054610a8790613ca9565b8015610ad45780601f10610aa957610100808354040283529160200191610ad4565b820191906000526020600020905b815481529060010190602001808311610ab757829003601f168201915b50505050509050828261013560008781526020019081526020016000209182610afe92919061411f565b507fb4882a9c218e6fe0486c301941b80c68720a5bc8091eb24a0b0f6278eed05f06818484604051610b329392919061421c565b60405180910390a150505050565b61013060009054906101000a900473ffffffffffffffffffffffffffffffffffffffff1673ffffffffffffffffffffffffffffffffffffffff16610b82611b36565b73ffffffffffffffffffffffffffffffffffffffff1614610bd8576040517f08c379a0000000000000000000000000000000000000000000000000000000008152600401610bcf906142c7565b60405180910390fd5b610be0611c75565b610bea8282611cc4565b610bf2611e0e565b5050565b6040517fa7447199000000000000000000000000000000000000000000000000000000008152600401610c2890613e70565b60405180910390fd5b610c39611bf7565b60005b8351811015610ca357610c6a848281518110610c5b57610c5a6142e7565b5b60200260200101518385611e18565b610c8f848281518110610c8057610c7f6142e7565b5b60200260200101518385612044565b508080610c9b90614345565b915050610c3c565b50505050565b61013060009054906101000a900473ffffffffffffffffffffffffffffffffffffffff1673ffffffffffffffffffffffffffffffffffffffff16610ceb611b36565b73ffffffffffffffffffffffffffffffffffffffff1614610d41576040517f08c379a0000000000000000000000000000000000000000000000000000000008152600401610d38906142c7565b60405180910390fd5b610d49611c75565b610d5382826121ca565b610d5b611e0e565b5050565b6000610d69611bf7565b6000610d76858585612044565b90508473ffffffffffffffffffffffffffffffffffffffff167f794d7f3def354a526e1441e5795ceed82fda62994c9c013a927cbcf2934cb92f8583604051610dc092919061438d565b60405180910390a2809150509392505050565b6001610de5610de0611b36565b610f9b565b14610e25576040517f08c379a0000000000000000000000000000000000000000000000000000000008152600401610e1c90614402565b60405180910390fd5b6000801b8103610e6a576040517f08c379a0000000000000000000000000000000000000000000000000000000008152600401610e619061446e565b60405180910390fd5b806101326000610e78611b36565b73ffffffffffffffffffffffffffffffffffffffff1673ffffffffffffffffffffffffffffffffffffffff16815260200190815260200160002081905550610ebe611b36565b73ffffffffffffffffffffffffffffffffffffffff167f99f6108bddea6b753194dfcbc58f782b8bdf56daeb68d6e3a1584a2e25e54bbc82604051610f039190613c1f565b60405180910390a250565b600080610f1a83612301565b9050600073ffffffffffffffffffffffffffffffffffffffff168173ffffffffffffffffffffffffffffffffffffffff1603610f8b576040517f08c379a0000000000000000000000000000000000000000000000000000000008152600401610f82906144da565b60405180910390fd5b80915050919050565b61012f5481565b60008073ffffffffffffffffffffffffffffffffffffffff168273ffffffffffffffffffffffffffffffffffffffff160361100b576040517f08c379a00000000000000000000000000000000000000000000000000000000081526004016110029061456c565b60405180910390fd5b609a60008373ffffffffffffffffffffffffffffffffffffffff1673ffffffffffffffffffffffffffffffffffffffff168152602001908152602001600020549050919050565b61105a611bf7565b611064600061233e565b565b60008060019054906101000a900460ff161590508080156110975750600160008054906101000a900460ff1660ff16105b806110c457506110a630612404565b1580156110c35750600160008054906101000a900460ff1660ff16145b5b611103576040517f08c379a00000000000000000000000000000000000000000000000000000000081526004016110fa906145fe565b60405180910390fd5b60016000806101000a81548160ff021916908360ff1602179055508015611140576001600060016101000a81548160ff0219169083151502179055505b600073ffffffffffffffffffffffffffffffffffffffff168373ffffffffffffffffffffffffffffffffffffffff16036111af576040517f08c379a00000000000000000000000000000000000000000000000000000000081526004016111a69061466a565b60405180910390fd5b600073ffffffffffffffffffffffffffffffffffffffff168273ffffffffffffffffffffffffffffffffffffffff160361121e576040517f08c379a0000000000000000000000000000000000000000000000000000000008152600401611215906146d6565b60405180910390fd5b611226612427565b61122e612478565b6112366124d9565b6112408787612532565b6112486125a5565b8261013160006101000a81548173ffffffffffffffffffffffffffffffffffffffff021916908373ffffffffffffffffffffffffffffffffffffffff1602179055508161013060006101000a81548173ffffffffffffffffffffffffffffffffffffffff021916908373ffffffffffffffffffffffffffffffffffffffff1602179055508361012f819055508461012e90816112e491906146f6565b508173ffffffffffffffffffffffffffffffffffffffff168373ffffffffffffffffffffffffffffffffffffffff167fb971b0bf8639f3fb4af088317172a98b054b3584c29da1ec8d5f77e1231c0fdf898988604051611346939291906147c8565b60405180910390a380156113a75760008060016101000a81548160ff0219169083151502179055507f7f26b83ff96e1f2b6a682f133852f6798a09c465da95921460cefb3847402498600160405161139e9190614855565b60405180910390a15b50505050505050565b61013160009054906101000a900473ffffffffffffffffffffffffffffffffffffffff1681565b61013060009054906101000a900473ffffffffffffffffffffffffffffffffffffffff1681565b600061013060009054906101000a900473ffffffffffffffffffffffffffffffffffffffff1673ffffffffffffffffffffffffffffffffffffffff166391d1485484866040518363ffffffff1660e01b815260040161145e929190614870565b602060405180830381865afa15801561147b573d6000803e3d6000fd5b505050506040513d601f19601f8201168201806040525081019061149f91906148ae565b801561153b57508161013160009054906101000a900473ffffffffffffffffffffffffffffffffffffffff1673ffffffffffffffffffffffffffffffffffffffff1663be71e4266040518163ffffffff1660e01b8152600401602060405180830381865afa158015611515573d6000803e3d6000fd5b505050506040513d601f19601f8201168201806040525081019061153991906148f0565b145b15611549576001905061154e565b600090505b9392505050565b6000603360009054906101000a900473ffffffffffffffffffffffffffffffffffffffff16905090565b611587611bf7565b8061012e908161159791906146f6565b507f905d981207a7d0b6c62cc46ab0be2a076d0298e4a86d0ab79882dbd01ac3737861012e6040516115c991906149a1565b60405180910390a150565b6060609880546115e390613ca9565b80601f016020809104026020016040519081016040528092919081815260200182805461160f90613ca9565b801561165c5780601f106116315761010080835404028352916020019161165c565b820191906000526020600020905b81548152906001019060200180831161163f57829003601f168201915b5050505050905090565b611678611671611b36565b83836125f6565b5050565b611684611bf7565b600073ffffffffffffffffffffffffffffffffffffffff168173ffffffffffffffffffffffffffffffffffffffff16036116f3576040517f08c379a00000000000000000000000000000000000000000000000000000000081526004016116ea9061466a565b60405180910390fd5b8061013160006101000a81548173ffffffffffffffffffffffffffffffffffffffff021916908373ffffffffffffffffffffffffffffffffffffffff1602179055508073ffffffffffffffffffffffffffffffffffffffff167f27fe5f0c1c3b1ed427cc63d0f05759ffdecf9aec9e18d31ef366fc8a6cb5dc3b60405160405180910390a250565b6000610134600083815260200190815260200160002060009054906101000a900460ff169050919050565b61013060009054906101000a900473ffffffffffffffffffffffffffffffffffffffff1673ffffffffffffffffffffffffffffffffffffffff166117e8611b36565b73ffffffffffffffffffffffffffffffffffffffff161461183e576040517f08c379a0000000000000000000000000000000000000000000000000000000008152600401611835906142c7565b60405180910390fd5b611846611c75565b6118508282612762565b611858611e0e565b5050565b6040517fa744719900000000000000000000000000000000000000000000000000000000815260040161188e90613e70565b60405180910390fd5b61012e80546118a590613ca9565b80601f01602080910402602001604051908101604052809291908181526020018280546118d190613ca9565b801561191e5780601f106118f35761010080835404028352916020019161191e565b820191906000526020600020905b81548152906001019060200180831161190157829003601f168201915b505050505081565b6101326020528060005260406000206000915090505481565b606061194a82612899565b9050919050565b6101336020528060005260406000206000915090505481565b6000609c60008473ffffffffffffffffffffffffffffffffffffffff1673ffffffffffffffffffffffffffffffffffffffff16815260200190815260200160002060008373ffffffffffffffffffffffffffffffffffffffff1673ffffffffffffffffffffffffffffffffffffffff16815260200190815260200160002060009054906101000a900460ff16905092915050565b611a06611bf7565b600073ffffffffffffffffffffffffffffffffffffffff168173ffffffffffffffffffffffffffffffffffffffff1603611a75576040517f08c379a0000000000000000000000000000000000000000000000000000000008152600401611a6c90614a35565b60405180910390fd5b611a7e8161233e565b50565b60007f01ffc9a7000000000000000000000000000000000000000000000000000000007bffffffffffffffffffffffffffffffffffffffffffffffffffffffff1916827bffffffffffffffffffffffffffffffffffffffffffffffffffffffff1916149050919050565b611af4816129ab565b611b33576040517f08c379a0000000000000000000000000000000000000000000000000000000008152600401611b2a906144da565b60405180910390fd5b50565b600033905090565b81609b600083815260200190815260200160002060006101000a81548173ffffffffffffffffffffffffffffffffffffffff021916908373ffffffffffffffffffffffffffffffffffffffff160217905550808273ffffffffffffffffffffffffffffffffffffffff16611bb183610f0e565b73ffffffffffffffffffffffffffffffffffffffff167f8c5be1e5ebec7d5bd14f71427d1e84f3dd0314c0f7b2291e5b200ac8c7c3b92560405160405180910390a45050565b611bff611b36565b73ffffffffffffffffffffffffffffffffffffffff16611c1d611555565b73ffffffffffffffffffffffffffffffffffffffff1614611c73576040517f08c379a0000000000000000000000000000000000000000000000000000000008152600401611c6a90614aa1565b60405180910390fd5b565b600260fb5403611cba576040517f08c379a0000000000000000000000000000000000000000000000000000000008152600401611cb190614b0d565b60405180910390fd5b600260fb81905550565b600061013560008381526020019081526020016000208054611ce590613ca9565b80601f0160208091040260200160405190810160405280929190818152602001828054611d1190613ca9565b8015611d5e5780601f10611d3357610100808354040283529160200191611d5e565b820191906000526020600020905b815481529060010190602001808311611d4157829003601f168201915b505050505090506000815111611da9576040517f08c379a0000000000000000000000000000000000000000000000000000000008152600401611da090614b9f565b60405180910390fd5b6000611db6848484612044565b90508373ffffffffffffffffffffffffffffffffffffffff167f59fbbd4726c1a26d6867c26553838746080aeca0d39c4decb94778fff62fe4568483604051611e0092919061438d565b60405180910390a250505050565b600160fb81905550565b611e20611555565b73ffffffffffffffffffffffffffffffffffffffff16611e3e611b36565b73ffffffffffffffffffffffffffffffffffffffff161480611eb5575061013060009054906101000a900473ffffffffffffffffffffffffffffffffffffffff1673ffffffffffffffffffffffffffffffffffffffff16611e9d611b36565b73ffffffffffffffffffffffffffffffffffffffff16145b611ef4576040517f08c379a0000000000000000000000000000000000000000000000000000000008152600401611eeb90614c31565b60405180910390fd5b600073ffffffffffffffffffffffffffffffffffffffff168373ffffffffffffffffffffffffffffffffffffffff1603611f63576040517f08c379a0000000000000000000000000000000000000000000000000000000008152600401611f5a90614c9d565b60405180910390fd5b6000611f6e84610f9b565b14611fae576040517f08c379a0000000000000000000000000000000000000000000000000000000008152600401611fa590614d09565b60405180910390fd5b6000815111611ff2576040517f08c379a0000000000000000000000000000000000000000000000000000000008152600401611fe990614d75565b60405180910390fd5b612000838361012f546113fe565b61203f576040517f08c379a000000000000000000000000000000000000000000000000000000000815260040161203690614de1565b60405180910390fd5b505050565b600061204e611555565b73ffffffffffffffffffffffffffffffffffffffff1661206c611b36565b73ffffffffffffffffffffffffffffffffffffffff1614806120e3575061013060009054906101000a900473ffffffffffffffffffffffffffffffffffffffff1673ffffffffffffffffffffffffffffffffffffffff166120cb611b36565b73ffffffffffffffffffffffffffffffffffffffff16145b612122576040517f08c379a000000000000000000000000000000000000000000000000000000000815260040161211990614c31565b60405180910390fd5b61212d848484611e18565b600061213a61012d6129ec565b90506001610134600083815260200190815260200160002060006101000a81548160ff02191690831515021790555061217385826129fa565b61217d8184612a18565b61218861012d612a85565b7f032bc66be43dbccb7487781d168eb7bda224628a3b2c3388bdf69b532a3a1611816040516121b7919061388e565b60405180910390a1809150509392505050565b60016121d583610f9b565b14612215576040517f08c379a000000000000000000000000000000000000000000000000000000000815260040161220c90614e4d565b60405180910390fd5b60008111612258576040517f08c379a000000000000000000000000000000000000000000000000000000000815260040161224f90614eb9565b60405180910390fd5b8061013360008473ffffffffffffffffffffffffffffffffffffffff1673ffffffffffffffffffffffffffffffffffffffff16815260200190815260200160002060008282546122a89190614ed9565b925050819055508173ffffffffffffffffffffffffffffffffffffffff167f048df227c951e9e741c27ac8f28f3fe2bd8ac24c3d08a5e102170a8620d41370826040516122f5919061388e565b60405180910390a25050565b60006099600083815260200190815260200160002060009054906101000a900473ffffffffffffffffffffffffffffffffffffffff169050919050565b6000603360009054906101000a900473ffffffffffffffffffffffffffffffffffffffff16905081603360006101000a81548173ffffffffffffffffffffffffffffffffffffffff021916908373ffffffffffffffffffffffffffffffffffffffff1602179055508173ffffffffffffffffffffffffffffffffffffffff168173ffffffffffffffffffffffffffffffffffffffff167f8be0079c531659141344cd1fd0a4f28419497f9722a3daafe3b4186f6b6457e060405160405180910390a35050565b6000808273ffffffffffffffffffffffffffffffffffffffff163b119050919050565b600060019054906101000a900460ff16612476576040517f08c379a000000000000000000000000000000000000000000000000000000000815260040161246d90614f7f565b60405180910390fd5b565b600060019054906101000a900460ff166124c7576040517f08c379a00000000000000000000000000000000000000000000000000000000081526004016124be90614f7f565b60405180910390fd5b6124d76124d2611b36565b61233e565b565b600060019054906101000a900460ff16612528576040517f08c379a000000000000000000000000000000000000000000000000000000000815260040161251f90614f7f565b60405180910390fd5b600160fb81905550565b600060019054906101000a900460ff16612581576040517f08c379a000000000000000000000000000000000000000000000000000000000815260040161257890614f7f565b60405180910390fd5b816097908161259091906146f6565b5080609890816125a091906146f6565b505050565b600060019054906101000a900460ff166125f4576040517f08c379a00000000000000000000000000000000000000000000000000000000081526004016125eb90614f7f565b60405180910390fd5b565b8173ffffffffffffffffffffffffffffffffffffffff168373ffffffffffffffffffffffffffffffffffffffff1603612664576040517f08c379a000000000000000000000000000000000000000000000000000000000815260040161265b90614feb565b60405180910390fd5b80609c60008573ffffffffffffffffffffffffffffffffffffffff1673ffffffffffffffffffffffffffffffffffffffff16815260200190815260200160002060008473ffffffffffffffffffffffffffffffffffffffff1673ffffffffffffffffffffffffffffffffffffffff16815260200190815260200160002060006101000a81548160ff0219169083151502179055508173ffffffffffffffffffffffffffffffffffffffff168373ffffffffffffffffffffffffffffffffffffffff167f17307eab39ab6107e8899845ad3d59bd9653f200f220920489ca2b5937696c3183604051612755919061320c565b60405180910390a3505050565b600161276d83610f9b565b146127ad576040517f08c379a00000000000000000000000000000000000000000000000000000000081526004016127a490614e4d565b60405180910390fd5b600081116127f0576040517f08c379a00000000000000000000000000000000000000000000000000000000081526004016127e790614eb9565b60405180910390fd5b8061013360008473ffffffffffffffffffffffffffffffffffffffff1673ffffffffffffffffffffffffffffffffffffffff1681526020019081526020016000206000828254612840919061500b565b925050819055508173ffffffffffffffffffffffffffffffffffffffff167fa27aa968488cb3ab8260cb4821ad0340658816c0015b6669bf71d3adcb80b1e08260405161288d919061388e565b60405180910390a25050565b60606128a482611aeb565b600060c9600084815260200190815260200160002080546128c490613ca9565b80601f01602080910402602001604051908101604052809291908181526020018280546128f090613ca9565b801561293d5780601f106129125761010080835404028352916020019161293d565b820191906000526020600020905b81548152906001019060200180831161292057829003601f168201915b50505050509050600061294e612a9b565b905060008151036129635781925050506129a6565b60008251111561299857808260405160200161298092919061507b565b604051602081830303815290604052925050506129a6565b6129a184612ab2565b925050505b919050565b60008073ffffffffffffffffffffffffffffffffffffffff166129cd83612301565b73ffffffffffffffffffffffffffffffffffffffff1614159050919050565b600081600001549050919050565b612a14828260405180602001604052806000815250612b1a565b5050565b612a21826129ab565b612a60576040517f08c379a0000000000000000000000000000000000000000000000000000000008152600401612a5790615111565b60405180910390fd5b8060c960008481526020019081526020016000209081612a8091906146f6565b505050565b6001816000016000828254019250508190555050565b606060405180602001604052806000815250905090565b6060612abd82611aeb565b6000612ac7612a9b565b90506000815111612ae75760405180602001604052806000815250612b12565b80612af184612b75565b604051602001612b0292919061507b565b6040516020818303038152906040525b915050919050565b612b248383612c43565b612b316000848484612e60565b612b70576040517f08c379a0000000000000000000000000000000000000000000000000000000008152600401612b67906151a3565b60405180910390fd5b505050565b606060006001612b8484612fe7565b01905060008167ffffffffffffffff811115612ba357612ba2613592565b5b6040519080825280601f01601f191660200182016040528015612bd55781602001600182028036833780820191505090505b509050600082602001820190505b600115612c38578080600190039150507f3031323334353637383961626364656600000000000000000000000000000000600a86061a8153600a8581612c2c57612c2b6151c3565b5b04945060008503612be3575b819350505050919050565b600073ffffffffffffffffffffffffffffffffffffffff168273ffffffffffffffffffffffffffffffffffffffff1603612cb2576040517f08c379a0000000000000000000000000000000000000000000000000000000008152600401612ca99061523e565b60405180910390fd5b612cbb816129ab565b15612cfb576040517f08c379a0000000000000000000000000000000000000000000000000000000008152600401612cf2906152aa565b60405180910390fd5b612d0960008383600161313a565b612d12816129ab565b15612d52576040517f08c379a0000000000000000000000000000000000000000000000000000000008152600401612d49906152aa565b60405180910390fd5b6001609a60008473ffffffffffffffffffffffffffffffffffffffff1673ffffffffffffffffffffffffffffffffffffffff16815260200190815260200160002060008282540192505081905550816099600083815260200190815260200160002060006101000a81548173ffffffffffffffffffffffffffffffffffffffff021916908373ffffffffffffffffffffffffffffffffffffffff160217905550808273ffffffffffffffffffffffffffffffffffffffff16600073ffffffffffffffffffffffffffffffffffffffff167fddf252ad1be2c89b69c2b068fc378daa952ba7f163c4a11628f55a4df523b3ef60405160405180910390a4612e5c60008383600161314c565b5050565b6000612e818473ffffffffffffffffffffffffffffffffffffffff16612404565b15612fda578373ffffffffffffffffffffffffffffffffffffffff1663150b7a02612eaa611b36565b8786866040518563ffffffff1660e01b8152600401612ecc949392919061531f565b6020604051808303816000875af1925050508015612f0857506040513d601f19601f82011682018060405250810190612f059190615380565b60015b612f8a573d8060008114612f38576040519150601f19603f3d011682016040523d82523d6000602084013e612f3d565b606091505b506000815103612f82576040517f08c379a0000000000000000000000000000000000000000000000000000000008152600401612f79906151a3565b60405180910390fd5b805181602001fd5b63150b7a0260e01b7bffffffffffffffffffffffffffffffffffffffffffffffffffffffff1916817bffffffffffffffffffffffffffffffffffffffffffffffffffffffff191614915050612fdf565b600190505b949350505050565b600080600090507a184f03e93ff9f4daa797ed6e38ed64bf6a1f0100000000000000008310613045577a184f03e93ff9f4daa797ed6e38ed64bf6a1f010000000000000000838161303b5761303a6151c3565b5b0492506040810190505b6d04ee2d6d415b85acef81000000008310613082576d04ee2d6d415b85acef81000000008381613078576130776151c3565b5b0492506020810190505b662386f26fc1000083106130b157662386f26fc1000083816130a7576130a66151c3565b5b0492506010810190505b6305f5e10083106130da576305f5e10083816130d0576130cf6151c3565b5b0492506008810190505b61271083106130ff5761271083816130f5576130f46151c3565b5b0492506004810190505b606483106131225760648381613118576131176151c3565b5b0492506002810190505b600a8310613131576001810190505b80915050919050565b61314684848484613152565b50505050565b50505050565b50505050565b6000604051905090565b600080fd5b600080fd5b60007fffffffff0000000000000000000000000000000000000000000000000000000082169050919050565b6131a18161316c565b81146131ac57600080fd5b50565b6000813590506131be81613198565b92915050565b6000602082840312156131da576131d9613162565b5b60006131e8848285016131af565b91505092915050565b60008115159050919050565b613206816131f1565b82525050565b600060208201905061322160008301846131fd565b92915050565b600081519050919050565b600082825260208201905092915050565b60005b83811015613261578082015181840152602081019050613246565b60008484015250505050565b6000601f19601f8301169050919050565b600061328982613227565b6132938185613232565b93506132a3818560208601613243565b6132ac8161326d565b840191505092915050565b600060208201905081810360008301526132d1818461327e565b905092915050565b6000819050919050565b6132ec816132d9565b81146132f757600080fd5b50565b600081359050613309816132e3565b92915050565b60006020828403121561332557613324613162565b5b6000613333848285016132fa565b91505092915050565b600073ffffffffffffffffffffffffffffffffffffffff82169050919050565b60006133678261333c565b9050919050565b6133778161335c565b82525050565b6000602082019050613392600083018461336e565b92915050565b6133a18161335c565b81146133ac57600080fd5b50565b6000813590506133be81613398565b92915050565b600080604083850312156133db576133da613162565b5b60006133e9858286016133af565b92505060206133fa858286016132fa565b9150509250929050565b60008060006060848603121561341d5761341c613162565b5b600061342b868287016133af565b935050602061343c868287016133af565b925050604061344d868287016132fa565b9150509250925092565b6000819050919050565b61346a81613457565b811461347557600080fd5b50565b60008135905061348781613461565b92915050565b600080fd5b600080fd5b600080fd5b60008083601f8401126134b2576134b161348d565b5b8235905067ffffffffffffffff8111156134cf576134ce613492565b5b6020830191508360018202830111156134eb576134ea613497565b5b9250929050565b60008060006040848603121561350b5761350a613162565b5b600061351986828701613478565b935050602084013567ffffffffffffffff81111561353a57613539613167565b5b6135468682870161349c565b92509250509250925092565b6000806040838503121561356957613568613162565b5b6000613577858286016133af565b925050602061358885828601613478565b9150509250929050565b7f4e487b7100000000000000000000000000000000000000000000000000000000600052604160045260246000fd5b6135ca8261326d565b810181811067ffffffffffffffff821117156135e9576135e8613592565b5b80604052505050565b60006135fc613158565b905061360882826135c1565b919050565b600067ffffffffffffffff82111561362857613627613592565b5b602082029050602081019050919050565b600061364c6136478461360d565b6135f2565b9050808382526020820190506020840283018581111561366f5761366e613497565b5b835b81811015613698578061368488826133af565b845260208401935050602081019050613671565b5050509392505050565b600082601f8301126136b7576136b661348d565b5b81356136c7848260208601613639565b91505092915050565b600080fd5b600067ffffffffffffffff8211156136f0576136ef613592565b5b6136f98261326d565b9050602081019050919050565b82818337600083830152505050565b6000613728613723846136d5565b6135f2565b905082815260208101848484011115613744576137436136d0565b5b61374f848285613706565b509392505050565b600082601f83011261376c5761376b61348d565b5b813561377c848260208601613715565b91505092915050565b60008060006060848603121561379e5761379d613162565b5b600084013567ffffffffffffffff8111156137bc576137bb613167565b5b6137c8868287016136a2565b935050602084013567ffffffffffffffff8111156137e9576137e8613167565b5b6137f586828701613757565b925050604061380686828701613478565b9150509250925092565b60008060006060848603121561382957613828613162565b5b6000613837868287016133af565b935050602061384886828701613478565b925050604084013567ffffffffffffffff81111561386957613868613167565b5b61387586828701613757565b9150509250925092565b613888816132d9565b82525050565b60006020820190506138a3600083018461387f565b92915050565b6000602082840312156138bf576138be613162565b5b60006138cd84828501613478565b91505092915050565b6000602082840312156138ec576138eb613162565b5b60006138fa848285016133af565b91505092915050565b60008060008060008060c087890312156139205761391f613162565b5b600087013567ffffffffffffffff81111561393e5761393d613167565b5b61394a89828a01613757565b965050602087013567ffffffffffffffff81111561396b5761396a613167565b5b61397789828a01613757565b955050604087013567ffffffffffffffff81111561399857613997613167565b5b6139a489828a01613757565b94505060606139b589828a016132fa565b93505060806139c689828a016133af565b92505060a06139d789828a016133af565b9150509295509295509295565b6000806000606084860312156139fd576139fc613162565b5b6000613a0b868287016133af565b9350506020613a1c86828701613478565b9250506040613a2d868287016132fa565b9150509250925092565b600060208284031215613a4d57613a4c613162565b5b600082013567ffffffffffffffff811115613a6b57613a6a613167565b5b613a7784828501613757565b91505092915050565b613a89816131f1565b8114613a9457600080fd5b50565b600081359050613aa681613a80565b92915050565b60008060408385031215613ac357613ac2613162565b5b6000613ad1858286016133af565b9250506020613ae285828601613a97565b9150509250929050565b600067ffffffffffffffff821115613b0757613b06613592565b5b613b108261326d565b9050602081019050919050565b6000613b30613b2b84613aec565b6135f2565b905082815260208101848484011115613b4c57613b4b6136d0565b5b613b57848285613706565b509392505050565b600082601f830112613b7457613b7361348d565b5b8135613b84848260208601613b1d565b91505092915050565b60008060008060808587031215613ba757613ba6613162565b5b6000613bb5878288016133af565b9450506020613bc6878288016133af565b9350506040613bd7878288016132fa565b925050606085013567ffffffffffffffff811115613bf857613bf7613167565b5b613c0487828801613b5f565b91505092959194509250565b613c1981613457565b82525050565b6000602082019050613c346000830184613c10565b92915050565b60008060408385031215613c5157613c50613162565b5b6000613c5f858286016133af565b9250506020613c70858286016133af565b9150509250929050565b7f4e487b7100000000000000000000000000000000000000000000000000000000600052602260045260246000fd5b60006002820490506001821680613cc157607f821691505b602082108103613cd457613cd3613c7a565b5b50919050565b7f4552433732313a20617070726f76616c20746f2063757272656e74206f776e6560008201527f7200000000000000000000000000000000000000000000000000000000000000602082015250565b6000613d36602183613232565b9150613d4182613cda565b604082019050919050565b60006020820190508181036000830152613d6581613d29565b9050919050565b7f4552433732313a20617070726f76652063616c6c6572206973206e6f7420746f60008201527f6b656e206f776e6572206f7220617070726f76656420666f7220616c6c000000602082015250565b6000613dc8603d83613232565b9150613dd382613d6c565b604082019050919050565b60006020820190508181036000830152613df781613dbb565b9050919050565b7f526573695342543a204e4f205452414e534645522046524f4d20414c4c4f574560008201527f4400000000000000000000000000000000000000000000000000000000000000602082015250565b6000613e5a602183613232565b9150613e6582613dfe565b604082019050919050565b60006020820190508181036000830152613e8981613e4d565b9050919050565b7f526573695342543a20494e56414c494420524f4c450000000000000000000000600082015250565b6000613ec6601583613232565b9150613ed182613e90565b602082019050919050565b60006020820190508181036000830152613ef581613eb9565b9050919050565b7f526573695342543a20456d707479205552490000000000000000000000000000600082015250565b6000613f32601283613232565b9150613f3d82613efc565b602082019050919050565b60006020820190508181036000830152613f6181613f25565b9050919050565b600082905092915050565b60008190508160005260206000209050919050565b60006020601f8301049050919050565b600082821b905092915050565b600060088302613fd57fffffffffffffffffffffffffffffffffffffffffffffffffffffffffffffffff82613f98565b613fdf8683613f98565b95508019841693508086168417925050509392505050565b6000819050919050565b600061401c614017614012846132d9565b613ff7565b6132d9565b9050919050565b6000819050919050565b61403683614001565b61404a61404282614023565b848454613fa5565b825550505050565b600090565b61405f614052565b61406a81848461402d565b505050565b5b8181101561408e57614083600082614057565b600181019050614070565b5050565b601f8211156140d3576140a481613f73565b6140ad84613f88565b810160208510156140bc578190505b6140d06140c885613f88565b83018261406f565b50505b505050565b600082821c905092915050565b60006140f6600019846008026140d8565b1980831691505092915050565b600061410f83836140e5565b9150826002028217905092915050565b6141298383613f68565b67ffffffffffffffff81111561414257614141613592565b5b61414c8254613ca9565b614157828285614092565b6000601f8311600181146141865760008415614174578287013590505b61417e8582614103565b8655506141e6565b601f19841661419486613f73565b60005b828110156141bc57848901358255600182019150602085019450602081019050614197565b868310156141d957848901356141d5601f8916826140e5565b8355505b6001600288020188555050505b50505050505050565b60006141fb8385613232565b9350614208838584613706565b6142118361326d565b840190509392505050565b60006040820190508181036000830152614236818661327e565b9050818103602083015261424b8184866141ef565b9050949350505050565b7f526573695342543a20494e56414c4944205245534920544f4b454e204144445260008201527f4553530000000000000000000000000000000000000000000000000000000000602082015250565b60006142b1602383613232565b91506142bc82614255565b604082019050919050565b600060208201905081810360008301526142e0816142a4565b9050919050565b7f4e487b7100000000000000000000000000000000000000000000000000000000600052603260045260246000fd5b7f4e487b7100000000000000000000000000000000000000000000000000000000600052601160045260246000fd5b6000614350826132d9565b91507fffffffffffffffffffffffffffffffffffffffffffffffffffffffffffffffff820361438257614381614316565b5b600182019050919050565b60006040820190506143a26000830185613c10565b6143af602083018461387f565b9392505050565b7f526573695342543a204e4f5420414e20534254204f574e455200000000000000600082015250565b60006143ec601983613232565b91506143f7826143b6565b602082019050919050565b6000602082019050818103600083015261441b816143df565b9050919050565b7f526573695342543a20494e56414c4944204e49434b4e414d4500000000000000600082015250565b6000614458601983613232565b915061446382614422565b602082019050919050565b600060208201905081810360008301526144878161444b565b9050919050565b7f4552433732313a20696e76616c696420746f6b656e2049440000000000000000600082015250565b60006144c4601883613232565b91506144cf8261448e565b602082019050919050565b600060208201905081810360008301526144f3816144b7565b9050919050565b7f4552433732313a2061646472657373207a65726f206973206e6f74206120766160008201527f6c6964206f776e65720000000000000000000000000000000000000000000000602082015250565b6000614556602983613232565b9150614561826144fa565b604082019050919050565b6000602082019050818103600083015261458581614549565b9050919050565b7f496e697469616c697a61626c653a20636f6e747261637420697320616c72656160008201527f647920696e697469616c697a6564000000000000000000000000000000000000602082015250565b60006145e8602e83613232565b91506145f38261458c565b604082019050919050565b60006020820190508181036000830152614617816145db565b9050919050565b7f494e56414c494420524547495354525920414444524553530000000000000000600082015250565b6000614654601883613232565b915061465f8261461e565b602082019050919050565b6000602082019050818103600083015261468381614647565b9050919050565b7f494e56414c4944205245534920544f4b454e2041444452455353000000000000600082015250565b60006146c0601a83613232565b91506146cb8261468a565b602082019050919050565b600060208201905081810360008301526146ef816146b3565b9050919050565b6146ff82613227565b67ffffffffffffffff81111561471857614717613592565b5b6147228254613ca9565b61472d828285614092565b600060209050601f831160018114614760576000841561474e578287015190505b6147588582614103565b8655506147c0565b601f19841661476e86613f73565b60005b8281101561479657848901518255600182019150602085019450602081019050614771565b868310156147b357848901516147af601f8916826140e5565b8355505b6001600288020188555050505b505050505050565b600060608201905081810360008301526147e2818661327e565b905081810360208301526147f6818561327e565b9050614805604083018461387f565b949350505050565b6000819050919050565b600060ff82169050919050565b600061483f61483a6148358461480d565b613ff7565b614817565b9050919050565b61484f81614824565b82525050565b600060208201905061486a6000830184614846565b92915050565b60006040820190506148856000830185613c10565b614892602083018461336e565b9392505050565b6000815190506148a881613a80565b92915050565b6000602082840312156148c4576148c3613162565b5b60006148d284828501614899565b91505092915050565b6000815190506148ea816132e3565b92915050565b60006020828403121561490657614905613162565b5b6000614914848285016148db565b91505092915050565b6000815461492a81613ca9565b6149348186613232565b9450600182166000811461494f576001811461496557614998565b60ff198316865281151560200286019350614998565b61496e85613f73565b60005b8381101561499057815481890152600182019150602081019050614971565b808801955050505b50505092915050565b600060208201905081810360008301526149bb818461491d565b905092915050565b7f4f776e61626c653a206e6577206f776e657220697320746865207a65726f206160008201527f6464726573730000000000000000000000000000000000000000000000000000602082015250565b6000614a1f602683613232565b9150614a2a826149c3565b604082019050919050565b60006020820190508181036000830152614a4e81614a12565b9050919050565b7f4f776e61626c653a2063616c6c6572206973206e6f7420746865206f776e6572600082015250565b6000614a8b602083613232565b9150614a9682614a55565b602082019050919050565b60006020820190508181036000830152614aba81614a7e565b9050919050565b7f5265656e7472616e637947756172643a207265656e7472616e742063616c6c00600082015250565b6000614af7601f83613232565b9150614b0282614ac1565b602082019050919050565b60006020820190508181036000830152614b2681614aea565b9050919050565b7f526573695342543a2044656661756c7420526f6c6520557269206e6f7420736560008201527f7400000000000000000000000000000000000000000000000000000000000000602082015250565b6000614b89602183613232565b9150614b9482614b2d565b604082019050919050565b60006020820190508181036000830152614bb881614b7c565b9050919050565b7f526573695342543a204f4e4c59204f574e4552204f52205245534920544f4b4560008201527f4e00000000000000000000000000000000000000000000000000000000000000602082015250565b6000614c1b602183613232565b9150614c2682614bbf565b604082019050919050565b60006020820190508181036000830152614c4a81614c0e565b9050919050565b7f526573695342543a20494e56414c494420544f20414444524553530000000000600082015250565b6000614c87601b83613232565b9150614c9282614c51565b602082019050919050565b60006020820190508181036000830152614cb681614c7a565b9050919050565b7f526573695342543a205553455220414c52454144592048415320534254000000600082015250565b6000614cf3601d83613232565b9150614cfe82614cbd565b602082019050919050565b60006020820190508181036000830152614d2281614ce6565b9050919050565b7f526573695342543a20454d505459205552490000000000000000000000000000600082015250565b6000614d5f601283613232565b9150614d6a82614d29565b602082019050919050565b60006020820190508181036000830152614d8e81614d52565b9050919050565b7f526573695342543a20494e56414c494420534254205245434549564552000000600082015250565b6000614dcb601d83613232565b9150614dd682614d95565b602082019050919050565b60006020820190508181036000830152614dfa81614dbe565b9050919050565b7f526573695342543a205573657220686173206e6f205342540000000000000000600082015250565b6000614e37601883613232565b9150614e4282614e01565b602082019050919050565b60006020820190508181036000830152614e6681614e2a565b9050919050565b7f526573695342543a20496e76616c696420616d6f756e74000000000000000000600082015250565b6000614ea3601783613232565b9150614eae82614e6d565b602082019050919050565b60006020820190508181036000830152614ed281614e96565b9050919050565b6000614ee4826132d9565b9150614eef836132d9565b9250828201905080821115614f0757614f06614316565b5b92915050565b7f496e697469616c697a61626c653a20636f6e7472616374206973206e6f74206960008201527f6e697469616c697a696e67000000000000000000000000000000000000000000602082015250565b6000614f69602b83613232565b9150614f7482614f0d565b604082019050919050565b60006020820190508181036000830152614f9881614f5c565b9050919050565b7f4552433732313a20617070726f766520746f2063616c6c657200000000000000600082015250565b6000614fd5601983613232565b9150614fe082614f9f565b602082019050919050565b6000602082019050818103600083015261500481614fc8565b9050919050565b6000615016826132d9565b9150615021836132d9565b925082820390508181111561503957615038614316565b5b92915050565b600081905092915050565b600061505582613227565b61505f818561503f565b935061506f818560208601613243565b80840191505092915050565b6000615087828561504a565b9150615093828461504a565b91508190509392505050565b7f45524337323155524953746f726167653a2055524920736574206f66206e6f6e60008201527f6578697374656e7420746f6b656e000000000000000000000000000000000000602082015250565b60006150fb602e83613232565b91506151068261509f565b604082019050919050565b6000602082019050818103600083015261512a816150ee565b9050919050565b7f4552433732313a207472616e7366657220746f206e6f6e20455243373231526560008201527f63656976657220696d706c656d656e7465720000000000000000000000000000602082015250565b600061518d603283613232565b915061519882615131565b604082019050919050565b600060208201905081810360008301526151bc81615180565b9050919050565b7f4e487b7100000000000000000000000000000000000000000000000000000000600052601260045260246000fd5b7f4552433732313a206d696e7420746f20746865207a65726f2061646472657373600082015250565b6000615228602083613232565b9150615233826151f2565b602082019050919050565b600060208201905081810360008301526152578161521b565b9050919050565b7f4552433732313a20746f6b656e20616c7265616479206d696e74656400000000600082015250565b6000615294601c83613232565b915061529f8261525e565b602082019050919050565b600060208201905081810360008301526152c381615287565b9050919050565b600081519050919050565b600082825260208201905092915050565b60006152f1826152ca565b6152fb81856152d5565b935061530b818560208601613243565b6153148161326d565b840191505092915050565b6000608082019050615334600083018761336e565b615341602083018661336e565b61534e604083018561387f565b818103606083015261536081846152e6565b905095945050505050565b60008151905061537a81613198565b92915050565b60006020828403121561539657615395613162565b5b60006153a48482850161536b565b9150509291505056fea2646970667358221220a05725ba69b1bd84ebd3271d67d0341fe1b29fd147f8e10581955a642d5ba53f64736f6c63430008120033",
  "devdoc": {
    "author": "Alejo Lovallo",
    "events": {
      "Approval(address,address,uint256)": {
        "details": "Emitted when `owner` enables `approved` to manage the `tokenId` token."
      },
      "ApprovalForAll(address,address,bool)": {
        "details": "Emitted when `owner` enables or disables (`approved`) `operator` to manage all of its assets."
      },
      "Initialized(uint8)": {
        "details": "Triggered when the contract has been initialized or reinitialized."
      },
      "Locked(uint256)": {
        "details": "If a token is minted and the status is locked, this event should be emitted.",
        "params": {
          "tokenId": "The identifier for a token."
        }
      },
      "Transfer(address,address,uint256)": {
        "details": "Emitted when `tokenId` token is transferred from `from` to `to`."
      },
      "Unlocked(uint256)": {
        "details": "If a token is minted and the status is unlocked, this event should be emitted.",
        "params": {
          "tokenId": "The identifier for a token."
        }
      }
    },
    "kind": "dev",
    "methods": {
      "approve(address,uint256)": {
        "details": "See {IERC721-approve}."
      },
      "balanceOf(address)": {
        "details": "See {IERC721-balanceOf}."
      },
      "getApproved(uint256)": {
        "details": "See {IERC721-getApproved}."
      },
      "isApprovedForAll(address,address)": {
        "details": "See {IERC721-isApprovedForAll}."
      },
      "locked(uint256)": {
        "details": "Know if a sbt is locked",
        "params": {
          "tokenId": "sbt token id"
        },
        "returns": {
          "_0": "is sbt locked"
        }
      },
      "mint(address,bytes32,string)": {
        "details": "Mint SBT to user with specific role and uri.",
        "params": {
          "_role": "role name from Resi registry",
          "_to": "user",
          "_uri": "uri"
        }
      },
      "name()": {
        "details": "See {IERC721Metadata-name}."
      },
      "owner()": {
        "details": "Returns the address of the current owner."
      },
      "ownerOf(uint256)": {
        "details": "See {IERC721-ownerOf}."
      },
      "renounceOwnership()": {
        "details": "Leaves the contract without owner. It will not be possible to call `onlyOwner` functions anymore. Can only be called by the current owner. NOTE: Renouncing ownership will leave the contract without an owner, thereby removing any functionality that is only available to the owner."
      },
      "setApprovalForAll(address,bool)": {
        "details": "See {IERC721-setApprovalForAll}."
      },
      "setContractURI(string)": {
        "params": {
          "_contractUri": "contractUri"
        }
      },
      "setDefaultRoleUri(bytes32,string)": {
        "details": "Set default Resi Token Role URI",
        "params": {
          "_role": "role name",
          "_uri": "default uri"
        }
      },
      "setRegistry(address)": {
        "details": "Set Resi Registry",
        "params": {
          "_registry": "registry address"
        }
      },
      "supportsInterface(bytes4)": {
        "details": "See {IERC165-supportsInterface}."
      },
      "symbol()": {
        "details": "See {IERC721Metadata-symbol}."
      },
      "tokenURI(uint256)": {
        "custom:experimental": "The following function is override required by Solidity.",
        "details": "Retrieve token uri from id",
        "params": {
          "tokenId": "token id to retrieve uri"
        },
        "returns": {
          "_0": "uri"
        }
      },
      "transferOwnership(address)": {
        "details": "Transfers ownership of the contract to a new account (`newOwner`). Can only be called by the current owner."
      }
    },
    "stateVariables": {
      "RESI_REGISTRY": {
        "details": "Resi Registry contract"
      },
      "RESI_TOKEN": {
        "details": "Resi ERC20 token contract"
      },
      "SERIE_ID": {
        "details": "Serie id"
      },
      "_tokenIdCounter": {
        "details": "Private counter to make internal security checks"
      },
      "contractUri": {
        "details": "Token ContractUri"
      },
      "defaultRoleUris": {
        "details": "role => uri"
      },
      "lockedSBTs": {
        "details": "tokenId => isLocked"
      },
      "resiTokenBalances": {
        "details": "user => resi erc20 balances"
      },
      "upgradeGap": {
        "details": "Leave a gap betweeen inherited contracts variables in orderto be able to add more variables in them later."
      },
      "userNickNames": {
        "details": "user => nickname"
      }
    },
    "title": "Resi SBT Contract",
    "version": 1
  },
  "userdoc": {
    "events": {
      "Locked(uint256)": {
        "notice": "Emitted when the locking status is changed to locked."
      },
      "Unlocked(uint256)": {
        "notice": "Emitted when the locking status is changed to unlocked."
      }
    },
    "kind": "user",
    "methods": {
      "setContractURI(string)": {
        "notice": "Modify contractUri for NFT collection"
      }
    },
    "notice": "SBT token linked to a Serie",
    "version": 1
  },
  "storageLayout": {
    "storage": [
      {
        "astId": 717,
        "contract": "contracts/ResiSBT.sol:ResiSBT",
        "label": "_initialized",
        "offset": 0,
        "slot": "0",
        "type": "t_uint8"
      },
      {
        "astId": 720,
        "contract": "contracts/ResiSBT.sol:ResiSBT",
        "label": "_initializing",
        "offset": 1,
        "slot": "0",
        "type": "t_bool"
      },
      {
        "astId": 3501,
        "contract": "contracts/ResiSBT.sol:ResiSBT",
        "label": "__gap",
        "offset": 0,
        "slot": "1",
        "type": "t_array(t_uint256)50_storage"
      },
      {
        "astId": 589,
        "contract": "contracts/ResiSBT.sol:ResiSBT",
        "label": "_owner",
        "offset": 0,
        "slot": "51",
        "type": "t_address"
      },
      {
        "astId": 709,
        "contract": "contracts/ResiSBT.sol:ResiSBT",
        "label": "__gap",
        "offset": 0,
        "slot": "52",
        "type": "t_array(t_uint256)49_storage"
      },
      {
        "astId": 3720,
        "contract": "contracts/ResiSBT.sol:ResiSBT",
        "label": "__gap",
        "offset": 0,
        "slot": "101",
        "type": "t_array(t_uint256)50_storage"
      },
      {
        "astId": 1947,
        "contract": "contracts/ResiSBT.sol:ResiSBT",
        "label": "_name",
        "offset": 0,
        "slot": "151",
        "type": "t_string_storage"
      },
      {
        "astId": 1949,
        "contract": "contracts/ResiSBT.sol:ResiSBT",
        "label": "_symbol",
        "offset": 0,
        "slot": "152",
        "type": "t_string_storage"
      },
      {
        "astId": 1953,
        "contract": "contracts/ResiSBT.sol:ResiSBT",
        "label": "_owners",
        "offset": 0,
        "slot": "153",
        "type": "t_mapping(t_uint256,t_address)"
      },
      {
        "astId": 1957,
        "contract": "contracts/ResiSBT.sol:ResiSBT",
        "label": "_balances",
        "offset": 0,
        "slot": "154",
        "type": "t_mapping(t_address,t_uint256)"
      },
      {
        "astId": 1961,
        "contract": "contracts/ResiSBT.sol:ResiSBT",
        "label": "_tokenApprovals",
        "offset": 0,
        "slot": "155",
        "type": "t_mapping(t_uint256,t_address)"
      },
      {
        "astId": 1967,
        "contract": "contracts/ResiSBT.sol:ResiSBT",
        "label": "_operatorApprovals",
        "offset": 0,
        "slot": "156",
        "type": "t_mapping(t_address,t_mapping(t_address,t_bool))"
      },
      {
        "astId": 2869,
        "contract": "contracts/ResiSBT.sol:ResiSBT",
        "label": "__gap",
        "offset": 0,
        "slot": "157",
        "type": "t_array(t_uint256)44_storage"
      },
      {
        "astId": 3032,
        "contract": "contracts/ResiSBT.sol:ResiSBT",
        "label": "_tokenURIs",
        "offset": 0,
        "slot": "201",
        "type": "t_mapping(t_uint256,t_string_storage)"
      },
      {
        "astId": 3148,
        "contract": "contracts/ResiSBT.sol:ResiSBT",
        "label": "__gap",
        "offset": 0,
        "slot": "202",
        "type": "t_array(t_uint256)49_storage"
      },
      {
        "astId": 1020,
        "contract": "contracts/ResiSBT.sol:ResiSBT",
        "label": "_status",
        "offset": 0,
        "slot": "251",
        "type": "t_uint256"
      },
      {
        "astId": 1078,
        "contract": "contracts/ResiSBT.sol:ResiSBT",
        "label": "__gap",
        "offset": 0,
        "slot": "252",
        "type": "t_array(t_uint256)49_storage"
      },
      {
        "astId": 7556,
        "contract": "contracts/ResiSBT.sol:ResiSBT",
        "label": "_tokenIdCounter",
        "offset": 0,
        "slot": "301",
        "type": "t_struct(Counter)6576_storage"
      },
      {
        "astId": 7559,
        "contract": "contracts/ResiSBT.sol:ResiSBT",
        "label": "contractUri",
        "offset": 0,
        "slot": "302",
        "type": "t_string_storage"
      },
      {
        "astId": 7562,
        "contract": "contracts/ResiSBT.sol:ResiSBT",
        "label": "SERIE_ID",
        "offset": 0,
        "slot": "303",
        "type": "t_uint256"
      },
      {
        "astId": 7565,
        "contract": "contracts/ResiSBT.sol:ResiSBT",
        "label": "RESI_TOKEN",
        "offset": 0,
        "slot": "304",
        "type": "t_address"
      },
      {
        "astId": 7568,
        "contract": "contracts/ResiSBT.sol:ResiSBT",
        "label": "RESI_REGISTRY",
        "offset": 0,
        "slot": "305",
        "type": "t_address"
      },
      {
        "astId": 7573,
        "contract": "contracts/ResiSBT.sol:ResiSBT",
        "label": "userNickNames",
        "offset": 0,
        "slot": "306",
        "type": "t_mapping(t_address,t_bytes32)"
      },
      {
        "astId": 7578,
        "contract": "contracts/ResiSBT.sol:ResiSBT",
        "label": "resiTokenBalances",
        "offset": 0,
        "slot": "307",
        "type": "t_mapping(t_address,t_uint256)"
      },
      {
        "astId": 7583,
        "contract": "contracts/ResiSBT.sol:ResiSBT",
        "label": "lockedSBTs",
        "offset": 0,
        "slot": "308",
        "type": "t_mapping(t_uint256,t_bool)"
      },
      {
        "astId": 7588,
        "contract": "contracts/ResiSBT.sol:ResiSBT",
        "label": "defaultRoleUris",
        "offset": 0,
        "slot": "309",
        "type": "t_mapping(t_bytes32,t_string_storage)"
      },
      {
        "astId": 8311,
        "contract": "contracts/ResiSBT.sol:ResiSBT",
        "label": "upgradeGap",
        "offset": 0,
        "slot": "310",
        "type": "t_array(t_uint256)20_storage"
      }
    ],
    "types": {
      "t_address": {
        "encoding": "inplace",
        "label": "address",
        "numberOfBytes": "20"
      },
      "t_array(t_uint256)20_storage": {
        "base": "t_uint256",
        "encoding": "inplace",
        "label": "uint256[20]",
        "numberOfBytes": "640"
      },
      "t_array(t_uint256)44_storage": {
        "base": "t_uint256",
        "encoding": "inplace",
        "label": "uint256[44]",
        "numberOfBytes": "1408"
      },
      "t_array(t_uint256)49_storage": {
        "base": "t_uint256",
        "encoding": "inplace",
        "label": "uint256[49]",
        "numberOfBytes": "1568"
      },
      "t_array(t_uint256)50_storage": {
        "base": "t_uint256",
        "encoding": "inplace",
        "label": "uint256[50]",
        "numberOfBytes": "1600"
      },
      "t_bool": {
        "encoding": "inplace",
        "label": "bool",
        "numberOfBytes": "1"
      },
      "t_bytes32": {
        "encoding": "inplace",
        "label": "bytes32",
        "numberOfBytes": "32"
      },
      "t_mapping(t_address,t_bool)": {
        "encoding": "mapping",
        "key": "t_address",
        "label": "mapping(address => bool)",
        "numberOfBytes": "32",
        "value": "t_bool"
      },
      "t_mapping(t_address,t_bytes32)": {
        "encoding": "mapping",
        "key": "t_address",
        "label": "mapping(address => bytes32)",
        "numberOfBytes": "32",
        "value": "t_bytes32"
      },
      "t_mapping(t_address,t_mapping(t_address,t_bool))": {
        "encoding": "mapping",
        "key": "t_address",
        "label": "mapping(address => mapping(address => bool))",
        "numberOfBytes": "32",
        "value": "t_mapping(t_address,t_bool)"
      },
      "t_mapping(t_address,t_uint256)": {
        "encoding": "mapping",
        "key": "t_address",
        "label": "mapping(address => uint256)",
        "numberOfBytes": "32",
        "value": "t_uint256"
      },
      "t_mapping(t_bytes32,t_string_storage)": {
        "encoding": "mapping",
        "key": "t_bytes32",
        "label": "mapping(bytes32 => string)",
        "numberOfBytes": "32",
        "value": "t_string_storage"
      },
      "t_mapping(t_uint256,t_address)": {
        "encoding": "mapping",
        "key": "t_uint256",
        "label": "mapping(uint256 => address)",
        "numberOfBytes": "32",
        "value": "t_address"
      },
      "t_mapping(t_uint256,t_bool)": {
        "encoding": "mapping",
        "key": "t_uint256",
        "label": "mapping(uint256 => bool)",
        "numberOfBytes": "32",
        "value": "t_bool"
      },
      "t_mapping(t_uint256,t_string_storage)": {
        "encoding": "mapping",
        "key": "t_uint256",
        "label": "mapping(uint256 => string)",
        "numberOfBytes": "32",
        "value": "t_string_storage"
      },
      "t_string_storage": {
        "encoding": "bytes",
        "label": "string",
        "numberOfBytes": "32"
      },
      "t_struct(Counter)6576_storage": {
        "encoding": "inplace",
        "label": "struct Counters.Counter",
        "members": [
          {
            "astId": 6575,
            "contract": "contracts/ResiSBT.sol:ResiSBT",
            "label": "_value",
            "offset": 0,
            "slot": "0",
            "type": "t_uint256"
          }
        ],
        "numberOfBytes": "32"
      },
      "t_uint256": {
        "encoding": "inplace",
        "label": "uint256",
        "numberOfBytes": "32"
      },
      "t_uint8": {
        "encoding": "inplace",
        "label": "uint8",
        "numberOfBytes": "1"
      }
    }
  }
}