{
  "address": "0x438E291E241AddEB26328cA0Bf9532d8cAf76fA8",
  "abi": [
    {
      "inputs": [
        {
          "internalType": "string",
          "name": "message",
          "type": "string"
        }
      ],
      "name": "TransferForbidden",
      "type": "error"
    },
    {
      "anonymous": false,
      "inputs": [
        {
          "indexed": true,
          "internalType": "address",
          "name": "owner",
          "type": "address"
        },
        {
          "indexed": true,
          "internalType": "address",
          "name": "approved",
          "type": "address"
        },
        {
          "indexed": true,
          "internalType": "uint256",
          "name": "tokenId",
          "type": "uint256"
        }
      ],
      "name": "Approval",
      "type": "event"
    },
    {
      "anonymous": false,
      "inputs": [
        {
          "indexed": true,
          "internalType": "address",
          "name": "owner",
          "type": "address"
        },
        {
          "indexed": true,
          "internalType": "address",
          "name": "operator",
          "type": "address"
        },
        {
          "indexed": false,
          "internalType": "bool",
          "name": "approved",
          "type": "bool"
        }
      ],
      "name": "ApprovalForAll",
      "type": "event"
    },
    {
      "anonymous": false,
      "inputs": [
        {
          "indexed": false,
          "internalType": "string",
          "name": "contractUri",
          "type": "string"
        }
      ],
      "name": "ContractURIUpdated",
      "type": "event"
    },
    {
      "anonymous": false,
      "inputs": [
        {
          "indexed": true,
          "internalType": "address",
          "name": "to",
          "type": "address"
        },
        {
          "indexed": false,
          "internalType": "uint256",
          "name": "amount",
          "type": "uint256"
        }
      ],
      "name": "DecreaseResiBalance",
      "type": "event"
    },
    {
      "anonymous": false,
      "inputs": [
        {
          "indexed": false,
          "internalType": "string",
          "name": "oldUri",
          "type": "string"
        },
        {
          "indexed": false,
          "internalType": "string",
          "name": "newUri",
          "type": "string"
        }
      ],
      "name": "DefaultRoleUriUpdated",
      "type": "event"
    },
    {
      "anonymous": false,
      "inputs": [
        {
          "indexed": true,
          "internalType": "address",
          "name": "to",
          "type": "address"
        },
        {
          "indexed": false,
          "internalType": "uint256",
          "name": "amount",
          "type": "uint256"
        }
      ],
      "name": "IncreaseResiBalance",
      "type": "event"
    },
    {
      "anonymous": false,
      "inputs": [
        {
          "indexed": false,
          "internalType": "uint8",
          "name": "version",
          "type": "uint8"
        }
      ],
      "name": "Initialized",
      "type": "event"
    },
    {
      "anonymous": false,
      "inputs": [
        {
          "indexed": false,
          "internalType": "uint256",
          "name": "tokenId",
          "type": "uint256"
        }
      ],
      "name": "Locked",
      "type": "event"
    },
    {
      "anonymous": false,
      "inputs": [
        {
          "indexed": true,
          "internalType": "address",
          "name": "_to",
          "type": "address"
        },
        {
          "indexed": false,
          "internalType": "bytes32",
          "name": "_role",
          "type": "bytes32"
        },
        {
          "indexed": false,
          "internalType": "uint256",
          "name": "_tokenId",
          "type": "uint256"
        }
      ],
      "name": "MintSBT",
      "type": "event"
    },
    {
      "anonymous": false,
      "inputs": [
        {
          "indexed": true,
          "internalType": "address",
          "name": "user",
          "type": "address"
        },
        {
          "indexed": false,
          "internalType": "bytes32",
          "name": "nickname",
          "type": "bytes32"
        }
      ],
      "name": "NicknameUpdated",
      "type": "event"
    },
    {
      "anonymous": false,
      "inputs": [
        {
          "indexed": true,
          "internalType": "address",
          "name": "previousOwner",
          "type": "address"
        },
        {
          "indexed": true,
          "internalType": "address",
          "name": "newOwner",
          "type": "address"
        }
      ],
      "name": "OwnershipTransferred",
      "type": "event"
    },
    {
      "anonymous": false,
      "inputs": [
        {
          "indexed": true,
          "internalType": "address",
          "name": "_registry",
          "type": "address"
        }
      ],
      "name": "RegistrySet",
      "type": "event"
    },
    {
      "anonymous": false,
      "inputs": [
        {
          "indexed": false,
          "internalType": "string",
          "name": "_name",
          "type": "string"
        },
        {
          "indexed": false,
          "internalType": "string",
          "name": "_symbol",
          "type": "string"
        },
        {
          "indexed": false,
          "internalType": "uint256",
          "name": "_serieId",
          "type": "uint256"
        },
        {
          "indexed": true,
          "internalType": "address",
          "name": "_registry",
          "type": "address"
        },
        {
          "indexed": true,
          "internalType": "address",
          "name": "_resiToken",
          "type": "address"
        }
      ],
      "name": "ResiSBTInitialized",
      "type": "event"
    },
    {
      "anonymous": false,
      "inputs": [
        {
          "indexed": true,
          "internalType": "address",
          "name": "_to",
          "type": "address"
        },
        {
          "indexed": false,
          "internalType": "bytes32",
          "name": "_role",
          "type": "bytes32"
        },
        {
          "indexed": false,
          "internalType": "uint256",
          "name": "_tokenId",
          "type": "uint256"
        }
      ],
      "name": "SBTMintedByResiToken",
      "type": "event"
    },
    {
      "anonymous": false,
      "inputs": [
        {
          "indexed": true,
          "internalType": "address",
          "name": "from",
          "type": "address"
        },
        {
          "indexed": true,
          "internalType": "address",
          "name": "to",
          "type": "address"
        },
        {
          "indexed": true,
          "internalType": "uint256",
          "name": "tokenId",
          "type": "uint256"
        }
      ],
      "name": "Transfer",
      "type": "event"
    },
    {
      "anonymous": false,
      "inputs": [
        {
          "indexed": false,
          "internalType": "uint256",
          "name": "tokenId",
          "type": "uint256"
        }
      ],
      "name": "Unlocked",
      "type": "event"
    },
    {
      "inputs": [],
      "name": "RESI_REGISTRY",
      "outputs": [
        {
          "internalType": "address",
          "name": "",
          "type": "address"
        }
      ],
      "stateMutability": "view",
      "type": "function"
    },
    {
      "inputs": [],
      "name": "RESI_TOKEN",
      "outputs": [
        {
          "internalType": "address",
          "name": "",
          "type": "address"
        }
      ],
      "stateMutability": "view",
      "type": "function"
    },
    {
      "inputs": [],
      "name": "SERIE_ID",
      "outputs": [
        {
          "internalType": "uint256",
          "name": "",
          "type": "uint256"
        }
      ],
      "stateMutability": "view",
      "type": "function"
    },
    {
      "inputs": [
        {
          "internalType": "address",
          "name": "to",
          "type": "address"
        },
        {
          "internalType": "uint256",
          "name": "tokenId",
          "type": "uint256"
        }
      ],
      "name": "approve",
      "outputs": [],
      "stateMutability": "nonpayable",
      "type": "function"
    },
    {
      "inputs": [
        {
          "internalType": "address",
          "name": "owner",
          "type": "address"
        }
      ],
      "name": "balanceOf",
      "outputs": [
        {
          "internalType": "uint256",
          "name": "",
          "type": "uint256"
        }
      ],
      "stateMutability": "view",
      "type": "function"
    },
    {
      "inputs": [],
      "name": "contractURI",
      "outputs": [
        {
          "internalType": "string",
          "name": "",
          "type": "string"
        }
      ],
      "stateMutability": "view",
      "type": "function"
    },
    {
      "inputs": [],
      "name": "contractUri",
      "outputs": [
        {
          "internalType": "string",
          "name": "",
          "type": "string"
        }
      ],
      "stateMutability": "view",
      "type": "function"
    },
    {
      "inputs": [
        {
          "internalType": "address",
          "name": "_to",
          "type": "address"
        },
        {
          "internalType": "uint256",
          "name": "_amount",
          "type": "uint256"
        }
      ],
      "name": "decreaseResiTokenBalance",
      "outputs": [],
      "stateMutability": "nonpayable",
      "type": "function"
    },
    {
      "inputs": [
        {
          "internalType": "uint256",
          "name": "tokenId",
          "type": "uint256"
        }
      ],
      "name": "getApproved",
      "outputs": [
        {
          "internalType": "address",
          "name": "",
          "type": "address"
        }
      ],
      "stateMutability": "view",
      "type": "function"
    },
    {
      "inputs": [
        {
          "internalType": "address",
          "name": "_to",
          "type": "address"
        },
        {
          "internalType": "uint256",
          "name": "_amount",
          "type": "uint256"
        }
      ],
      "name": "increaseResiTokenBalance",
      "outputs": [],
      "stateMutability": "nonpayable",
      "type": "function"
    },
    {
      "inputs": [
        {
          "internalType": "string",
          "name": "_name",
          "type": "string"
        },
        {
          "internalType": "string",
          "name": "_symbol",
          "type": "string"
        },
        {
          "internalType": "string",
          "name": "_contractUri",
          "type": "string"
        },
        {
          "internalType": "uint256",
          "name": "_serieId",
          "type": "uint256"
        },
        {
          "internalType": "address",
          "name": "_registry",
          "type": "address"
        },
        {
          "internalType": "address",
          "name": "_token",
          "type": "address"
        }
      ],
      "name": "initialize",
      "outputs": [],
      "stateMutability": "nonpayable",
      "type": "function"
    },
    {
      "inputs": [
        {
          "internalType": "address",
          "name": "owner",
          "type": "address"
        },
        {
          "internalType": "address",
          "name": "operator",
          "type": "address"
        }
      ],
      "name": "isApprovedForAll",
      "outputs": [
        {
          "internalType": "bool",
          "name": "",
          "type": "bool"
        }
      ],
      "stateMutability": "view",
      "type": "function"
    },
    {
      "inputs": [
        {
          "internalType": "address",
          "name": "_account",
          "type": "address"
        },
        {
          "internalType": "bytes32",
          "name": "_role",
          "type": "bytes32"
        },
        {
          "internalType": "uint256",
          "name": "_serieId",
          "type": "uint256"
        }
      ],
      "name": "isSBTReceiver",
      "outputs": [
        {
          "internalType": "bool",
          "name": "",
          "type": "bool"
        }
      ],
      "stateMutability": "view",
      "type": "function"
    },
    {
      "inputs": [
        {
          "internalType": "uint256",
          "name": "tokenId",
          "type": "uint256"
        }
      ],
      "name": "locked",
      "outputs": [
        {
          "internalType": "bool",
          "name": "",
          "type": "bool"
        }
      ],
      "stateMutability": "view",
      "type": "function"
    },
    {
      "inputs": [
        {
          "internalType": "address",
          "name": "_to",
          "type": "address"
        },
        {
          "internalType": "bytes32",
          "name": "_role",
          "type": "bytes32"
        },
        {
          "internalType": "string",
          "name": "_uri",
          "type": "string"
        }
      ],
      "name": "mint",
      "outputs": [
        {
          "internalType": "uint256",
          "name": "",
          "type": "uint256"
        }
      ],
      "stateMutability": "nonpayable",
      "type": "function"
    },
    {
      "inputs": [
        {
          "internalType": "address[]",
          "name": "_to",
          "type": "address[]"
        },
        {
          "internalType": "string",
          "name": "_uri",
          "type": "string"
        },
        {
          "internalType": "bytes32",
          "name": "_role",
          "type": "bytes32"
        }
      ],
      "name": "mintBatchByRole",
      "outputs": [],
      "stateMutability": "nonpayable",
      "type": "function"
    },
    {
      "inputs": [
        {
          "internalType": "address",
          "name": "_to",
          "type": "address"
        },
        {
          "internalType": "bytes32",
          "name": "_role",
          "type": "bytes32"
        }
      ],
      "name": "mintByResiToken",
      "outputs": [],
      "stateMutability": "nonpayable",
      "type": "function"
    },
    {
      "inputs": [],
      "name": "name",
      "outputs": [
        {
          "internalType": "string",
          "name": "",
          "type": "string"
        }
      ],
      "stateMutability": "view",
      "type": "function"
    },
    {
      "inputs": [],
      "name": "owner",
      "outputs": [
        {
          "internalType": "address",
          "name": "",
          "type": "address"
        }
      ],
      "stateMutability": "view",
      "type": "function"
    },
    {
      "inputs": [
        {
          "internalType": "uint256",
          "name": "tokenId",
          "type": "uint256"
        }
      ],
      "name": "ownerOf",
      "outputs": [
        {
          "internalType": "address",
          "name": "",
          "type": "address"
        }
      ],
      "stateMutability": "view",
      "type": "function"
    },
    {
      "inputs": [],
      "name": "renounceOwnership",
      "outputs": [],
      "stateMutability": "nonpayable",
      "type": "function"
    },
    {
      "inputs": [
        {
          "internalType": "address",
          "name": "",
          "type": "address"
        }
      ],
      "name": "resiTokenBalances",
      "outputs": [
        {
          "internalType": "uint256",
          "name": "",
          "type": "uint256"
        }
      ],
      "stateMutability": "view",
      "type": "function"
    },
    {
      "inputs": [
        {
          "internalType": "address",
          "name": "",
          "type": "address"
        },
        {
          "internalType": "address",
          "name": "",
          "type": "address"
        },
        {
          "internalType": "uint256",
          "name": "",
          "type": "uint256"
        }
      ],
      "name": "safeTransferFrom",
      "outputs": [],
      "stateMutability": "pure",
      "type": "function"
    },
    {
      "inputs": [
        {
          "internalType": "address",
          "name": "",
          "type": "address"
        },
        {
          "internalType": "address",
          "name": "",
          "type": "address"
        },
        {
          "internalType": "uint256",
          "name": "",
          "type": "uint256"
        },
        {
          "internalType": "bytes",
          "name": "",
          "type": "bytes"
        }
      ],
      "name": "safeTransferFrom",
      "outputs": [],
      "stateMutability": "pure",
      "type": "function"
    },
    {
      "inputs": [
        {
          "internalType": "address",
          "name": "operator",
          "type": "address"
        },
        {
          "internalType": "bool",
          "name": "approved",
          "type": "bool"
        }
      ],
      "name": "setApprovalForAll",
      "outputs": [],
      "stateMutability": "nonpayable",
      "type": "function"
    },
    {
      "inputs": [
        {
          "internalType": "string",
          "name": "_contractUri",
          "type": "string"
        }
      ],
      "name": "setContractURI",
      "outputs": [],
      "stateMutability": "nonpayable",
      "type": "function"
    },
    {
      "inputs": [
        {
          "internalType": "bytes32",
          "name": "_role",
          "type": "bytes32"
        },
        {
          "internalType": "string",
          "name": "_uri",
          "type": "string"
        }
      ],
      "name": "setDefaultRoleUri",
      "outputs": [],
      "stateMutability": "nonpayable",
      "type": "function"
    },
    {
      "inputs": [
        {
          "internalType": "bytes32",
          "name": "_nickname",
          "type": "bytes32"
        }
      ],
      "name": "setNickName",
      "outputs": [],
      "stateMutability": "nonpayable",
      "type": "function"
    },
    {
      "inputs": [
        {
          "internalType": "address",
          "name": "_registry",
          "type": "address"
        }
      ],
      "name": "setRegistry",
      "outputs": [],
      "stateMutability": "nonpayable",
      "type": "function"
    },
    {
      "inputs": [
        {
          "internalType": "bytes4",
          "name": "interfaceId",
          "type": "bytes4"
        }
      ],
      "name": "supportsInterface",
      "outputs": [
        {
          "internalType": "bool",
          "name": "",
          "type": "bool"
        }
      ],
      "stateMutability": "view",
      "type": "function"
    },
    {
      "inputs": [],
      "name": "symbol",
      "outputs": [
        {
          "internalType": "string",
          "name": "",
          "type": "string"
        }
      ],
      "stateMutability": "view",
      "type": "function"
    },
    {
      "inputs": [
        {
          "internalType": "uint256",
          "name": "tokenId",
          "type": "uint256"
        }
      ],
      "name": "tokenURI",
      "outputs": [
        {
          "internalType": "string",
          "name": "",
          "type": "string"
        }
      ],
      "stateMutability": "view",
      "type": "function"
    },
    {
      "inputs": [
        {
          "internalType": "address",
          "name": "",
          "type": "address"
        },
        {
          "internalType": "address",
          "name": "",
          "type": "address"
        },
        {
          "internalType": "uint256",
          "name": "",
          "type": "uint256"
        }
      ],
      "name": "transferFrom",
      "outputs": [],
      "stateMutability": "pure",
      "type": "function"
    },
    {
      "inputs": [
        {
          "internalType": "address",
          "name": "newOwner",
          "type": "address"
        }
      ],
      "name": "transferOwnership",
      "outputs": [],
      "stateMutability": "nonpayable",
      "type": "function"
    },
    {
      "inputs": [
        {
          "internalType": "address",
          "name": "",
          "type": "address"
        }
      ],
      "name": "userNickNames",
      "outputs": [
        {
          "internalType": "bytes32",
          "name": "",
          "type": "bytes32"
        }
      ],
      "stateMutability": "view",
      "type": "function"
    }
  ],
  "transactionHash": "0x323a6d229ca08de4edff6ba2ad288c88755e45e35cbc0eb56e0b2233ed9cf5fb",
  "args": [],
  "numDeployments": 1,
  "solcInputHash": "26b1f66d2ba83e5c815bc294b047a886",
  "bytecode": "0x608060405234801561001057600080fd5b506154b1806100206000396000f3fe608060405234801561001057600080fd5b50600436106102115760003560e01c80637b9c816911610125578063b4bc6cac116100ad578063c87b56dd1161007c578063c87b56dd146105fa578063d1c935991461062a578063e8a3d4851461065a578063e985e9c514610678578063f2fde38b146106a857610211565b8063b4bc6cac14610574578063b88d4fde14610590578063c0e24d5e146105ac578063c3b9e8ad146105ca57610211565b8063938e3d7b116100f4578063938e3d7b146104d257806395d89b41146104ee578063a22cb4651461050c578063a91ee0dc14610528578063b45a3c0e1461054457610211565b80637b9c8169146104485780637e8625fd146104665780637eb8d1f1146104845780638da5cb5b146104b457610211565b806346fad2a3116101a85780636352211e116101775780636352211e146103a4578063687a2b1e146103d457806370a08231146103f2578063715018a6146104225780637930a65b1461042c57610211565b806346fad2a3146103205780634a8a4c281461033c578063517e75141461035857806362246c411461038857610211565b806323b872dd116101e457806323b872dd146102b05780632671c49e146102cc57806332443e5f146102e857806342842e0e1461030457610211565b806301ffc9a71461021657806306fdde0314610246578063081812fc14610264578063095ea7b314610294575b600080fd5b610230600480360381019061022b9190613292565b6106c4565b60405161023d91906132da565b60405180910390f35b61024e6106d6565b60405161025b9190613385565b60405180910390f35b61027e600480360381019061027991906133dd565b610768565b60405161028b919061344b565b60405180910390f35b6102ae60048036038101906102a99190613492565b6107ae565b005b6102ca60048036038101906102c591906134d2565b6108c5565b005b6102e660048036038101906102e191906135c0565b610900565b005b61030260048036038101906102fd9190613620565b610a99565b005b61031e600480360381019061031991906134d2565b610b4f565b005b61033a60048036038101906103359190613853565b610b8a565b005b61035660048036038101906103519190613492565b610c02565b005b610372600480360381019061036d91906138de565b610cb8565b60405161037f919061395c565b60405180910390f35b6103a2600480360381019061039d9190613977565b610d2c565b005b6103be60048036038101906103b991906133dd565b610e67565b6040516103cb919061344b565b60405180910390f35b6103dc610eed565b6040516103e9919061395c565b60405180910390f35b61040c600480360381019061040791906139a4565b610ef4565b604051610419919061395c565b60405180910390f35b61042a610fab565b005b610446600480360381019061044191906139d1565b610fbf565b005b610450611309565b60405161045d919061344b565b60405180910390f35b61046e611330565b60405161047b919061344b565b60405180910390f35b61049e60048036038101906104999190613ab2565b611357565b6040516104ab91906132da565b60405180910390f35b6104bc6114ae565b6040516104c9919061344b565b60405180910390f35b6104ec60048036038101906104e79190613b05565b6114d8565b005b6104f661152d565b6040516105039190613385565b60405180910390f35b61052660048036038101906105219190613b7a565b6115bf565b005b610542600480360381019061053d91906139a4565b6115d5565b005b61055e600480360381019061055991906133dd565b6116d4565b60405161056b91906132da565b60405180910390f35b61058e60048036038101906105899190613492565b6116ff565b005b6105aa60048036038101906105a59190613c5b565b6117b5565b005b6105b46117f0565b6040516105c19190613385565b60405180910390f35b6105e460048036038101906105df91906139a4565b61187f565b6040516105f19190613ced565b60405180910390f35b610614600480360381019061060f91906133dd565b611898565b6040516106219190613385565b60405180910390f35b610644600480360381019061063f91906139a4565b6118aa565b604051610651919061395c565b60405180910390f35b6106626118c3565b60405161066f9190613385565b60405180910390f35b610692600480360381019061068d9190613d08565b611956565b60405161069f91906132da565b60405180910390f35b6106c260048036038101906106bd91906139a4565b6119ea565b005b60006106cf82611a6d565b9050919050565b6060609780546106e590613d77565b80601f016020809104026020016040519081016040528092919081815260200182805461071190613d77565b801561075e5780601f106107335761010080835404028352916020019161075e565b820191906000526020600020905b81548152906001019060200180831161074157829003601f168201915b5050505050905090565b600061077382611b4f565b609b600083815260200190815260200160002060009054906101000a900473ffffffffffffffffffffffffffffffffffffffff169050919050565b60006107b982610e67565b90508073ffffffffffffffffffffffffffffffffffffffff168373ffffffffffffffffffffffffffffffffffffffff1603610829576040517f08c379a000000000000000000000000000000000000000000000000000000000815260040161082090613e1a565b60405180910390fd5b8073ffffffffffffffffffffffffffffffffffffffff16610848611b9a565b73ffffffffffffffffffffffffffffffffffffffff161480610877575061087681610871611b9a565b611956565b5b6108b6576040517f08c379a00000000000000000000000000000000000000000000000000000000081526004016108ad90613eac565b60405180910390fd5b6108c08383611ba2565b505050565b6040517fa74471990000000000000000000000000000000000000000000000000000000081526004016108f790613f3e565b60405180910390fd5b610908611c5b565b6000801b830361094d576040517f08c379a000000000000000000000000000000000000000000000000000000000815260040161094490613faa565b60405180910390fd5b60008282905011610993576040517f08c379a000000000000000000000000000000000000000000000000000000000815260040161098a90614016565b60405180910390fd5b6000610135600085815260200190815260200160002080546109b490613d77565b80601f01602080910402602001604051908101604052809291908181526020018280546109e090613d77565b8015610a2d5780601f10610a0257610100808354040283529160200191610a2d565b820191906000526020600020905b815481529060010190602001808311610a1057829003601f168201915b50505050509050828261013560008781526020019081526020016000209182610a579291906141ed565b507fb4882a9c218e6fe0486c301941b80c68720a5bc8091eb24a0b0f6278eed05f06818484604051610a8b939291906142ea565b60405180910390a150505050565b61013060009054906101000a900473ffffffffffffffffffffffffffffffffffffffff1673ffffffffffffffffffffffffffffffffffffffff16610adb611b9a565b73ffffffffffffffffffffffffffffffffffffffff1614610b31576040517f08c379a0000000000000000000000000000000000000000000000000000000008152600401610b2890614395565b60405180910390fd5b610b39611cd9565b610b438282611d28565b610b4b611e72565b5050565b6040517fa7447199000000000000000000000000000000000000000000000000000000008152600401610b8190613f3e565b60405180910390fd5b610b92611c5b565b60005b8351811015610bfc57610bc3848281518110610bb457610bb36143b5565b5b60200260200101518385611e7c565b610be8848281518110610bd957610bd86143b5565b5b602002602001015183856120a8565b508080610bf490614413565b915050610b95565b50505050565b61013060009054906101000a900473ffffffffffffffffffffffffffffffffffffffff1673ffffffffffffffffffffffffffffffffffffffff16610c44611b9a565b73ffffffffffffffffffffffffffffffffffffffff1614610c9a576040517f08c379a0000000000000000000000000000000000000000000000000000000008152600401610c9190614395565b60405180910390fd5b610ca2611cd9565b610cac828261222e565b610cb4611e72565b5050565b6000610cc2611c5b565b6000610ccf8585856120a8565b90508473ffffffffffffffffffffffffffffffffffffffff167f794d7f3def354a526e1441e5795ceed82fda62994c9c013a927cbcf2934cb92f8583604051610d1992919061445b565b60405180910390a2809150509392505050565b6001610d3e610d39611b9a565b610ef4565b14610d7e576040517f08c379a0000000000000000000000000000000000000000000000000000000008152600401610d75906144d0565b60405180910390fd5b6000801b8103610dc3576040517f08c379a0000000000000000000000000000000000000000000000000000000008152600401610dba9061453c565b60405180910390fd5b806101326000610dd1611b9a565b73ffffffffffffffffffffffffffffffffffffffff1673ffffffffffffffffffffffffffffffffffffffff16815260200190815260200160002081905550610e17611b9a565b73ffffffffffffffffffffffffffffffffffffffff167f99f6108bddea6b753194dfcbc58f782b8bdf56daeb68d6e3a1584a2e25e54bbc82604051610e5c9190613ced565b60405180910390a250565b600080610e7383612365565b9050600073ffffffffffffffffffffffffffffffffffffffff168173ffffffffffffffffffffffffffffffffffffffff1603610ee4576040517f08c379a0000000000000000000000000000000000000000000000000000000008152600401610edb906145a8565b60405180910390fd5b80915050919050565b61012f5481565b60008073ffffffffffffffffffffffffffffffffffffffff168273ffffffffffffffffffffffffffffffffffffffff1603610f64576040517f08c379a0000000000000000000000000000000000000000000000000000000008152600401610f5b9061463a565b60405180910390fd5b609a60008373ffffffffffffffffffffffffffffffffffffffff1673ffffffffffffffffffffffffffffffffffffffff168152602001908152602001600020549050919050565b610fb3611c5b565b610fbd60006123a2565b565b60008060019054906101000a900460ff16159050808015610ff05750600160008054906101000a900460ff1660ff16105b8061101d5750610fff30612468565b15801561101c5750600160008054906101000a900460ff1660ff16145b5b61105c576040517f08c379a0000000000000000000000000000000000000000000000000000000008152600401611053906146cc565b60405180910390fd5b60016000806101000a81548160ff021916908360ff1602179055508015611099576001600060016101000a81548160ff0219169083151502179055505b600073ffffffffffffffffffffffffffffffffffffffff168373ffffffffffffffffffffffffffffffffffffffff1603611108576040517f08c379a00000000000000000000000000000000000000000000000000000000081526004016110ff90614738565b60405180910390fd5b600073ffffffffffffffffffffffffffffffffffffffff168273ffffffffffffffffffffffffffffffffffffffff1603611177576040517f08c379a000000000000000000000000000000000000000000000000000000000815260040161116e906147a4565b60405180910390fd5b61117f61248b565b6111876124dc565b61118f61253d565b6111998787612596565b6111a1612609565b8261013160006101000a81548173ffffffffffffffffffffffffffffffffffffffff021916908373ffffffffffffffffffffffffffffffffffffffff1602179055508161013060006101000a81548173ffffffffffffffffffffffffffffffffffffffff021916908373ffffffffffffffffffffffffffffffffffffffff1602179055508361012f819055508461012e908161123d91906147c4565b508173ffffffffffffffffffffffffffffffffffffffff168373ffffffffffffffffffffffffffffffffffffffff167fb971b0bf8639f3fb4af088317172a98b054b3584c29da1ec8d5f77e1231c0fdf89898860405161129f93929190614896565b60405180910390a380156113005760008060016101000a81548160ff0219169083151502179055507f7f26b83ff96e1f2b6a682f133852f6798a09c465da95921460cefb384740249860016040516112f79190614923565b60405180910390a15b50505050505050565b61013160009054906101000a900473ffffffffffffffffffffffffffffffffffffffff1681565b61013060009054906101000a900473ffffffffffffffffffffffffffffffffffffffff1681565b600061013060009054906101000a900473ffffffffffffffffffffffffffffffffffffffff1673ffffffffffffffffffffffffffffffffffffffff166391d1485484866040518363ffffffff1660e01b81526004016113b792919061493e565b602060405180830381865afa1580156113d4573d6000803e3d6000fd5b505050506040513d601f19601f820116820180604052508101906113f8919061497c565b801561149457508161013160009054906101000a900473ffffffffffffffffffffffffffffffffffffffff1673ffffffffffffffffffffffffffffffffffffffff1663be71e4266040518163ffffffff1660e01b8152600401602060405180830381865afa15801561146e573d6000803e3d6000fd5b505050506040513d601f19601f8201168201806040525081019061149291906149be565b145b156114a257600190506114a7565b600090505b9392505050565b6000603360009054906101000a900473ffffffffffffffffffffffffffffffffffffffff16905090565b6114e0611c5b565b8061012e90816114f091906147c4565b507f905d981207a7d0b6c62cc46ab0be2a076d0298e4a86d0ab79882dbd01ac3737861012e6040516115229190614a6f565b60405180910390a150565b60606098805461153c90613d77565b80601f016020809104026020016040519081016040528092919081815260200182805461156890613d77565b80156115b55780601f1061158a576101008083540402835291602001916115b5565b820191906000526020600020905b81548152906001019060200180831161159857829003601f168201915b5050505050905090565b6115d16115ca611b9a565b838361265a565b5050565b6115dd611c5b565b600073ffffffffffffffffffffffffffffffffffffffff168173ffffffffffffffffffffffffffffffffffffffff160361164c576040517f08c379a000000000000000000000000000000000000000000000000000000000815260040161164390614738565b60405180910390fd5b8061013160006101000a81548173ffffffffffffffffffffffffffffffffffffffff021916908373ffffffffffffffffffffffffffffffffffffffff1602179055508073ffffffffffffffffffffffffffffffffffffffff167f27fe5f0c1c3b1ed427cc63d0f05759ffdecf9aec9e18d31ef366fc8a6cb5dc3b60405160405180910390a250565b6000610134600083815260200190815260200160002060009054906101000a900460ff169050919050565b61013060009054906101000a900473ffffffffffffffffffffffffffffffffffffffff1673ffffffffffffffffffffffffffffffffffffffff16611741611b9a565b73ffffffffffffffffffffffffffffffffffffffff1614611797576040517f08c379a000000000000000000000000000000000000000000000000000000000815260040161178e90614395565b60405180910390fd5b61179f611cd9565b6117a982826127c6565b6117b1611e72565b5050565b6040517fa74471990000000000000000000000000000000000000000000000000000000081526004016117e790613f3e565b60405180910390fd5b61012e80546117fe90613d77565b80601f016020809104026020016040519081016040528092919081815260200182805461182a90613d77565b80156118775780601f1061184c57610100808354040283529160200191611877565b820191906000526020600020905b81548152906001019060200180831161185a57829003601f168201915b505050505081565b6101326020528060005260406000206000915090505481565b60606118a3826128fd565b9050919050565b6101336020528060005260406000206000915090505481565b606061012e80546118d390613d77565b80601f01602080910402602001604051908101604052809291908181526020018280546118ff90613d77565b801561194c5780601f106119215761010080835404028352916020019161194c565b820191906000526020600020905b81548152906001019060200180831161192f57829003601f168201915b5050505050905090565b6000609c60008473ffffffffffffffffffffffffffffffffffffffff1673ffffffffffffffffffffffffffffffffffffffff16815260200190815260200160002060008373ffffffffffffffffffffffffffffffffffffffff1673ffffffffffffffffffffffffffffffffffffffff16815260200190815260200160002060009054906101000a900460ff16905092915050565b6119f2611c5b565b600073ffffffffffffffffffffffffffffffffffffffff168173ffffffffffffffffffffffffffffffffffffffff1603611a61576040517f08c379a0000000000000000000000000000000000000000000000000000000008152600401611a5890614b03565b60405180910390fd5b611a6a816123a2565b50565b60007f80ac58cd000000000000000000000000000000000000000000000000000000007bffffffffffffffffffffffffffffffffffffffffffffffffffffffff1916827bffffffffffffffffffffffffffffffffffffffffffffffffffffffff19161480611b3857507f5b5e139f000000000000000000000000000000000000000000000000000000007bffffffffffffffffffffffffffffffffffffffffffffffffffffffff1916827bffffffffffffffffffffffffffffffffffffffffffffffffffffffff1916145b80611b485750611b4782612a0f565b5b9050919050565b611b5881612a79565b611b97576040517f08c379a0000000000000000000000000000000000000000000000000000000008152600401611b8e906145a8565b60405180910390fd5b50565b600033905090565b81609b600083815260200190815260200160002060006101000a81548173ffffffffffffffffffffffffffffffffffffffff021916908373ffffffffffffffffffffffffffffffffffffffff160217905550808273ffffffffffffffffffffffffffffffffffffffff16611c1583610e67565b73ffffffffffffffffffffffffffffffffffffffff167f8c5be1e5ebec7d5bd14f71427d1e84f3dd0314c0f7b2291e5b200ac8c7c3b92560405160405180910390a45050565b611c63611b9a565b73ffffffffffffffffffffffffffffffffffffffff16611c816114ae565b73ffffffffffffffffffffffffffffffffffffffff1614611cd7576040517f08c379a0000000000000000000000000000000000000000000000000000000008152600401611cce90614b6f565b60405180910390fd5b565b600260fb5403611d1e576040517f08c379a0000000000000000000000000000000000000000000000000000000008152600401611d1590614bdb565b60405180910390fd5b600260fb81905550565b600061013560008381526020019081526020016000208054611d4990613d77565b80601f0160208091040260200160405190810160405280929190818152602001828054611d7590613d77565b8015611dc25780601f10611d9757610100808354040283529160200191611dc2565b820191906000526020600020905b815481529060010190602001808311611da557829003601f168201915b505050505090506000815111611e0d576040517f08c379a0000000000000000000000000000000000000000000000000000000008152600401611e0490614c6d565b60405180910390fd5b6000611e1a8484846120a8565b90508373ffffffffffffffffffffffffffffffffffffffff167f59fbbd4726c1a26d6867c26553838746080aeca0d39c4decb94778fff62fe4568483604051611e6492919061445b565b60405180910390a250505050565b600160fb81905550565b611e846114ae565b73ffffffffffffffffffffffffffffffffffffffff16611ea2611b9a565b73ffffffffffffffffffffffffffffffffffffffff161480611f19575061013060009054906101000a900473ffffffffffffffffffffffffffffffffffffffff1673ffffffffffffffffffffffffffffffffffffffff16611f01611b9a565b73ffffffffffffffffffffffffffffffffffffffff16145b611f58576040517f08c379a0000000000000000000000000000000000000000000000000000000008152600401611f4f90614cff565b60405180910390fd5b600073ffffffffffffffffffffffffffffffffffffffff168373ffffffffffffffffffffffffffffffffffffffff1603611fc7576040517f08c379a0000000000000000000000000000000000000000000000000000000008152600401611fbe90614d6b565b60405180910390fd5b6000611fd284610ef4565b14612012576040517f08c379a000000000000000000000000000000000000000000000000000000000815260040161200990614dd7565b60405180910390fd5b6000815111612056576040517f08c379a000000000000000000000000000000000000000000000000000000000815260040161204d90614e43565b60405180910390fd5b612064838361012f54611357565b6120a3576040517f08c379a000000000000000000000000000000000000000000000000000000000815260040161209a90614eaf565b60405180910390fd5b505050565b60006120b26114ae565b73ffffffffffffffffffffffffffffffffffffffff166120d0611b9a565b73ffffffffffffffffffffffffffffffffffffffff161480612147575061013060009054906101000a900473ffffffffffffffffffffffffffffffffffffffff1673ffffffffffffffffffffffffffffffffffffffff1661212f611b9a565b73ffffffffffffffffffffffffffffffffffffffff16145b612186576040517f08c379a000000000000000000000000000000000000000000000000000000000815260040161217d90614cff565b60405180910390fd5b612191848484611e7c565b600061219e61012d612aba565b90506001610134600083815260200190815260200160002060006101000a81548160ff0219169083151502179055506121d78582612ac8565b6121e18184612ae6565b6121ec61012d612b53565b7f032bc66be43dbccb7487781d168eb7bda224628a3b2c3388bdf69b532a3a16118160405161221b919061395c565b60405180910390a1809150509392505050565b600161223983610ef4565b14612279576040517f08c379a000000000000000000000000000000000000000000000000000000000815260040161227090614f1b565b60405180910390fd5b600081116122bc576040517f08c379a00000000000000000000000000000000000000000000000000000000081526004016122b390614f87565b60405180910390fd5b8061013360008473ffffffffffffffffffffffffffffffffffffffff1673ffffffffffffffffffffffffffffffffffffffff168152602001908152602001600020600082825461230c9190614fa7565b925050819055508173ffffffffffffffffffffffffffffffffffffffff167f048df227c951e9e741c27ac8f28f3fe2bd8ac24c3d08a5e102170a8620d4137082604051612359919061395c565b60405180910390a25050565b60006099600083815260200190815260200160002060009054906101000a900473ffffffffffffffffffffffffffffffffffffffff169050919050565b6000603360009054906101000a900473ffffffffffffffffffffffffffffffffffffffff16905081603360006101000a81548173ffffffffffffffffffffffffffffffffffffffff021916908373ffffffffffffffffffffffffffffffffffffffff1602179055508173ffffffffffffffffffffffffffffffffffffffff168173ffffffffffffffffffffffffffffffffffffffff167f8be0079c531659141344cd1fd0a4f28419497f9722a3daafe3b4186f6b6457e060405160405180910390a35050565b6000808273ffffffffffffffffffffffffffffffffffffffff163b119050919050565b600060019054906101000a900460ff166124da576040517f08c379a00000000000000000000000000000000000000000000000000000000081526004016124d19061504d565b60405180910390fd5b565b600060019054906101000a900460ff1661252b576040517f08c379a00000000000000000000000000000000000000000000000000000000081526004016125229061504d565b60405180910390fd5b61253b612536611b9a565b6123a2565b565b600060019054906101000a900460ff1661258c576040517f08c379a00000000000000000000000000000000000000000000000000000000081526004016125839061504d565b60405180910390fd5b600160fb81905550565b600060019054906101000a900460ff166125e5576040517f08c379a00000000000000000000000000000000000000000000000000000000081526004016125dc9061504d565b60405180910390fd5b81609790816125f491906147c4565b50806098908161260491906147c4565b505050565b600060019054906101000a900460ff16612658576040517f08c379a000000000000000000000000000000000000000000000000000000000815260040161264f9061504d565b60405180910390fd5b565b8173ffffffffffffffffffffffffffffffffffffffff168373ffffffffffffffffffffffffffffffffffffffff16036126c8576040517f08c379a00000000000000000000000000000000000000000000000000000000081526004016126bf906150b9565b60405180910390fd5b80609c60008573ffffffffffffffffffffffffffffffffffffffff1673ffffffffffffffffffffffffffffffffffffffff16815260200190815260200160002060008473ffffffffffffffffffffffffffffffffffffffff1673ffffffffffffffffffffffffffffffffffffffff16815260200190815260200160002060006101000a81548160ff0219169083151502179055508173ffffffffffffffffffffffffffffffffffffffff168373ffffffffffffffffffffffffffffffffffffffff167f17307eab39ab6107e8899845ad3d59bd9653f200f220920489ca2b5937696c31836040516127b991906132da565b60405180910390a3505050565b60016127d183610ef4565b14612811576040517f08c379a000000000000000000000000000000000000000000000000000000000815260040161280890614f1b565b60405180910390fd5b60008111612854576040517f08c379a000000000000000000000000000000000000000000000000000000000815260040161284b90614f87565b60405180910390fd5b8061013360008473ffffffffffffffffffffffffffffffffffffffff1673ffffffffffffffffffffffffffffffffffffffff16815260200190815260200160002060008282546128a491906150d9565b925050819055508173ffffffffffffffffffffffffffffffffffffffff167fa27aa968488cb3ab8260cb4821ad0340658816c0015b6669bf71d3adcb80b1e0826040516128f1919061395c565b60405180910390a25050565b606061290882611b4f565b600060c96000848152602001908152602001600020805461292890613d77565b80601f016020809104026020016040519081016040528092919081815260200182805461295490613d77565b80156129a15780601f10612976576101008083540402835291602001916129a1565b820191906000526020600020905b81548152906001019060200180831161298457829003601f168201915b5050505050905060006129b2612b69565b905060008151036129c7578192505050612a0a565b6000825111156129fc5780826040516020016129e4929190615149565b60405160208183030381529060405292505050612a0a565b612a0584612b80565b925050505b919050565b60007f01ffc9a7000000000000000000000000000000000000000000000000000000007bffffffffffffffffffffffffffffffffffffffffffffffffffffffff1916827bffffffffffffffffffffffffffffffffffffffffffffffffffffffff1916149050919050565b60008073ffffffffffffffffffffffffffffffffffffffff16612a9b83612365565b73ffffffffffffffffffffffffffffffffffffffff1614159050919050565b600081600001549050919050565b612ae2828260405180602001604052806000815250612be8565b5050565b612aef82612a79565b612b2e576040517f08c379a0000000000000000000000000000000000000000000000000000000008152600401612b25906151df565b60405180910390fd5b8060c960008481526020019081526020016000209081612b4e91906147c4565b505050565b6001816000016000828254019250508190555050565b606060405180602001604052806000815250905090565b6060612b8b82611b4f565b6000612b95612b69565b90506000815111612bb55760405180602001604052806000815250612be0565b80612bbf84612c43565b604051602001612bd0929190615149565b6040516020818303038152906040525b915050919050565b612bf28383612d11565b612bff6000848484612f2e565b612c3e576040517f08c379a0000000000000000000000000000000000000000000000000000000008152600401612c3590615271565b60405180910390fd5b505050565b606060006001612c52846130b5565b01905060008167ffffffffffffffff811115612c7157612c70613660565b5b6040519080825280601f01601f191660200182016040528015612ca35781602001600182028036833780820191505090505b509050600082602001820190505b600115612d06578080600190039150507f3031323334353637383961626364656600000000000000000000000000000000600a86061a8153600a8581612cfa57612cf9615291565b5b04945060008503612cb1575b819350505050919050565b600073ffffffffffffffffffffffffffffffffffffffff168273ffffffffffffffffffffffffffffffffffffffff1603612d80576040517f08c379a0000000000000000000000000000000000000000000000000000000008152600401612d779061530c565b60405180910390fd5b612d8981612a79565b15612dc9576040517f08c379a0000000000000000000000000000000000000000000000000000000008152600401612dc090615378565b60405180910390fd5b612dd7600083836001613208565b612de081612a79565b15612e20576040517f08c379a0000000000000000000000000000000000000000000000000000000008152600401612e1790615378565b60405180910390fd5b6001609a60008473ffffffffffffffffffffffffffffffffffffffff1673ffffffffffffffffffffffffffffffffffffffff16815260200190815260200160002060008282540192505081905550816099600083815260200190815260200160002060006101000a81548173ffffffffffffffffffffffffffffffffffffffff021916908373ffffffffffffffffffffffffffffffffffffffff160217905550808273ffffffffffffffffffffffffffffffffffffffff16600073ffffffffffffffffffffffffffffffffffffffff167fddf252ad1be2c89b69c2b068fc378daa952ba7f163c4a11628f55a4df523b3ef60405160405180910390a4612f2a60008383600161321a565b5050565b6000612f4f8473ffffffffffffffffffffffffffffffffffffffff16612468565b156130a8578373ffffffffffffffffffffffffffffffffffffffff1663150b7a02612f78611b9a565b8786866040518563ffffffff1660e01b8152600401612f9a94939291906153ed565b6020604051808303816000875af1925050508015612fd657506040513d601f19601f82011682018060405250810190612fd3919061544e565b60015b613058573d8060008114613006576040519150601f19603f3d011682016040523d82523d6000602084013e61300b565b606091505b506000815103613050576040517f08c379a000000000000000000000000000000000000000000000000000000000815260040161304790615271565b60405180910390fd5b805181602001fd5b63150b7a0260e01b7bffffffffffffffffffffffffffffffffffffffffffffffffffffffff1916817bffffffffffffffffffffffffffffffffffffffffffffffffffffffff1916149150506130ad565b600190505b949350505050565b600080600090507a184f03e93ff9f4daa797ed6e38ed64bf6a1f0100000000000000008310613113577a184f03e93ff9f4daa797ed6e38ed64bf6a1f010000000000000000838161310957613108615291565b5b0492506040810190505b6d04ee2d6d415b85acef81000000008310613150576d04ee2d6d415b85acef8100000000838161314657613145615291565b5b0492506020810190505b662386f26fc10000831061317f57662386f26fc10000838161317557613174615291565b5b0492506010810190505b6305f5e10083106131a8576305f5e100838161319e5761319d615291565b5b0492506008810190505b61271083106131cd5761271083816131c3576131c2615291565b5b0492506004810190505b606483106131f057606483816131e6576131e5615291565b5b0492506002810190505b600a83106131ff576001810190505b80915050919050565b61321484848484613220565b50505050565b50505050565b50505050565b6000604051905090565b600080fd5b600080fd5b60007fffffffff0000000000000000000000000000000000000000000000000000000082169050919050565b61326f8161323a565b811461327a57600080fd5b50565b60008135905061328c81613266565b92915050565b6000602082840312156132a8576132a7613230565b5b60006132b68482850161327d565b91505092915050565b60008115159050919050565b6132d4816132bf565b82525050565b60006020820190506132ef60008301846132cb565b92915050565b600081519050919050565b600082825260208201905092915050565b60005b8381101561332f578082015181840152602081019050613314565b60008484015250505050565b6000601f19601f8301169050919050565b6000613357826132f5565b6133618185613300565b9350613371818560208601613311565b61337a8161333b565b840191505092915050565b6000602082019050818103600083015261339f818461334c565b905092915050565b6000819050919050565b6133ba816133a7565b81146133c557600080fd5b50565b6000813590506133d7816133b1565b92915050565b6000602082840312156133f3576133f2613230565b5b6000613401848285016133c8565b91505092915050565b600073ffffffffffffffffffffffffffffffffffffffff82169050919050565b60006134358261340a565b9050919050565b6134458161342a565b82525050565b6000602082019050613460600083018461343c565b92915050565b61346f8161342a565b811461347a57600080fd5b50565b60008135905061348c81613466565b92915050565b600080604083850312156134a9576134a8613230565b5b60006134b78582860161347d565b92505060206134c8858286016133c8565b9150509250929050565b6000806000606084860312156134eb576134ea613230565b5b60006134f98682870161347d565b935050602061350a8682870161347d565b925050604061351b868287016133c8565b9150509250925092565b6000819050919050565b61353881613525565b811461354357600080fd5b50565b6000813590506135558161352f565b92915050565b600080fd5b600080fd5b600080fd5b60008083601f8401126135805761357f61355b565b5b8235905067ffffffffffffffff81111561359d5761359c613560565b5b6020830191508360018202830111156135b9576135b8613565565b5b9250929050565b6000806000604084860312156135d9576135d8613230565b5b60006135e786828701613546565b935050602084013567ffffffffffffffff81111561360857613607613235565b5b6136148682870161356a565b92509250509250925092565b6000806040838503121561363757613636613230565b5b60006136458582860161347d565b925050602061365685828601613546565b9150509250929050565b7f4e487b7100000000000000000000000000000000000000000000000000000000600052604160045260246000fd5b6136988261333b565b810181811067ffffffffffffffff821117156136b7576136b6613660565b5b80604052505050565b60006136ca613226565b90506136d6828261368f565b919050565b600067ffffffffffffffff8211156136f6576136f5613660565b5b602082029050602081019050919050565b600061371a613715846136db565b6136c0565b9050808382526020820190506020840283018581111561373d5761373c613565565b5b835b818110156137665780613752888261347d565b84526020840193505060208101905061373f565b5050509392505050565b600082601f8301126137855761378461355b565b5b8135613795848260208601613707565b91505092915050565b600080fd5b600067ffffffffffffffff8211156137be576137bd613660565b5b6137c78261333b565b9050602081019050919050565b82818337600083830152505050565b60006137f66137f1846137a3565b6136c0565b9050828152602081018484840111156138125761381161379e565b5b61381d8482856137d4565b509392505050565b600082601f83011261383a5761383961355b565b5b813561384a8482602086016137e3565b91505092915050565b60008060006060848603121561386c5761386b613230565b5b600084013567ffffffffffffffff81111561388a57613889613235565b5b61389686828701613770565b935050602084013567ffffffffffffffff8111156138b7576138b6613235565b5b6138c386828701613825565b92505060406138d486828701613546565b9150509250925092565b6000806000606084860312156138f7576138f6613230565b5b60006139058682870161347d565b935050602061391686828701613546565b925050604084013567ffffffffffffffff81111561393757613936613235565b5b61394386828701613825565b9150509250925092565b613956816133a7565b82525050565b6000602082019050613971600083018461394d565b92915050565b60006020828403121561398d5761398c613230565b5b600061399b84828501613546565b91505092915050565b6000602082840312156139ba576139b9613230565b5b60006139c88482850161347d565b91505092915050565b60008060008060008060c087890312156139ee576139ed613230565b5b600087013567ffffffffffffffff811115613a0c57613a0b613235565b5b613a1889828a01613825565b965050602087013567ffffffffffffffff811115613a3957613a38613235565b5b613a4589828a01613825565b955050604087013567ffffffffffffffff811115613a6657613a65613235565b5b613a7289828a01613825565b9450506060613a8389828a016133c8565b9350506080613a9489828a0161347d565b92505060a0613aa589828a0161347d565b9150509295509295509295565b600080600060608486031215613acb57613aca613230565b5b6000613ad98682870161347d565b9350506020613aea86828701613546565b9250506040613afb868287016133c8565b9150509250925092565b600060208284031215613b1b57613b1a613230565b5b600082013567ffffffffffffffff811115613b3957613b38613235565b5b613b4584828501613825565b91505092915050565b613b57816132bf565b8114613b6257600080fd5b50565b600081359050613b7481613b4e565b92915050565b60008060408385031215613b9157613b90613230565b5b6000613b9f8582860161347d565b9250506020613bb085828601613b65565b9150509250929050565b600067ffffffffffffffff821115613bd557613bd4613660565b5b613bde8261333b565b9050602081019050919050565b6000613bfe613bf984613bba565b6136c0565b905082815260208101848484011115613c1a57613c1961379e565b5b613c258482856137d4565b509392505050565b600082601f830112613c4257613c4161355b565b5b8135613c52848260208601613beb565b91505092915050565b60008060008060808587031215613c7557613c74613230565b5b6000613c838782880161347d565b9450506020613c948782880161347d565b9350506040613ca5878288016133c8565b925050606085013567ffffffffffffffff811115613cc657613cc5613235565b5b613cd287828801613c2d565b91505092959194509250565b613ce781613525565b82525050565b6000602082019050613d026000830184613cde565b92915050565b60008060408385031215613d1f57613d1e613230565b5b6000613d2d8582860161347d565b9250506020613d3e8582860161347d565b9150509250929050565b7f4e487b7100000000000000000000000000000000000000000000000000000000600052602260045260246000fd5b60006002820490506001821680613d8f57607f821691505b602082108103613da257613da1613d48565b5b50919050565b7f4552433732313a20617070726f76616c20746f2063757272656e74206f776e6560008201527f7200000000000000000000000000000000000000000000000000000000000000602082015250565b6000613e04602183613300565b9150613e0f82613da8565b604082019050919050565b60006020820190508181036000830152613e3381613df7565b9050919050565b7f4552433732313a20617070726f76652063616c6c6572206973206e6f7420746f60008201527f6b656e206f776e6572206f7220617070726f76656420666f7220616c6c000000602082015250565b6000613e96603d83613300565b9150613ea182613e3a565b604082019050919050565b60006020820190508181036000830152613ec581613e89565b9050919050565b7f526573695342543a204e4f205452414e534645522046524f4d20414c4c4f574560008201527f4400000000000000000000000000000000000000000000000000000000000000602082015250565b6000613f28602183613300565b9150613f3382613ecc565b604082019050919050565b60006020820190508181036000830152613f5781613f1b565b9050919050565b7f526573695342543a20494e56414c494420524f4c450000000000000000000000600082015250565b6000613f94601583613300565b9150613f9f82613f5e565b602082019050919050565b60006020820190508181036000830152613fc381613f87565b9050919050565b7f526573695342543a20456d707479205552490000000000000000000000000000600082015250565b6000614000601283613300565b915061400b82613fca565b602082019050919050565b6000602082019050818103600083015261402f81613ff3565b9050919050565b600082905092915050565b60008190508160005260206000209050919050565b60006020601f8301049050919050565b600082821b905092915050565b6000600883026140a37fffffffffffffffffffffffffffffffffffffffffffffffffffffffffffffffff82614066565b6140ad8683614066565b95508019841693508086168417925050509392505050565b6000819050919050565b60006140ea6140e56140e0846133a7565b6140c5565b6133a7565b9050919050565b6000819050919050565b614104836140cf565b614118614110826140f1565b848454614073565b825550505050565b600090565b61412d614120565b6141388184846140fb565b505050565b5b8181101561415c57614151600082614125565b60018101905061413e565b5050565b601f8211156141a15761417281614041565b61417b84614056565b8101602085101561418a578190505b61419e61419685614056565b83018261413d565b50505b505050565b600082821c905092915050565b60006141c4600019846008026141a6565b1980831691505092915050565b60006141dd83836141b3565b9150826002028217905092915050565b6141f78383614036565b67ffffffffffffffff8111156142105761420f613660565b5b61421a8254613d77565b614225828285614160565b6000601f8311600181146142545760008415614242578287013590505b61424c85826141d1565b8655506142b4565b601f19841661426286614041565b60005b8281101561428a57848901358255600182019150602085019450602081019050614265565b868310156142a757848901356142a3601f8916826141b3565b8355505b6001600288020188555050505b50505050505050565b60006142c98385613300565b93506142d68385846137d4565b6142df8361333b565b840190509392505050565b60006040820190508181036000830152614304818661334c565b905081810360208301526143198184866142bd565b9050949350505050565b7f526573695342543a20494e56414c4944205245534920544f4b454e204144445260008201527f4553530000000000000000000000000000000000000000000000000000000000602082015250565b600061437f602383613300565b915061438a82614323565b604082019050919050565b600060208201905081810360008301526143ae81614372565b9050919050565b7f4e487b7100000000000000000000000000000000000000000000000000000000600052603260045260246000fd5b7f4e487b7100000000000000000000000000000000000000000000000000000000600052601160045260246000fd5b600061441e826133a7565b91507fffffffffffffffffffffffffffffffffffffffffffffffffffffffffffffffff82036144505761444f6143e4565b5b600182019050919050565b60006040820190506144706000830185613cde565b61447d602083018461394d565b9392505050565b7f526573695342543a204e4f5420414e20534254204f574e455200000000000000600082015250565b60006144ba601983613300565b91506144c582614484565b602082019050919050565b600060208201905081810360008301526144e9816144ad565b9050919050565b7f526573695342543a20494e56414c4944204e49434b4e414d4500000000000000600082015250565b6000614526601983613300565b9150614531826144f0565b602082019050919050565b6000602082019050818103600083015261455581614519565b9050919050565b7f4552433732313a20696e76616c696420746f6b656e2049440000000000000000600082015250565b6000614592601883613300565b915061459d8261455c565b602082019050919050565b600060208201905081810360008301526145c181614585565b9050919050565b7f4552433732313a2061646472657373207a65726f206973206e6f74206120766160008201527f6c6964206f776e65720000000000000000000000000000000000000000000000602082015250565b6000614624602983613300565b915061462f826145c8565b604082019050919050565b6000602082019050818103600083015261465381614617565b9050919050565b7f496e697469616c697a61626c653a20636f6e747261637420697320616c72656160008201527f647920696e697469616c697a6564000000000000000000000000000000000000602082015250565b60006146b6602e83613300565b91506146c18261465a565b604082019050919050565b600060208201905081810360008301526146e5816146a9565b9050919050565b7f494e56414c494420524547495354525920414444524553530000000000000000600082015250565b6000614722601883613300565b915061472d826146ec565b602082019050919050565b6000602082019050818103600083015261475181614715565b9050919050565b7f494e56414c4944205245534920544f4b454e2041444452455353000000000000600082015250565b600061478e601a83613300565b915061479982614758565b602082019050919050565b600060208201905081810360008301526147bd81614781565b9050919050565b6147cd826132f5565b67ffffffffffffffff8111156147e6576147e5613660565b5b6147f08254613d77565b6147fb828285614160565b600060209050601f83116001811461482e576000841561481c578287015190505b61482685826141d1565b86555061488e565b601f19841661483c86614041565b60005b828110156148645784890151825560018201915060208501945060208101905061483f565b86831015614881578489015161487d601f8916826141b3565b8355505b6001600288020188555050505b505050505050565b600060608201905081810360008301526148b0818661334c565b905081810360208301526148c4818561334c565b90506148d3604083018461394d565b949350505050565b6000819050919050565b600060ff82169050919050565b600061490d614908614903846148db565b6140c5565b6148e5565b9050919050565b61491d816148f2565b82525050565b60006020820190506149386000830184614914565b92915050565b60006040820190506149536000830185613cde565b614960602083018461343c565b9392505050565b60008151905061497681613b4e565b92915050565b60006020828403121561499257614991613230565b5b60006149a084828501614967565b91505092915050565b6000815190506149b8816133b1565b92915050565b6000602082840312156149d4576149d3613230565b5b60006149e2848285016149a9565b91505092915050565b600081546149f881613d77565b614a028186613300565b94506001821660008114614a1d5760018114614a3357614a66565b60ff198316865281151560200286019350614a66565b614a3c85614041565b60005b83811015614a5e57815481890152600182019150602081019050614a3f565b808801955050505b50505092915050565b60006020820190508181036000830152614a8981846149eb565b905092915050565b7f4f776e61626c653a206e6577206f776e657220697320746865207a65726f206160008201527f6464726573730000000000000000000000000000000000000000000000000000602082015250565b6000614aed602683613300565b9150614af882614a91565b604082019050919050565b60006020820190508181036000830152614b1c81614ae0565b9050919050565b7f4f776e61626c653a2063616c6c6572206973206e6f7420746865206f776e6572600082015250565b6000614b59602083613300565b9150614b6482614b23565b602082019050919050565b60006020820190508181036000830152614b8881614b4c565b9050919050565b7f5265656e7472616e637947756172643a207265656e7472616e742063616c6c00600082015250565b6000614bc5601f83613300565b9150614bd082614b8f565b602082019050919050565b60006020820190508181036000830152614bf481614bb8565b9050919050565b7f526573695342543a2044656661756c7420526f6c6520557269206e6f7420736560008201527f7400000000000000000000000000000000000000000000000000000000000000602082015250565b6000614c57602183613300565b9150614c6282614bfb565b604082019050919050565b60006020820190508181036000830152614c8681614c4a565b9050919050565b7f526573695342543a204f4e4c59204f574e4552204f52205245534920544f4b4560008201527f4e00000000000000000000000000000000000000000000000000000000000000602082015250565b6000614ce9602183613300565b9150614cf482614c8d565b604082019050919050565b60006020820190508181036000830152614d1881614cdc565b9050919050565b7f526573695342543a20494e56414c494420544f20414444524553530000000000600082015250565b6000614d55601b83613300565b9150614d6082614d1f565b602082019050919050565b60006020820190508181036000830152614d8481614d48565b9050919050565b7f526573695342543a205553455220414c52454144592048415320534254000000600082015250565b6000614dc1601d83613300565b9150614dcc82614d8b565b602082019050919050565b60006020820190508181036000830152614df081614db4565b9050919050565b7f526573695342543a20454d505459205552490000000000000000000000000000600082015250565b6000614e2d601283613300565b9150614e3882614df7565b602082019050919050565b60006020820190508181036000830152614e5c81614e20565b9050919050565b7f526573695342543a20494e56414c494420534254205245434549564552000000600082015250565b6000614e99601d83613300565b9150614ea482614e63565b602082019050919050565b60006020820190508181036000830152614ec881614e8c565b9050919050565b7f526573695342543a205573657220686173206e6f205342540000000000000000600082015250565b6000614f05601883613300565b9150614f1082614ecf565b602082019050919050565b60006020820190508181036000830152614f3481614ef8565b9050919050565b7f526573695342543a20496e76616c696420616d6f756e74000000000000000000600082015250565b6000614f71601783613300565b9150614f7c82614f3b565b602082019050919050565b60006020820190508181036000830152614fa081614f64565b9050919050565b6000614fb2826133a7565b9150614fbd836133a7565b9250828201905080821115614fd557614fd46143e4565b5b92915050565b7f496e697469616c697a61626c653a20636f6e7472616374206973206e6f74206960008201527f6e697469616c697a696e67000000000000000000000000000000000000000000602082015250565b6000615037602b83613300565b915061504282614fdb565b604082019050919050565b600060208201905081810360008301526150668161502a565b9050919050565b7f4552433732313a20617070726f766520746f2063616c6c657200000000000000600082015250565b60006150a3601983613300565b91506150ae8261506d565b602082019050919050565b600060208201905081810360008301526150d281615096565b9050919050565b60006150e4826133a7565b91506150ef836133a7565b9250828203905081811115615107576151066143e4565b5b92915050565b600081905092915050565b6000615123826132f5565b61512d818561510d565b935061513d818560208601613311565b80840191505092915050565b60006151558285615118565b91506151618284615118565b91508190509392505050565b7f45524337323155524953746f726167653a2055524920736574206f66206e6f6e60008201527f6578697374656e7420746f6b656e000000000000000000000000000000000000602082015250565b60006151c9602e83613300565b91506151d48261516d565b604082019050919050565b600060208201905081810360008301526151f8816151bc565b9050919050565b7f4552433732313a207472616e7366657220746f206e6f6e20455243373231526560008201527f63656976657220696d706c656d656e7465720000000000000000000000000000602082015250565b600061525b603283613300565b9150615266826151ff565b604082019050919050565b6000602082019050818103600083015261528a8161524e565b9050919050565b7f4e487b7100000000000000000000000000000000000000000000000000000000600052601260045260246000fd5b7f4552433732313a206d696e7420746f20746865207a65726f2061646472657373600082015250565b60006152f6602083613300565b9150615301826152c0565b602082019050919050565b60006020820190508181036000830152615325816152e9565b9050919050565b7f4552433732313a20746f6b656e20616c7265616479206d696e74656400000000600082015250565b6000615362601c83613300565b915061536d8261532c565b602082019050919050565b6000602082019050818103600083015261539181615355565b9050919050565b600081519050919050565b600082825260208201905092915050565b60006153bf82615398565b6153c981856153a3565b93506153d9818560208601613311565b6153e28161333b565b840191505092915050565b6000608082019050615402600083018761343c565b61540f602083018661343c565b61541c604083018561394d565b818103606083015261542e81846153b4565b905095945050505050565b60008151905061544881613266565b92915050565b60006020828403121561546457615463613230565b5b600061547284828501615439565b9150509291505056fea2646970667358221220dff490496ad771973c0dba575136c3c50edd1181c20d2323b33e1069a59dad6b64736f6c63430008120033",
  "devdoc": {
    "author": "Alejo Lovallo",
    "events": {
      "Approval(address,address,uint256)": {
        "details": "Emitted when `owner` enables `approved` to manage the `tokenId` token."
      },
      "ApprovalForAll(address,address,bool)": {
        "details": "Emitted when `owner` enables or disables (`approved`) `operator` to manage all of its assets."
      },
      "Initialized(uint8)": {
        "details": "Triggered when the contract has been initialized or reinitialized."
      },
      "Locked(uint256)": {
        "details": "If a token is minted and the status is locked, this event should be emitted.",
        "params": {
          "tokenId": "The identifier for a token."
        }
      },
      "Transfer(address,address,uint256)": {
        "details": "Emitted when `tokenId` token is transferred from `from` to `to`."
      },
      "Unlocked(uint256)": {
        "details": "If a token is minted and the status is unlocked, this event should be emitted.",
        "params": {
          "tokenId": "The identifier for a token."
        }
      }
    },
    "kind": "dev",
    "methods": {
      "approve(address,uint256)": {
        "details": "See {IERC721-approve}."
      },
      "balanceOf(address)": {
        "details": "See {IERC721-balanceOf}."
      },
      "decreaseResiTokenBalance(address,uint256)": {
        "details": "Decrease resi token balance",
        "params": {
          "_amount": "amoutn to decrease",
          "_to": "user address"
        }
      },
      "getApproved(uint256)": {
        "details": "See {IERC721-getApproved}."
      },
      "increaseResiTokenBalance(address,uint256)": {
        "details": "Increase resi token balance",
        "params": {
          "_amount": "amount to increase",
          "_to": "user address"
        }
      },
      "isApprovedForAll(address,address)": {
        "details": "See {IERC721-isApprovedForAll}."
      },
      "isSBTReceiver(address,bytes32,uint256)": {
        "details": "check if user is able to receive SBT",
        "params": {
          "_account": "receiver address",
          "_role": "acount role granted by ResiToken",
          "_serieId": "serie where sbt belongs to"
        },
        "returns": {
          "_0": "whether is sbt receiver"
        }
      },
      "locked(uint256)": {
        "details": "Know if a sbt is locked",
        "params": {
          "tokenId": "sbt token id"
        },
        "returns": {
          "_0": "is sbt locked"
        }
      },
      "mint(address,bytes32,string)": {
        "details": "Mint SBT to user with specific role and uri.",
        "params": {
          "_role": "role name from Resi registry",
          "_to": "user",
          "_uri": "uri"
        }
      },
      "mintBatchByRole(address[],string,bytes32)": {
        "details": "Mint to more than one user sbts by specific role",
        "params": {
          "_role": "role that all users must have",
          "_to": "array of users",
          "_uri": "token uri for the sbts"
        }
      },
      "mintByResiToken(address,bytes32)": {
        "details": "Mint function performed only by ResiToken contract",
        "params": {
          "_role": "user role",
          "_to": "user to mint sbt"
        }
      },
      "name()": {
        "details": "See {IERC721Metadata-name}."
      },
      "owner()": {
        "details": "Returns the address of the current owner."
      },
      "ownerOf(uint256)": {
        "details": "See {IERC721-ownerOf}."
      },
      "renounceOwnership()": {
        "details": "Leaves the contract without owner. It will not be possible to call `onlyOwner` functions anymore. Can only be called by the current owner. NOTE: Renouncing ownership will leave the contract without an owner, thereby removing any functionality that is only available to the owner."
      },
      "safeTransferFrom(address,address,uint256)": {
        "details": "Safe transfer from is forbidden in SBT contract"
      },
      "safeTransferFrom(address,address,uint256,bytes)": {
        "details": "Safe transfer from is forbidden in SBT contract"
      },
      "setApprovalForAll(address,bool)": {
        "details": "See {IERC721-setApprovalForAll}."
      },
      "setContractURI(string)": {
        "params": {
          "_contractUri": "contractUri"
        }
      },
      "setDefaultRoleUri(bytes32,string)": {
        "details": "Set default Resi Token Role URI",
        "params": {
          "_role": "role name",
          "_uri": "default uri"
        }
      },
      "setNickName(bytes32)": {
        "details": "Set SBT owner nickname/username",
        "params": {
          "_nickname": "sbt username"
        }
      },
      "setRegistry(address)": {
        "details": "Set Resi Registry",
        "params": {
          "_registry": "registry address"
        }
      },
      "supportsInterface(bytes4)": {
        "details": "See {IERC165-supportsInterface}."
      },
      "symbol()": {
        "details": "See {IERC721Metadata-symbol}."
      },
      "tokenURI(uint256)": {
        "custom:experimental": "The following function is override required by Solidity.",
        "details": "Retrieve token uri from id",
        "params": {
          "tokenId": "token id to retrieve uri"
        },
        "returns": {
          "_0": "uri"
        }
      },
      "transferFrom(address,address,uint256)": {
        "details": "Transfer from is forbidden in SBT contract"
      },
      "transferOwnership(address)": {
        "details": "Transfers ownership of the contract to a new account (`newOwner`). Can only be called by the current owner."
      }
    },
    "stateVariables": {
      "RESI_REGISTRY": {
        "details": "Resi Registry contract"
      },
      "RESI_TOKEN": {
        "details": "Resi ERC20 token contract"
      },
      "SERIE_ID": {
        "details": "Serie id"
      },
      "_tokenIdCounter": {
        "details": "Private counter to make internal security checks"
      },
      "contractUri": {
        "details": "Token ContractUri"
      },
      "defaultRoleUris": {
        "details": "role => uri"
      },
      "lockedSBTs": {
        "details": "tokenId => isLocked"
      },
      "resiTokenBalances": {
        "details": "user => resi erc20 balances"
      },
      "upgradeGap": {
        "details": "Leave a gap betweeen inherited contracts variables in orderto be able to add more variables in them later."
      },
      "userNickNames": {
        "details": "user => nickname"
      }
    },
    "title": "Resi SBT Contract",
    "version": 1
  },
  "userdoc": {
    "events": {
      "Locked(uint256)": {
        "notice": "Emitted when the locking status is changed to locked."
      },
      "Unlocked(uint256)": {
        "notice": "Emitted when the locking status is changed to unlocked."
      }
    },
    "kind": "user",
    "methods": {
      "contractURI()": {
        "notice": "openSea integration royalty. See https://docs.opensea.io/docs/contract-level-metadata"
      },
      "setContractURI(string)": {
        "notice": "Modify contractUri for NFT collection"
      }
    },
    "notice": "SBT token linked to a Serie",
    "version": 1
  },
  "storageLayout": {
    "storage": [
      {
        "astId": 211,
        "contract": "contracts/ResiSBT.sol:ResiSBT",
        "label": "_initialized",
        "offset": 0,
        "slot": "0",
        "type": "t_uint8"
      },
      {
        "astId": 214,
        "contract": "contracts/ResiSBT.sol:ResiSBT",
        "label": "_initializing",
        "offset": 1,
        "slot": "0",
        "type": "t_bool"
      },
      {
        "astId": 2029,
        "contract": "contracts/ResiSBT.sol:ResiSBT",
        "label": "__gap",
        "offset": 0,
        "slot": "1",
        "type": "t_array(t_uint256)50_storage"
      },
      {
        "astId": 83,
        "contract": "contracts/ResiSBT.sol:ResiSBT",
        "label": "_owner",
        "offset": 0,
        "slot": "51",
        "type": "t_address"
      },
      {
        "astId": 203,
        "contract": "contracts/ResiSBT.sol:ResiSBT",
        "label": "__gap",
        "offset": 0,
        "slot": "52",
        "type": "t_array(t_uint256)49_storage"
      },
      {
        "astId": 2248,
        "contract": "contracts/ResiSBT.sol:ResiSBT",
        "label": "__gap",
        "offset": 0,
        "slot": "101",
        "type": "t_array(t_uint256)50_storage"
      },
      {
        "astId": 475,
        "contract": "contracts/ResiSBT.sol:ResiSBT",
        "label": "_name",
        "offset": 0,
        "slot": "151",
        "type": "t_string_storage"
      },
      {
        "astId": 477,
        "contract": "contracts/ResiSBT.sol:ResiSBT",
        "label": "_symbol",
        "offset": 0,
        "slot": "152",
        "type": "t_string_storage"
      },
      {
        "astId": 481,
        "contract": "contracts/ResiSBT.sol:ResiSBT",
        "label": "_owners",
        "offset": 0,
        "slot": "153",
        "type": "t_mapping(t_uint256,t_address)"
      },
      {
        "astId": 485,
        "contract": "contracts/ResiSBT.sol:ResiSBT",
        "label": "_balances",
        "offset": 0,
        "slot": "154",
        "type": "t_mapping(t_address,t_uint256)"
      },
      {
        "astId": 489,
        "contract": "contracts/ResiSBT.sol:ResiSBT",
        "label": "_tokenApprovals",
        "offset": 0,
        "slot": "155",
        "type": "t_mapping(t_uint256,t_address)"
      },
      {
        "astId": 495,
        "contract": "contracts/ResiSBT.sol:ResiSBT",
        "label": "_operatorApprovals",
        "offset": 0,
        "slot": "156",
        "type": "t_mapping(t_address,t_mapping(t_address,t_bool))"
      },
      {
        "astId": 1397,
        "contract": "contracts/ResiSBT.sol:ResiSBT",
        "label": "__gap",
        "offset": 0,
        "slot": "157",
        "type": "t_array(t_uint256)44_storage"
      },
      {
        "astId": 1560,
        "contract": "contracts/ResiSBT.sol:ResiSBT",
        "label": "_tokenURIs",
        "offset": 0,
        "slot": "201",
        "type": "t_mapping(t_uint256,t_string_storage)"
      },
      {
        "astId": 1676,
        "contract": "contracts/ResiSBT.sol:ResiSBT",
        "label": "__gap",
        "offset": 0,
        "slot": "202",
        "type": "t_array(t_uint256)49_storage"
      },
      {
        "astId": 387,
        "contract": "contracts/ResiSBT.sol:ResiSBT",
        "label": "_status",
        "offset": 0,
        "slot": "251",
        "type": "t_uint256"
      },
      {
        "astId": 445,
        "contract": "contracts/ResiSBT.sol:ResiSBT",
        "label": "__gap",
        "offset": 0,
        "slot": "252",
        "type": "t_array(t_uint256)49_storage"
      },
      {
        "astId": 3230,
        "contract": "contracts/ResiSBT.sol:ResiSBT",
        "label": "_tokenIdCounter",
        "offset": 0,
        "slot": "301",
        "type": "t_struct(Counter)3132_storage"
      },
      {
        "astId": 3233,
        "contract": "contracts/ResiSBT.sol:ResiSBT",
        "label": "contractUri",
        "offset": 0,
        "slot": "302",
        "type": "t_string_storage"
      },
      {
        "astId": 3236,
        "contract": "contracts/ResiSBT.sol:ResiSBT",
        "label": "SERIE_ID",
        "offset": 0,
        "slot": "303",
        "type": "t_uint256"
      },
      {
        "astId": 3239,
        "contract": "contracts/ResiSBT.sol:ResiSBT",
        "label": "RESI_TOKEN",
        "offset": 0,
        "slot": "304",
        "type": "t_address"
      },
      {
        "astId": 3242,
        "contract": "contracts/ResiSBT.sol:ResiSBT",
        "label": "RESI_REGISTRY",
        "offset": 0,
        "slot": "305",
        "type": "t_address"
      },
      {
        "astId": 3247,
        "contract": "contracts/ResiSBT.sol:ResiSBT",
        "label": "userNickNames",
        "offset": 0,
        "slot": "306",
        "type": "t_mapping(t_address,t_bytes32)"
      },
      {
        "astId": 3252,
        "contract": "contracts/ResiSBT.sol:ResiSBT",
        "label": "resiTokenBalances",
        "offset": 0,
        "slot": "307",
        "type": "t_mapping(t_address,t_uint256)"
      },
      {
        "astId": 3257,
        "contract": "contracts/ResiSBT.sol:ResiSBT",
        "label": "lockedSBTs",
        "offset": 0,
        "slot": "308",
        "type": "t_mapping(t_uint256,t_bool)"
      },
      {
        "astId": 3262,
        "contract": "contracts/ResiSBT.sol:ResiSBT",
        "label": "defaultRoleUris",
        "offset": 0,
        "slot": "309",
        "type": "t_mapping(t_bytes32,t_string_storage)"
      },
      {
        "astId": 4024,
        "contract": "contracts/ResiSBT.sol:ResiSBT",
        "label": "upgradeGap",
        "offset": 0,
        "slot": "310",
        "type": "t_array(t_uint256)20_storage"
      }
    ],
    "types": {
      "t_address": {
        "encoding": "inplace",
        "label": "address",
        "numberOfBytes": "20"
      },
      "t_array(t_uint256)20_storage": {
        "base": "t_uint256",
        "encoding": "inplace",
        "label": "uint256[20]",
        "numberOfBytes": "640"
      },
      "t_array(t_uint256)44_storage": {
        "base": "t_uint256",
        "encoding": "inplace",
        "label": "uint256[44]",
        "numberOfBytes": "1408"
      },
      "t_array(t_uint256)49_storage": {
        "base": "t_uint256",
        "encoding": "inplace",
        "label": "uint256[49]",
        "numberOfBytes": "1568"
      },
      "t_array(t_uint256)50_storage": {
        "base": "t_uint256",
        "encoding": "inplace",
        "label": "uint256[50]",
        "numberOfBytes": "1600"
      },
      "t_bool": {
        "encoding": "inplace",
        "label": "bool",
        "numberOfBytes": "1"
      },
      "t_bytes32": {
        "encoding": "inplace",
        "label": "bytes32",
        "numberOfBytes": "32"
      },
      "t_mapping(t_address,t_bool)": {
        "encoding": "mapping",
        "key": "t_address",
        "label": "mapping(address => bool)",
        "numberOfBytes": "32",
        "value": "t_bool"
      },
      "t_mapping(t_address,t_bytes32)": {
        "encoding": "mapping",
        "key": "t_address",
        "label": "mapping(address => bytes32)",
        "numberOfBytes": "32",
        "value": "t_bytes32"
      },
      "t_mapping(t_address,t_mapping(t_address,t_bool))": {
        "encoding": "mapping",
        "key": "t_address",
        "label": "mapping(address => mapping(address => bool))",
        "numberOfBytes": "32",
        "value": "t_mapping(t_address,t_bool)"
      },
      "t_mapping(t_address,t_uint256)": {
        "encoding": "mapping",
        "key": "t_address",
        "label": "mapping(address => uint256)",
        "numberOfBytes": "32",
        "value": "t_uint256"
      },
      "t_mapping(t_bytes32,t_string_storage)": {
        "encoding": "mapping",
        "key": "t_bytes32",
        "label": "mapping(bytes32 => string)",
        "numberOfBytes": "32",
        "value": "t_string_storage"
      },
      "t_mapping(t_uint256,t_address)": {
        "encoding": "mapping",
        "key": "t_uint256",
        "label": "mapping(uint256 => address)",
        "numberOfBytes": "32",
        "value": "t_address"
      },
      "t_mapping(t_uint256,t_bool)": {
        "encoding": "mapping",
        "key": "t_uint256",
        "label": "mapping(uint256 => bool)",
        "numberOfBytes": "32",
        "value": "t_bool"
      },
      "t_mapping(t_uint256,t_string_storage)": {
        "encoding": "mapping",
        "key": "t_uint256",
        "label": "mapping(uint256 => string)",
        "numberOfBytes": "32",
        "value": "t_string_storage"
      },
      "t_string_storage": {
        "encoding": "bytes",
        "label": "string",
        "numberOfBytes": "32"
      },
      "t_struct(Counter)3132_storage": {
        "encoding": "inplace",
        "label": "struct Counters.Counter",
        "members": [
          {
            "astId": 3131,
            "contract": "contracts/ResiSBT.sol:ResiSBT",
            "label": "_value",
            "offset": 0,
            "slot": "0",
            "type": "t_uint256"
          }
        ],
        "numberOfBytes": "32"
      },
      "t_uint256": {
        "encoding": "inplace",
        "label": "uint256",
        "numberOfBytes": "32"
      },
      "t_uint8": {
        "encoding": "inplace",
        "label": "uint8",
        "numberOfBytes": "1"
      }
    }
  }
}