{
  "address": "0x4a53AAD4fE18CC63DdDf3c2187f27Ce8A69d1E45",
  "abi": [
    {
      "inputs": [
        {
          "internalType": "address",
          "name": "",
          "type": "address"
        }
      ],
      "name": "InvalidAddress",
      "type": "error"
    },
    {
      "inputs": [
        {
          "internalType": "string",
          "name": "message",
          "type": "string"
        }
      ],
      "name": "TransferForbidden",
      "type": "error"
    },
    {
      "inputs": [
        {
          "internalType": "string",
          "name": "message",
          "type": "string"
        }
      ],
      "name": "TransferFromForbidden",
      "type": "error"
    },
    {
      "anonymous": false,
      "inputs": [
        {
          "indexed": true,
          "internalType": "address",
          "name": "owner",
          "type": "address"
        },
        {
          "indexed": true,
          "internalType": "address",
          "name": "spender",
          "type": "address"
        },
        {
          "indexed": false,
          "internalType": "uint256",
          "name": "value",
          "type": "uint256"
        }
      ],
      "name": "Approval",
      "type": "event"
    },
    {
      "anonymous": false,
      "inputs": [
        {
          "indexed": true,
          "internalType": "address",
          "name": "account",
          "type": "address"
        },
        {
          "indexed": false,
          "internalType": "uint256",
          "name": "_amount",
          "type": "uint256"
        },
        {
          "indexed": false,
          "internalType": "uint256",
          "name": "_serieId",
          "type": "uint256"
        }
      ],
      "name": "Exit",
      "type": "event"
    },
    {
      "anonymous": false,
      "inputs": [
        {
          "indexed": false,
          "internalType": "uint8",
          "name": "version",
          "type": "uint8"
        }
      ],
      "name": "Initialized",
      "type": "event"
    },
    {
      "anonymous": false,
      "inputs": [
        {
          "indexed": true,
          "internalType": "address",
          "name": "mentor",
          "type": "address"
        },
        {
          "indexed": false,
          "internalType": "bytes32",
          "name": "project",
          "type": "bytes32"
        }
      ],
      "name": "MentorAdded",
      "type": "event"
    },
    {
      "anonymous": false,
      "inputs": [
        {
          "indexed": false,
          "internalType": "address",
          "name": "account",
          "type": "address"
        }
      ],
      "name": "Paused",
      "type": "event"
    },
    {
      "anonymous": false,
      "inputs": [
        {
          "indexed": true,
          "internalType": "address",
          "name": "projectBuilder",
          "type": "address"
        }
      ],
      "name": "ProjectBuilderAdded",
      "type": "event"
    },
    {
      "anonymous": false,
      "inputs": [
        {
          "indexed": true,
          "internalType": "address",
          "name": "resiBuilder",
          "type": "address"
        }
      ],
      "name": "ResiBuilderAdded",
      "type": "event"
    },
    {
      "anonymous": false,
      "inputs": [
        {
          "indexed": true,
          "internalType": "address",
          "name": "account",
          "type": "address"
        },
        {
          "indexed": false,
          "internalType": "uint256",
          "name": "amount",
          "type": "uint256"
        }
      ],
      "name": "ResiBurnt",
      "type": "event"
    },
    {
      "anonymous": false,
      "inputs": [
        {
          "indexed": true,
          "internalType": "address",
          "name": "account",
          "type": "address"
        },
        {
          "indexed": false,
          "internalType": "uint256",
          "name": "amount",
          "type": "uint256"
        }
      ],
      "name": "ResiMinted",
      "type": "event"
    },
    {
      "anonymous": false,
      "inputs": [
        {
          "indexed": false,
          "internalType": "bytes32",
          "name": "_role",
          "type": "bytes32"
        },
        {
          "indexed": true,
          "internalType": "address",
          "name": "_user",
          "type": "address"
        }
      ],
      "name": "ResiRoleRemoved",
      "type": "event"
    },
    {
      "anonymous": false,
      "inputs": [
        {
          "indexed": true,
          "internalType": "bytes32",
          "name": "role",
          "type": "bytes32"
        },
        {
          "indexed": true,
          "internalType": "bytes32",
          "name": "previousAdminRole",
          "type": "bytes32"
        },
        {
          "indexed": true,
          "internalType": "bytes32",
          "name": "newAdminRole",
          "type": "bytes32"
        }
      ],
      "name": "RoleAdminChanged",
      "type": "event"
    },
    {
      "anonymous": false,
      "inputs": [
        {
          "indexed": true,
          "internalType": "bytes32",
          "name": "role",
          "type": "bytes32"
        },
        {
          "indexed": true,
          "internalType": "address",
          "name": "account",
          "type": "address"
        },
        {
          "indexed": true,
          "internalType": "address",
          "name": "sender",
          "type": "address"
        }
      ],
      "name": "RoleGranted",
      "type": "event"
    },
    {
      "anonymous": false,
      "inputs": [
        {
          "indexed": true,
          "internalType": "bytes32",
          "name": "role",
          "type": "bytes32"
        },
        {
          "indexed": true,
          "internalType": "address",
          "name": "account",
          "type": "address"
        },
        {
          "indexed": true,
          "internalType": "address",
          "name": "sender",
          "type": "address"
        }
      ],
      "name": "RoleRevoked",
      "type": "event"
    },
    {
      "anonymous": false,
      "inputs": [
        {
          "indexed": true,
          "internalType": "address",
          "name": "treasury",
          "type": "address"
        },
        {
          "indexed": true,
          "internalType": "address",
          "name": "registry",
          "type": "address"
        }
      ],
      "name": "TokenInitialized",
      "type": "event"
    },
    {
      "anonymous": false,
      "inputs": [
        {
          "indexed": true,
          "internalType": "address",
          "name": "from",
          "type": "address"
        },
        {
          "indexed": true,
          "internalType": "address",
          "name": "to",
          "type": "address"
        },
        {
          "indexed": false,
          "internalType": "uint256",
          "name": "value",
          "type": "uint256"
        }
      ],
      "name": "Transfer",
      "type": "event"
    },
    {
      "anonymous": false,
      "inputs": [
        {
          "indexed": false,
          "internalType": "address",
          "name": "account",
          "type": "address"
        }
      ],
      "name": "Unpaused",
      "type": "event"
    },
    {
      "inputs": [],
      "name": "ADMIN_ROLE",
      "outputs": [
        {
          "internalType": "bytes32",
          "name": "",
          "type": "bytes32"
        }
      ],
      "stateMutability": "view",
      "type": "function"
    },
    {
      "inputs": [],
      "name": "DEFAULT_ADMIN_ROLE",
      "outputs": [
        {
          "internalType": "bytes32",
          "name": "",
          "type": "bytes32"
        }
      ],
      "stateMutability": "view",
      "type": "function"
    },
    {
      "inputs": [],
      "name": "MENTOR_ROLE",
      "outputs": [
        {
          "internalType": "bytes32",
          "name": "",
          "type": "bytes32"
        }
      ],
      "stateMutability": "view",
      "type": "function"
    },
    {
      "inputs": [],
      "name": "PROJECT_BUILDER_ROLE",
      "outputs": [
        {
          "internalType": "bytes32",
          "name": "",
          "type": "bytes32"
        }
      ],
      "stateMutability": "view",
      "type": "function"
    },
    {
      "inputs": [],
      "name": "RESI_BUILDER_ROLE",
      "outputs": [
        {
          "internalType": "bytes32",
          "name": "",
          "type": "bytes32"
        }
      ],
      "stateMutability": "view",
      "type": "function"
    },
    {
      "inputs": [],
      "name": "RESI_REGISTRY",
      "outputs": [
        {
          "internalType": "address",
          "name": "",
          "type": "address"
        }
      ],
      "stateMutability": "view",
      "type": "function"
    },
    {
      "inputs": [],
      "name": "TREASURY_ROLE",
      "outputs": [
        {
          "internalType": "bytes32",
          "name": "",
          "type": "bytes32"
        }
      ],
      "stateMutability": "view",
      "type": "function"
    },
    {
      "inputs": [
        {
          "internalType": "address",
          "name": "_mentor",
          "type": "address"
        },
        {
          "internalType": "uint256",
          "name": "_serieId",
          "type": "uint256"
        },
        {
          "internalType": "bytes32",
          "name": "_project",
          "type": "bytes32"
        }
      ],
      "name": "addMentor",
      "outputs": [],
      "stateMutability": "nonpayable",
      "type": "function"
    },
    {
      "inputs": [
        {
          "internalType": "address",
          "name": "_builder",
          "type": "address"
        },
        {
          "internalType": "uint256",
          "name": "_serieId",
          "type": "uint256"
        },
        {
          "internalType": "bytes32",
          "name": "_project",
          "type": "bytes32"
        }
      ],
      "name": "addProjectBuilder",
      "outputs": [],
      "stateMutability": "nonpayable",
      "type": "function"
    },
    {
      "inputs": [
        {
          "internalType": "address",
          "name": "_builder",
          "type": "address"
        }
      ],
      "name": "addResiBuilder",
      "outputs": [],
      "stateMutability": "nonpayable",
      "type": "function"
    },
    {
      "inputs": [
        {
          "internalType": "bytes32",
          "name": "_role",
          "type": "bytes32"
        },
        {
          "internalType": "address[]",
          "name": "_addresses",
          "type": "address[]"
        }
      ],
      "name": "addRolesBatch",
      "outputs": [],
      "stateMutability": "nonpayable",
      "type": "function"
    },
    {
      "inputs": [
        {
          "internalType": "address",
          "name": "owner",
          "type": "address"
        },
        {
          "internalType": "address",
          "name": "spender",
          "type": "address"
        }
      ],
      "name": "allowance",
      "outputs": [
        {
          "internalType": "uint256",
          "name": "",
          "type": "uint256"
        }
      ],
      "stateMutability": "view",
      "type": "function"
    },
    {
      "inputs": [
        {
          "internalType": "address",
          "name": "spender",
          "type": "address"
        },
        {
          "internalType": "uint256",
          "name": "amount",
          "type": "uint256"
        }
      ],
      "name": "approve",
      "outputs": [
        {
          "internalType": "bool",
          "name": "",
          "type": "bool"
        }
      ],
      "stateMutability": "nonpayable",
      "type": "function"
    },
    {
      "inputs": [
        {
          "internalType": "address",
          "name": "_account",
          "type": "address"
        },
        {
          "internalType": "bytes32",
          "name": "_role",
          "type": "bytes32"
        },
        {
          "internalType": "uint256",
          "name": "_amount",
          "type": "uint256"
        }
      ],
      "name": "award",
      "outputs": [],
      "stateMutability": "nonpayable",
      "type": "function"
    },
    {
      "inputs": [
        {
          "internalType": "address",
          "name": "account",
          "type": "address"
        }
      ],
      "name": "balanceOf",
      "outputs": [
        {
          "internalType": "uint256",
          "name": "",
          "type": "uint256"
        }
      ],
      "stateMutability": "view",
      "type": "function"
    },
    {
      "inputs": [
        {
          "internalType": "uint256",
          "name": "amount",
          "type": "uint256"
        }
      ],
      "name": "burn",
      "outputs": [],
      "stateMutability": "nonpayable",
      "type": "function"
    },
    {
      "inputs": [
        {
          "internalType": "uint256",
          "name": "_amount",
          "type": "uint256"
        },
        {
          "internalType": "uint256",
          "name": "_serieId",
          "type": "uint256"
        }
      ],
      "name": "burn",
      "outputs": [],
      "stateMutability": "nonpayable",
      "type": "function"
    },
    {
      "inputs": [
        {
          "internalType": "address",
          "name": "account",
          "type": "address"
        },
        {
          "internalType": "uint256",
          "name": "amount",
          "type": "uint256"
        }
      ],
      "name": "burnFrom",
      "outputs": [],
      "stateMutability": "nonpayable",
      "type": "function"
    },
    {
      "inputs": [],
      "name": "decimals",
      "outputs": [
        {
          "internalType": "uint8",
          "name": "",
          "type": "uint8"
        }
      ],
      "stateMutability": "view",
      "type": "function"
    },
    {
      "inputs": [
        {
          "internalType": "address",
          "name": "spender",
          "type": "address"
        },
        {
          "internalType": "uint256",
          "name": "subtractedValue",
          "type": "uint256"
        }
      ],
      "name": "decreaseAllowance",
      "outputs": [
        {
          "internalType": "bool",
          "name": "",
          "type": "bool"
        }
      ],
      "stateMutability": "nonpayable",
      "type": "function"
    },
    {
      "inputs": [
        {
          "internalType": "uint256",
          "name": "_serieId",
          "type": "uint256"
        },
        {
          "internalType": "bytes32",
          "name": "_role",
          "type": "bytes32"
        }
      ],
      "name": "exit",
      "outputs": [],
      "stateMutability": "nonpayable",
      "type": "function"
    },
    {
      "inputs": [
        {
          "internalType": "bytes32",
          "name": "role",
          "type": "bytes32"
        }
      ],
      "name": "getRoleAdmin",
      "outputs": [
        {
          "internalType": "bytes32",
          "name": "",
          "type": "bytes32"
        }
      ],
      "stateMutability": "view",
      "type": "function"
    },
    {
      "inputs": [],
      "name": "getRoleCount",
      "outputs": [
        {
          "internalType": "uint256",
          "name": "",
          "type": "uint256"
        }
      ],
      "stateMutability": "view",
      "type": "function"
    },
    {
      "inputs": [
        {
          "internalType": "bytes32",
          "name": "role",
          "type": "bytes32"
        },
        {
          "internalType": "uint256",
          "name": "index",
          "type": "uint256"
        }
      ],
      "name": "getRoleMember",
      "outputs": [
        {
          "internalType": "address",
          "name": "",
          "type": "address"
        }
      ],
      "stateMutability": "view",
      "type": "function"
    },
    {
      "inputs": [
        {
          "internalType": "bytes32",
          "name": "role",
          "type": "bytes32"
        }
      ],
      "name": "getRoleMemberCount",
      "outputs": [
        {
          "internalType": "uint256",
          "name": "",
          "type": "uint256"
        }
      ],
      "stateMutability": "view",
      "type": "function"
    },
    {
      "inputs": [
        {
          "internalType": "bytes32",
          "name": "role",
          "type": "bytes32"
        },
        {
          "internalType": "address",
          "name": "account",
          "type": "address"
        }
      ],
      "name": "grantRole",
      "outputs": [],
      "stateMutability": "nonpayable",
      "type": "function"
    },
    {
      "inputs": [
        {
          "internalType": "bytes32",
          "name": "role",
          "type": "bytes32"
        },
        {
          "internalType": "address",
          "name": "account",
          "type": "address"
        }
      ],
      "name": "hasRole",
      "outputs": [
        {
          "internalType": "bool",
          "name": "",
          "type": "bool"
        }
      ],
      "stateMutability": "view",
      "type": "function"
    },
    {
      "inputs": [
        {
          "internalType": "address",
          "name": "spender",
          "type": "address"
        },
        {
          "internalType": "uint256",
          "name": "addedValue",
          "type": "uint256"
        }
      ],
      "name": "increaseAllowance",
      "outputs": [
        {
          "internalType": "bool",
          "name": "",
          "type": "bool"
        }
      ],
      "stateMutability": "nonpayable",
      "type": "function"
    },
    {
      "inputs": [
        {
          "internalType": "address",
          "name": "_treasury",
          "type": "address"
        },
        {
          "internalType": "address",
          "name": "_registry",
          "type": "address"
        }
      ],
      "name": "initialize",
      "outputs": [],
      "stateMutability": "nonpayable",
      "type": "function"
    },
    {
      "inputs": [],
      "name": "name",
      "outputs": [
        {
          "internalType": "string",
          "name": "",
          "type": "string"
        }
      ],
      "stateMutability": "view",
      "type": "function"
    },
    {
      "inputs": [],
      "name": "paused",
      "outputs": [
        {
          "internalType": "bool",
          "name": "",
          "type": "bool"
        }
      ],
      "stateMutability": "view",
      "type": "function"
    },
    {
      "inputs": [
        {
          "internalType": "bytes32",
          "name": "_role",
          "type": "bytes32"
        },
        {
          "internalType": "address",
          "name": "_user",
          "type": "address"
        }
      ],
      "name": "removeUserRole",
      "outputs": [],
      "stateMutability": "nonpayable",
      "type": "function"
    },
    {
      "inputs": [
        {
          "internalType": "bytes32",
          "name": "role",
          "type": "bytes32"
        },
        {
          "internalType": "address",
          "name": "account",
          "type": "address"
        }
      ],
      "name": "renounceRole",
      "outputs": [],
      "stateMutability": "nonpayable",
      "type": "function"
    },
    {
      "inputs": [
        {
          "internalType": "bytes32",
          "name": "role",
          "type": "bytes32"
        },
        {
          "internalType": "address",
          "name": "account",
          "type": "address"
        }
      ],
      "name": "revokeRole",
      "outputs": [],
      "stateMutability": "nonpayable",
      "type": "function"
    },
    {
      "inputs": [
        {
          "internalType": "bytes4",
          "name": "interfaceId",
          "type": "bytes4"
        }
      ],
      "name": "supportsInterface",
      "outputs": [
        {
          "internalType": "bool",
          "name": "",
          "type": "bool"
        }
      ],
      "stateMutability": "view",
      "type": "function"
    },
    {
      "inputs": [],
      "name": "symbol",
      "outputs": [
        {
          "internalType": "string",
          "name": "",
          "type": "string"
        }
      ],
      "stateMutability": "view",
      "type": "function"
    },
    {
      "inputs": [],
      "name": "totalSupply",
      "outputs": [
        {
          "internalType": "uint256",
          "name": "",
          "type": "uint256"
        }
      ],
      "stateMutability": "view",
      "type": "function"
    },
    {
      "inputs": [
        {
          "internalType": "address",
          "name": "",
          "type": "address"
        },
        {
          "internalType": "uint256",
          "name": "",
          "type": "uint256"
        }
      ],
      "name": "transfer",
      "outputs": [
        {
          "internalType": "bool",
          "name": "",
          "type": "bool"
        }
      ],
      "stateMutability": "pure",
      "type": "function"
    },
    {
      "inputs": [
        {
          "internalType": "address",
          "name": "",
          "type": "address"
        },
        {
          "internalType": "address",
          "name": "",
          "type": "address"
        },
        {
          "internalType": "uint256",
          "name": "",
          "type": "uint256"
        }
      ],
      "name": "transferFrom",
      "outputs": [
        {
          "internalType": "bool",
          "name": "",
          "type": "bool"
        }
      ],
      "stateMutability": "pure",
      "type": "function"
    }
  ],
  "transactionHash": "0x24ba8bd99d860e37305a63e9e3ac612978f55aa02a0734978088b63b86e5643d",
  "args": [],
  "numDeployments": 1,
  "solcInputHash": "072c24d1c97d8046f61296ee3e4bc405",
  "bytecode": "0x608060405234801561001057600080fd5b50615a8b80620000216000396000f3fe608060405234801561001057600080fd5b506004361061023d5760003560e01c806379cc67901161013b578063b390c0ab116100b8578063d11a57ec1161007c578063d11a57ec146106ee578063d547741f1461070c578063dd62ed3e14610728578063f0771d9d14610758578063f81eeb6e146107745761023d565b8063b390c0ab1461064c578063bde5590714610668578063c4dde20d14610686578063ca15c873146106a2578063cc4afdc0146106d25761023d565b806391d14854116100ff57806391d148541461058057806395d89b41146105b0578063a217fddf146105ce578063a457c2d7146105ec578063a9059cbb1461061c5761023d565b806379cc6790146104dc5780637b9c8169146104f857806383d33319146105165780638536d834146105345780639010d07c146105505761023d565b806336568abe116101c9578063485cc9551161018d578063485cc955146104365780635c975abb146104525780636ce158dd1461047057806370a082311461048e57806375b238fc146104be5761023d565b806336568abe1461039657806338bcf016146103b257806339509351146103ce5780633eaee76f146103fe57806342966c681461041a5761023d565b806323b872dd1161021057806323b872dd146102de578063248a9ca31461030e57806329e534d81461033e5780632f2ff15d1461035c578063313ce567146103785761023d565b806301ffc9a71461024257806306fdde0314610272578063095ea7b31461029057806318160ddd146102c0575b600080fd5b61025c60048036038101906102579190613d27565b610790565b6040516102699190613d6f565b60405180910390f35b61027a61080a565b6040516102879190613e1a565b60405180910390f35b6102aa60048036038101906102a59190613ed0565b61089c565b6040516102b79190613d6f565b60405180910390f35b6102c86108bf565b6040516102d59190613f1f565b60405180910390f35b6102f860048036038101906102f39190613f3a565b6108c9565b6040516103059190613d6f565b60405180910390f35b61032860048036038101906103239190613fc3565b610906565b6040516103359190613fff565b60405180910390f35b610346610926565b6040516103539190613fff565b60405180910390f35b6103766004803603810190610371919061401a565b61094a565b005b61038061096b565b60405161038d9190614076565b60405180910390f35b6103b060048036038101906103ab919061401a565b610974565b005b6103cc60048036038101906103c7919061401a565b6109f7565b005b6103e860048036038101906103e39190613ed0565b610beb565b6040516103f59190613d6f565b60405180910390f35b61041860048036038101906104139190614091565b610c22565b005b610434600480360381019061042f91906140d1565b6110a0565b005b610450600480360381019061044b91906140fe565b6110b4565b005b61045a611607565b6040516104679190613d6f565b60405180910390f35b61047861161f565b6040516104859190613fff565b60405180910390f35b6104a860048036038101906104a3919061413e565b611643565b6040516104b59190613f1f565b60405180910390f35b6104c661168c565b6040516104d39190613fff565b60405180910390f35b6104f660048036038101906104f19190613ed0565b6116b0565b005b6105006116d0565b60405161050d919061417a565b60405180910390f35b61051e6116f7565b60405161052b9190613f1f565b60405180910390f35b61054e60048036038101906105499190614195565b611709565b005b61056a600480360381019061056591906141e8565b611bb1565b604051610577919061417a565b60405180910390f35b61059a6004803603810190610595919061401a565b611be0565b6040516105a79190613d6f565b60405180910390f35b6105b8611c4b565b6040516105c59190613e1a565b60405180910390f35b6105d6611cdd565b6040516105e39190613fff565b60405180910390f35b61060660048036038101906106019190613ed0565b611ce4565b6040516106139190613d6f565b60405180910390f35b61063660048036038101906106319190613ed0565b611d5b565b6040516106439190613d6f565b60405180910390f35b61066660048036038101906106619190614228565b611d98565b005b610670611f32565b60405161067d9190613fff565b60405180910390f35b6106a0600480360381019061069b9190614268565b611f56565b005b6106bc60048036038101906106b79190613fc3565b612095565b6040516106c99190613f1f565b60405180910390f35b6106ec60048036038101906106e79190614268565b6120b9565b005b6106f6612203565b6040516107039190613fff565b60405180910390f35b6107266004803603810190610721919061401a565b612227565b005b610742600480360381019061073d91906140fe565b612248565b60405161074f9190613f1f565b60405180910390f35b610772600480360381019061076d919061413e565b6122cf565b005b61078e60048036038101906107899190614403565b612402565b005b60007f5a05180f000000000000000000000000000000000000000000000000000000007bffffffffffffffffffffffffffffffffffffffffffffffffffffffff1916827bffffffffffffffffffffffffffffffffffffffffffffffffffffffff19161480610803575061080282612443565b5b9050919050565b606060cc80546108199061448e565b80601f01602080910402602001604051908101604052809291908181526020018280546108459061448e565b80156108925780601f1061086757610100808354040283529160200191610892565b820191906000526020600020905b81548152906001019060200180831161087557829003601f168201915b5050505050905090565b6000806108a76124bd565b90506108b48185856124c5565b600191505092915050565b600060cb54905090565b60006040517fb77a62390000000000000000000000000000000000000000000000000000000081526004016108fd90614531565b60405180910390fd5b600060656000838152602001908152602001600020600101549050919050565b7fe4bd89038d9c0807976fffd21940a131656c4bbb6d2ed823353b579168c0d4ef81565b61095382610906565b61095c8161268e565b61096683836126a2565b505050565b60006012905090565b61097c6124bd565b73ffffffffffffffffffffffffffffffffffffffff168173ffffffffffffffffffffffffffffffffffffffff16146109e9576040517f08c379a00000000000000000000000000000000000000000000000000000000081526004016109e0906145c3565b60405180910390fd5b6109f382826126d6565b5050565b806040518060400160405280601f81526020017f52657369546f6b656e3a20494e56414c49442055534552204144445245535300815250600073ffffffffffffffffffffffffffffffffffffffff168273ffffffffffffffffffffffffffffffffffffffff1614158190610aa1576040517f08c379a0000000000000000000000000000000000000000000000000000000008152600401610a989190613e1a565b60405180910390fd5b50837fbc89434ca2514fee8e4f1c01e12ea3f98386861885da7e20823bb874ad54a49d811480610af057507fe4bd89038d9c0807976fffd21940a131656c4bbb6d2ed823353b579168c0d4ef81145b80610b1a57507f699ac1e5cfdbc8c928b2c79f6b19694117e156140dadd5181e71e79b5e80b32081145b610b59576040517f08c379a0000000000000000000000000000000000000000000000000000000008152600401610b509061462f565b60405180910390fd5b7fa49807205ce4d355092ef5a8a18f56e8913cf4a201fbe287825b095693c21775610b838161268e565b610b8b61270a565b610b9586866126d6565b8473ffffffffffffffffffffffffffffffffffffffff167f9078ef423f25fc1620bc801975005baea187d61a87d2dc9e56e8d8d84e39860c87604051610bdb9190613fff565b60405180910390a2505050505050565b600080610bf66124bd565b9050610c17818585610c088589612248565b610c12919061467e565b6124c5565b600191505092915050565b610c2a612754565b610c33816127a5565b60006101c360009054906101000a900473ffffffffffffffffffffffffffffffffffffffff1673ffffffffffffffffffffffffffffffffffffffff16632ae202c1846040518263ffffffff1660e01b8152600401610c919190613f1f565b602060405180830381865afa158015610cae573d6000803e3d6000fd5b505050506040513d601f19601f82011682018060405250810190610cd291906146c7565b9050600073ffffffffffffffffffffffffffffffffffffffff168173ffffffffffffffffffffffffffffffffffffffff1603610d43576040517f08c379a0000000000000000000000000000000000000000000000000000000008152600401610d3a90614740565b60405180910390fd5b60018173ffffffffffffffffffffffffffffffffffffffff166370a08231610d696124bd565b6040518263ffffffff1660e01b8152600401610d85919061417a565b602060405180830381865afa158015610da2573d6000803e3d6000fd5b505050506040513d601f19601f82011682018060405250810190610dc69190614775565b14610e06576040517f08c379a0000000000000000000000000000000000000000000000000000000008152600401610dfd906147ee565b60405180910390fd5b60003073ffffffffffffffffffffffffffffffffffffffff166370a08231610e2c6124bd565b6040518263ffffffff1660e01b8152600401610e48919061417a565b602060405180830381865afa158015610e65573d6000803e3d6000fd5b505050506040513d601f19601f82011682018060405250810190610e899190614775565b90506101c360009054906101000a900473ffffffffffffffffffffffffffffffffffffffff1673ffffffffffffffffffffffffffffffffffffffff166391f871168583610ed46124bd565b6040518463ffffffff1660e01b8152600401610ef29392919061480e565b600060405180830381600087803b158015610f0c57600080fd5b505af1158015610f20573d6000803e3d6000fd5b505050508173ffffffffffffffffffffffffffffffffffffffff1663b4bc6cac610f486124bd565b836040518363ffffffff1660e01b8152600401610f66929190614845565b600060405180830381600087803b158015610f8057600080fd5b505af1158015610f94573d6000803e3d6000fd5b5050505061103b610fa36124bd565b6101c360009054906101000a900473ffffffffffffffffffffffffffffffffffffffff1673ffffffffffffffffffffffffffffffffffffffff1663a9c3381b6040518163ffffffff1660e01b8152600401602060405180830381865afa158015611011573d6000803e3d6000fd5b505050506040513d601f19601f8201168201806040525081019061103591906146c7565b836128d9565b6110436124bd565b73ffffffffffffffffffffffffffffffffffffffff167fbe0b6e5b3195df91f2e6b2b20501f84b085714f9e38073f499073c8305651009828660405161108a92919061486e565b60405180910390a2505061109c612b52565b5050565b6110b16110ab6124bd565b82612b5d565b50565b60008060019054906101000a900460ff161590508080156110e55750600160008054906101000a900460ff1660ff16105b8061111257506110f430612d2c565b1580156111115750600160008054906101000a900460ff1660ff16145b5b611151576040517f08c379a000000000000000000000000000000000000000000000000000000000815260040161114890614909565b60405180910390fd5b60016000806101000a81548160ff021916908360ff160217905550801561118e576001600060016101000a81548160ff0219169083151502179055505b600073ffffffffffffffffffffffffffffffffffffffff168373ffffffffffffffffffffffffffffffffffffffff16036111fd576040517f08c379a00000000000000000000000000000000000000000000000000000000081526004016111f490614975565b60405180910390fd5b600073ffffffffffffffffffffffffffffffffffffffff168273ffffffffffffffffffffffffffffffffffffffff160361126c576040517f08c379a0000000000000000000000000000000000000000000000000000000008152600401611263906149e1565b60405180910390fd5b611274612d4f565b61127c612da0565b611284612df1565b6112f86040518060400160405280600981526020017f52657369546f6b656e00000000000000000000000000000000000000000000008152506040518060400160405280600481526020017f5245534900000000000000000000000000000000000000000000000000000000815250612e4b565b611300612ebe565b611308612f0f565b61133d7fbc89434ca2514fee8e4f1c01e12ea3f98386861885da7e20823bb874ad54a49d6101c4612f6090919063ffffffff16565b506113737fe4bd89038d9c0807976fffd21940a131656c4bbb6d2ed823353b579168c0d4ef6101c4612f6090919063ffffffff16565b506113a97f699ac1e5cfdbc8c928b2c79f6b19694117e156140dadd5181e71e79b5e80b3206101c4612f6090919063ffffffff16565b506113db7fa49807205ce4d355092ef5a8a18f56e8913cf4a201fbe287825b095693c217756113d66124bd565b6126a2565b6114057fe1dcbdb91df27212a29bc27177c840cf2f819ecf2187432e1fac86c2dd5dfca9846126a2565b61142f7fa49807205ce4d355092ef5a8a18f56e8913cf4a201fbe287825b095693c2177580612f77565b6114797fe1dcbdb91df27212a29bc27177c840cf2f819ecf2187432e1fac86c2dd5dfca97fa49807205ce4d355092ef5a8a18f56e8913cf4a201fbe287825b095693c21775612f77565b6114c37fe4bd89038d9c0807976fffd21940a131656c4bbb6d2ed823353b579168c0d4ef7fa49807205ce4d355092ef5a8a18f56e8913cf4a201fbe287825b095693c21775612f77565b61150d7f699ac1e5cfdbc8c928b2c79f6b19694117e156140dadd5181e71e79b5e80b3207fa49807205ce4d355092ef5a8a18f56e8913cf4a201fbe287825b095693c21775612f77565b816101c360006101000a81548173ffffffffffffffffffffffffffffffffffffffff021916908373ffffffffffffffffffffffffffffffffffffffff1602179055508173ffffffffffffffffffffffffffffffffffffffff168373ffffffffffffffffffffffffffffffffffffffff167f0e474375f00439aaa979b958831081dcafa64837b226c4e5224cef141618df2460405160405180910390a380156116025760008060016101000a81548160ff0219169083151502179055507f7f26b83ff96e1f2b6a682f133852f6798a09c465da95921460cefb384740249860016040516115f99190614a46565b60405180910390a15b505050565b600061012d60009054906101000a900460ff16905090565b7f699ac1e5cfdbc8c928b2c79f6b19694117e156140dadd5181e71e79b5e80b32081565b600060c960008373ffffffffffffffffffffffffffffffffffffffff1673ffffffffffffffffffffffffffffffffffffffff168152602001908152602001600020549050919050565b7fa49807205ce4d355092ef5a8a18f56e8913cf4a201fbe287825b095693c2177581565b6116c2826116bc6124bd565b83612fd3565b6116cc8282612b5d565b5050565b6101c360009054906101000a900473ffffffffffffffffffffffffffffffffffffffff1681565b60006117046101c461305f565b905090565b826040518060400160405280602081526020017f52657369546f6b656e3a20494e56414c49442052454345495645522041444452815250600073ffffffffffffffffffffffffffffffffffffffff168273ffffffffffffffffffffffffffffffffffffffff16141581906117b3576040517f08c379a00000000000000000000000000000000000000000000000000000000081526004016117aa9190613e1a565b60405180910390fd5b507fa49807205ce4d355092ef5a8a18f56e8913cf4a201fbe287825b095693c217756117de8161268e565b6117e6612754565b6117f08587611be0565b61182f576040517f08c379a000000000000000000000000000000000000000000000000000000000815260040161182690614ad3565b60405180910390fd5b60006101c360009054906101000a900473ffffffffffffffffffffffffffffffffffffffff1673ffffffffffffffffffffffffffffffffffffffff1663dafda8dd6040518163ffffffff1660e01b8152600401602060405180830381865afa15801561189f573d6000803e3d6000fd5b505050506040513d601f19601f820116820180604052508101906118c391906146c7565b905060008173ffffffffffffffffffffffffffffffffffffffff166370a08231896040518263ffffffff1660e01b8152600401611900919061417a565b602060405180830381865afa15801561191d573d6000803e3d6000fd5b505050506040513d601f19601f820116820180604052508101906119419190614775565b036119b4578073ffffffffffffffffffffffffffffffffffffffff166332443e5f88886040518363ffffffff1660e01b8152600401611981929190614af3565b600060405180830381600087803b15801561199b57600080fd5b505af11580156119af573d6000803e3d6000fd5b505050505b6119be8786613074565b60006101c360009054906101000a900473ffffffffffffffffffffffffffffffffffffffff1673ffffffffffffffffffffffffffffffffffffffff1663be71e4266040518163ffffffff1660e01b8152600401602060405180830381865afa158015611a2e573d6000803e3d6000fd5b505050506040513d601f19601f82011682018060405250810190611a529190614775565b90508173ffffffffffffffffffffffffffffffffffffffff16634a8a4c2889886040518363ffffffff1660e01b8152600401611a8f929190614845565b600060405180830381600087803b158015611aa957600080fd5b505af1158015611abd573d6000803e3d6000fd5b505050506101c360009054906101000a900473ffffffffffffffffffffffffffffffffffffffff1673ffffffffffffffffffffffffffffffffffffffff1663e7f7dbef82886040518363ffffffff1660e01b8152600401611b1f92919061486e565b600060405180830381600087803b158015611b3957600080fd5b505af1158015611b4d573d6000803e3d6000fd5b505050508773ffffffffffffffffffffffffffffffffffffffff167f82eec8c85b596ee9b1fefe3a9e6cb9b2155e5cfc629bd7c2dfefa71ea1c0b09787604051611b979190613f1f565b60405180910390a25050611ba9612b52565b505050505050565b6000611bd882609760008681526020019081526020016000206131cb90919063ffffffff16565b905092915050565b60006065600084815260200190815260200160002060000160008373ffffffffffffffffffffffffffffffffffffffff1673ffffffffffffffffffffffffffffffffffffffff16815260200190815260200160002060009054906101000a900460ff16905092915050565b606060cd8054611c5a9061448e565b80601f0160208091040260200160405190810160405280929190818152602001828054611c869061448e565b8015611cd35780601f10611ca857610100808354040283529160200191611cd3565b820191906000526020600020905b815481529060010190602001808311611cb657829003601f168201915b5050505050905090565b6000801b81565b600080611cef6124bd565b90506000611cfd8286612248565b905083811015611d42576040517f08c379a0000000000000000000000000000000000000000000000000000000008152600401611d3990614b8e565b60405180910390fd5b611d4f82868684036124c5565b60019250505092915050565b60006040517fa7447199000000000000000000000000000000000000000000000000000000008152600401611d8f90614bfa565b60405180910390fd5b611dc97fe1dcbdb91df27212a29bc27177c840cf2f819ecf2187432e1fac86c2dd5dfca9611dc46124bd565b611be0565b80611e015750611e007fa49807205ce4d355092ef5a8a18f56e8913cf4a201fbe287825b095693c21775611dfb6124bd565b611be0565b5b611e40576040517f08c379a0000000000000000000000000000000000000000000000000000000008152600401611e379061462f565b60405180910390fd5b611e49826110a0565b6101c360009054906101000a900473ffffffffffffffffffffffffffffffffffffffff1673ffffffffffffffffffffffffffffffffffffffff166350733a3982846040518363ffffffff1660e01b8152600401611ea792919061486e565b600060405180830381600087803b158015611ec157600080fd5b505af1158015611ed5573d6000803e3d6000fd5b50505050611ee16124bd565b73ffffffffffffffffffffffffffffffffffffffff167fcd77a98f47b9043b6dcb101dd1dc2a1291c2927d20ccc70399c3bc1b579522aa83604051611f269190613f1f565b60405180910390a25050565b7fbc89434ca2514fee8e4f1c01e12ea3f98386861885da7e20823bb874ad54a49d81565b82604051806060016040528060228152602001615a3460229139600073ffffffffffffffffffffffffffffffffffffffff168273ffffffffffffffffffffffffffffffffffffffff1614158190611fe3576040517f08c379a0000000000000000000000000000000000000000000000000000000008152600401611fda9190613e1a565b60405180910390fd5b507fa49807205ce4d355092ef5a8a18f56e8913cf4a201fbe287825b095693c2177561200e8161268e565b61201661270a565b61202085856131e5565b61204a7fe4bd89038d9c0807976fffd21940a131656c4bbb6d2ed823353b579168c0d4ef876126a2565b8573ffffffffffffffffffffffffffffffffffffffff167f84e4291c73be57d74c52194b30c8ef1cd3f9fad6ee09e9f92a1e10fe132ad87360405160405180910390a2505050505050565b60006120b2609760008481526020019081526020016000206132f2565b9050919050565b82604051806060016040528060218152602001615a1360219139600073ffffffffffffffffffffffffffffffffffffffff168273ffffffffffffffffffffffffffffffffffffffff1614158190612146576040517f08c379a000000000000000000000000000000000000000000000000000000000815260040161213d9190613e1a565b60405180910390fd5b507fa49807205ce4d355092ef5a8a18f56e8913cf4a201fbe287825b095693c217756121718161268e565b61217961270a565b61218385856131e5565b6121ad7fbc89434ca2514fee8e4f1c01e12ea3f98386861885da7e20823bb874ad54a49d876126a2565b8573ffffffffffffffffffffffffffffffffffffffff167f3f529d264d8e06eb7e49eba4cbb9f873004164a7e2912722c44a493b9d11d111856040516121f39190613fff565b60405180910390a2505050505050565b7fe1dcbdb91df27212a29bc27177c840cf2f819ecf2187432e1fac86c2dd5dfca981565b61223082610906565b6122398161268e565b61224383836126d6565b505050565b600060ca60008473ffffffffffffffffffffffffffffffffffffffff1673ffffffffffffffffffffffffffffffffffffffff16815260200190815260200160002060008373ffffffffffffffffffffffffffffffffffffffff1673ffffffffffffffffffffffffffffffffffffffff16815260200190815260200160002054905092915050565b80604051806060016040528060228152602001615a3460229139600073ffffffffffffffffffffffffffffffffffffffff168273ffffffffffffffffffffffffffffffffffffffff161415819061235c576040517f08c379a00000000000000000000000000000000000000000000000000000000081526004016123539190613e1a565b60405180910390fd5b507fa49807205ce4d355092ef5a8a18f56e8913cf4a201fbe287825b095693c217756123878161268e565b61238f61270a565b6123b97f699ac1e5cfdbc8c928b2c79f6b19694117e156140dadd5181e71e79b5e80b320856126a2565b8373ffffffffffffffffffffffffffffffffffffffff167f30dcfef07a52bb9c35eb0d03af05a579a69fbff969aa12c97277fb8d78832cf960405160405180910390a250505050565b7fa49807205ce4d355092ef5a8a18f56e8913cf4a201fbe287825b095693c2177561242c8161268e565b61243461270a565b61243e8383613307565b505050565b60007f7965db0b000000000000000000000000000000000000000000000000000000007bffffffffffffffffffffffffffffffffffffffffffffffffffffffff1916827bffffffffffffffffffffffffffffffffffffffffffffffffffffffff191614806124b657506124b5826134eb565b5b9050919050565b600033905090565b600073ffffffffffffffffffffffffffffffffffffffff168373ffffffffffffffffffffffffffffffffffffffff1603612534576040517f08c379a000000000000000000000000000000000000000000000000000000000815260040161252b90614c8c565b60405180910390fd5b600073ffffffffffffffffffffffffffffffffffffffff168273ffffffffffffffffffffffffffffffffffffffff16036125a3576040517f08c379a000000000000000000000000000000000000000000000000000000000815260040161259a90614d1e565b60405180910390fd5b8060ca60008573ffffffffffffffffffffffffffffffffffffffff1673ffffffffffffffffffffffffffffffffffffffff16815260200190815260200160002060008473ffffffffffffffffffffffffffffffffffffffff1673ffffffffffffffffffffffffffffffffffffffff168152602001908152602001600020819055508173ffffffffffffffffffffffffffffffffffffffff168373ffffffffffffffffffffffffffffffffffffffff167f8c5be1e5ebec7d5bd14f71427d1e84f3dd0314c0f7b2291e5b200ac8c7c3b925836040516126819190613f1f565b60405180910390a3505050565b61269f8161269a6124bd565b613555565b50565b6126ac82826135da565b6126d181609760008581526020019081526020016000206136bb90919063ffffffff16565b505050565b6126e082826136eb565b61270581609760008581526020019081526020016000206137cd90919063ffffffff16565b505050565b612712611607565b15612752576040517f08c379a000000000000000000000000000000000000000000000000000000000815260040161274990614d8a565b60405180910390fd5b565b6002610191540361279a576040517f08c379a000000000000000000000000000000000000000000000000000000000815260040161279190614df6565b60405180910390fd5b600261019181905550565b7fe1dcbdb91df27212a29bc27177c840cf2f819ecf2187432e1fac86c2dd5dfca981141580156127f557507fa49807205ce4d355092ef5a8a18f56e8913cf4a201fbe287825b095693c217758114155b612834576040517f08c379a000000000000000000000000000000000000000000000000000000000815260040161282b90614e62565b60405180910390fd5b612845816128406124bd565b611be0565b612884576040517f08c379a000000000000000000000000000000000000000000000000000000000815260040161287b90614ad3565b60405180910390fd5b60006128966128916124bd565b611643565b116128d6576040517f08c379a00000000000000000000000000000000000000000000000000000000081526004016128cd90614ef4565b60405180910390fd5b50565b600073ffffffffffffffffffffffffffffffffffffffff168373ffffffffffffffffffffffffffffffffffffffff1603612948576040517f08c379a000000000000000000000000000000000000000000000000000000000815260040161293f90614f86565b60405180910390fd5b600073ffffffffffffffffffffffffffffffffffffffff168273ffffffffffffffffffffffffffffffffffffffff16036129b7576040517f08c379a00000000000000000000000000000000000000000000000000000000081526004016129ae90615018565b60405180910390fd5b6129c28383836137fd565b600060c960008573ffffffffffffffffffffffffffffffffffffffff1673ffffffffffffffffffffffffffffffffffffffff16815260200190815260200160002054905081811015612a49576040517f08c379a0000000000000000000000000000000000000000000000000000000008152600401612a40906150aa565b60405180910390fd5b81810360c960008673ffffffffffffffffffffffffffffffffffffffff1673ffffffffffffffffffffffffffffffffffffffff168152602001908152602001600020819055508160c960008573ffffffffffffffffffffffffffffffffffffffff1673ffffffffffffffffffffffffffffffffffffffff168152602001908152602001600020600082825401925050819055508273ffffffffffffffffffffffffffffffffffffffff168473ffffffffffffffffffffffffffffffffffffffff167fddf252ad1be2c89b69c2b068fc378daa952ba7f163c4a11628f55a4df523b3ef84604051612b399190613f1f565b60405180910390a3612b4c84848461380d565b50505050565b600161019181905550565b600073ffffffffffffffffffffffffffffffffffffffff168273ffffffffffffffffffffffffffffffffffffffff1603612bcc576040517f08c379a0000000000000000000000000000000000000000000000000000000008152600401612bc39061513c565b60405180910390fd5b612bd8826000836137fd565b600060c960008473ffffffffffffffffffffffffffffffffffffffff1673ffffffffffffffffffffffffffffffffffffffff16815260200190815260200160002054905081811015612c5f576040517f08c379a0000000000000000000000000000000000000000000000000000000008152600401612c56906151ce565b60405180910390fd5b81810360c960008573ffffffffffffffffffffffffffffffffffffffff1673ffffffffffffffffffffffffffffffffffffffff168152602001908152602001600020819055508160cb60008282540392505081905550600073ffffffffffffffffffffffffffffffffffffffff168373ffffffffffffffffffffffffffffffffffffffff167fddf252ad1be2c89b69c2b068fc378daa952ba7f163c4a11628f55a4df523b3ef84604051612d139190613f1f565b60405180910390a3612d278360008461380d565b505050565b6000808273ffffffffffffffffffffffffffffffffffffffff163b119050919050565b600060019054906101000a900460ff16612d9e576040517f08c379a0000000000000000000000000000000000000000000000000000000008152600401612d9590615260565b60405180910390fd5b565b600060019054906101000a900460ff16612def576040517f08c379a0000000000000000000000000000000000000000000000000000000008152600401612de690615260565b60405180910390fd5b565b600060019054906101000a900460ff16612e40576040517f08c379a0000000000000000000000000000000000000000000000000000000008152600401612e3790615260565b60405180910390fd5b600161019181905550565b600060019054906101000a900460ff16612e9a576040517f08c379a0000000000000000000000000000000000000000000000000000000008152600401612e9190615260565b60405180910390fd5b8160cc9081612ea99190615422565b508060cd9081612eb99190615422565b505050565b600060019054906101000a900460ff16612f0d576040517f08c379a0000000000000000000000000000000000000000000000000000000008152600401612f0490615260565b60405180910390fd5b565b600060019054906101000a900460ff16612f5e576040517f08c379a0000000000000000000000000000000000000000000000000000000008152600401612f5590615260565b60405180910390fd5b565b6000612f6f8360000183613812565b905092915050565b6000612f8283610906565b90508160656000858152602001908152602001600020600101819055508181847fbd79b86ffe0ab8e8776151514217cd7cacd52c909f66475c3af44e129f0b00ff60405160405180910390a4505050565b6000612fdf8484612248565b90507fffffffffffffffffffffffffffffffffffffffffffffffffffffffffffffffff8114613059578181101561304b576040517f08c379a000000000000000000000000000000000000000000000000000000000815260040161304290615540565b60405180910390fd5b61305884848484036124c5565b5b50505050565b600061306d82600001613882565b9050919050565b600073ffffffffffffffffffffffffffffffffffffffff168273ffffffffffffffffffffffffffffffffffffffff16036130e3576040517f08c379a00000000000000000000000000000000000000000000000000000000081526004016130da906155ac565b60405180910390fd5b6130ef600083836137fd565b8060cb6000828254613101919061467e565b925050819055508060c960008473ffffffffffffffffffffffffffffffffffffffff1673ffffffffffffffffffffffffffffffffffffffff168152602001908152602001600020600082825401925050819055508173ffffffffffffffffffffffffffffffffffffffff16600073ffffffffffffffffffffffffffffffffffffffff167fddf252ad1be2c89b69c2b068fc378daa952ba7f163c4a11628f55a4df523b3ef836040516131b39190613f1f565b60405180910390a36131c76000838361380d565b5050565b60006131da8360000183613893565b60001c905092915050565b7fa49807205ce4d355092ef5a8a18f56e8913cf4a201fbe287825b095693c2177561320f8161268e565b6101c360009054906101000a900473ffffffffffffffffffffffffffffffffffffffff1673ffffffffffffffffffffffffffffffffffffffff16634407220684846040518363ffffffff1660e01b815260040161326d9291906155cc565b602060405180830381865afa15801561328a573d6000803e3d6000fd5b505050506040513d601f19601f820116820180604052508101906132ae9190615621565b6132ed576040517f08c379a00000000000000000000000000000000000000000000000000000000081526004016132e4906156c0565b60405180910390fd5b505050565b600061330082600001613882565b9050919050565b7fa49807205ce4d355092ef5a8a18f56e8913cf4a201fbe287825b095693c217756133318161268e565b827fbc89434ca2514fee8e4f1c01e12ea3f98386861885da7e20823bb874ad54a49d81148061337f57507fe4bd89038d9c0807976fffd21940a131656c4bbb6d2ed823353b579168c0d4ef81145b806133a957507f699ac1e5cfdbc8c928b2c79f6b19694117e156140dadd5181e71e79b5e80b32081145b6133e8576040517f08c379a00000000000000000000000000000000000000000000000000000000081526004016133df9061462f565b60405180910390fd5b6133f061270a565b60005b83518160ff1610156134e457600073ffffffffffffffffffffffffffffffffffffffff16848260ff168151811061342d5761342c6156e0565b5b602002602001015173ffffffffffffffffffffffffffffffffffffffff16036134aa57838160ff1681518110613466576134656156e0565b5b60200260200101516040517f8e4c8aa60000000000000000000000000000000000000000000000000000000081526004016134a1919061417a565b60405180910390fd5b6134d185858360ff16815181106134c4576134c36156e0565b5b60200260200101516126a2565b80806134dc9061570f565b9150506133f3565b5050505050565b60007f01ffc9a7000000000000000000000000000000000000000000000000000000007bffffffffffffffffffffffffffffffffffffffffffffffffffffffff1916827bffffffffffffffffffffffffffffffffffffffffffffffffffffffff1916149050919050565b61355f8282611be0565b6135d65761356c816138be565b61357a8360001c60206138eb565b60405160200161358b92919061580c565b6040516020818303038152906040526040517f08c379a00000000000000000000000000000000000000000000000000000000081526004016135cd9190613e1a565b60405180910390fd5b5050565b6135e48282611be0565b6136b75760016065600084815260200190815260200160002060000160008373ffffffffffffffffffffffffffffffffffffffff1673ffffffffffffffffffffffffffffffffffffffff16815260200190815260200160002060006101000a81548160ff02191690831515021790555061365c6124bd565b73ffffffffffffffffffffffffffffffffffffffff168173ffffffffffffffffffffffffffffffffffffffff16837f2f8788117e7eff1d82e926ec794901d17c78024a50270940304540a733656f0d60405160405180910390a45b5050565b60006136e3836000018373ffffffffffffffffffffffffffffffffffffffff1660001b613812565b905092915050565b6136f58282611be0565b156137c95760006065600084815260200190815260200160002060000160008373ffffffffffffffffffffffffffffffffffffffff1673ffffffffffffffffffffffffffffffffffffffff16815260200190815260200160002060006101000a81548160ff02191690831515021790555061376e6124bd565b73ffffffffffffffffffffffffffffffffffffffff168173ffffffffffffffffffffffffffffffffffffffff16837ff6391f5c32d9c69d2a47ea670b442974b53935d1edc7fd64eb21e047a839171b60405160405180910390a45b5050565b60006137f5836000018373ffffffffffffffffffffffffffffffffffffffff1660001b613b27565b905092915050565b613808838383613c3b565b505050565b505050565b600061381e8383613c93565b61387757826000018290806001815401808255809150506001900390600052602060002001600090919091909150558260000180549050836001016000848152602001908152602001600020819055506001905061387c565b600090505b92915050565b600081600001805490509050919050565b60008260000182815481106138ab576138aa6156e0565b5b9060005260206000200154905092915050565b60606138e48273ffffffffffffffffffffffffffffffffffffffff16601460ff166138eb565b9050919050565b6060600060028360026138fe9190615846565b613908919061467e565b67ffffffffffffffff811115613921576139206142c0565b5b6040519080825280601f01601f1916602001820160405280156139535781602001600182028036833780820191505090505b5090507f30000000000000000000000000000000000000000000000000000000000000008160008151811061398b5761398a6156e0565b5b60200101907effffffffffffffffffffffffffffffffffffffffffffffffffffffffffffff1916908160001a9053507f7800000000000000000000000000000000000000000000000000000000000000816001815181106139ef576139ee6156e0565b5b60200101907effffffffffffffffffffffffffffffffffffffffffffffffffffffffffffff1916908160001a90535060006001846002613a2f9190615846565b613a39919061467e565b90505b6001811115613ad9577f3031323334353637383961626364656600000000000000000000000000000000600f861660108110613a7b57613a7a6156e0565b5b1a60f81b828281518110613a9257613a916156e0565b5b60200101907effffffffffffffffffffffffffffffffffffffffffffffffffffffffffffff1916908160001a905350600485901c945080613ad290615888565b9050613a3c565b5060008414613b1d576040517f08c379a0000000000000000000000000000000000000000000000000000000008152600401613b14906158fd565b60405180910390fd5b8091505092915050565b60008083600101600084815260200190815260200160002054905060008114613c2f576000600182613b59919061591d565b9050600060018660000180549050613b71919061591d565b9050818114613be0576000866000018281548110613b9257613b916156e0565b5b9060005260206000200154905080876000018481548110613bb657613bb56156e0565b5b90600052602060002001819055508387600101600083815260200190815260200160002081905550505b85600001805480613bf457613bf3615951565b5b600190038181906000526020600020016000905590558560010160008681526020019081526020016000206000905560019350505050613c35565b60009150505b92915050565b613c46838383613cb6565b613c4e611607565b15613c8e576040517f08c379a0000000000000000000000000000000000000000000000000000000008152600401613c85906159f2565b60405180910390fd5b505050565b600080836001016000848152602001908152602001600020541415905092915050565b505050565b6000604051905090565b600080fd5b600080fd5b60007fffffffff0000000000000000000000000000000000000000000000000000000082169050919050565b613d0481613ccf565b8114613d0f57600080fd5b50565b600081359050613d2181613cfb565b92915050565b600060208284031215613d3d57613d3c613cc5565b5b6000613d4b84828501613d12565b91505092915050565b60008115159050919050565b613d6981613d54565b82525050565b6000602082019050613d846000830184613d60565b92915050565b600081519050919050565b600082825260208201905092915050565b60005b83811015613dc4578082015181840152602081019050613da9565b60008484015250505050565b6000601f19601f8301169050919050565b6000613dec82613d8a565b613df68185613d95565b9350613e06818560208601613da6565b613e0f81613dd0565b840191505092915050565b60006020820190508181036000830152613e348184613de1565b905092915050565b600073ffffffffffffffffffffffffffffffffffffffff82169050919050565b6000613e6782613e3c565b9050919050565b613e7781613e5c565b8114613e8257600080fd5b50565b600081359050613e9481613e6e565b92915050565b6000819050919050565b613ead81613e9a565b8114613eb857600080fd5b50565b600081359050613eca81613ea4565b92915050565b60008060408385031215613ee757613ee6613cc5565b5b6000613ef585828601613e85565b9250506020613f0685828601613ebb565b9150509250929050565b613f1981613e9a565b82525050565b6000602082019050613f346000830184613f10565b92915050565b600080600060608486031215613f5357613f52613cc5565b5b6000613f6186828701613e85565b9350506020613f7286828701613e85565b9250506040613f8386828701613ebb565b9150509250925092565b6000819050919050565b613fa081613f8d565b8114613fab57600080fd5b50565b600081359050613fbd81613f97565b92915050565b600060208284031215613fd957613fd8613cc5565b5b6000613fe784828501613fae565b91505092915050565b613ff981613f8d565b82525050565b60006020820190506140146000830184613ff0565b92915050565b6000806040838503121561403157614030613cc5565b5b600061403f85828601613fae565b925050602061405085828601613e85565b9150509250929050565b600060ff82169050919050565b6140708161405a565b82525050565b600060208201905061408b6000830184614067565b92915050565b600080604083850312156140a8576140a7613cc5565b5b60006140b685828601613ebb565b92505060206140c785828601613fae565b9150509250929050565b6000602082840312156140e7576140e6613cc5565b5b60006140f584828501613ebb565b91505092915050565b6000806040838503121561411557614114613cc5565b5b600061412385828601613e85565b925050602061413485828601613e85565b9150509250929050565b60006020828403121561415457614153613cc5565b5b600061416284828501613e85565b91505092915050565b61417481613e5c565b82525050565b600060208201905061418f600083018461416b565b92915050565b6000806000606084860312156141ae576141ad613cc5565b5b60006141bc86828701613e85565b93505060206141cd86828701613fae565b92505060406141de86828701613ebb565b9150509250925092565b600080604083850312156141ff576141fe613cc5565b5b600061420d85828601613fae565b925050602061421e85828601613ebb565b9150509250929050565b6000806040838503121561423f5761423e613cc5565b5b600061424d85828601613ebb565b925050602061425e85828601613ebb565b9150509250929050565b60008060006060848603121561428157614280613cc5565b5b600061428f86828701613e85565b93505060206142a086828701613ebb565b92505060406142b186828701613fae565b9150509250925092565b600080fd5b7f4e487b7100000000000000000000000000000000000000000000000000000000600052604160045260246000fd5b6142f882613dd0565b810181811067ffffffffffffffff82111715614317576143166142c0565b5b80604052505050565b600061432a613cbb565b905061433682826142ef565b919050565b600067ffffffffffffffff821115614356576143556142c0565b5b602082029050602081019050919050565b600080fd5b600061437f61437a8461433b565b614320565b905080838252602082019050602084028301858111156143a2576143a1614367565b5b835b818110156143cb57806143b78882613e85565b8452602084019350506020810190506143a4565b5050509392505050565b600082601f8301126143ea576143e96142bb565b5b81356143fa84826020860161436c565b91505092915050565b6000806040838503121561441a57614419613cc5565b5b600061442885828601613fae565b925050602083013567ffffffffffffffff81111561444957614448613cca565b5b614455858286016143d5565b9150509250929050565b7f4e487b7100000000000000000000000000000000000000000000000000000000600052602260045260246000fd5b600060028204905060018216806144a657607f821691505b6020821081036144b9576144b861445f565b5b50919050565b7f52455349546f6b656e3a204e4f205452414e534645522046524f4d20414c4c4f60008201527f5745440000000000000000000000000000000000000000000000000000000000602082015250565b600061451b602383613d95565b9150614526826144bf565b604082019050919050565b6000602082019050818103600083015261454a8161450e565b9050919050565b7f416363657373436f6e74726f6c3a2063616e206f6e6c792072656e6f756e636560008201527f20726f6c657320666f722073656c660000000000000000000000000000000000602082015250565b60006145ad602f83613d95565b91506145b882614551565b604082019050919050565b600060208201905081810360008301526145dc816145a0565b9050919050565b7f52657369546f6b656e3a20494e56414c494420524f4c45000000000000000000600082015250565b6000614619601783613d95565b9150614624826145e3565b602082019050919050565b600060208201905081810360008301526146488161460c565b9050919050565b7f4e487b7100000000000000000000000000000000000000000000000000000000600052601160045260246000fd5b600061468982613e9a565b915061469483613e9a565b92508282019050808211156146ac576146ab61464f565b5b92915050565b6000815190506146c181613e6e565b92915050565b6000602082840312156146dd576146dc613cc5565b5b60006146eb848285016146b2565b91505092915050565b7f52657369546f6b656e3a204e4f20534254205345524945205345540000000000600082015250565b600061472a601b83613d95565b9150614735826146f4565b602082019050919050565b600060208201905081810360008301526147598161471d565b9050919050565b60008151905061476f81613ea4565b92915050565b60006020828403121561478b5761478a613cc5565b5b600061479984828501614760565b91505092915050565b7f52657369546f6b656e3a205553455220484153204e4f20534254000000000000600082015250565b60006147d8601a83613d95565b91506147e3826147a2565b602082019050919050565b60006020820190508181036000830152614807816147cb565b9050919050565b60006060820190506148236000830186613f10565b6148306020830185613f10565b61483d604083018461416b565b949350505050565b600060408201905061485a600083018561416b565b6148676020830184613f10565b9392505050565b60006040820190506148836000830185613f10565b6148906020830184613f10565b9392505050565b7f496e697469616c697a61626c653a20636f6e747261637420697320616c72656160008201527f647920696e697469616c697a6564000000000000000000000000000000000000602082015250565b60006148f3602e83613d95565b91506148fe82614897565b604082019050919050565b60006020820190508181036000830152614922816148e6565b9050919050565b7f494e56414c494420545245415355525920414444524553530000000000000000600082015250565b600061495f601883613d95565b915061496a82614929565b602082019050919050565b6000602082019050818103600083015261498e81614952565b9050919050565b7f494e56414c494420524547495354525920414444524553530000000000000000600082015250565b60006149cb601883613d95565b91506149d682614995565b602082019050919050565b600060208201905081810360008301526149fa816149be565b9050919050565b6000819050919050565b6000819050919050565b6000614a30614a2b614a2684614a01565b614a0b565b61405a565b9050919050565b614a4081614a15565b82525050565b6000602082019050614a5b6000830184614a37565b92915050565b7f52657369546f6b656e3a204143434f554e5420484153204e4f542056414c494460008201527f20524f4c45000000000000000000000000000000000000000000000000000000602082015250565b6000614abd602583613d95565b9150614ac882614a61565b604082019050919050565b60006020820190508181036000830152614aec81614ab0565b9050919050565b6000604082019050614b08600083018561416b565b614b156020830184613ff0565b9392505050565b7f45524332303a2064656372656173656420616c6c6f77616e63652062656c6f7760008201527f207a65726f000000000000000000000000000000000000000000000000000000602082015250565b6000614b78602583613d95565b9150614b8382614b1c565b604082019050919050565b60006020820190508181036000830152614ba781614b6b565b9050919050565b7f52455349546f6b656e3a204e4f205452414e5346455220414c4c4f5745440000600082015250565b6000614be4601e83613d95565b9150614bef82614bae565b602082019050919050565b60006020820190508181036000830152614c1381614bd7565b9050919050565b7f45524332303a20617070726f76652066726f6d20746865207a65726f2061646460008201527f7265737300000000000000000000000000000000000000000000000000000000602082015250565b6000614c76602483613d95565b9150614c8182614c1a565b604082019050919050565b60006020820190508181036000830152614ca581614c69565b9050919050565b7f45524332303a20617070726f766520746f20746865207a65726f20616464726560008201527f7373000000000000000000000000000000000000000000000000000000000000602082015250565b6000614d08602283613d95565b9150614d1382614cac565b604082019050919050565b60006020820190508181036000830152614d3781614cfb565b9050919050565b7f5061757361626c653a2070617573656400000000000000000000000000000000600082015250565b6000614d74601083613d95565b9150614d7f82614d3e565b602082019050919050565b60006020820190508181036000830152614da381614d67565b9050919050565b7f5265656e7472616e637947756172643a207265656e7472616e742063616c6c00600082015250565b6000614de0601f83613d95565b9150614deb82614daa565b602082019050919050565b60006020820190508181036000830152614e0f81614dd3565b9050919050565b7f52657369546f6b656e3a20494e56414c494420414354494f4e00000000000000600082015250565b6000614e4c601983613d95565b9150614e5782614e16565b602082019050919050565b60006020820190508181036000830152614e7b81614e3f565b9050919050565b7f52657369546f6b656e3a205573657220484153204e4f2046554e445320544f2060008201527f4558495400000000000000000000000000000000000000000000000000000000602082015250565b6000614ede602483613d95565b9150614ee982614e82565b604082019050919050565b60006020820190508181036000830152614f0d81614ed1565b9050919050565b7f45524332303a207472616e736665722066726f6d20746865207a65726f20616460008201527f6472657373000000000000000000000000000000000000000000000000000000602082015250565b6000614f70602583613d95565b9150614f7b82614f14565b604082019050919050565b60006020820190508181036000830152614f9f81614f63565b9050919050565b7f45524332303a207472616e7366657220746f20746865207a65726f206164647260008201527f6573730000000000000000000000000000000000000000000000000000000000602082015250565b6000615002602383613d95565b915061500d82614fa6565b604082019050919050565b6000602082019050818103600083015261503181614ff5565b9050919050565b7f45524332303a207472616e7366657220616d6f756e742065786365656473206260008201527f616c616e63650000000000000000000000000000000000000000000000000000602082015250565b6000615094602683613d95565b915061509f82615038565b604082019050919050565b600060208201905081810360008301526150c381615087565b9050919050565b7f45524332303a206275726e2066726f6d20746865207a65726f2061646472657360008201527f7300000000000000000000000000000000000000000000000000000000000000602082015250565b6000615126602183613d95565b9150615131826150ca565b604082019050919050565b6000602082019050818103600083015261515581615119565b9050919050565b7f45524332303a206275726e20616d6f756e7420657863656564732062616c616e60008201527f6365000000000000000000000000000000000000000000000000000000000000602082015250565b60006151b8602283613d95565b91506151c38261515c565b604082019050919050565b600060208201905081810360008301526151e7816151ab565b9050919050565b7f496e697469616c697a61626c653a20636f6e7472616374206973206e6f74206960008201527f6e697469616c697a696e67000000000000000000000000000000000000000000602082015250565b600061524a602b83613d95565b9150615255826151ee565b604082019050919050565b600060208201905081810360008301526152798161523d565b9050919050565b60008190508160005260206000209050919050565b60006020601f8301049050919050565b600082821b905092915050565b6000600883026152e27fffffffffffffffffffffffffffffffffffffffffffffffffffffffffffffffff826152a5565b6152ec86836152a5565b95508019841693508086168417925050509392505050565b600061531f61531a61531584613e9a565b614a0b565b613e9a565b9050919050565b6000819050919050565b61533983615304565b61534d61534582615326565b8484546152b2565b825550505050565b600090565b615362615355565b61536d818484615330565b505050565b5b818110156153915761538660008261535a565b600181019050615373565b5050565b601f8211156153d6576153a781615280565b6153b084615295565b810160208510156153bf578190505b6153d36153cb85615295565b830182615372565b50505b505050565b600082821c905092915050565b60006153f9600019846008026153db565b1980831691505092915050565b600061541283836153e8565b9150826002028217905092915050565b61542b82613d8a565b67ffffffffffffffff811115615444576154436142c0565b5b61544e825461448e565b615459828285615395565b600060209050601f83116001811461548c576000841561547a578287015190505b6154848582615406565b8655506154ec565b601f19841661549a86615280565b60005b828110156154c25784890151825560018201915060208501945060208101905061549d565b868310156154df57848901516154db601f8916826153e8565b8355505b6001600288020188555050505b505050505050565b7f45524332303a20696e73756666696369656e7420616c6c6f77616e6365000000600082015250565b600061552a601d83613d95565b9150615535826154f4565b602082019050919050565b600060208201905081810360008301526155598161551d565b9050919050565b7f45524332303a206d696e7420746f20746865207a65726f206164647265737300600082015250565b6000615596601f83613d95565b91506155a182615560565b602082019050919050565b600060208201905081810360008301526155c581615589565b9050919050565b60006040820190506155e16000830185613f10565b6155ee6020830184613ff0565b9392505050565b6155fe81613d54565b811461560957600080fd5b50565b60008151905061561b816155f5565b92915050565b60006020828403121561563757615636613cc5565b5b60006156458482850161560c565b91505092915050565b7f52657369546f6b656e3a20494e56414c4944204f5220494e414354495645205360008201527f45524945204f522050524f4a4543540000000000000000000000000000000000602082015250565b60006156aa602f83613d95565b91506156b58261564e565b604082019050919050565b600060208201905081810360008301526156d98161569d565b9050919050565b7f4e487b7100000000000000000000000000000000000000000000000000000000600052603260045260246000fd5b600061571a8261405a565b915060ff820361572d5761572c61464f565b5b600182019050919050565b600081905092915050565b7f416363657373436f6e74726f6c3a206163636f756e7420000000000000000000600082015250565b6000615779601783615738565b915061578482615743565b601782019050919050565b600061579a82613d8a565b6157a48185615738565b93506157b4818560208601613da6565b80840191505092915050565b7f206973206d697373696e6720726f6c6520000000000000000000000000000000600082015250565b60006157f6601183615738565b9150615801826157c0565b601182019050919050565b60006158178261576c565b9150615823828561578f565b915061582e826157e9565b915061583a828461578f565b91508190509392505050565b600061585182613e9a565b915061585c83613e9a565b925082820261586a81613e9a565b915082820484148315176158815761588061464f565b5b5092915050565b600061589382613e9a565b9150600082036158a6576158a561464f565b5b600182039050919050565b7f537472696e67733a20686578206c656e67746820696e73756666696369656e74600082015250565b60006158e7602083613d95565b91506158f2826158b1565b602082019050919050565b60006020820190508181036000830152615916816158da565b9050919050565b600061592882613e9a565b915061593383613e9a565b925082820390508181111561594b5761594a61464f565b5b92915050565b7f4e487b7100000000000000000000000000000000000000000000000000000000600052603160045260246000fd5b7f45524332305061757361626c653a20746f6b656e207472616e7366657220776860008201527f696c652070617573656400000000000000000000000000000000000000000000602082015250565b60006159dc602a83613d95565b91506159e782615980565b604082019050919050565b60006020820190508181036000830152615a0b816159cf565b905091905056fe52657369546f6b656e3a20494e56414c4944204d454e544f52204144445245535352657369546f6b656e3a20494e56414c4944204255494c4445522041444452455353a2646970667358221220ae46fb45ecd8c0446304a37e85a70579972c5c5926a5ed49af1b6b5a88ee562064736f6c63430008120033",
  "devdoc": {
    "author": "Alejo Lovallo",
    "events": {
      "Approval(address,address,uint256)": {
        "details": "Emitted when the allowance of a `spender` for an `owner` is set by a call to {approve}. `value` is the new allowance."
      },
      "Initialized(uint8)": {
        "details": "Triggered when the contract has been initialized or reinitialized."
      },
      "Paused(address)": {
        "details": "Emitted when the pause is triggered by `account`."
      },
      "RoleAdminChanged(bytes32,bytes32,bytes32)": {
        "details": "Emitted when `newAdminRole` is set as ``role``'s admin role, replacing `previousAdminRole` `DEFAULT_ADMIN_ROLE` is the starting admin for all roles, despite {RoleAdminChanged} not being emitted signaling this. _Available since v3.1._"
      },
      "RoleGranted(bytes32,address,address)": {
        "details": "Emitted when `account` is granted `role`. `sender` is the account that originated the contract call, an admin role bearer except when using {AccessControl-_setupRole}."
      },
      "RoleRevoked(bytes32,address,address)": {
        "details": "Emitted when `account` is revoked `role`. `sender` is the account that originated the contract call:   - if using `revokeRole`, it is the admin role bearer   - if using `renounceRole`, it is the role bearer (i.e. `account`)"
      },
      "Transfer(address,address,uint256)": {
        "details": "Emitted when `value` tokens are moved from one account (`from`) to another (`to`). Note that `value` may be zero."
      },
      "Unpaused(address)": {
        "details": "Emitted when the pause is lifted by `account`."
      }
    },
    "kind": "dev",
    "methods": {
      "addMentor(address,uint256,bytes32)": {
        "details": "assign MENTOR ROLE to user for specific project",
        "params": {
          "_mentor": "user address",
          "_project": "project name",
          "_serieId": "serie id"
        }
      },
      "addProjectBuilder(address,uint256,bytes32)": {
        "details": "assign PROJECT BUILDER role to a user for specific project",
        "params": {
          "_builder": "user address",
          "_project": "project name",
          "_serieId": "serie id"
        }
      },
      "addResiBuilder(address)": {
        "details": "assign RESI BUILDER role to user",
        "params": {
          "_builder": "user address"
        }
      },
      "addRolesBatch(bytes32,address[])": {
        "details": "assign specific role to more than one user",
        "params": {
          "_addresses": "users array",
          "_role": "role to assign"
        }
      },
      "allowance(address,address)": {
        "details": "See {IERC20-allowance}."
      },
      "approve(address,uint256)": {
        "details": "See {IERC20-approve}. NOTE: If `amount` is the maximum `uint256`, the allowance is not updated on `transferFrom`. This is semantically equivalent to an infinite approval. Requirements: - `spender` cannot be the zero address."
      },
      "award(address,bytes32,uint256)": {
        "details": "Award user with ResiTokens",
        "params": {
          "_account": "user to award",
          "_amount": "amount to award",
          "_role": "user role"
        }
      },
      "balanceOf(address)": {
        "details": "See {IERC20-balanceOf}."
      },
      "burn(uint256)": {
        "details": "Destroys `amount` tokens from the caller. See {ERC20-_burn}."
      },
      "burn(uint256,uint256)": {
        "details": "burn Resi Token",
        "params": {
          "_amount": "amount to burn"
        }
      },
      "burnFrom(address,uint256)": {
        "details": "Destroys `amount` tokens from `account`, deducting from the caller's allowance. See {ERC20-_burn} and {ERC20-allowance}. Requirements: - the caller must have allowance for ``accounts``'s tokens of at least `amount`."
      },
      "decimals()": {
        "details": "Returns the number of decimals used to get its user representation. For example, if `decimals` equals `2`, a balance of `505` tokens should be displayed to a user as `5.05` (`505 / 10 ** 2`). Tokens usually opt for a value of 18, imitating the relationship between Ether and Wei. This is the value {ERC20} uses, unless this function is overridden; NOTE: This information is only used for _display_ purposes: it in no way affects any of the arithmetic of the contract, including {IERC20-balanceOf} and {IERC20-transfer}."
      },
      "decreaseAllowance(address,uint256)": {
        "details": "Atomically decreases the allowance granted to `spender` by the caller. This is an alternative to {approve} that can be used as a mitigation for problems described in {IERC20-approve}. Emits an {Approval} event indicating the updated allowance. Requirements: - `spender` cannot be the zero address. - `spender` must have allowance for the caller of at least `subtractedValue`."
      },
      "exit(uint256,bytes32)": {
        "details": "Perform exit to receive serie funds",
        "params": {
          "_role": "user role",
          "_serieId": "serie id"
        }
      },
      "getRoleAdmin(bytes32)": {
        "details": "Returns the admin role that controls `role`. See {grantRole} and {revokeRole}. To change a role's admin, use {_setRoleAdmin}."
      },
      "getRoleCount()": {
        "details": "Get amount of roles",
        "returns": {
          "_0": "amount of roles"
        }
      },
      "getRoleMember(bytes32,uint256)": {
        "details": "Returns one of the accounts that have `role`. `index` must be a value between 0 and {getRoleMemberCount}, non-inclusive. Role bearers are not sorted in any particular way, and their ordering may change at any point. WARNING: When using {getRoleMember} and {getRoleMemberCount}, make sure you perform all queries on the same block. See the following https://forum.openzeppelin.com/t/iterating-over-elements-on-enumerableset-in-openzeppelin-contracts/2296[forum post] for more information."
      },
      "getRoleMemberCount(bytes32)": {
        "details": "Returns the number of accounts that have `role`. Can be used together with {getRoleMember} to enumerate all bearers of a role."
      },
      "grantRole(bytes32,address)": {
        "details": "Grants `role` to `account`. If `account` had not been already granted `role`, emits a {RoleGranted} event. Requirements: - the caller must have ``role``'s admin role. May emit a {RoleGranted} event."
      },
      "hasRole(bytes32,address)": {
        "details": "Returns `true` if `account` has been granted `role`."
      },
      "increaseAllowance(address,uint256)": {
        "details": "Atomically increases the allowance granted to `spender` by the caller. This is an alternative to {approve} that can be used as a mitigation for problems described in {IERC20-approve}. Emits an {Approval} event indicating the updated allowance. Requirements: - `spender` cannot be the zero address."
      },
      "name()": {
        "details": "Returns the name of the token."
      },
      "paused()": {
        "details": "Returns true if the contract is paused, and false otherwise."
      },
      "removeUserRole(bytes32,address)": {
        "details": "unassign role for user",
        "params": {
          "_role": "role",
          "_user": "user address to remove"
        }
      },
      "renounceRole(bytes32,address)": {
        "details": "Revokes `role` from the calling account. Roles are often managed via {grantRole} and {revokeRole}: this function's purpose is to provide a mechanism for accounts to lose their privileges if they are compromised (such as when a trusted device is misplaced). If the calling account had been revoked `role`, emits a {RoleRevoked} event. Requirements: - the caller must be `account`. May emit a {RoleRevoked} event."
      },
      "revokeRole(bytes32,address)": {
        "details": "Revokes `role` from `account`. If `account` had been granted `role`, emits a {RoleRevoked} event. Requirements: - the caller must have ``role``'s admin role. May emit a {RoleRevoked} event."
      },
      "supportsInterface(bytes4)": {
        "details": "See {IERC165-supportsInterface}."
      },
      "symbol()": {
        "details": "Returns the symbol of the token, usually a shorter version of the name."
      },
      "totalSupply()": {
        "details": "See {IERC20-totalSupply}."
      },
      "transfer(address,uint256)": {
        "details": "It is not allowed to transfer resi token"
      },
      "transferFrom(address,address,uint256)": {
        "details": "It is not allowed to transfer resi token"
      }
    },
    "stateVariables": {
      "ADMIN_ROLE": {
        "details": "ADMIN ROLE"
      },
      "MENTOR_ROLE": {
        "details": "MENTOR ROLE"
      },
      "PROJECT_BUILDER_ROLE": {
        "details": "PROJECT BUILDER ROLE"
      },
      "RESI_BUILDER_ROLE": {
        "details": "RESI BUILDER ROLE"
      },
      "RESI_REGISTRY": {
        "details": "Resi Registry contract"
      },
      "TREASURY_ROLE": {
        "details": "TREASURY ROLE"
      }
    },
    "title": "Resi Token Contract",
    "version": 1
  },
  "userdoc": {
    "kind": "user",
    "methods": {},
    "notice": "ERC20 Resi Token",
    "version": 1
  },
  "storageLayout": {
    "storage": [
      {
        "astId": 717,
        "contract": "contracts/ResiToken.sol:ResiToken",
        "label": "_initialized",
        "offset": 0,
        "slot": "0",
        "type": "t_uint8"
      },
      {
        "astId": 720,
        "contract": "contracts/ResiToken.sol:ResiToken",
        "label": "_initializing",
        "offset": 1,
        "slot": "0",
        "type": "t_bool"
      },
      {
        "astId": 3501,
        "contract": "contracts/ResiToken.sol:ResiToken",
        "label": "__gap",
        "offset": 0,
        "slot": "1",
        "type": "t_array(t_uint256)50_storage"
      },
      {
        "astId": 3720,
        "contract": "contracts/ResiToken.sol:ResiToken",
        "label": "__gap",
        "offset": 0,
        "slot": "51",
        "type": "t_array(t_uint256)50_storage"
      },
      {
        "astId": 184,
        "contract": "contracts/ResiToken.sol:ResiToken",
        "label": "_roles",
        "offset": 0,
        "slot": "101",
        "type": "t_mapping(t_bytes32,t_struct(RoleData)179_storage)"
      },
      {
        "astId": 479,
        "contract": "contracts/ResiToken.sol:ResiToken",
        "label": "__gap",
        "offset": 0,
        "slot": "102",
        "type": "t_array(t_uint256)49_storage"
      },
      {
        "astId": 33,
        "contract": "contracts/ResiToken.sol:ResiToken",
        "label": "_roleMembers",
        "offset": 0,
        "slot": "151",
        "type": "t_mapping(t_bytes32,t_struct(AddressSet)4924_storage)"
      },
      {
        "astId": 143,
        "contract": "contracts/ResiToken.sol:ResiToken",
        "label": "__gap",
        "offset": 0,
        "slot": "152",
        "type": "t_array(t_uint256)49_storage"
      },
      {
        "astId": 1098,
        "contract": "contracts/ResiToken.sol:ResiToken",
        "label": "_balances",
        "offset": 0,
        "slot": "201",
        "type": "t_mapping(t_address,t_uint256)"
      },
      {
        "astId": 1104,
        "contract": "contracts/ResiToken.sol:ResiToken",
        "label": "_allowances",
        "offset": 0,
        "slot": "202",
        "type": "t_mapping(t_address,t_mapping(t_address,t_uint256))"
      },
      {
        "astId": 1106,
        "contract": "contracts/ResiToken.sol:ResiToken",
        "label": "_totalSupply",
        "offset": 0,
        "slot": "203",
        "type": "t_uint256"
      },
      {
        "astId": 1108,
        "contract": "contracts/ResiToken.sol:ResiToken",
        "label": "_name",
        "offset": 0,
        "slot": "204",
        "type": "t_string_storage"
      },
      {
        "astId": 1110,
        "contract": "contracts/ResiToken.sol:ResiToken",
        "label": "_symbol",
        "offset": 0,
        "slot": "205",
        "type": "t_string_storage"
      },
      {
        "astId": 1690,
        "contract": "contracts/ResiToken.sol:ResiToken",
        "label": "__gap",
        "offset": 0,
        "slot": "206",
        "type": "t_array(t_uint256)45_storage"
      },
      {
        "astId": 1832,
        "contract": "contracts/ResiToken.sol:ResiToken",
        "label": "__gap",
        "offset": 0,
        "slot": "251",
        "type": "t_array(t_uint256)50_storage"
      },
      {
        "astId": 900,
        "contract": "contracts/ResiToken.sol:ResiToken",
        "label": "_paused",
        "offset": 0,
        "slot": "301",
        "type": "t_bool"
      },
      {
        "astId": 1005,
        "contract": "contracts/ResiToken.sol:ResiToken",
        "label": "__gap",
        "offset": 0,
        "slot": "302",
        "type": "t_array(t_uint256)49_storage"
      },
      {
        "astId": 1892,
        "contract": "contracts/ResiToken.sol:ResiToken",
        "label": "__gap",
        "offset": 0,
        "slot": "351",
        "type": "t_array(t_uint256)50_storage"
      },
      {
        "astId": 1020,
        "contract": "contracts/ResiToken.sol:ResiToken",
        "label": "_status",
        "offset": 0,
        "slot": "401",
        "type": "t_uint256"
      },
      {
        "astId": 1078,
        "contract": "contracts/ResiToken.sol:ResiToken",
        "label": "__gap",
        "offset": 0,
        "slot": "402",
        "type": "t_array(t_uint256)49_storage"
      },
      {
        "astId": 8396,
        "contract": "contracts/ResiToken.sol:ResiToken",
        "label": "RESI_REGISTRY",
        "offset": 0,
        "slot": "451",
        "type": "t_address"
      },
      {
        "astId": 8403,
        "contract": "contracts/ResiToken.sol:ResiToken",
        "label": "_rolesSet",
        "offset": 0,
        "slot": "452",
        "type": "t_struct(Bytes32Set)4803_storage"
      },
      {
        "astId": 9107,
        "contract": "contracts/ResiToken.sol:ResiToken",
        "label": "upgradeGap",
        "offset": 0,
        "slot": "454",
        "type": "t_array(t_uint256)20_storage"
      }
    ],
    "types": {
      "t_address": {
        "encoding": "inplace",
        "label": "address",
        "numberOfBytes": "20"
      },
      "t_array(t_bytes32)dyn_storage": {
        "base": "t_bytes32",
        "encoding": "dynamic_array",
        "label": "bytes32[]",
        "numberOfBytes": "32"
      },
      "t_array(t_uint256)20_storage": {
        "base": "t_uint256",
        "encoding": "inplace",
        "label": "uint256[20]",
        "numberOfBytes": "640"
      },
      "t_array(t_uint256)45_storage": {
        "base": "t_uint256",
        "encoding": "inplace",
        "label": "uint256[45]",
        "numberOfBytes": "1440"
      },
      "t_array(t_uint256)49_storage": {
        "base": "t_uint256",
        "encoding": "inplace",
        "label": "uint256[49]",
        "numberOfBytes": "1568"
      },
      "t_array(t_uint256)50_storage": {
        "base": "t_uint256",
        "encoding": "inplace",
        "label": "uint256[50]",
        "numberOfBytes": "1600"
      },
      "t_bool": {
        "encoding": "inplace",
        "label": "bool",
        "numberOfBytes": "1"
      },
      "t_bytes32": {
        "encoding": "inplace",
        "label": "bytes32",
        "numberOfBytes": "32"
      },
      "t_mapping(t_address,t_bool)": {
        "encoding": "mapping",
        "key": "t_address",
        "label": "mapping(address => bool)",
        "numberOfBytes": "32",
        "value": "t_bool"
      },
      "t_mapping(t_address,t_mapping(t_address,t_uint256))": {
        "encoding": "mapping",
        "key": "t_address",
        "label": "mapping(address => mapping(address => uint256))",
        "numberOfBytes": "32",
        "value": "t_mapping(t_address,t_uint256)"
      },
      "t_mapping(t_address,t_uint256)": {
        "encoding": "mapping",
        "key": "t_address",
        "label": "mapping(address => uint256)",
        "numberOfBytes": "32",
        "value": "t_uint256"
      },
      "t_mapping(t_bytes32,t_struct(AddressSet)4924_storage)": {
        "encoding": "mapping",
        "key": "t_bytes32",
        "label": "mapping(bytes32 => struct EnumerableSetUpgradeable.AddressSet)",
        "numberOfBytes": "32",
        "value": "t_struct(AddressSet)4924_storage"
      },
      "t_mapping(t_bytes32,t_struct(RoleData)179_storage)": {
        "encoding": "mapping",
        "key": "t_bytes32",
        "label": "mapping(bytes32 => struct AccessControlUpgradeable.RoleData)",
        "numberOfBytes": "32",
        "value": "t_struct(RoleData)179_storage"
      },
      "t_mapping(t_bytes32,t_uint256)": {
        "encoding": "mapping",
        "key": "t_bytes32",
        "label": "mapping(bytes32 => uint256)",
        "numberOfBytes": "32",
        "value": "t_uint256"
      },
      "t_string_storage": {
        "encoding": "bytes",
        "label": "string",
        "numberOfBytes": "32"
      },
      "t_struct(AddressSet)4924_storage": {
        "encoding": "inplace",
        "label": "struct EnumerableSetUpgradeable.AddressSet",
        "members": [
          {
            "astId": 4923,
            "contract": "contracts/ResiToken.sol:ResiToken",
            "label": "_inner",
            "offset": 0,
            "slot": "0",
            "type": "t_struct(Set)4609_storage"
          }
        ],
        "numberOfBytes": "64"
      },
      "t_struct(Bytes32Set)4803_storage": {
        "encoding": "inplace",
        "label": "struct EnumerableSetUpgradeable.Bytes32Set",
        "members": [
          {
            "astId": 4802,
            "contract": "contracts/ResiToken.sol:ResiToken",
            "label": "_inner",
            "offset": 0,
            "slot": "0",
            "type": "t_struct(Set)4609_storage"
          }
        ],
        "numberOfBytes": "64"
      },
      "t_struct(RoleData)179_storage": {
        "encoding": "inplace",
        "label": "struct AccessControlUpgradeable.RoleData",
        "members": [
          {
            "astId": 176,
            "contract": "contracts/ResiToken.sol:ResiToken",
            "label": "members",
            "offset": 0,
            "slot": "0",
            "type": "t_mapping(t_address,t_bool)"
          },
          {
            "astId": 178,
            "contract": "contracts/ResiToken.sol:ResiToken",
            "label": "adminRole",
            "offset": 0,
            "slot": "1",
            "type": "t_bytes32"
          }
        ],
        "numberOfBytes": "64"
      },
      "t_struct(Set)4609_storage": {
        "encoding": "inplace",
        "label": "struct EnumerableSetUpgradeable.Set",
        "members": [
          {
            "astId": 4604,
            "contract": "contracts/ResiToken.sol:ResiToken",
            "label": "_values",
            "offset": 0,
            "slot": "0",
            "type": "t_array(t_bytes32)dyn_storage"
          },
          {
            "astId": 4608,
            "contract": "contracts/ResiToken.sol:ResiToken",
            "label": "_indexes",
            "offset": 0,
            "slot": "1",
            "type": "t_mapping(t_bytes32,t_uint256)"
          }
        ],
        "numberOfBytes": "64"
      },
      "t_uint256": {
        "encoding": "inplace",
        "label": "uint256",
        "numberOfBytes": "32"
      },
      "t_uint8": {
        "encoding": "inplace",
        "label": "uint8",
        "numberOfBytes": "1"
      }
    }
  }
}